{
  "_format": "hh-sol-artifact-1",
  "contractName": "Loan",
  "sourceName": "contracts/Loan.sol",
  "abi": [
    {
      "inputs": [
        {
          "internalType": "address",
          "name": "_odonAddress",
          "type": "address"
        },
        {
          "internalType": "address",
          "name": "_usdcAddress",
          "type": "address"
        },
        {
          "internalType": "address",
          "name": "_usdtAddress",
          "type": "address"
        },
        {
          "internalType": "address",
          "name": "_btcAddress",
          "type": "address"
        }
      ],
      "stateMutability": "nonpayable",
      "type": "constructor"
    },
    {
      "anonymous": false,
      "inputs": [
        {
          "indexed": false,
          "internalType": "uint256",
          "name": "previousAPY",
          "type": "uint256"
        },
        {
          "indexed": false,
          "internalType": "uint256",
          "name": "newAPY",
          "type": "uint256"
        },
        {
          "indexed": false,
          "internalType": "uint256",
          "name": "mtype",
          "type": "uint256"
        }
      ],
      "name": "BorrowAPYUpdated",
      "type": "event"
    },
    {
      "anonymous": false,
      "inputs": [
        {
          "indexed": true,
          "internalType": "address",
          "name": "admin",
          "type": "address"
        },
        {
          "indexed": false,
          "internalType": "uint256",
          "name": "amount",
          "type": "uint256"
        },
        {
          "indexed": false,
          "internalType": "uint256",
          "name": "mtype",
          "type": "uint256"
        }
      ],
      "name": "InitBalance",
      "type": "event"
    },
    {
      "anonymous": false,
      "inputs": [
        {
          "indexed": false,
          "internalType": "uint256",
          "name": "previousAPY",
          "type": "uint256"
        },
        {
          "indexed": false,
          "internalType": "uint256",
          "name": "newAPY",
          "type": "uint256"
        },
        {
          "indexed": false,
          "internalType": "uint256",
          "name": "mtype",
          "type": "uint256"
        }
      ],
      "name": "LendAPYUpdated",
      "type": "event"
    },
    {
      "anonymous": false,
      "inputs": [
        {
          "indexed": false,
          "internalType": "address",
          "name": "borrower",
          "type": "address"
        },
        {
          "indexed": false,
          "internalType": "uint256",
          "name": "liquidateTime",
          "type": "uint256"
        },
        {
          "indexed": false,
          "internalType": "uint256",
          "name": "liquidateAmount",
          "type": "uint256"
        },
        {
          "indexed": false,
          "internalType": "uint256",
          "name": "ctype",
          "type": "uint256"
        }
      ],
      "name": "Liquidate",
      "type": "event"
    },
    {
      "anonymous": false,
      "inputs": [
        {
          "indexed": false,
          "internalType": "uint256",
          "name": "mtype",
          "type": "uint256"
        }
      ],
      "name": "LoanDurationModeUpdated",
      "type": "event"
    },
    {
      "anonymous": false,
      "inputs": [
        {
          "indexed": true,
          "internalType": "address",
          "name": "lender",
          "type": "address"
        },
        {
          "indexed": false,
          "internalType": "uint256",
          "name": "lendAmount",
          "type": "uint256"
        },
        {
          "indexed": false,
          "internalType": "uint256",
          "name": "paybackAmount",
          "type": "uint256"
        },
        {
          "indexed": false,
          "internalType": "uint256",
          "name": "timeLend",
          "type": "uint256"
        },
        {
          "indexed": false,
          "internalType": "uint256",
          "name": "timeCanGetInterest",
          "type": "uint256"
        },
        {
          "indexed": false,
          "internalType": "bool",
          "name": "retrieved",
          "type": "bool"
        },
        {
          "indexed": false,
          "internalType": "uint256",
          "name": "mtype",
          "type": "uint256"
        }
      ],
      "name": "NewLend",
      "type": "event"
    },
    {
      "anonymous": false,
      "inputs": [
        {
          "indexed": true,
          "internalType": "address",
          "name": "borrower",
          "type": "address"
        },
        {
          "indexed": false,
          "internalType": "uint256",
          "name": "loanAmount",
          "type": "uint256"
        },
        {
          "indexed": false,
          "internalType": "uint256",
          "name": "collateralAmount",
          "type": "uint256"
        },
        {
          "indexed": false,
          "internalType": "uint256",
          "name": "paybackAmount",
          "type": "uint256"
        },
        {
          "indexed": false,
          "internalType": "uint256",
          "name": "loanDueDate",
          "type": "uint256"
        },
        {
          "indexed": false,
          "internalType": "uint256",
          "name": "duration",
          "type": "uint256"
        },
        {
          "indexed": false,
          "internalType": "uint256",
          "name": "mtype",
          "type": "uint256"
        },
        {
          "indexed": false,
          "internalType": "uint256",
          "name": "ctype",
          "type": "uint256"
        }
      ],
      "name": "NewLoan",
      "type": "event"
    },
    {
      "anonymous": false,
      "inputs": [
        {
          "indexed": false,
          "internalType": "uint256",
          "name": "_price",
          "type": "uint256"
        }
      ],
      "name": "OdonPriceUpdated",
      "type": "event"
    },
    {
      "anonymous": false,
      "inputs": [
        {
          "indexed": true,
          "internalType": "address",
          "name": "previousOwner",
          "type": "address"
        },
        {
          "indexed": true,
          "internalType": "address",
          "name": "newOwner",
          "type": "address"
        }
      ],
      "name": "OwnershipTransferred",
      "type": "event"
    },
    {
      "anonymous": false,
      "inputs": [
        {
          "indexed": false,
          "internalType": "address",
          "name": "borrower",
          "type": "address"
        },
        {
          "indexed": false,
          "internalType": "bool",
          "name": "paybackSuccess",
          "type": "bool"
        },
        {
          "indexed": false,
          "internalType": "uint256",
          "name": "paybackTime",
          "type": "uint256"
        },
        {
          "indexed": false,
          "internalType": "uint256",
          "name": "paybackAmount",
          "type": "uint256"
        },
        {
          "indexed": false,
          "internalType": "uint256",
          "name": "returnCollateralAmount",
          "type": "uint256"
        },
        {
          "indexed": false,
          "internalType": "uint256",
          "name": "mtype",
          "type": "uint256"
        },
        {
          "indexed": false,
          "internalType": "uint256",
          "name": "ctype",
          "type": "uint256"
        }
      ],
      "name": "PayBack",
      "type": "event"
    },
    {
      "anonymous": false,
      "inputs": [
        {
          "indexed": true,
          "internalType": "address",
          "name": "priceOracleAddress",
          "type": "address"
        }
      ],
      "name": "PriceOracleUpdated",
      "type": "event"
    },
    {
      "anonymous": false,
      "inputs": [
        {
          "indexed": false,
          "internalType": "bool",
          "name": "isEarnInterest",
          "type": "bool"
        },
        {
          "indexed": false,
          "internalType": "uint256",
          "name": "withdrawAmount",
          "type": "uint256"
        },
        {
          "indexed": false,
          "internalType": "uint256",
          "name": "mtype",
          "type": "uint256"
        }
      ],
      "name": "Withdraw",
      "type": "event"
    },
    {
      "inputs": [],
      "name": "AutoLiquidate",
      "outputs": [],
      "stateMutability": "nonpayable",
      "type": "function"
    },
    {
      "inputs": [
        {
          "internalType": "uint256",
          "name": "",
          "type": "uint256"
        }
      ],
      "name": "LendUserList",
      "outputs": [
        {
          "internalType": "address",
          "name": "",
          "type": "address"
        }
      ],
      "stateMutability": "view",
      "type": "function"
    },
    {
      "inputs": [
        {
          "internalType": "uint256",
          "name": "",
          "type": "uint256"
        }
      ],
      "name": "LoanUserList",
      "outputs": [
        {
          "internalType": "address",
          "name": "",
          "type": "address"
        }
      ],
      "stateMutability": "view",
      "type": "function"
    },
    {
      "inputs": [
        {
          "internalType": "address",
          "name": "_user",
          "type": "address"
        }
      ],
      "name": "addUserToLendUserList",
      "outputs": [],
      "stateMutability": "nonpayable",
      "type": "function"
    },
    {
      "inputs": [
        {
          "internalType": "address",
          "name": "_user",
          "type": "address"
        }
      ],
      "name": "addUserToLoanUserList",
      "outputs": [],
      "stateMutability": "nonpayable",
      "type": "function"
    },
    {
      "inputs": [],
      "name": "btcAddress",
      "outputs": [
        {
          "internalType": "address",
          "name": "",
          "type": "address"
        }
      ],
      "stateMutability": "view",
      "type": "function"
    },
    {
      "inputs": [],
      "name": "btcBorrowAPY",
      "outputs": [
        {
          "internalType": "uint256",
          "name": "",
          "type": "uint256"
        }
      ],
      "stateMutability": "view",
      "type": "function"
    },
    {
      "inputs": [],
      "name": "btcLTV",
      "outputs": [
        {
          "internalType": "uint256",
          "name": "",
          "type": "uint256"
        }
      ],
      "stateMutability": "view",
      "type": "function"
    },
    {
      "inputs": [],
      "name": "btcLendAPY",
      "outputs": [
        {
          "internalType": "uint256",
          "name": "",
          "type": "uint256"
        }
      ],
      "stateMutability": "view",
      "type": "function"
    },
    {
      "inputs": [],
      "name": "btcTotalLiquidity",
      "outputs": [
        {
          "internalType": "uint256",
          "name": "",
          "type": "uint256"
        }
      ],
      "stateMutability": "view",
      "type": "function"
    },
    {
      "inputs": [
        {
          "internalType": "uint256",
          "name": "_amount",
          "type": "uint256"
        },
        {
          "internalType": "uint256",
          "name": "mtype",
          "type": "uint256"
        }
      ],
      "name": "checkEnoughLiquidity",
      "outputs": [
        {
          "internalType": "bool",
          "name": "",
          "type": "bool"
        }
      ],
      "stateMutability": "view",
      "type": "function"
    },
    {
      "inputs": [
        {
          "internalType": "address",
          "name": "borrower",
          "type": "address"
        },
        {
          "internalType": "uint256",
          "name": "_id",
          "type": "uint256"
        }
      ],
      "name": "checkLoanExpire",
      "outputs": [
        {
          "internalType": "bool",
          "name": "",
          "type": "bool"
        }
      ],
      "stateMutability": "view",
      "type": "function"
    },
    {
      "inputs": [
        {
          "internalType": "address",
          "name": "_borrower",
          "type": "address"
        },
        {
          "internalType": "uint256",
          "name": "_id",
          "type": "uint256"
        }
      ],
      "name": "checkLoanHealth",
      "outputs": [
        {
          "internalType": "bool",
          "name": "",
          "type": "bool"
        }
      ],
      "stateMutability": "view",
      "type": "function"
    },
    {
      "inputs": [
        {
          "internalType": "uint256",
          "name": "lnAmount",
          "type": "uint256"
        },
        {
          "internalType": "uint256",
          "name": "mtype",
          "type": "uint256"
        },
        {
          "internalType": "uint256",
          "name": "ctype",
          "type": "uint256"
        }
      ],
      "name": "collateralAmount",
      "outputs": [
        {
          "internalType": "uint256",
          "name": "",
          "type": "uint256"
        }
      ],
      "stateMutability": "view",
      "type": "function"
    },
    {
      "inputs": [],
      "name": "dangerousLTV",
      "outputs": [
        {
          "internalType": "uint256",
          "name": "",
          "type": "uint256"
        }
      ],
      "stateMutability": "view",
      "type": "function"
    },
    {
      "inputs": [],
      "name": "firstAddAPY",
      "outputs": [
        {
          "internalType": "uint256",
          "name": "",
          "type": "uint256"
        }
      ],
      "stateMutability": "view",
      "type": "function"
    },
    {
      "inputs": [],
      "name": "getAllUserLoans",
      "outputs": [
        {
          "components": [
            {
              "internalType": "address",
              "name": "borrower",
              "type": "address"
            },
            {
              "internalType": "uint256",
              "name": "loanAmount",
              "type": "uint256"
            },
            {
              "internalType": "uint256",
              "name": "collateralAmount",
              "type": "uint256"
            },
            {
              "internalType": "uint256",
              "name": "paybackAmount",
              "type": "uint256"
            },
            {
              "internalType": "uint256",
              "name": "loanDueDate",
              "type": "uint256"
            },
            {
              "internalType": "uint256",
              "name": "duration",
              "type": "uint256"
            },
            {
              "internalType": "uint256",
              "name": "loanId",
              "type": "uint256"
            },
            {
              "internalType": "bool",
              "name": "isPayback",
              "type": "bool"
            },
            {
              "internalType": "bool",
              "name": "isLiquidate",
              "type": "bool"
            },
            {
              "internalType": "uint256",
              "name": "mtype",
              "type": "uint256"
            },
            {
              "internalType": "uint256",
              "name": "ctype",
              "type": "uint256"
            }
          ],
          "internalType": "struct Loan.LoanRequest[]",
          "name": "",
          "type": "tuple[]"
        }
      ],
      "stateMutability": "view",
      "type": "function"
    },
    {
      "inputs": [
        {
          "internalType": "address",
          "name": "_borrower",
          "type": "address"
        },
        {
          "internalType": "uint256",
          "name": "_id",
          "type": "uint256"
        }
      ],
      "name": "getLoansLTV",
      "outputs": [
        {
          "internalType": "uint256",
          "name": "",
          "type": "uint256"
        }
      ],
      "stateMutability": "view",
      "type": "function"
    },
    {
      "inputs": [
        {
          "internalType": "uint256",
          "name": "mtype",
          "type": "uint256"
        }
      ],
      "name": "getTokenPriceInUSD",
      "outputs": [
        {
          "internalType": "uint256",
          "name": "",
          "type": "uint256"
        }
      ],
      "stateMutability": "view",
      "type": "function"
    },
    {
      "inputs": [
        {
          "internalType": "uint256",
          "name": "mtype",
          "type": "uint256"
        }
      ],
      "name": "getTotalLiquidityInUSD",
      "outputs": [
        {
          "internalType": "uint256",
          "name": "",
          "type": "uint256"
        }
      ],
      "stateMutability": "view",
      "type": "function"
    },
    {
      "inputs": [],
      "name": "getUserAllLends",
      "outputs": [
        {
          "components": [
            {
              "internalType": "address",
              "name": "lender",
              "type": "address"
            },
            {
              "internalType": "uint256",
              "name": "lendId",
              "type": "uint256"
            },
            {
              "internalType": "uint256",
              "name": "lendAmount",
              "type": "uint256"
            },
            {
              "internalType": "uint256",
              "name": "paybackAmount",
              "type": "uint256"
            },
            {
              "internalType": "uint256",
              "name": "timeLend",
              "type": "uint256"
            },
            {
              "internalType": "uint256",
              "name": "timeCanGetInterest",
              "type": "uint256"
            },
            {
              "internalType": "bool",
              "name": "retrieved",
              "type": "bool"
            },
            {
              "internalType": "uint256",
              "name": "mtype",
              "type": "uint256"
            }
          ],
          "internalType": "struct Loan.LendRequest[]",
          "name": "",
          "type": "tuple[]"
        }
      ],
      "stateMutability": "view",
      "type": "function"
    },
    {
      "inputs": [],
      "name": "getUserNotRetrieveLend",
      "outputs": [
        {
          "components": [
            {
              "internalType": "address",
              "name": "lender",
              "type": "address"
            },
            {
              "internalType": "uint256",
              "name": "lendId",
              "type": "uint256"
            },
            {
              "internalType": "uint256",
              "name": "lendAmount",
              "type": "uint256"
            },
            {
              "internalType": "uint256",
              "name": "paybackAmount",
              "type": "uint256"
            },
            {
              "internalType": "uint256",
              "name": "timeLend",
              "type": "uint256"
            },
            {
              "internalType": "uint256",
              "name": "timeCanGetInterest",
              "type": "uint256"
            },
            {
              "internalType": "bool",
              "name": "retrieved",
              "type": "bool"
            },
            {
              "internalType": "uint256",
              "name": "mtype",
              "type": "uint256"
            }
          ],
          "internalType": "struct Loan.LendRequest[]",
          "name": "",
          "type": "tuple[]"
        }
      ],
      "stateMutability": "view",
      "type": "function"
    },
    {
      "inputs": [],
      "name": "getUserOngoingLoans",
      "outputs": [
        {
          "components": [
            {
              "internalType": "address",
              "name": "borrower",
              "type": "address"
            },
            {
              "internalType": "uint256",
              "name": "loanAmount",
              "type": "uint256"
            },
            {
              "internalType": "uint256",
              "name": "collateralAmount",
              "type": "uint256"
            },
            {
              "internalType": "uint256",
              "name": "paybackAmount",
              "type": "uint256"
            },
            {
              "internalType": "uint256",
              "name": "loanDueDate",
              "type": "uint256"
            },
            {
              "internalType": "uint256",
              "name": "duration",
              "type": "uint256"
            },
            {
              "internalType": "uint256",
              "name": "loanId",
              "type": "uint256"
            },
            {
              "internalType": "bool",
              "name": "isPayback",
              "type": "bool"
            },
            {
              "internalType": "bool",
              "name": "isLiquidate",
              "type": "bool"
            },
            {
              "internalType": "uint256",
              "name": "mtype",
              "type": "uint256"
            },
            {
              "internalType": "uint256",
              "name": "ctype",
              "type": "uint256"
            }
          ],
          "internalType": "struct Loan.LoanRequest[]",
          "name": "",
          "type": "tuple[]"
        }
      ],
      "stateMutability": "view",
      "type": "function"
    },
    {
      "inputs": [
        {
          "internalType": "address",
          "name": "borrower",
          "type": "address"
        }
      ],
      "name": "getUserOverdueLoans",
      "outputs": [
        {
          "components": [
            {
              "internalType": "address",
              "name": "borrower",
              "type": "address"
            },
            {
              "internalType": "uint256",
              "name": "loanAmount",
              "type": "uint256"
            },
            {
              "internalType": "uint256",
              "name": "collateralAmount",
              "type": "uint256"
            },
            {
              "internalType": "uint256",
              "name": "paybackAmount",
              "type": "uint256"
            },
            {
              "internalType": "uint256",
              "name": "loanDueDate",
              "type": "uint256"
            },
            {
              "internalType": "uint256",
              "name": "duration",
              "type": "uint256"
            },
            {
              "internalType": "uint256",
              "name": "loanId",
              "type": "uint256"
            },
            {
              "internalType": "bool",
              "name": "isPayback",
              "type": "bool"
            },
            {
              "internalType": "bool",
              "name": "isLiquidate",
              "type": "bool"
            },
            {
              "internalType": "uint256",
              "name": "mtype",
              "type": "uint256"
            },
            {
              "internalType": "uint256",
              "name": "ctype",
              "type": "uint256"
            }
          ],
          "internalType": "struct Loan.LoanRequest[]",
          "name": "",
          "type": "tuple[]"
        }
      ],
      "stateMutability": "view",
      "type": "function"
    },
    {
      "inputs": [
        {
          "internalType": "address",
          "name": "borrower",
          "type": "address"
        }
      ],
      "name": "getUserUnHealthLoans",
      "outputs": [
        {
          "components": [
            {
              "internalType": "address",
              "name": "borrower",
              "type": "address"
            },
            {
              "internalType": "uint256",
              "name": "loanAmount",
              "type": "uint256"
            },
            {
              "internalType": "uint256",
              "name": "collateralAmount",
              "type": "uint256"
            },
            {
              "internalType": "uint256",
              "name": "paybackAmount",
              "type": "uint256"
            },
            {
              "internalType": "uint256",
              "name": "loanDueDate",
              "type": "uint256"
            },
            {
              "internalType": "uint256",
              "name": "duration",
              "type": "uint256"
            },
            {
              "internalType": "uint256",
              "name": "loanId",
              "type": "uint256"
            },
            {
              "internalType": "bool",
              "name": "isPayback",
              "type": "bool"
            },
            {
              "internalType": "bool",
              "name": "isLiquidate",
              "type": "bool"
            },
            {
              "internalType": "uint256",
              "name": "mtype",
              "type": "uint256"
            },
            {
              "internalType": "uint256",
              "name": "ctype",
              "type": "uint256"
            }
          ],
          "internalType": "struct Loan.LoanRequest[]",
          "name": "",
          "type": "tuple[]"
        }
      ],
      "stateMutability": "view",
      "type": "function"
    },
    {
      "inputs": [
        {
          "internalType": "uint256",
          "name": "_amount",
          "type": "uint256"
        },
        {
          "internalType": "uint256",
          "name": "mtype",
          "type": "uint256"
        }
      ],
      "name": "init",
      "outputs": [],
      "stateMutability": "nonpayable",
      "type": "function"
    },
    {
      "inputs": [],
      "name": "lendCount",
      "outputs": [
        {
          "internalType": "uint256",
          "name": "",
          "type": "uint256"
        }
      ],
      "stateMutability": "view",
      "type": "function"
    },
    {
      "inputs": [
        {
          "internalType": "uint256",
          "name": "_amount",
          "type": "uint256"
        },
        {
          "internalType": "uint256",
          "name": "mtype",
          "type": "uint256"
        }
      ],
      "name": "lendToken",
      "outputs": [],
      "stateMutability": "nonpayable",
      "type": "function"
    },
    {
      "inputs": [
        {
          "internalType": "address",
          "name": "",
          "type": "address"
        },
        {
          "internalType": "uint256",
          "name": "",
          "type": "uint256"
        }
      ],
      "name": "lends",
      "outputs": [
        {
          "internalType": "address",
          "name": "lender",
          "type": "address"
        },
        {
          "internalType": "uint256",
          "name": "lendId",
          "type": "uint256"
        },
        {
          "internalType": "uint256",
          "name": "lendAmount",
          "type": "uint256"
        },
        {
          "internalType": "uint256",
          "name": "paybackAmount",
          "type": "uint256"
        },
        {
          "internalType": "uint256",
          "name": "timeLend",
          "type": "uint256"
        },
        {
          "internalType": "uint256",
          "name": "timeCanGetInterest",
          "type": "uint256"
        },
        {
          "internalType": "bool",
          "name": "retrieved",
          "type": "bool"
        },
        {
          "internalType": "uint256",
          "name": "mtype",
          "type": "uint256"
        }
      ],
      "stateMutability": "view",
      "type": "function"
    },
    {
      "inputs": [
        {
          "internalType": "uint256",
          "name": "_amount",
          "type": "uint256"
        },
        {
          "internalType": "uint256",
          "name": "_duration",
          "type": "uint256"
        },
        {
          "internalType": "uint256",
          "name": "mtype",
          "type": "uint256"
        },
        {
          "internalType": "uint256",
          "name": "ctype",
          "type": "uint256"
        }
      ],
      "name": "loan",
      "outputs": [],
      "stateMutability": "nonpayable",
      "type": "function"
    },
    {
      "inputs": [
        {
          "internalType": "uint256",
          "name": "colAmount",
          "type": "uint256"
        },
        {
          "internalType": "uint256",
          "name": "mtype",
          "type": "uint256"
        },
        {
          "internalType": "uint256",
          "name": "ctype",
          "type": "uint256"
        }
      ],
      "name": "loanAmount",
      "outputs": [
        {
          "internalType": "uint256",
          "name": "",
          "type": "uint256"
        }
      ],
      "stateMutability": "view",
      "type": "function"
    },
    {
      "inputs": [],
      "name": "loanCount",
      "outputs": [
        {
          "internalType": "uint256",
          "name": "",
          "type": "uint256"
        }
      ],
      "stateMutability": "view",
      "type": "function"
    },
    {
      "inputs": [],
      "name": "loanModeFirst",
      "outputs": [
        {
          "internalType": "bool",
          "name": "",
          "type": "bool"
        }
      ],
      "stateMutability": "view",
      "type": "function"
    },
    {
      "inputs": [
        {
          "internalType": "address",
          "name": "",
          "type": "address"
        },
        {
          "internalType": "uint256",
          "name": "",
          "type": "uint256"
        }
      ],
      "name": "loans",
      "outputs": [
        {
          "internalType": "address",
          "name": "borrower",
          "type": "address"
        },
        {
          "internalType": "uint256",
          "name": "loanAmount",
          "type": "uint256"
        },
        {
          "internalType": "uint256",
          "name": "collateralAmount",
          "type": "uint256"
        },
        {
          "internalType": "uint256",
          "name": "paybackAmount",
          "type": "uint256"
        },
        {
          "internalType": "uint256",
          "name": "loanDueDate",
          "type": "uint256"
        },
        {
          "internalType": "uint256",
          "name": "duration",
          "type": "uint256"
        },
        {
          "internalType": "uint256",
          "name": "loanId",
          "type": "uint256"
        },
        {
          "internalType": "bool",
          "name": "isPayback",
          "type": "bool"
        },
        {
          "internalType": "bool",
          "name": "isLiquidate",
          "type": "bool"
        },
        {
          "internalType": "uint256",
          "name": "mtype",
          "type": "uint256"
        },
        {
          "internalType": "uint256",
          "name": "ctype",
          "type": "uint256"
        }
      ],
      "stateMutability": "view",
      "type": "function"
    },
    {
      "inputs": [],
      "name": "movrAddress",
      "outputs": [
        {
          "internalType": "address",
          "name": "",
          "type": "address"
        }
      ],
      "stateMutability": "view",
      "type": "function"
    },
    {
      "inputs": [],
      "name": "odonAddress",
      "outputs": [
        {
          "internalType": "address",
          "name": "",
          "type": "address"
        }
      ],
      "stateMutability": "view",
      "type": "function"
    },
    {
      "inputs": [],
      "name": "odonPrice",
      "outputs": [
        {
          "internalType": "uint256",
          "name": "",
          "type": "uint256"
        }
      ],
      "stateMutability": "view",
      "type": "function"
    },
    {
      "inputs": [],
      "name": "odonTotalLiquidity",
      "outputs": [
        {
          "internalType": "uint256",
          "name": "",
          "type": "uint256"
        }
      ],
      "stateMutability": "view",
      "type": "function"
    },
    {
      "inputs": [],
      "name": "owner",
      "outputs": [
        {
          "internalType": "address",
          "name": "",
          "type": "address"
        }
      ],
      "stateMutability": "view",
      "type": "function"
    },
    {
      "inputs": [
        {
          "internalType": "uint256",
          "name": "_id",
          "type": "uint256"
        },
        {
          "internalType": "uint256",
          "name": "_amount",
          "type": "uint256"
        }
      ],
      "name": "payback",
      "outputs": [],
      "stateMutability": "nonpayable",
      "type": "function"
    },
    {
      "inputs": [],
      "name": "renounceOwnership",
      "outputs": [],
      "stateMutability": "nonpayable",
      "type": "function"
    },
    {
      "inputs": [],
      "name": "secondAddAPY",
      "outputs": [
        {
          "internalType": "uint256",
          "name": "",
          "type": "uint256"
        }
      ],
      "stateMutability": "view",
      "type": "function"
    },
    {
      "inputs": [
        {
          "internalType": "uint256",
          "name": "_apy",
          "type": "uint256"
        },
        {
          "internalType": "uint256",
          "name": "mtype",
          "type": "uint256"
        }
      ],
      "name": "setBorrowAPY",
      "outputs": [],
      "stateMutability": "nonpayable",
      "type": "function"
    },
    {
      "inputs": [
        {
          "internalType": "uint256",
          "name": "_apy",
          "type": "uint256"
        },
        {
          "internalType": "uint256",
          "name": "mtype",
          "type": "uint256"
        }
      ],
      "name": "setLendAPY",
      "outputs": [],
      "stateMutability": "nonpayable",
      "type": "function"
    },
    {
      "inputs": [
        {
          "internalType": "uint256",
          "name": "mtype",
          "type": "uint256"
        }
      ],
      "name": "setLoanDurationMode",
      "outputs": [],
      "stateMutability": "nonpayable",
      "type": "function"
    },
    {
      "inputs": [
        {
          "internalType": "uint256",
          "name": "_price",
          "type": "uint256"
        }
      ],
      "name": "setPriceOdon",
      "outputs": [],
      "stateMutability": "nonpayable",
      "type": "function"
    },
    {
      "inputs": [
        {
          "internalType": "contract PriceConsumerV3",
          "name": "_oracle",
          "type": "address"
        }
      ],
      "name": "setPriceOracle",
      "outputs": [],
      "stateMutability": "nonpayable",
      "type": "function"
    },
    {
      "inputs": [],
      "name": "totalLiquidity",
      "outputs": [
        {
          "internalType": "uint256",
          "name": "",
          "type": "uint256"
        }
      ],
      "stateMutability": "view",
      "type": "function"
    },
    {
      "inputs": [
        {
          "internalType": "address",
          "name": "newOwner",
          "type": "address"
        }
      ],
      "name": "transferOwnership",
      "outputs": [],
      "stateMutability": "nonpayable",
      "type": "function"
    },
    {
      "inputs": [],
      "name": "usdcAddress",
      "outputs": [
        {
          "internalType": "address",
          "name": "",
          "type": "address"
        }
      ],
      "stateMutability": "view",
      "type": "function"
    },
    {
      "inputs": [],
      "name": "usdcBorrowAPY",
      "outputs": [
        {
          "internalType": "uint256",
          "name": "",
          "type": "uint256"
        }
      ],
      "stateMutability": "view",
      "type": "function"
    },
    {
      "inputs": [],
      "name": "usdcLTV",
      "outputs": [
        {
          "internalType": "uint256",
          "name": "",
          "type": "uint256"
        }
      ],
      "stateMutability": "view",
      "type": "function"
    },
    {
      "inputs": [],
      "name": "usdcLendAPY",
      "outputs": [
        {
          "internalType": "uint256",
          "name": "",
          "type": "uint256"
        }
      ],
      "stateMutability": "view",
      "type": "function"
    },
    {
      "inputs": [],
      "name": "usdcTotalLiquidity",
      "outputs": [
        {
          "internalType": "uint256",
          "name": "",
          "type": "uint256"
        }
      ],
      "stateMutability": "view",
      "type": "function"
    },
    {
      "inputs": [],
      "name": "usdtAddress",
      "outputs": [
        {
          "internalType": "address",
          "name": "",
          "type": "address"
        }
      ],
      "stateMutability": "view",
      "type": "function"
    },
    {
      "inputs": [],
      "name": "usdtBorrowAPY",
      "outputs": [
        {
          "internalType": "uint256",
          "name": "",
          "type": "uint256"
        }
      ],
      "stateMutability": "view",
      "type": "function"
    },
    {
      "inputs": [],
      "name": "usdtLTV",
      "outputs": [
        {
          "internalType": "uint256",
          "name": "",
          "type": "uint256"
        }
      ],
      "stateMutability": "view",
      "type": "function"
    },
    {
      "inputs": [],
      "name": "usdtLendAPY",
      "outputs": [
        {
          "internalType": "uint256",
          "name": "",
          "type": "uint256"
        }
      ],
      "stateMutability": "view",
      "type": "function"
    },
    {
      "inputs": [],
      "name": "usdtTotalLiquidity",
      "outputs": [
        {
          "internalType": "uint256",
          "name": "",
          "type": "uint256"
        }
      ],
      "stateMutability": "view",
      "type": "function"
    },
    {
      "inputs": [
        {
          "internalType": "address",
          "name": "",
          "type": "address"
        }
      ],
      "name": "userLendsCount",
      "outputs": [
        {
          "internalType": "uint256",
          "name": "",
          "type": "uint256"
        }
      ],
      "stateMutability": "view",
      "type": "function"
    },
    {
      "inputs": [
        {
          "internalType": "address",
          "name": "",
          "type": "address"
        }
      ],
      "name": "userLoansCount",
      "outputs": [
        {
          "internalType": "uint256",
          "name": "",
          "type": "uint256"
        }
      ],
      "stateMutability": "view",
      "type": "function"
    },
    {
      "inputs": [
        {
          "internalType": "uint256",
          "name": "_amount",
          "type": "uint256"
        },
        {
          "internalType": "uint256",
          "name": "mtype",
          "type": "uint256"
        }
      ],
      "name": "withDrawReserve",
      "outputs": [],
      "stateMutability": "nonpayable",
      "type": "function"
    },
    {
      "inputs": [
        {
          "internalType": "uint256",
          "name": "_id",
          "type": "uint256"
        }
      ],
      "name": "withdraw",
      "outputs": [],
      "stateMutability": "nonpayable",
      "type": "function"
    }
  ],
  "bytecode": "0x60806040526302faf0806008556803860e639d80640000600e556803afb087b876900000600f556802ed6689e54f18000060105568049b9ca9a6943400006011556729a2241af62c0000601255674563918244f400006013819055678ac7230489e800006014556798a7d9b8314c000060155567a688906bd8b000006016556017556753444835ec580000601855676f05b59d3b200000601955601a805460ff19169055348015620000b057600080fd5b50604051620045cf380380620045cf833981016040819052620000d391620001c0565b620000de3362000153565b600180805560025560006007819055600481905560038190556005819055600655600a80546001600160a01b039586166001600160a01b031991821617909155600b805494861694821694909417909355600c805492851692841692909217909155600d80549190931691161790556200021c565b600080546001600160a01b038381166001600160a01b0319831681178455604051919092169283917f8be0079c531659141344cd1fd0a4f28419497f9722a3daafe3b4186f6b6457e09190a35050565b80516001600160a01b0381168114620001bb57600080fd5b919050565b60008060008060808587031215620001d6578384fd5b620001e185620001a3565b9350620001f160208601620001a3565b92506200020160408601620001a3565b91506200021160608601620001a3565b905092959194509250565b6143a3806200022c6000396000f3fe608060405234801561001057600080fd5b50600436106103c45760003560e01c806371d1a701116101ff578063cdb2409a1161011a578063df62dbbe116100ad578063f2fde38b1161007c578063f2fde38b14610901578063f6c5dded14610914578063f7d76ae51461091d578063fe3af3ea1461093057600080fd5b8063df62dbbe146108bf578063e15a6d6a146108c8578063ed6acc98146108db578063ee9e5800146108ee57600080fd5b8063d3c9e2c9116100e9578063d3c9e2c91461087d578063d3f72d1014610890578063d5a0b65d14610899578063d9d0befc146108ac57600080fd5b8063cdb2409a1461084f578063cdbc87f614610858578063ce63094d14610861578063d32353061461086a57600080fd5b8063973c7d4511610192578063a557b17d11610161578063a557b17d1461080e578063a5843f0814610816578063ae5c8fca14610829578063b04b022a1461083c57600080fd5b8063973c7d45146106f457806398c61c37146107075780639ab4a445146107e8578063a12af896146107fb57600080fd5b80638443bccc116101ce5780638443bccc146106a35780638a6a29a0146106b65780638da5cb5b146106d65780638dda75b7146106e757600080fd5b806371d1a7011461064f578063725cab5d1461066457806376b24a741461066d5780637f026f151461068057600080fd5b8063439b3543116102ef57806365440cef116102825780636c6ac591116102515780636c6ac591146106185780636ccbf7581461062b5780636ef9855b1461063e578063715018a61461064757600080fd5b806365440cef146105e0578063693a961d146105e9578063699e0f56146105fc5780636b32991e1461060557600080fd5b8063530e784f116102be578063530e784f146105a957806353bbfefa146105bc57806360089fca146105cf57806364282ecd146105d757600080fd5b8063439b3543146104c55780634c0a79fb1461057857806351bcca5e1461059857806353068056146105a057600080fd5b806329055efc116103675780632d1fabec116103365780632d1fabec146104835780632e1a7d4d146104965780632e6a1830146104a95780633583de13146104b257600080fd5b806329055efc14610455578063295dea731461046857806329b53f85146104715780632b84a68d1461047a57600080fd5b80630bf1644e116103a35780630bf1644e1461042557806315770f921461042e578063168c738c1461043757806320ec1ff51461044c57600080fd5b806208001a146103c957806302d45457146103e5578063048422a514610410575b600080fd5b6103d260195481565b6040519081526020015b60405180910390f35b600b546103f8906001600160a01b031681565b6040516001600160a01b0390911681526020016103dc565b61042361041e366004613e5f565b610943565b005b6103d260125481565b6103d260075481565b61043f610a04565b6040516103dc919061402f565b6103d260175481565b610423610463366004613f42565b610bac565b6103d260135481565b6103d260035481565b6103d260045481565b610423610491366004613ec6565b6112a4565b6104236104a4366004613ec6565b61132b565b6103d260165481565b6104236104c0366004613ef6565b61189f565b6105316104d3366004613e7b565b601e602090815260009283526040808420909152908252902080546001820154600283015460038401546004850154600586015460068701546007909701546001600160a01b03909616969495939492939192909160ff9091169088565b604080516001600160a01b0390991689526020890197909752958701949094526060860192909252608085015260a0840152151560c083015260e0820152610100016103dc565b6103d2610586366004613e5f565b601b6020526000908152604090205481565b610423611eb9565b6103d2600f5481565b6104236105b7366004613e5f565b612048565b6103d26105ca366004613ec6565b6120c4565b61043f612196565b6103d260065481565b6103d260055481565b6103f86105f7366004613ec6565b61230d565b6103d260025481565b610423610613366004613ec6565b612337565b610423610626366004613e5f565b612396565b61043f610639366004613e5f565b612458565b6103d260155481565b610423612624565b61065761265a565b6040516103dc9190613f97565b6103d260145481565b61042361067b366004613ef6565b6127ab565b61069361068e366004613e7b565b612867565b60405190151581526020016103dc565b6104236106b1366004613ef6565b6128a4565b6103d26106c4366004613e5f565b601c6020526000908152604090205481565b6000546001600160a01b03166103f8565b601a546106939060ff1681565b6103f8610702366004613ec6565b612b17565b610787610715366004613e7b565b601d60209081526000928352604080842090915290825290208054600182015460028301546003840154600485015460058601546006870154600788015460088901546009909901546001600160a01b039098169896979596949593949293919260ff8083169361010090930416918b565b604080516001600160a01b03909c168c5260208c019a909a52988a01979097526060890195909552608088019390935260a087019190915260c0860152151560e08501521515610100840152610120830152610140820152610160016103dc565b600c546103f8906001600160a01b031681565b61043f610809366004613e5f565b612b27565b610657612ccf565b610423610824366004613ef6565b612e27565b610423610837366004613ef6565b613051565b600a546103f8906001600160a01b031681565b6103d260105481565b6103d260115481565b6103d260015481565b6103d2610878366004613f17565b613490565b61069361088b366004613e7b565b61353f565b6103d2600e5481565b6103d26108a7366004613ec6565b613561565b6103d26108ba366004613f17565b613731565b6103d260185481565b6103d26108d6366004613e7b565b6137cf565b6104236108e9366004613ef6565b613928565b6009546103f8906001600160a01b031681565b61042361090f366004613e5f565b6139da565b6103d260085481565b600d546103f8906001600160a01b031681565b61069361093e366004613ef6565b613a72565b6000805b601f548110156109ae57826001600160a01b0316601f828154811061097c57634e487b7160e01b600052603260045260246000fd5b6000918252602090912001546001600160a01b0316141561099c57600191505b806109a681614327565b915050610947565b5080610a0057601f80546001810182556000919091527fa03837a25210ee280c2113ff4b77ca23440b19d4866cca721c801278fd08d8070180546001600160a01b0319166001600160a01b0384161790555b5050565b336000908152601b60205260408120546060919067ffffffffffffffff811115610a3e57634e487b7160e01b600052604160045260246000fd5b604051908082528060200260200182016040528015610a7757816020015b610a64613da8565b815260200190600190039081610a5c5790505b50905060005b336000908152601b6020526040902054811015610ba657336000908152601d6020908152604080832084845282529182902082516101608101845281546001600160a01b031681526001820154928101929092526002810154928201929092526003820154606082015260048201546080820152600582015460a0820152600682015460c0820152600782015460ff80821615801560e085018190526101009384900490921615159284019290925260088401546101208401526009909301546101408301529091610b525750806101000151155b8015610b615750428160800151115b15610b935780838381518110610b8757634e487b7160e01b600052603260045260246000fd5b60200260200101819052505b5080610b9e81614327565b915050610a7d565b50919050565b610bb68483613a72565b610c075760405162461bcd60e51b815260206004820152601f60248201527f6c6f616e45746865723a206e6f7420656e6f756768206c69717569646974790060448201526064015b60405180910390fd5b610c0f613da8565b33815260208101859052610c24858484613490565b604080830191909152336000908152601b6020529081205460c083015260e082018190526101008201819052610120820184905261014082018390526002841415610c725750601454610c92565b8360031415610c845750601554610c92565b8360041415610c9257506016545b601a5460ff1615610dc7578460071415610cea57610cc5610cbe6064610cb88985613ae7565b90613aff565b8790613b0b565b6060830152610cd74262093a806142b9565b608083015262093a8060a0830152610e6c565b84600e1415610d3857610d13610cbe6064610cb884601254610d0c91906142b9565b8a90613ae7565b6060830152610d2542621275006142b9565b60808301526212750060a0830152610e6c565b84601e1415610d7f57610d5a610cbe6064610cb884601354610d0c91906142b9565b6060830152610d6c4262278d006142b9565b608083015262278d0060a0830152610e6c565b60405162461bcd60e51b815260206004820152601d60248201527f6c6f616e546f6b656e3a206e6f2076616c6964206475726174696f6e210000006044820152606401610bfe565b84601e1415610de257610d5a610cbe6064610cb88985613ae7565b84603c1415610e2957610e04610cbe6064610cb884601254610d0c91906142b9565b6060830152610e1642624f1a006142b9565b6080830152624f1a0060a0830152610e6c565b84605a1415610d7f57610e4b610cbe6064610cb884601354610d0c91906142b9565b6060830152610e5d426276a7006142b9565b60808301526276a70060a08301525b600083600114610fa75750600a5460408084015190516323b872dd60e01b81526001600160a01b039092169182916323b872dd91610eb1913391309190600401613f73565b602060405180830381600087803b158015610ecb57600080fd5b505af1158015610edf573d6000803e3d6000fd5b505050506040513d601f19601f82011682018060405250810190610f039190613ea6565b610f1f5760405162461bcd60e51b8152600401610bfe9061422c565b6040838101519051633950935160e01b815230600482015260248101919091526001600160a01b03821690633950935190604401602060405180830381600087803b158015610f6d57600080fd5b505af1158015610f81573d6000803e3d6000fd5b505050506040513d601f19601f82011682018060405250810190610fa59190613ea6565b505b8360011415610fb557610fca565b6040830151600354610fc691613b0b565b6003555b60008560021415610fe75750600b546001600160a01b0316611019565b85600314156110025750600c546001600160a01b0316611019565b85600414156110195750600d546001600160a01b03165b6040516323b872dd60e01b81526001600160a01b038216906323b872dd9061104990309033908d90600401613f73565b602060405180830381600087803b15801561106357600080fd5b505af1158015611077573d6000803e3d6000fd5b505050506040513d601f19601f8201168201806040525081019061109b9190613ea6565b6110b75760405162461bcd60e51b8152600401610bfe9061422c565b85600214156110d5576004546110cd9089613b17565b60045561110d565b85600314156110f3576005546110eb9089613b17565b60055561110d565b856004141561110d576006546111099089613b17565b6006555b336000908152601d60209081526040808320601b83528184205484528252808320875181546001600160a01b03919091166001600160a01b031990911617815591870151600180840191909155908701516002830155606087015160038301556080870151600483015560a0870151600583015560c0870151600683015560e0870151600783018054610100808b015115150261ff00199315159390931661ffff199091161791909117905561012087015160088301556101408701516009909201919091558054916111df83614327565b9091555050336000908152601b602052604081208054916111ff83614327565b9190505550336001600160a01b03167fd3d220740d3967bbabbce5a2d2be80cf584799db8de046928f1b6d1d7500b45e85602001518660400151876060015188608001518960a001518a61012001518b61014001516040516112929796959493929190968752602087019590955260408601939093526060850191909152608084015260a083015260c082015260e00190565b60405180910390a25050505050505050565b6000546001600160a01b031633146112ce5760405162461bcd60e51b8152600401610bfe906141b4565b80600114156112e957601a805460ff191660011790556112f4565b601a805460ff191690555b6040518181527f4d5a4bfab3f36cd8f68133a2361e410afb6899ac665938f88ee5e1abb15fec45906020015b60405180910390a150565b336000908152601e602090815260408083208484529091529020600681015460ff16156113a85760405162461bcd60e51b815260206004820152602560248201527f7769746864726177546f6b656e3a204c656e64207265717565737420726574726044820152641a595d995960da1b6064820152608401610bfe565b80546001600160a01b031633146114115760405162461bcd60e51b815260206004820152602760248201527f776974686472617745746865723a204f6e6c79206c656e6465722063616e20776044820152666974686472617760c81b6064820152608401610bfe565b61142381600201548260070154613a72565b61143f5760405162461bcd60e51b8152600401610bfe906141e9565b60068101805460ff19166001179055600581015442111561168157600081600701546002141561147b5750600b546001600160a01b03166114b5565b81600701546003141561149a5750600c546001600160a01b03166114b5565b8160070154600414156114b55750600d546001600160a01b03165b815460038301546040516323b872dd60e01b81526001600160a01b03848116936323b872dd936114ed93309390921691600401613f73565b602060405180830381600087803b15801561150757600080fd5b505af115801561151b573d6000803e3d6000fd5b505050506040513d601f19601f8201168201806040525081019061153f9190613ea6565b506003820154604051633950935160e01b815230600482015260248101919091526001600160a01b03821690633950935190604401602060405180830381600087803b15801561158e57600080fd5b505af11580156115a2573d6000803e3d6000fd5b505050506040513d601f19601f820116820180604052508101906115c69190613ea6565b508160070154600214156115ed5760038201546004546115e591613b17565b60045561160f565b81600701546003141561160f57600382015460055461160b91613b17565b6005555b81600701546004141561163157600382015460065461162d91613b17565b6006555b60038201546007830154604080516001815260208101939093528201527ffedb0622d5d5fa46cc706a5c2c169f2bf2eb31a59ff2f70cef3096376f58c2c0906060015b60405180910390a1505050565b60008160070154600214156116a25750600b546001600160a01b03166116dc565b8160070154600314156116c15750600c546001600160a01b03166116dc565b8160070154600414156116dc5750600d546001600160a01b03165b815460028301546040516323b872dd60e01b81526001600160a01b03848116936323b872dd9361171493309390921691600401613f73565b602060405180830381600087803b15801561172e57600080fd5b505af1158015611742573d6000803e3d6000fd5b505050506040513d601f19601f820116820180604052508101906117669190613ea6565b506002820154604051633950935160e01b815230600482015260248101919091526001600160a01b03821690633950935190604401602060405180830381600087803b1580156117b557600080fd5b505af11580156117c9573d6000803e3d6000fd5b505050506040513d601f19601f820116820180604052508101906117ed9190613ea6565b5081600701546002141561181457600282015460045461180c91613b17565b600455611836565b81600701546003141561183657600282015460055461183291613b17565b6005555b81600701546004141561185857600282015460065461185491613b17565b6006555b60028201546007830154604080516000815260208101939093528201527ffedb0622d5d5fa46cc706a5c2c169f2bf2eb31a59ff2f70cef3096376f58c2c090606001611674565b336000818152601d602090815260408083208684529091529020805490916001600160a01b03909116146119205760405162461bcd60e51b815260206004820152602260248201527f7061796261636b3a204f6e6c7920626f72726f7765722063616e207061796261604482015261636b60f01b6064820152608401610bfe565b600781015460ff16156119455760405162461bcd60e51b8152600401610bfe90614282565b80600401544211156119995760405162461bcd60e51b815260206004820152601860248201527f7061796261636b3a2065786365656420647565206461746500000000000000006044820152606401610bfe565b6011546119a633856137cf565b106119fd5760405162461bcd60e51b815260206004820152602160248201527f7061796261636b3a204c5456206578636565642064616e6765726f7573204c546044820152602b60f91b6064820152608401610bfe565b8060030154821015611a515760405162461bcd60e51b815260206004820152601960248201527f7061796261636b3a204e6f7420656e6f75676820746f6b656e000000000000006044820152606401610bfe565b611a6381600201548260090154613a72565b611ac15760405162461bcd60e51b815260206004820152602960248201527f7061796261636b3a206e6f7420656e6f756768206c6971756964697479206f6e6044820152680818dbdb9d1c9858dd60ba1b6064820152608401610bfe565b6000816008015460021415611ae25750600b546001600160a01b0316611b1c565b816008015460031415611b015750600c546001600160a01b0316611b1c565b816008015460041415611b1c5750600d546001600160a01b03165b6040516323b872dd60e01b81526001600160a01b038216906323b872dd90611b4c90339030908890600401613f73565b602060405180830381600087803b158015611b6657600080fd5b505af1158015611b7a573d6000803e3d6000fd5b505050506040513d601f19601f82011682018060405250810190611b9e9190613ea6565b611bba5760405162461bcd60e51b8152600401610bfe90614157565b604051633950935160e01b8152306004820152602481018490526001600160a01b03821690633950935190604401602060405180830381600087803b158015611c0257600080fd5b505af1158015611c16573d6000803e3d6000fd5b505050506040513d601f19601f82011682018060405250810190611c3a9190613ea6565b50816008015460021415611c5d57600454611c559084613b0b565b600455611c9d565b816008015460031415611c7f57600554611c779084613b0b565b600555611c9d565b816008015460041415611c9d57600654611c999084613b0b565b6006555b6000826009015460011415611cbe57506009546001600160a01b0316611ccc565b50600a546001600160a01b03165b60028301546040516323b872dd60e01b81526001600160a01b038316916323b872dd91611d00913091339190600401613f73565b602060405180830381600087803b158015611d1a57600080fd5b505af1158015611d2e573d6000803e3d6000fd5b505050506040513d601f19601f82011682018060405250810190611d529190613ea6565b611d6e5760405162461bcd60e51b8152600401610bfe90614157565b6002830154604051633950935160e01b815230600482015260248101919091526001600160a01b03821690633950935190604401602060405180830381600087803b158015611dbc57600080fd5b505af1158015611dd0573d6000803e3d6000fd5b505050506040513d601f19601f82011682018060405250810190611df49190613ea6565b50826009015460011415611e1b576002830154600754611e1391613b17565b600755611e30565b6002830154600354611e2c91613b17565b6003555b60078301805461ffff19166001908117909155600384015460028501546008860154600987015460408051338152602081019690965242908601526060850193909352608084019190915260a083015260c08201527f5c775973c71b408f578d06223650690e9508ab4bb549d0691ae69265b311af379060e00160405180910390a15050505050565b6000546001600160a01b03163314611ee35760405162461bcd60e51b8152600401610bfe906141b4565b60005b601f54811015612045576000611f30601f8381548110611f1657634e487b7160e01b600052603260045260246000fd5b6000918252602090912001546001600160a01b0316612b27565b905060005b8151831015611f8f576000828281518110611f6057634e487b7160e01b600052603260045260246000fd5b60200260200101519050611f7c81600001518260c00151613b23565b5080611f8781614327565b915050611f35565b506000611fd0601f8481548110611fb657634e487b7160e01b600052603260045260246000fd5b6000918252602090912001546001600160a01b0316612458565b905060005b815181101561202f57600082828151811061200057634e487b7160e01b600052603260045260246000fd5b6020026020010151905061201c81600001518260c00151613c64565b508061202781614327565b915050611fd5565b505050808061203d90614327565b915050611ee6565b50565b6000546001600160a01b031633146120725760405162461bcd60e51b8152600401610bfe906141b4565b601a8054610100600160a81b0319166101006001600160a01b038416908102919091179091556040517fefe8ab924ca486283a79dc604baa67add51afb82af1db8ac386ebbba643cdffd90600090a250565b601a54600090819061010090046001600160a01b03166120f65760405162461bcd60e51b8152600401610bfe906140dd565b826001141561211b5761211461210b84613561565b60075490613ae7565b9050612190565b82600214156121395761211461213084613561565b60045490613ae7565b82600314156121575761211461214e84613561565b60055490613ae7565b82600414156121755761211461216c84613561565b60065490613ae7565b82600514156121905760085460035461218d91613ae7565b90505b92915050565b336000908152601b60205260408120546060919067ffffffffffffffff8111156121d057634e487b7160e01b600052604160045260246000fd5b60405190808252806020026020018201604052801561220957816020015b6121f6613da8565b8152602001906001900390816121ee5790505b50905060005b336000908152601b6020526040902054811015610ba657336000908152601d6020908152604080832084845282529182902082516101608101845281546001600160a01b031681526001820154928101929092526002810154928201929092526003820154606082015260048201546080820152600582015460a0820152600682015460c0820152600782015460ff808216151560e08401526101009182900416151590820152600882015461012082015260099091015461014082015282518390839081106122ef57634e487b7160e01b600052603260045260246000fd5b6020026020010181905250808061230590614327565b91505061220f565b6020818154811061231d57600080fd5b6000918252602090912001546001600160a01b0316905081565b6000546001600160a01b031633146123615760405162461bcd60e51b8152600401610bfe906141b4565b60088190556040518181527f9a470bd568cbe5e7985016006c3093b3634f775e978b0ec2841ef7c634a2c2ff90602001611320565b6000805b60205481101561240157826001600160a01b0316602082815481106123cf57634e487b7160e01b600052603260045260246000fd5b6000918252602090912001546001600160a01b031614156123ef57600191505b806123f981614327565b91505061239a565b5080610a0057602080546001810182556000919091527fc97bfaf2f8ee708c303a06d134f5ecd8389ae0432af62dc132a24118292866bb0180546001600160a01b0384166001600160a01b03199091161790555050565b6001600160a01b0381166000908152601b60205260408120546060919067ffffffffffffffff81111561249b57634e487b7160e01b600052604160045260246000fd5b6040519080825280602002602001820160405280156124d457816020015b6124c1613da8565b8152602001906001900390816124b95790505b50905060005b6001600160a01b0384166000908152601b602052604090205481101561261d576001600160a01b038085166000908152601d60209081526040808320858452825291829020825161016081018452815490941684526001810154918401919091526002810154918301919091526003810154606083015260048101546080830152600581015460a0830152600681015460c0830152600781015460ff80821615801560e08601819052610100938490049092161515928501929092526008830154610120850152600990920154610140840152906125bb5750806101000151155b80156125ca5750428160800151115b1561260a576125d9858361353f565b61260a57808383815181106125fe57634e487b7160e01b600052603260045260246000fd5b60200260200101819052505b508061261581614327565b9150506124da565b5092915050565b6000546001600160a01b0316331461264e5760405162461bcd60e51b8152600401610bfe906141b4565b6126586000613d38565b565b336000908152601c60205260408120546060919067ffffffffffffffff81111561269457634e487b7160e01b600052604160045260246000fd5b6040519080825280602002602001820160405280156126cd57816020015b6126ba613e0f565b8152602001906001900390816126b25790505b50905060005b336000908152601c6020526040902054811015610ba657336000908152601e6020908152604080832084845282529182902082516101008101845281546001600160a01b031681526001820154928101929092526002810154928201929092526003820154606082015260048201546080820152600582015460a0820152600682015460ff16151560c082015260079091015460e0820152825183908390811061278d57634e487b7160e01b600052603260045260246000fd5b602002602001018190525080806127a390614327565b9150506126d3565b6000546001600160a01b031633146127d55760405162461bcd60e51b8152600401610bfe906141b4565b60008082600214156127f157505060178054908390558261281f565b826003141561280a57505060188054908390558261281f565b826004141561281f5750506019805490839055825b60408051838152602081018390529081018490527f1eb993ea8e47c2ce3cb4aade30f5dbcf13db6e9a00e435ee9d7ee80a3f587883906060015b60405180910390a150505050565b6001600160a01b0382166000908152601d6020908152604080832084845290915281206004810154829042111561289c575060015b949350505050565b6000546001600160a01b031633146128ce5760405162461bcd60e51b8152600401610bfe906141b4565b6128d88282613a72565b6128f45760405162461bcd60e51b8152600401610bfe906141e9565b6000816001141561290d57506009546001600160a01b03165b81600214156129285750600b546001600160a01b0316612975565b81600314156129435750600c546001600160a01b0316612975565b816004141561295e5750600d546001600160a01b0316612975565b81600514156129755750600a546001600160a01b03165b6040516323b872dd60e01b81526001600160a01b038216906323b872dd906129a590309033908890600401613f73565b602060405180830381600087803b1580156129bf57600080fd5b505af11580156129d3573d6000803e3d6000fd5b505050506040513d601f19601f820116820180604052508101906129f79190613ea6565b612a135760405162461bcd60e51b8152600401610bfe90614114565b604051633950935160e01b8152306004820152602481018490526001600160a01b03821690633950935190604401602060405180830381600087803b158015612a5b57600080fd5b505af1158015612a6f573d6000803e3d6000fd5b505050506040513d601f19601f82011682018060405250810190612a939190613ea6565b508160011415612ab257600754612aaa9084613b0b565b600755505050565b8160021415612ad057600454612ac89084613b0b565b600455505050565b8160031415612ae657600554612ac89084613b0b565b8160041415612afc57600654612ac89084613b0b565b8160051415612b1257600354612ac89084613b0b565b505050565b601f818154811061231d57600080fd5b6001600160a01b0381166000908152601b60205260408120546060919067ffffffffffffffff811115612b6a57634e487b7160e01b600052604160045260246000fd5b604051908082528060200260200182016040528015612ba357816020015b612b90613da8565b815260200190600190039081612b885790505b50905060005b6001600160a01b0384166000908152601b602052604090205481101561261d576001600160a01b038085166000908152601d60209081526040808320858452825291829020825161016081018452815490941684526001810154918401919091526002810154918301919091526003810154606083015260048101546080830152600581015460a0830152600681015460c0830152600781015460ff80821615801560e0860181905261010093849004909216151592850192909252600883015461012085015260099092015461014084015290612c8a5750428160800151105b15612cbc5780838381518110612cb057634e487b7160e01b600052603260045260246000fd5b60200260200101819052505b5080612cc781614327565b915050612ba9565b336000908152601c60205260408120546060919067ffffffffffffffff811115612d0957634e487b7160e01b600052604160045260246000fd5b604051908082528060200260200182016040528015612d4257816020015b612d2f613e0f565b815260200190600190039081612d275790505b50905060005b336000908152601c6020526040902054811015610ba657336000908152601e6020908152604080832084845282529182902082516101008101845281546001600160a01b031681526001820154928101929092526002810154928201929092526003820154606082015260048201546080820152600582015460a0820152600682015460ff16151560c0820181905260079092015460e082015290612e145780838381518110612e0857634e487b7160e01b600052603260045260246000fd5b60200260200101819052505b5080612e1f81614327565b915050612d48565b6000546001600160a01b03163314612e515760405162461bcd60e51b8152600401610bfe906141b4565b60008160021415612e6e5750600b546001600160a01b0316612ea0565b8160031415612e895750600c546001600160a01b0316612ea0565b8160041415612ea05750600d546001600160a01b03165b6040516323b872dd60e01b81526001600160a01b038216906323b872dd90612ed090339030908890600401613f73565b602060405180830381600087803b158015612eea57600080fd5b505af1158015612efe573d6000803e3d6000fd5b505050506040513d601f19601f82011682018060405250810190612f229190613ea6565b612f3e5760405162461bcd60e51b8152600401610bfe90614114565b604051633950935160e01b8152306004820152602481018490526001600160a01b03821690633950935190604401602060405180830381600087803b158015612f8657600080fd5b505af1158015612f9a573d6000803e3d6000fd5b505050506040513d601f19601f82011682018060405250810190612fbe9190613ea6565b50476007556002821415612fe157600454612fd99084613b0b565b600455613011565b8160031415612ff757600554612fd99084613b0b565b81600414156130115760065461300d9084613b0b565b6004555b604080518481526020810184905233917f68dcee598918c1887bfa1c13ac763d4659a12722f88a5eb920014ba1f0bc38fb910160405180910390a2505050565b6000816002141561306e5750600b546001600160a01b03166130a0565b81600314156130895750600c546001600160a01b03166130a0565b81600414156130a05750600d546001600160a01b03165b6040516323b872dd60e01b81526001600160a01b038216906323b872dd906130d090339030908890600401613f73565b602060405180830381600087803b1580156130ea57600080fd5b505af11580156130fe573d6000803e3d6000fd5b505050506040513d601f19601f820116820180604052508101906131229190613ea6565b61318d5760405162461bcd60e51b815260206004820152603660248201527f6c656e64546f6b656e3a205472616e7366657220746f6b656e2066726f6d20756044820152751cd95c881d1bc818dbdb9d1c9858dd0819985a5b195960521b6064820152608401610bfe565b613195613e0f565b338082526000908152601c60209081526040918290205490830152810184905260028314156131ec576131e26131db6064610cb860175488613ae790919063ffffffff16565b8590613b0b565b606082015261323e565b8260031415613212576131e26131db6064610cb860185488613ae790919063ffffffff16565b826004141561323e576132386131db6064610cb860195488613ae790919063ffffffff16565b60608201525b42608082018190526132539062278d006142b9565b60a08201908152600060c0830181815260e08401868152338352601e60209081526040808520601c83528186205486528252808520875181546001600160a01b0319166001600160a01b03909116178155918701516001830155860151600280830191909155606087015160038301556080870151600483015594516005820155915160068301805460ff191691151591909117905551600790910155815491906132fd83614327565b9091555050336000908152601c6020526040812080549161331d83614327565b9091555050604051633950935160e01b8152306004820152602481018590526001600160a01b03831690633950935190604401602060405180830381600087803b15801561336a57600080fd5b505af115801561337e573d6000803e3d6000fd5b505050506040513d601f19601f820116820180604052508101906133a29190613ea6565b5082600214156133c1576004546133b99085613b0b565b6004556133db565b82600314156133db576005546133d79085613b0b565b6005555b82600414156133f5576006546133f19085613b0b565b6006555b6133fe33612396565b80600001516001600160a01b03167f4ab15cc690495a744ed84b8955b45eb732403b222a485fa1e287db39ad05e0658260400151836060015184608001518560a001518660c001518760e00151604051613482969594939291909586526020860194909452604085019290925260608401521515608083015260a082015260c00190565b60405180910390a250505050565b600080600061349e84613561565b905060006134ab86613561565b905085600214156134dd576134d660646134d0600f548a613d8890919063ffffffff16565b90613d9c565b9250613526565b8560031415613500576134d660646134d0600e548a613d8890919063ffffffff16565b85600414156135265761352360646134d06010548a613d8890919063ffffffff16565b92505b61353482610cb88584613d9c565b979650505050505050565b60115460009060019061355285856137cf565b1061218d575060009392505050565b601a5460009061010090046001600160a01b03166135915760405162461bcd60e51b8152600401610bfe906140dd565b6000826002141561362957601a60019054906101000a90046001600160a01b03166001600160a01b031663d63c25186040518163ffffffff1660e01b815260040160206040518083038186803b1580156135ea57600080fd5b505afa1580156135fe573d6000803e3d6000fd5b505050506040513d601f19601f820116820180604052508101906136229190613ede565b90506136e5565b826003141561368057601a60019054906101000a90046001600160a01b03166001600160a01b0316633629cf056040518163ffffffff1660e01b815260040160206040518083038186803b1580156135ea57600080fd5b82600414156136d757601a60019054906101000a90046001600160a01b03166001600160a01b0316630f00fa116040518163ffffffff1660e01b815260040160206040518083038186803b1580156135ea57600080fd5b82600514156136e557506008545b600081116121905760405162461bcd60e51b81526020600482015260196024820152781d1bdad95b881c1c9a58d9481a5cdb89dd0818dbdc9c9958dd603a1b6044820152606401610bfe565b600080600061373f84613561565b9050600061374c86613561565b90508560021415613778576137716064610cb8600f548a613ae790919063ffffffff16565b92506137c1565b856003141561379b576137716064610cb8600e548a613ae790919063ffffffff16565b85600414156137c1576137be6064610cb86010548a613ae790919063ffffffff16565b92505b61353481610cb88585613d9c565b6001600160a01b038083166000908152601d602090815260408083208584529091528120601a549192909183916101009091041661381f5760405162461bcd60e51b8152600401610bfe906140dd565b600061382e8360090154613561565b9050600081116138805760405162461bcd60e51b815260206004820152601960248201527f65746865722070726963652069736e277420636f7272656374000000000000006044820152606401610bfe565b600061388f8460080154613561565b9050600081116138dd5760405162461bcd60e51b81526020600482015260196024820152781d1bdad95b881c1c9a58d9481a5cdb89dd0818dbdc9c9958dd603a1b6044820152606401610bfe565b60038401546000906138ef9083613ae7565b9050600061390a848760020154613ae790919063ffffffff16565b905061391b60646134d08484613d88565b9998505050505050505050565b6000546001600160a01b031633146139525760405162461bcd60e51b8152600401610bfe906141b4565b600080826002141561396e57505060148054908390558261399c565b826003141561398757505060158054908390558261399c565b826004141561399c5750506016805490839055825b60408051838152602081018390529081018490527f5e35c511ddee3bac4f3cd917d8e465c37126e7a8a0bc5f8439a65c7676abe19b90606001612859565b6000546001600160a01b03163314613a045760405162461bcd60e51b8152600401610bfe906141b4565b6001600160a01b038116613a695760405162461bcd60e51b815260206004820152602660248201527f4f776e61626c653a206e6577206f776e657220697320746865207a65726f206160448201526564647265737360d01b6064820152608401610bfe565b61204581613d38565b6000808260011415613a875750600754613acb565b8260021415613a995750600454613acb565b8260031415613aab5750600554613acb565b8260041415613abd5750600654613acb565b8260051415613acb57506003545b80841115613add576000915050612190565b6001915050612190565b600061218d670de0b6b3a7640000610cb88585613d9c565b600061218d82846142d1565b600061218d82846142b9565b600061218d8284614310565b6000546001600160a01b03163314613b4d5760405162461bcd60e51b8152600401610bfe906141b4565b6001600160a01b0382166000908152601d602090815260408083208484529091529020600781015460ff1615613b955760405162461bcd60e51b8152600401610bfe90614282565b613b9f8383612867565b1515600114613bfb5760405162461bcd60e51b815260206004820152602260248201527f776974686472617745746865723a204c6f616e206973206e6f74206578706972604482015261195960f21b6064820152608401610bfe565b60078101805461ffff1916610100179055805460028201546009830154604080516001600160a01b03909416845242602085015283019190915260608201527f158ba9ab7bbbd08eeffa4753bad41f4d450e24831d293427308badf3eadd8c7690608001611674565b6000546001600160a01b03163314613c8e5760405162461bcd60e51b8152600401610bfe906141b4565b6001600160a01b0382166000908152601d602090815260408083208484529091529020600781015460ff1615613cd65760405162461bcd60e51b8152600401610bfe90614282565b613ce0838361353f565b15613bfb5760405162461bcd60e51b815260206004820152602260248201527f776974686472617745746865723a204c6f616e206865616c7468206973207472604482015261756560f01b6064820152608401610bfe565b600080546001600160a01b038381166001600160a01b0319831681178455604051919092169283917f8be0079c531659141344cd1fd0a4f28419497f9722a3daafe3b4186f6b6457e09190a35050565b600061218d82610cb885670de0b6b3a76400005b600061218d82846142f1565b60405180610160016040528060006001600160a01b0316815260200160008152602001600081526020016000815260200160008152602001600081526020016000815260200160001515815260200160001515815260200160008152602001600081525090565b60405180610100016040528060006001600160a01b031681526020016000815260200160008152602001600081526020016000815260200160008152602001600015158152602001600081525090565b600060208284031215613e70578081fd5b813561218d81614358565b60008060408385031215613e8d578081fd5b8235613e9881614358565b946020939093013593505050565b600060208284031215613eb7578081fd5b8151801515811461218d578182fd5b600060208284031215613ed7578081fd5b5035919050565b600060208284031215613eef578081fd5b5051919050565b60008060408385031215613f08578182fd5b50508035926020909101359150565b600080600060608486031215613f2b578081fd5b505081359360208301359350604090920135919050565b60008060008060808587031215613f57578081fd5b5050823594602084013594506040840135936060013592509050565b6001600160a01b039384168152919092166020820152604081019190915260600190565b602080825282518282018190526000919060409081850190868401855b8281101561402257815180516001600160a01b0316855286810151878601528581015186860152606080820151908601526080808201519086015260a0808201519086015260c08082015115159086015260e090810151908501526101009093019290850190600101613fb4565b5091979650505050505050565b602080825282518282018190526000919060409081850190868401855b8281101561402257815180516001600160a01b0316855286810151878601528581015186860152606080820151908601526080808201519086015260a0808201519086015260c0808201519086015260e0808201511515908601526101008082015115159086015261012080820151908601526101409081015190850152610160909301929085019060010161404c565b6020808252601e908201527f7072696365206f7261636c652069736e277420696e697469616c697a65640000604082015260600190565b60208082526023908201527f5472616e73616374696f6e206661696c6564206f6e20696e69742066756e637460408201526234b7b760e91b606082015260800190565b60208082526039908201527f7061796261636b3a205472616e7366657220636f6c6c61746572616c2066726f60408201527f6d20636f6e747261637420746f2075736572206661696c656400000000000000606082015260800190565b6020808252818101527f4f776e61626c653a2063616c6c6572206973206e6f7420746865206f776e6572604082015260600190565b60208082526023908201527f776974684472617745746865723a206e6f7420656e6f756768206c697175696460408201526269747960e81b606082015260800190565b60208082526036908201527f6c6f616e546f6b656e3a205472616e7366657220746f6b656e2066726f6d20636040820152751bdb9d1c9858dd081d1bc81d5cd95c8819985a5b195960521b606082015260800190565b60208082526018908201527f7061796261636b3a207061796261636b20616c72656164790000000000000000604082015260600190565b600082198211156142cc576142cc614342565b500190565b6000826142ec57634e487b7160e01b81526012600452602481fd5b500490565b600081600019048311821515161561430b5761430b614342565b500290565b60008282101561432257614322614342565b500390565b600060001982141561433b5761433b614342565b5060010190565b634e487b7160e01b600052601160045260246000fd5b6001600160a01b038116811461204557600080fdfea26469706673582212204811804e0aea6b5676306d6ceeb5b76fcc25c8c4fd666e6c6ac5b9999cf4e60664736f6c63430008040033",
  "linkReferences": {},
  "deployedLinkReferences": {}
}