{
  "_format": "hh-sol-artifact-1",
  "contractName": "Loan",
  "sourceName": "contracts/Loan.sol",
  "abi": [
    {
      "inputs": [
        {
          "internalType": "address",
          "name": "_odonAddress",
          "type": "address"
        },
        {
          "internalType": "address",
          "name": "_usdcAddress",
          "type": "address"
        },
        {
          "internalType": "address",
          "name": "_usdtAddress",
          "type": "address"
        },
        {
          "internalType": "address",
          "name": "_btcAddress",
          "type": "address"
        }
      ],
      "stateMutability": "nonpayable",
      "type": "constructor"
    },
    {
      "anonymous": false,
      "inputs": [
        {
          "indexed": false,
          "internalType": "uint256",
          "name": "_usdcAPY",
          "type": "uint256"
        },
        {
          "indexed": false,
          "internalType": "uint256",
          "name": "_usdtAPY",
          "type": "uint256"
        },
        {
          "indexed": false,
          "internalType": "uint256",
          "name": "_btcAPY",
          "type": "uint256"
        }
      ],
      "name": "BorrowAPYUpdated",
      "type": "event"
    },
    {
      "anonymous": false,
      "inputs": [
        {
          "indexed": true,
          "internalType": "address",
          "name": "admin",
          "type": "address"
        },
        {
          "indexed": false,
          "internalType": "uint256",
          "name": "amount",
          "type": "uint256"
        },
        {
          "indexed": false,
          "internalType": "uint256",
          "name": "mtype",
          "type": "uint256"
        }
      ],
      "name": "InitBalance",
      "type": "event"
    },
    {
      "anonymous": false,
      "inputs": [
        {
          "indexed": false,
          "internalType": "uint256",
          "name": "_usdcAPY",
          "type": "uint256"
        },
        {
          "indexed": false,
          "internalType": "uint256",
          "name": "_usdtAPY",
          "type": "uint256"
        },
        {
          "indexed": false,
          "internalType": "uint256",
          "name": "_btcAPY",
          "type": "uint256"
        }
      ],
      "name": "LendAPYUpdated",
      "type": "event"
    },
    {
      "anonymous": false,
      "inputs": [
        {
          "indexed": false,
          "internalType": "address",
          "name": "liquidator",
          "type": "address"
        },
        {
          "indexed": false,
          "internalType": "uint256",
          "name": "liquidateTime",
          "type": "uint256"
        }
      ],
      "name": "Liquidate",
      "type": "event"
    },
    {
      "anonymous": false,
      "inputs": [
        {
          "indexed": false,
          "internalType": "uint256",
          "name": "mtype",
          "type": "uint256"
        }
      ],
      "name": "LoanDurationModeUpdated",
      "type": "event"
    },
    {
      "anonymous": false,
      "inputs": [
        {
          "indexed": true,
          "internalType": "address",
          "name": "lender",
          "type": "address"
        },
        {
          "indexed": false,
          "internalType": "uint256",
          "name": "lendAmount",
          "type": "uint256"
        },
        {
          "indexed": false,
          "internalType": "uint256",
          "name": "paybackAmount",
          "type": "uint256"
        },
        {
          "indexed": false,
          "internalType": "uint256",
          "name": "timeLend",
          "type": "uint256"
        },
        {
          "indexed": false,
          "internalType": "uint256",
          "name": "timeCanGetInterest",
          "type": "uint256"
        },
        {
          "indexed": false,
          "internalType": "bool",
          "name": "retrieved",
          "type": "bool"
        },
        {
          "indexed": false,
          "internalType": "uint256",
          "name": "mtype",
          "type": "uint256"
        }
      ],
      "name": "NewLend",
      "type": "event"
    },
    {
      "anonymous": false,
      "inputs": [
        {
          "indexed": true,
          "internalType": "address",
          "name": "borrower",
          "type": "address"
        },
        {
          "indexed": false,
          "internalType": "uint256",
          "name": "loanAmount",
          "type": "uint256"
        },
        {
          "indexed": false,
          "internalType": "uint256",
          "name": "collateralAmount",
          "type": "uint256"
        },
        {
          "indexed": false,
          "internalType": "uint256",
          "name": "paybackAmount",
          "type": "uint256"
        },
        {
          "indexed": false,
          "internalType": "uint256",
          "name": "loanDueDate",
          "type": "uint256"
        },
        {
          "indexed": false,
          "internalType": "uint256",
          "name": "duration",
          "type": "uint256"
        },
        {
          "indexed": false,
          "internalType": "uint256",
          "name": "mtype",
          "type": "uint256"
        },
        {
          "indexed": false,
          "internalType": "uint256",
          "name": "ctype",
          "type": "uint256"
        }
      ],
      "name": "NewLoan",
      "type": "event"
    },
    {
      "anonymous": false,
      "inputs": [
        {
          "indexed": false,
          "internalType": "uint256",
          "name": "_price",
          "type": "uint256"
        }
      ],
      "name": "OdonPriceUpdated",
      "type": "event"
    },
    {
      "anonymous": false,
      "inputs": [
        {
          "indexed": true,
          "internalType": "address",
          "name": "previousOwner",
          "type": "address"
        },
        {
          "indexed": true,
          "internalType": "address",
          "name": "newOwner",
          "type": "address"
        }
      ],
      "name": "OwnershipTransferred",
      "type": "event"
    },
    {
      "anonymous": false,
      "inputs": [
        {
          "indexed": false,
          "internalType": "address",
          "name": "borrower",
          "type": "address"
        },
        {
          "indexed": false,
          "internalType": "bool",
          "name": "paybackSuccess",
          "type": "bool"
        },
        {
          "indexed": false,
          "internalType": "uint256",
          "name": "paybackTime",
          "type": "uint256"
        },
        {
          "indexed": false,
          "internalType": "uint256",
          "name": "paybackAmount",
          "type": "uint256"
        },
        {
          "indexed": false,
          "internalType": "uint256",
          "name": "returnCollateralAmount",
          "type": "uint256"
        },
        {
          "indexed": false,
          "internalType": "uint256",
          "name": "mtype",
          "type": "uint256"
        },
        {
          "indexed": false,
          "internalType": "uint256",
          "name": "ctype",
          "type": "uint256"
        }
      ],
      "name": "PayBack",
      "type": "event"
    },
    {
      "anonymous": false,
      "inputs": [
        {
          "indexed": true,
          "internalType": "address",
          "name": "priceOracleAddress",
          "type": "address"
        }
      ],
      "name": "PriceOracleUpdated",
      "type": "event"
    },
    {
      "anonymous": false,
      "inputs": [
        {
          "indexed": false,
          "internalType": "uint256",
          "name": "_usdcLTV",
          "type": "uint256"
        },
        {
          "indexed": false,
          "internalType": "uint256",
          "name": "_usdtLTV",
          "type": "uint256"
        },
        {
          "indexed": false,
          "internalType": "uint256",
          "name": "_btcLTV",
          "type": "uint256"
        }
      ],
      "name": "StandardLTVUpdated",
      "type": "event"
    },
    {
      "anonymous": false,
      "inputs": [
        {
          "indexed": false,
          "internalType": "uint256",
          "name": "withdrawAmount",
          "type": "uint256"
        },
        {
          "indexed": false,
          "internalType": "uint256",
          "name": "mtype",
          "type": "uint256"
        }
      ],
      "name": "WithDrawReserve",
      "type": "event"
    },
    {
      "anonymous": false,
      "inputs": [
        {
          "indexed": false,
          "internalType": "bool",
          "name": "isEarnInterest",
          "type": "bool"
        },
        {
          "indexed": false,
          "internalType": "uint256",
          "name": "withdrawAmount",
          "type": "uint256"
        },
        {
          "indexed": false,
          "internalType": "uint256",
          "name": "mtype",
          "type": "uint256"
        }
      ],
      "name": "Withdraw",
      "type": "event"
    },
    {
      "inputs": [],
      "name": "AutoLiquidate",
      "outputs": [],
      "stateMutability": "nonpayable",
      "type": "function"
    },
    {
      "inputs": [
        {
          "internalType": "uint256",
          "name": "",
          "type": "uint256"
        }
      ],
      "name": "LendUserList",
      "outputs": [
        {
          "internalType": "address",
          "name": "",
          "type": "address"
        }
      ],
      "stateMutability": "view",
      "type": "function"
    },
    {
      "inputs": [
        {
          "internalType": "uint256",
          "name": "",
          "type": "uint256"
        }
      ],
      "name": "LoanUserList",
      "outputs": [
        {
          "internalType": "address",
          "name": "",
          "type": "address"
        }
      ],
      "stateMutability": "view",
      "type": "function"
    },
    {
      "inputs": [
        {
          "internalType": "address",
          "name": "_user",
          "type": "address"
        }
      ],
      "name": "addUserToLendUserList",
      "outputs": [],
      "stateMutability": "nonpayable",
      "type": "function"
    },
    {
      "inputs": [
        {
          "internalType": "address",
          "name": "_user",
          "type": "address"
        }
      ],
      "name": "addUserToLoanUserList",
      "outputs": [],
      "stateMutability": "nonpayable",
      "type": "function"
    },
    {
      "inputs": [],
      "name": "btcAddress",
      "outputs": [
        {
          "internalType": "address",
          "name": "",
          "type": "address"
        }
      ],
      "stateMutability": "view",
      "type": "function"
    },
    {
      "inputs": [],
      "name": "btcBorrowAPY",
      "outputs": [
        {
          "internalType": "uint256",
          "name": "",
          "type": "uint256"
        }
      ],
      "stateMutability": "view",
      "type": "function"
    },
    {
      "inputs": [],
      "name": "btcLTV",
      "outputs": [
        {
          "internalType": "uint256",
          "name": "",
          "type": "uint256"
        }
      ],
      "stateMutability": "view",
      "type": "function"
    },
    {
      "inputs": [],
      "name": "btcLendAPY",
      "outputs": [
        {
          "internalType": "uint256",
          "name": "",
          "type": "uint256"
        }
      ],
      "stateMutability": "view",
      "type": "function"
    },
    {
      "inputs": [],
      "name": "btcTotalLiquidity",
      "outputs": [
        {
          "internalType": "uint256",
          "name": "",
          "type": "uint256"
        }
      ],
      "stateMutability": "view",
      "type": "function"
    },
    {
      "inputs": [
        {
          "internalType": "uint256",
          "name": "_amount",
          "type": "uint256"
        },
        {
          "internalType": "uint256",
          "name": "mtype",
          "type": "uint256"
        }
      ],
      "name": "checkEnoughLiquidity",
      "outputs": [
        {
          "internalType": "bool",
          "name": "",
          "type": "bool"
        }
      ],
      "stateMutability": "view",
      "type": "function"
    },
    {
      "inputs": [
        {
          "internalType": "address",
          "name": "borrower",
          "type": "address"
        },
        {
          "internalType": "uint256",
          "name": "_id",
          "type": "uint256"
        }
      ],
      "name": "checkLoanExpire",
      "outputs": [
        {
          "internalType": "bool",
          "name": "",
          "type": "bool"
        }
      ],
      "stateMutability": "view",
      "type": "function"
    },
    {
      "inputs": [
        {
          "internalType": "address",
          "name": "_borrower",
          "type": "address"
        },
        {
          "internalType": "uint256",
          "name": "_id",
          "type": "uint256"
        }
      ],
      "name": "checkLoanHealth",
      "outputs": [
        {
          "internalType": "bool",
          "name": "",
          "type": "bool"
        }
      ],
      "stateMutability": "view",
      "type": "function"
    },
    {
      "inputs": [
        {
          "internalType": "uint256",
          "name": "lnAmount",
          "type": "uint256"
        },
        {
          "internalType": "uint256",
          "name": "mtype",
          "type": "uint256"
        },
        {
          "internalType": "uint256",
          "name": "ctype",
          "type": "uint256"
        }
      ],
      "name": "collateralAmount",
      "outputs": [
        {
          "internalType": "uint256",
          "name": "",
          "type": "uint256"
        }
      ],
      "stateMutability": "view",
      "type": "function"
    },
    {
      "inputs": [],
      "name": "dangerousLTV",
      "outputs": [
        {
          "internalType": "uint256",
          "name": "",
          "type": "uint256"
        }
      ],
      "stateMutability": "view",
      "type": "function"
    },
    {
      "inputs": [
        {
          "internalType": "uint256",
          "name": "_amount",
          "type": "uint256"
        },
        {
          "internalType": "uint256",
          "name": "mtype",
          "type": "uint256"
        }
      ],
      "name": "depositToken",
      "outputs": [],
      "stateMutability": "nonpayable",
      "type": "function"
    },
    {
      "inputs": [],
      "name": "firstAddAPY",
      "outputs": [
        {
          "internalType": "uint256",
          "name": "",
          "type": "uint256"
        }
      ],
      "stateMutability": "view",
      "type": "function"
    },
    {
      "inputs": [],
      "name": "getAllUserLoans",
      "outputs": [
        {
          "components": [
            {
              "internalType": "address",
              "name": "borrower",
              "type": "address"
            },
            {
              "internalType": "uint256",
              "name": "loanAmount",
              "type": "uint256"
            },
            {
              "internalType": "uint256",
              "name": "collateralAmount",
              "type": "uint256"
            },
            {
              "internalType": "uint256",
              "name": "paybackAmount",
              "type": "uint256"
            },
            {
              "internalType": "uint256",
              "name": "loanDueDate",
              "type": "uint256"
            },
            {
              "internalType": "uint256",
              "name": "duration",
              "type": "uint256"
            },
            {
              "internalType": "uint256",
              "name": "loanId",
              "type": "uint256"
            },
            {
              "internalType": "bool",
              "name": "isPayback",
              "type": "bool"
            },
            {
              "internalType": "bool",
              "name": "isLiquidate",
              "type": "bool"
            },
            {
              "internalType": "uint256",
              "name": "mtype",
              "type": "uint256"
            },
            {
              "internalType": "uint256",
              "name": "ctype",
              "type": "uint256"
            }
          ],
          "internalType": "struct Loan.LoanRequest[]",
          "name": "",
          "type": "tuple[]"
        }
      ],
      "stateMutability": "view",
      "type": "function"
    },
    {
      "inputs": [
        {
          "internalType": "address",
          "name": "_borrower",
          "type": "address"
        },
        {
          "internalType": "uint256",
          "name": "_id",
          "type": "uint256"
        }
      ],
      "name": "getLoansLTV",
      "outputs": [
        {
          "internalType": "uint256",
          "name": "",
          "type": "uint256"
        }
      ],
      "stateMutability": "view",
      "type": "function"
    },
    {
      "inputs": [
        {
          "internalType": "uint256",
          "name": "mtype",
          "type": "uint256"
        }
      ],
      "name": "getTokenPriceInUSD",
      "outputs": [
        {
          "internalType": "uint256",
          "name": "",
          "type": "uint256"
        }
      ],
      "stateMutability": "view",
      "type": "function"
    },
    {
      "inputs": [
        {
          "internalType": "uint256",
          "name": "mtype",
          "type": "uint256"
        }
      ],
      "name": "getTotalLiquidityInUSD",
      "outputs": [
        {
          "internalType": "uint256",
          "name": "",
          "type": "uint256"
        }
      ],
      "stateMutability": "view",
      "type": "function"
    },
    {
      "inputs": [],
      "name": "getUserAllLends",
      "outputs": [
        {
          "components": [
            {
              "internalType": "address",
              "name": "lender",
              "type": "address"
            },
            {
              "internalType": "uint256",
              "name": "lendId",
              "type": "uint256"
            },
            {
              "internalType": "uint256",
              "name": "lendAmount",
              "type": "uint256"
            },
            {
              "internalType": "uint256",
              "name": "paybackAmount",
              "type": "uint256"
            },
            {
              "internalType": "uint256",
              "name": "timeLend",
              "type": "uint256"
            },
            {
              "internalType": "uint256",
              "name": "timeCanGetInterest",
              "type": "uint256"
            },
            {
              "internalType": "bool",
              "name": "retrieved",
              "type": "bool"
            },
            {
              "internalType": "uint256",
              "name": "mtype",
              "type": "uint256"
            }
          ],
          "internalType": "struct Loan.LendRequest[]",
          "name": "",
          "type": "tuple[]"
        }
      ],
      "stateMutability": "view",
      "type": "function"
    },
    {
      "inputs": [],
      "name": "getUserNotRetrieveLend",
      "outputs": [
        {
          "components": [
            {
              "internalType": "address",
              "name": "lender",
              "type": "address"
            },
            {
              "internalType": "uint256",
              "name": "lendId",
              "type": "uint256"
            },
            {
              "internalType": "uint256",
              "name": "lendAmount",
              "type": "uint256"
            },
            {
              "internalType": "uint256",
              "name": "paybackAmount",
              "type": "uint256"
            },
            {
              "internalType": "uint256",
              "name": "timeLend",
              "type": "uint256"
            },
            {
              "internalType": "uint256",
              "name": "timeCanGetInterest",
              "type": "uint256"
            },
            {
              "internalType": "bool",
              "name": "retrieved",
              "type": "bool"
            },
            {
              "internalType": "uint256",
              "name": "mtype",
              "type": "uint256"
            }
          ],
          "internalType": "struct Loan.LendRequest[]",
          "name": "",
          "type": "tuple[]"
        }
      ],
      "stateMutability": "view",
      "type": "function"
    },
    {
      "inputs": [],
      "name": "getUserOngoingLoans",
      "outputs": [
        {
          "components": [
            {
              "internalType": "address",
              "name": "borrower",
              "type": "address"
            },
            {
              "internalType": "uint256",
              "name": "loanAmount",
              "type": "uint256"
            },
            {
              "internalType": "uint256",
              "name": "collateralAmount",
              "type": "uint256"
            },
            {
              "internalType": "uint256",
              "name": "paybackAmount",
              "type": "uint256"
            },
            {
              "internalType": "uint256",
              "name": "loanDueDate",
              "type": "uint256"
            },
            {
              "internalType": "uint256",
              "name": "duration",
              "type": "uint256"
            },
            {
              "internalType": "uint256",
              "name": "loanId",
              "type": "uint256"
            },
            {
              "internalType": "bool",
              "name": "isPayback",
              "type": "bool"
            },
            {
              "internalType": "bool",
              "name": "isLiquidate",
              "type": "bool"
            },
            {
              "internalType": "uint256",
              "name": "mtype",
              "type": "uint256"
            },
            {
              "internalType": "uint256",
              "name": "ctype",
              "type": "uint256"
            }
          ],
          "internalType": "struct Loan.LoanRequest[]",
          "name": "",
          "type": "tuple[]"
        }
      ],
      "stateMutability": "view",
      "type": "function"
    },
    {
      "inputs": [
        {
          "internalType": "address",
          "name": "borrower",
          "type": "address"
        }
      ],
      "name": "getUserOverdueLoans",
      "outputs": [
        {
          "components": [
            {
              "internalType": "address",
              "name": "borrower",
              "type": "address"
            },
            {
              "internalType": "uint256",
              "name": "loanAmount",
              "type": "uint256"
            },
            {
              "internalType": "uint256",
              "name": "collateralAmount",
              "type": "uint256"
            },
            {
              "internalType": "uint256",
              "name": "paybackAmount",
              "type": "uint256"
            },
            {
              "internalType": "uint256",
              "name": "loanDueDate",
              "type": "uint256"
            },
            {
              "internalType": "uint256",
              "name": "duration",
              "type": "uint256"
            },
            {
              "internalType": "uint256",
              "name": "loanId",
              "type": "uint256"
            },
            {
              "internalType": "bool",
              "name": "isPayback",
              "type": "bool"
            },
            {
              "internalType": "bool",
              "name": "isLiquidate",
              "type": "bool"
            },
            {
              "internalType": "uint256",
              "name": "mtype",
              "type": "uint256"
            },
            {
              "internalType": "uint256",
              "name": "ctype",
              "type": "uint256"
            }
          ],
          "internalType": "struct Loan.LoanRequest[]",
          "name": "",
          "type": "tuple[]"
        }
      ],
      "stateMutability": "view",
      "type": "function"
    },
    {
      "inputs": [
        {
          "internalType": "address",
          "name": "borrower",
          "type": "address"
        }
      ],
      "name": "getUserUnHealthLoans",
      "outputs": [
        {
          "components": [
            {
              "internalType": "address",
              "name": "borrower",
              "type": "address"
            },
            {
              "internalType": "uint256",
              "name": "loanAmount",
              "type": "uint256"
            },
            {
              "internalType": "uint256",
              "name": "collateralAmount",
              "type": "uint256"
            },
            {
              "internalType": "uint256",
              "name": "paybackAmount",
              "type": "uint256"
            },
            {
              "internalType": "uint256",
              "name": "loanDueDate",
              "type": "uint256"
            },
            {
              "internalType": "uint256",
              "name": "duration",
              "type": "uint256"
            },
            {
              "internalType": "uint256",
              "name": "loanId",
              "type": "uint256"
            },
            {
              "internalType": "bool",
              "name": "isPayback",
              "type": "bool"
            },
            {
              "internalType": "bool",
              "name": "isLiquidate",
              "type": "bool"
            },
            {
              "internalType": "uint256",
              "name": "mtype",
              "type": "uint256"
            },
            {
              "internalType": "uint256",
              "name": "ctype",
              "type": "uint256"
            }
          ],
          "internalType": "struct Loan.LoanRequest[]",
          "name": "",
          "type": "tuple[]"
        }
      ],
      "stateMutability": "view",
      "type": "function"
    },
    {
      "inputs": [
        {
          "internalType": "uint256",
          "name": "_amount",
          "type": "uint256"
        },
        {
          "internalType": "uint256",
          "name": "mtype",
          "type": "uint256"
        }
      ],
      "name": "init",
      "outputs": [],
      "stateMutability": "nonpayable",
      "type": "function"
    },
    {
      "inputs": [],
      "name": "lendCount",
      "outputs": [
        {
          "internalType": "uint256",
          "name": "",
          "type": "uint256"
        }
      ],
      "stateMutability": "view",
      "type": "function"
    },
    {
      "inputs": [
        {
          "internalType": "uint256",
          "name": "_amount",
          "type": "uint256"
        },
        {
          "internalType": "uint256",
          "name": "mtype",
          "type": "uint256"
        }
      ],
      "name": "lendToken",
      "outputs": [],
      "stateMutability": "nonpayable",
      "type": "function"
    },
    {
      "inputs": [
        {
          "internalType": "address",
          "name": "",
          "type": "address"
        },
        {
          "internalType": "uint256",
          "name": "",
          "type": "uint256"
        }
      ],
      "name": "lends",
      "outputs": [
        {
          "internalType": "address",
          "name": "lender",
          "type": "address"
        },
        {
          "internalType": "uint256",
          "name": "lendId",
          "type": "uint256"
        },
        {
          "internalType": "uint256",
          "name": "lendAmount",
          "type": "uint256"
        },
        {
          "internalType": "uint256",
          "name": "paybackAmount",
          "type": "uint256"
        },
        {
          "internalType": "uint256",
          "name": "timeLend",
          "type": "uint256"
        },
        {
          "internalType": "uint256",
          "name": "timeCanGetInterest",
          "type": "uint256"
        },
        {
          "internalType": "bool",
          "name": "retrieved",
          "type": "bool"
        },
        {
          "internalType": "uint256",
          "name": "mtype",
          "type": "uint256"
        }
      ],
      "stateMutability": "view",
      "type": "function"
    },
    {
      "inputs": [
        {
          "internalType": "uint256",
          "name": "_amount",
          "type": "uint256"
        },
        {
          "internalType": "uint256",
          "name": "_colAmount",
          "type": "uint256"
        },
        {
          "internalType": "uint256",
          "name": "_duration",
          "type": "uint256"
        },
        {
          "internalType": "uint256",
          "name": "mtype",
          "type": "uint256"
        },
        {
          "internalType": "uint256",
          "name": "ctype",
          "type": "uint256"
        }
      ],
      "name": "loan",
      "outputs": [],
      "stateMutability": "nonpayable",
      "type": "function"
    },
    {
      "inputs": [
        {
          "internalType": "uint256",
          "name": "colAmount",
          "type": "uint256"
        },
        {
          "internalType": "uint256",
          "name": "mtype",
          "type": "uint256"
        },
        {
          "internalType": "uint256",
          "name": "ctype",
          "type": "uint256"
        }
      ],
      "name": "loanAmount",
      "outputs": [
        {
          "internalType": "uint256",
          "name": "",
          "type": "uint256"
        }
      ],
      "stateMutability": "view",
      "type": "function"
    },
    {
      "inputs": [],
      "name": "loanCount",
      "outputs": [
        {
          "internalType": "uint256",
          "name": "",
          "type": "uint256"
        }
      ],
      "stateMutability": "view",
      "type": "function"
    },
    {
      "inputs": [],
      "name": "loanMode",
      "outputs": [
        {
          "internalType": "uint256",
          "name": "",
          "type": "uint256"
        }
      ],
      "stateMutability": "view",
      "type": "function"
    },
    {
      "inputs": [
        {
          "internalType": "address",
          "name": "",
          "type": "address"
        },
        {
          "internalType": "uint256",
          "name": "",
          "type": "uint256"
        }
      ],
      "name": "loans",
      "outputs": [
        {
          "internalType": "address",
          "name": "borrower",
          "type": "address"
        },
        {
          "internalType": "uint256",
          "name": "loanAmount",
          "type": "uint256"
        },
        {
          "internalType": "uint256",
          "name": "collateralAmount",
          "type": "uint256"
        },
        {
          "internalType": "uint256",
          "name": "paybackAmount",
          "type": "uint256"
        },
        {
          "internalType": "uint256",
          "name": "loanDueDate",
          "type": "uint256"
        },
        {
          "internalType": "uint256",
          "name": "duration",
          "type": "uint256"
        },
        {
          "internalType": "uint256",
          "name": "loanId",
          "type": "uint256"
        },
        {
          "internalType": "bool",
          "name": "isPayback",
          "type": "bool"
        },
        {
          "internalType": "bool",
          "name": "isLiquidate",
          "type": "bool"
        },
        {
          "internalType": "uint256",
          "name": "mtype",
          "type": "uint256"
        },
        {
          "internalType": "uint256",
          "name": "ctype",
          "type": "uint256"
        }
      ],
      "stateMutability": "view",
      "type": "function"
    },
    {
      "inputs": [],
      "name": "movrAddress",
      "outputs": [
        {
          "internalType": "address",
          "name": "",
          "type": "address"
        }
      ],
      "stateMutability": "view",
      "type": "function"
    },
    {
      "inputs": [],
      "name": "odonAddress",
      "outputs": [
        {
          "internalType": "address",
          "name": "",
          "type": "address"
        }
      ],
      "stateMutability": "view",
      "type": "function"
    },
    {
      "inputs": [],
      "name": "odonPrice",
      "outputs": [
        {
          "internalType": "uint256",
          "name": "",
          "type": "uint256"
        }
      ],
      "stateMutability": "view",
      "type": "function"
    },
    {
      "inputs": [],
      "name": "odonTotalLiquidity",
      "outputs": [
        {
          "internalType": "uint256",
          "name": "",
          "type": "uint256"
        }
      ],
      "stateMutability": "view",
      "type": "function"
    },
    {
      "inputs": [],
      "name": "owner",
      "outputs": [
        {
          "internalType": "address",
          "name": "",
          "type": "address"
        }
      ],
      "stateMutability": "view",
      "type": "function"
    },
    {
      "inputs": [
        {
          "internalType": "uint256",
          "name": "_id",
          "type": "uint256"
        },
        {
          "internalType": "uint256",
          "name": "_amount",
          "type": "uint256"
        }
      ],
      "name": "payback",
      "outputs": [],
      "stateMutability": "nonpayable",
      "type": "function"
    },
    {
      "inputs": [],
      "name": "renounceOwnership",
      "outputs": [],
      "stateMutability": "nonpayable",
      "type": "function"
    },
    {
      "inputs": [],
      "name": "secondAddAPY",
      "outputs": [
        {
          "internalType": "uint256",
          "name": "",
          "type": "uint256"
        }
      ],
      "stateMutability": "view",
      "type": "function"
    },
    {
      "inputs": [
        {
          "internalType": "uint256",
          "name": "_usdcapy",
          "type": "uint256"
        },
        {
          "internalType": "uint256",
          "name": "_usdtapy",
          "type": "uint256"
        },
        {
          "internalType": "uint256",
          "name": "_btcapy",
          "type": "uint256"
        }
      ],
      "name": "setBorrowAPY",
      "outputs": [],
      "stateMutability": "nonpayable",
      "type": "function"
    },
    {
      "inputs": [
        {
          "internalType": "uint256",
          "name": "_usdcapy",
          "type": "uint256"
        },
        {
          "internalType": "uint256",
          "name": "_usdtapy",
          "type": "uint256"
        },
        {
          "internalType": "uint256",
          "name": "_btcapy",
          "type": "uint256"
        }
      ],
      "name": "setLendAPY",
      "outputs": [],
      "stateMutability": "nonpayable",
      "type": "function"
    },
    {
      "inputs": [
        {
          "internalType": "uint256",
          "name": "mtype",
          "type": "uint256"
        }
      ],
      "name": "setLoanDurationMode",
      "outputs": [],
      "stateMutability": "nonpayable",
      "type": "function"
    },
    {
      "inputs": [
        {
          "internalType": "uint256",
          "name": "_price",
          "type": "uint256"
        }
      ],
      "name": "setPriceOdon",
      "outputs": [],
      "stateMutability": "nonpayable",
      "type": "function"
    },
    {
      "inputs": [
        {
          "internalType": "contract PriceConsumerV3",
          "name": "_oracle",
          "type": "address"
        }
      ],
      "name": "setPriceOracle",
      "outputs": [],
      "stateMutability": "nonpayable",
      "type": "function"
    },
    {
      "inputs": [
        {
          "internalType": "uint256",
          "name": "_usdcltv",
          "type": "uint256"
        },
        {
          "internalType": "uint256",
          "name": "_usdtltv",
          "type": "uint256"
        },
        {
          "internalType": "uint256",
          "name": "_btcltv",
          "type": "uint256"
        }
      ],
      "name": "setStandardLTV",
      "outputs": [],
      "stateMutability": "nonpayable",
      "type": "function"
    },
    {
      "inputs": [],
      "name": "totalLiquidity",
      "outputs": [
        {
          "internalType": "uint256",
          "name": "",
          "type": "uint256"
        }
      ],
      "stateMutability": "view",
      "type": "function"
    },
    {
      "inputs": [
        {
          "internalType": "address",
          "name": "newOwner",
          "type": "address"
        }
      ],
      "name": "transferOwnership",
      "outputs": [],
      "stateMutability": "nonpayable",
      "type": "function"
    },
    {
      "inputs": [],
      "name": "usdcAddress",
      "outputs": [
        {
          "internalType": "address",
          "name": "",
          "type": "address"
        }
      ],
      "stateMutability": "view",
      "type": "function"
    },
    {
      "inputs": [],
      "name": "usdcBorrowAPY",
      "outputs": [
        {
          "internalType": "uint256",
          "name": "",
          "type": "uint256"
        }
      ],
      "stateMutability": "view",
      "type": "function"
    },
    {
      "inputs": [],
      "name": "usdcLTV",
      "outputs": [
        {
          "internalType": "uint256",
          "name": "",
          "type": "uint256"
        }
      ],
      "stateMutability": "view",
      "type": "function"
    },
    {
      "inputs": [],
      "name": "usdcLendAPY",
      "outputs": [
        {
          "internalType": "uint256",
          "name": "",
          "type": "uint256"
        }
      ],
      "stateMutability": "view",
      "type": "function"
    },
    {
      "inputs": [],
      "name": "usdcTotalLiquidity",
      "outputs": [
        {
          "internalType": "uint256",
          "name": "",
          "type": "uint256"
        }
      ],
      "stateMutability": "view",
      "type": "function"
    },
    {
      "inputs": [],
      "name": "usdtAddress",
      "outputs": [
        {
          "internalType": "address",
          "name": "",
          "type": "address"
        }
      ],
      "stateMutability": "view",
      "type": "function"
    },
    {
      "inputs": [],
      "name": "usdtBorrowAPY",
      "outputs": [
        {
          "internalType": "uint256",
          "name": "",
          "type": "uint256"
        }
      ],
      "stateMutability": "view",
      "type": "function"
    },
    {
      "inputs": [],
      "name": "usdtLTV",
      "outputs": [
        {
          "internalType": "uint256",
          "name": "",
          "type": "uint256"
        }
      ],
      "stateMutability": "view",
      "type": "function"
    },
    {
      "inputs": [],
      "name": "usdtLendAPY",
      "outputs": [
        {
          "internalType": "uint256",
          "name": "",
          "type": "uint256"
        }
      ],
      "stateMutability": "view",
      "type": "function"
    },
    {
      "inputs": [],
      "name": "usdtTotalLiquidity",
      "outputs": [
        {
          "internalType": "uint256",
          "name": "",
          "type": "uint256"
        }
      ],
      "stateMutability": "view",
      "type": "function"
    },
    {
      "inputs": [
        {
          "internalType": "address",
          "name": "",
          "type": "address"
        }
      ],
      "name": "userLendsCount",
      "outputs": [
        {
          "internalType": "uint256",
          "name": "",
          "type": "uint256"
        }
      ],
      "stateMutability": "view",
      "type": "function"
    },
    {
      "inputs": [
        {
          "internalType": "address",
          "name": "",
          "type": "address"
        }
      ],
      "name": "userLoansCount",
      "outputs": [
        {
          "internalType": "uint256",
          "name": "",
          "type": "uint256"
        }
      ],
      "stateMutability": "view",
      "type": "function"
    },
    {
      "inputs": [
        {
          "internalType": "uint256",
          "name": "_amount",
          "type": "uint256"
        },
        {
          "internalType": "uint256",
          "name": "mtype",
          "type": "uint256"
        }
      ],
      "name": "withDrawReserve",
      "outputs": [],
      "stateMutability": "nonpayable",
      "type": "function"
    },
    {
      "inputs": [
        {
          "internalType": "uint256",
          "name": "_id",
          "type": "uint256"
        }
      ],
      "name": "withdraw",
      "outputs": [],
      "stateMutability": "nonpayable",
      "type": "function"
    }
  ],
  "bytecode": "0x6080604052624c4b406008556803860e639d80640000600e556803afb087b876900000600f556802ed6689e54f18000060105568049b9ca9a6943400006011556729a2241af62c0000601255674563918244f40000601355678ac7230489e800006014556798a7d9b8314c000060155567a688906bd8b00000601655674563918244f400006017556753444835ec580000601855676f05b59d3b2000006019556001601a55348015620000b157600080fd5b506040516200432538038062004325833981016040819052620000d491620001c3565b620000df3362000156565b6000600181905560028190556007819055600481905560038190556005819055600655600a80546001600160a01b039586166001600160a01b031991821617909155600b805494861694821694909417909355600c805492851692841692909217909155600d80549190931691161790556200021f565b600080546001600160a01b038381166001600160a01b0319831681178455604051919092169283917f8be0079c531659141344cd1fd0a4f28419497f9722a3daafe3b4186f6b6457e09190a35050565b80516001600160a01b0381168114620001be57600080fd5b919050565b60008060008060808587031215620001d9578384fd5b620001e485620001a6565b9350620001f460208601620001a6565b92506200020460408601620001a6565b91506200021460608601620001a6565b905092959194509250565b6140f6806200022f6000396000f3fe608060405234801561001057600080fd5b50600436106103da5760003560e01c8063715018a61161020a578063b04b022a11610125578063d5a0b65d116100b8578063ee9e580011610087578063ee9e580014610926578063f2fde38b14610939578063f6c5dded1461094c578063f7d76ae514610955578063fe3af3ea1461096857600080fd5b8063d5a0b65d146108e4578063d9d0befc146108f7578063df62dbbe1461090a578063e15a6d6a1461091357600080fd5b8063ce63094d116100f4578063ce63094d146108ac578063d3235306146108b5578063d3c9e2c9146108c8578063d3f72d10146108db57600080fd5b8063b04b022a14610874578063bed1daf514610887578063cdb2409a1461089a578063cdbc87f6146108a357600080fd5b8063973c7d451161019d578063a12af8961161016c578063a12af89614610833578063a557b17d14610846578063a5843f081461084e578063ae5c8fca1461086157600080fd5b8063973c7d451461071957806398c61c371461072c5780639ab4a4451461080d5780639d2d04d11461082057600080fd5b80638443bccc116101d95780638443bccc146106c25780638a6a29a0146106d55780638be78e8f146106f55780638da5cb5b1461070857600080fd5b8063715018a61461067957806371d1a70114610681578063725cab5d146106965780637f026f151461069f57600080fd5b806349a4485d116102fa578063648809901161028d5780636b32991e1161025c5780636b32991e146106375780636c6ac5911461064a5780636ccbf7581461065d5780636ef9855b1461067057600080fd5b806364880990146105ff57806365440cef14610612578063693a961d1461061b578063699e0f561461062e57600080fd5b8063530e784f116102c9578063530e784f146105c857806353bbfefa146105db57806360089fca146105ee57806364282ecd146105f657600080fd5b806349a4485d146105845780634c0a79fb1461059757806351bcca5e146105b757806353068056146105bf57600080fd5b8063295dea73116103725780632e1a7d4d116103415780632e1a7d4d146104a25780632e6a1830146104b55780633583de13146104be578063439b3543146104d157600080fd5b8063295dea731461047457806329b53f851461047d5780632b84a68d146104865780632d1fabec1461048f57600080fd5b80630bf1644e116103ae5780630bf1644e1461044457806315770f921461044d578063168c738c1461045657806320ec1ff51461046b57600080fd5b806208001a146103df57806302d45457146103fb578063048422a51461042657806309e3136f1461043b575b600080fd5b6103e860195481565b6040519081526020015b60405180910390f35b600b5461040e906001600160a01b031681565b6040516001600160a01b0390911681526020016103f2565b610439610434366004613bcd565b61097b565b005b6103e8601a5481565b6103e860125481565b6103e860075481565b61045e610a3c565b6040516103f29190613da6565b6103e860175481565b6103e860135481565b6103e860035481565b6103e860045481565b61043961049d366004613c34565b610bf9565b6104396104b0366004613c34565b610c68565b6103e860165481565b6104396104cc366004613c64565b6110eb565b61053d6104df366004613be9565b601f602090815260009283526040808420909152908252902080546001820154600283015460038401546004850154600586015460068701546007909701546001600160a01b03909616969495939492939192909160ff9091169088565b604080516001600160a01b0390991689526020890197909752958701949094526060860192909252608085015260a0840152151560c083015260e0820152610100016103f2565b610439610592366004613c85565b61162d565b6103e86105a5366004613bcd565b601c6020526000908152604090205481565b6104396116a4565b6103e8600f5481565b6104396105d6366004613bcd565b611821565b6103e86105e9366004613c34565b611895565b61045e611998565b6103e860065481565b61043961060d366004613c85565b611b0f565b6103e860055481565b61040e610629366004613c34565b611b86565b6103e860025481565b610439610645366004613c34565b611bb0565b610439610658366004613bcd565b611c0f565b61045e61066b366004613bcd565b611cd1565b6103e860155481565b610439611e9e565b610689611ed4565b6040516103f29190613d0e565b6103e860145481565b6106b26106ad366004613be9565b612025565b60405190151581526020016103f2565b6104396106d0366004613c64565b612062565b6103e86106e3366004613bcd565b601d6020526000908152604090205481565b610439610703366004613c85565b6122d5565b6000546001600160a01b031661040e565b61040e610727366004613c34565b61234c565b6107ac61073a366004613be9565b601e60209081526000928352604080842090915290825290208054600182015460028301546003840154600485015460058601546006870154600788015460088901546009909901546001600160a01b039098169896979596949593949293919260ff8083169361010090930416918b565b604080516001600160a01b03909c168c5260208c019a909a52988a01979097526060890195909552608088019390935260a087019190915260c0860152151560e08501521515610100840152610120830152610140820152610160016103f2565b600c5461040e906001600160a01b031681565b61043961082e366004613c64565b61235c565b61045e610841366004613bcd565b6124e5565b61068961268d565b61043961085c366004613c64565b6127e5565b61043961086f366004613c64565b612985565b600a5461040e906001600160a01b031681565b610439610895366004613cb0565b612cf4565b6103e860105481565b6103e860115481565b6103e860015481565b6103e86108c3366004613c85565b613465565b6106b26108d6366004613be9565b613514565b6103e8600e5481565b6103e86108f2366004613c34565b613536565b6103e8610905366004613c85565b613701565b6103e860185481565b6103e8610921366004613be9565b61379f565b60095461040e906001600160a01b031681565b610439610947366004613bcd565b613956565b6103e860085481565b600d5461040e906001600160a01b031681565b6106b2610976366004613c64565b6139f1565b6000805b6020548110156109e657826001600160a01b0316602082815481106109b457634e487b7160e01b600052603260045260246000fd5b6000918252602090912001546001600160a01b031614156109d457600191505b806109de8161407a565b91505061097f565b5080610a3857602080546001810182556000919091527fc97bfaf2f8ee708c303a06d134f5ecd8389ae0432af62dc132a24118292866bb0180546001600160a01b0319166001600160a01b0384161790555b5050565b336000908152601c60205260408120546060919067ffffffffffffffff811115610a7657634e487b7160e01b600052604160045260246000fd5b604051908082528060200260200182016040528015610aaf57816020015b610a9c613b16565b815260200190600190039081610a945790505b50905060005b336000908152601c6020526040902054811015610bf357336000908152601e6020908152604080832084845282529182902082516101608101845281546001600160a01b031681526001820154928101929092526002810154928201929092526003820154606082015260048201546080820152600582015460a0820152600682015460c0820152600782015460ff80821615801560e085018190526101009384900490921615159284019290925260088401546101208401526009909301546101408301529091610b8a5750806101000151155b8015610b9a575042816080015110155b15610be057610ba93383613514565b151560011415610be05780838381518110610bd457634e487b7160e01b600052603260045260246000fd5b60200260200101819052505b5080610beb8161407a565b915050610ab5565b50919050565b6000546001600160a01b03163314610c2c5760405162461bcd60e51b8152600401610c2390613f81565b60405180910390fd5b601a8190556040518181527f4d5a4bfab3f36cd8f68133a2361e410afb6899ac665938f88ee5e1abb15fec45906020015b60405180910390a150565b336000908152601f602090815260408083208484529091529020600681015460ff1615610cd75760405162461bcd60e51b815260206004820181905260248201527f77697468647261773a204c656e642072657175657374207265747269657665646044820152606401610c23565b80546001600160a01b03163314610d3b5760405162461bcd60e51b815260206004820152602260248201527f77697468647261773a204f6e6c79206c656e6465722063616e20776974686472604482015261617760f01b6064820152608401610c23565b610d4d816002015482600701546139f1565b610d995760405162461bcd60e51b815260206004820152601e60248201527f77697468647261773a206e6f7420656e6f756768206c697175696469747900006044820152606401610c23565b60068101805460ff191660011790556005810154421115610f54576000816007015460021415610dd55750600b546001600160a01b0316610e0f565b816007015460031415610df45750600c546001600160a01b0316610e0f565b816007015460041415610e0f5750600d546001600160a01b03165b815460038301546040516323b872dd60e01b81526001600160a01b03848116936323b872dd93610e4793309390921691600401613cea565b602060405180830381600087803b158015610e6157600080fd5b505af1158015610e75573d6000803e3d6000fd5b505050506040513d601f19601f82011682018060405250810190610e999190613c14565b50816007015460021415610ec0576003820154600454610eb891613a66565b600455610ee2565b816007015460031415610ee2576003820154600554610ede91613a66565b6005555b816007015460041415610f04576003820154600654610f0091613a66565b6006555b60038201546007830154604080516001815260208101939093528201527ffedb0622d5d5fa46cc706a5c2c169f2bf2eb31a59ff2f70cef3096376f58c2c0906060015b60405180910390a1505050565b6000816007015460021415610f755750600b546001600160a01b0316610faf565b816007015460031415610f945750600c546001600160a01b0316610faf565b816007015460041415610faf5750600d546001600160a01b03165b815460028301546040516323b872dd60e01b81526001600160a01b03848116936323b872dd93610fe793309390921691600401613cea565b602060405180830381600087803b15801561100157600080fd5b505af1158015611015573d6000803e3d6000fd5b505050506040513d601f19601f820116820180604052508101906110399190613c14565b5081600701546002141561106057600282015460045461105891613a66565b600455611082565b81600701546003141561108257600282015460055461107e91613a66565b6005555b8160070154600414156110a45760028201546006546110a091613a66565b6006555b60028201546007830154604080516000815260208101939093528201527ffedb0622d5d5fa46cc706a5c2c169f2bf2eb31a59ff2f70cef3096376f58c2c090606001610f47565b336000818152601e602090815260408083208684529091529020805490916001600160a01b039091161461116c5760405162461bcd60e51b815260206004820152602260248201527f7061796261636b3a204f6e6c7920626f72726f7765722063616e207061796261604482015261636b60f01b6064820152608401610c23565b600781015460ff16156111c15760405162461bcd60e51b815260206004820152601860248201527f7061796261636b3a207061796261636b20616c726561647900000000000000006044820152606401610c23565b80600401544211156112155760405162461bcd60e51b815260206004820152601860248201527f7061796261636b3a2065786365656420647565206461746500000000000000006044820152606401610c23565b601154611222338561379f565b106112795760405162461bcd60e51b815260206004820152602160248201527f7061796261636b3a204c5456206578636565642064616e6765726f7573204c546044820152602b60f91b6064820152608401610c23565b80600301548210156112cd5760405162461bcd60e51b815260206004820152601960248201527f7061796261636b3a204e6f7420656e6f75676820746f6b656e000000000000006044820152606401610c23565b6112df816002015482600901546139f1565b61133d5760405162461bcd60e51b815260206004820152602960248201527f7061796261636b3a206e6f7420656e6f756768206c6971756964697479206f6e6044820152680818dbdb9d1c9858dd60ba1b6064820152608401610c23565b600081600801546002141561135e5750600b546001600160a01b0316611398565b81600801546003141561137d5750600c546001600160a01b0316611398565b8160080154600414156113985750600d546001600160a01b03165b6040516323b872dd60e01b81526001600160a01b038216906323b872dd906113c890339030908890600401613cea565b602060405180830381600087803b1580156113e257600080fd5b505af11580156113f6573d6000803e3d6000fd5b505050506040513d601f19601f8201168201806040525081019061141a9190613c14565b6114365760405162461bcd60e51b8152600401610c2390613f24565b816008015460021415611458576004546114509084613a72565b600455611498565b81600801546003141561147a576005546114729084613a72565b600555611498565b816008015460041415611498576006546114949084613a72565b6006555b60008260090154600114156114b957506009546001600160a01b03166114c7565b50600a546001600160a01b03165b60028301546040516323b872dd60e01b81526001600160a01b038316916323b872dd916114fb913091339190600401613cea565b602060405180830381600087803b15801561151557600080fd5b505af1158015611529573d6000803e3d6000fd5b505050506040513d601f19601f8201168201806040525081019061154d9190613c14565b6115695760405162461bcd60e51b8152600401610c2390613f24565b82600901546001141561158f57600283015460075461158791613a66565b6007556115a4565b60028301546003546115a091613a66565b6003555b60078301805461ffff19166001908117909155600384015460028501546008860154600987015460408051338152602081019690965242908601526060850193909352608084019190915260a083015260c08201527f5c775973c71b408f578d06223650690e9508ab4bb549d0691ae69265b311af379060e00160405180910390a15050505050565b6000546001600160a01b031633146116575760405162461bcd60e51b8152600401610c2390613f81565b60148390556015829055601681905560408051848152602081018490529081018290527f5e35c511ddee3bac4f3cd917d8e465c37126e7a8a0bc5f8439a65c7676abe19b90606001610f47565b6000546001600160a01b031633146116ce5760405162461bcd60e51b8152600401610c2390613f81565b60005b6020548110156117e6576000602082815481106116fe57634e487b7160e01b600052603260045260246000fd5b60009182526020822001546001600160a01b031691505b6001600160a01b0382166000908152601c60205260409020548110156117d1576001600160a01b0382166000908152601e602090815260408083208484529091529020600781015460ff1615801561177757506007810154610100900460ff16155b156117be57428160040154101561179e5760078101805461ffff19166101001790556117be565b6117a88383613514565b6117be5760078101805461ffff19166101001790555b50806117c98161407a565b915050611715565b505080806117de9061407a565b9150506116d1565b50604080513381524260208201527f08813a3631e12129135cc9440d3fea50eec346f1673b20b994b0456d5d46ccb9910160405180910390a1565b6000546001600160a01b0316331461184b5760405162461bcd60e51b8152600401610c2390613f81565b601b80546001600160a01b0319166001600160a01b0383169081179091556040517fefe8ab924ca486283a79dc604baa67add51afb82af1db8ac386ebbba643cdffd90600090a250565b601b5460009081906001600160a01b03166118c25760405162461bcd60e51b8152600401610c2390613e54565b82600114156118f5576118ee6305f5e1006118e86118df86613536565b60075490613a7e565b90613a8a565b9050611992565b826002141561191b576118ee6305f5e1006118e861191286613536565b60045490613a7e565b8260031415611941576118ee6305f5e1006118e861193886613536565b60055490613a7e565b8260041415611967576118ee6305f5e1006118e861195e86613536565b60065490613a7e565b82600514156119925761198f6305f5e1006118e8600854600354613a7e90919063ffffffff16565b90505b92915050565b336000908152601c60205260408120546060919067ffffffffffffffff8111156119d257634e487b7160e01b600052604160045260246000fd5b604051908082528060200260200182016040528015611a0b57816020015b6119f8613b16565b8152602001906001900390816119f05790505b50905060005b336000908152601c6020526040902054811015610bf357336000908152601e6020908152604080832084845282529182902082516101608101845281546001600160a01b031681526001820154928101929092526002810154928201929092526003820154606082015260048201546080820152600582015460a0820152600682015460c0820152600782015460ff808216151560e0840152610100918290041615159082015260088201546101208201526009909101546101408201528251839083908110611af157634e487b7160e01b600052603260045260246000fd5b60200260200101819052508080611b079061407a565b915050611a11565b6000546001600160a01b03163314611b395760405162461bcd60e51b8152600401610c2390613f81565b60178390556018829055601981905560408051848152602081018490529081018290527f1eb993ea8e47c2ce3cb4aade30f5dbcf13db6e9a00e435ee9d7ee80a3f58788390606001610f47565b60218181548110611b9657600080fd5b6000918252602090912001546001600160a01b0316905081565b6000546001600160a01b03163314611bda5760405162461bcd60e51b8152600401610c2390613f81565b60088190556040518181527f9a470bd568cbe5e7985016006c3093b3634f775e978b0ec2841ef7c634a2c2ff90602001610c5d565b6000805b602154811015611c7a57826001600160a01b031660218281548110611c4857634e487b7160e01b600052603260045260246000fd5b6000918252602090912001546001600160a01b03161415611c6857600191505b80611c728161407a565b915050611c13565b5080610a3857602180546001810182556000919091527f3a6357012c1a3ae0a17d304c9920310382d968ebcc4b1771f41c6b304205b5700180546001600160a01b0384166001600160a01b03199091161790555050565b6001600160a01b0381166000908152601c60205260408120546060919067ffffffffffffffff811115611d1457634e487b7160e01b600052604160045260246000fd5b604051908082528060200260200182016040528015611d4d57816020015b611d3a613b16565b815260200190600190039081611d325790505b50905060005b6001600160a01b0384166000908152601c6020526040902054811015611e97576001600160a01b038085166000908152601e60209081526040808320858452825291829020825161016081018452815490941684526001810154918401919091526002810154918301919091526003810154606083015260048101546080830152600581015460a0830152600681015460c0830152600781015460ff80821615801560e0860181905261010093849004909216151592850192909252600883015461012085015260099092015461014084015290611e345750806101000151155b8015611e44575042816080015110155b15611e8457611e538583613514565b611e845780838381518110611e7857634e487b7160e01b600052603260045260246000fd5b60200260200101819052505b5080611e8f8161407a565b915050611d53565b5092915050565b6000546001600160a01b03163314611ec85760405162461bcd60e51b8152600401610c2390613f81565b611ed26000613a96565b565b336000908152601d60205260408120546060919067ffffffffffffffff811115611f0e57634e487b7160e01b600052604160045260246000fd5b604051908082528060200260200182016040528015611f4757816020015b611f34613b7d565b815260200190600190039081611f2c5790505b50905060005b336000908152601d6020526040902054811015610bf357336000908152601f6020908152604080832084845282529182902082516101008101845281546001600160a01b031681526001820154928101929092526002810154928201929092526003820154606082015260048201546080820152600582015460a0820152600682015460ff16151560c082015260079091015460e0820152825183908390811061200757634e487b7160e01b600052603260045260246000fd5b6020026020010181905250808061201d9061407a565b915050611f4d565b6001600160a01b0382166000908152601e6020908152604080832084845290915281206004810154829042111561205a575060015b949350505050565b6000546001600160a01b0316331461208c5760405162461bcd60e51b8152600401610c2390613f81565b61209682826139f1565b6120ee5760405162461bcd60e51b815260206004820152602360248201527f776974684472617745746865723a206e6f7420656e6f756768206c697175696460448201526269747960e81b6064820152608401610c23565b6000816001141561210757506009546001600160a01b03165b81600214156121225750600b546001600160a01b031661216f565b816003141561213d5750600c546001600160a01b031661216f565b81600414156121585750600d546001600160a01b031661216f565b816005141561216f5750600a546001600160a01b03165b6040516323b872dd60e01b81526001600160a01b038216906323b872dd9061219f90309033908890600401613cea565b602060405180830381600087803b1580156121b957600080fd5b505af11580156121cd573d6000803e3d6000fd5b505050506040513d601f19601f820116820180604052508101906121f19190613c14565b61220d5760405162461bcd60e51b8152600401610c2390613ee1565b816001141561222b576007546122239084613a66565b60075561229f565b8160021415612249576004546122419084613a66565b60045561229f565b81600314156122675760055461225f9084613a66565b60055561229f565b81600414156122855760065461227d9084613a66565b60065561229f565b816005141561229f5760035461229b9084613a66565b6003555b60408051848152602081018490527f8d7ca91ebdac6a80a88023a61a414acbf330dba3646d6d0a5cc2676bcef101ac9101610f47565b6000546001600160a01b031633146122ff5760405162461bcd60e51b8152600401610c2390613f81565b600f839055600e829055601081905560408051848152602081018490529081018290527fdd710624e490596cc885c47f15298efcace6c97e5109216e0092fa7f1a2329db90606001610f47565b60208181548110611b9657600080fd5b600081600214156123795750600b546001600160a01b03166123ab565b81600314156123945750600c546001600160a01b03166123ab565b81600414156123ab5750600d546001600160a01b03165b6040516323b872dd60e01b81526001600160a01b038216906323b872dd906123db90339030908890600401613cea565b602060405180830381600087803b1580156123f557600080fd5b505af1158015612409573d6000803e3d6000fd5b505050506040513d601f19601f8201168201806040525081019061242d9190613c14565b6124495760405162461bcd60e51b8152600401610c2390613e8b565b81600214156124675760045461245f9084613a72565b600455612481565b81600314156124815760055461247d9084613a72565b6005555b816004141561249b576006546124979084613a72565b6006555b6124a433611c0f565b604080518481526020810184905233917f68dcee598918c1887bfa1c13ac763d4659a12722f88a5eb920014ba1f0bc38fb91015b60405180910390a2505050565b6001600160a01b0381166000908152601c60205260408120546060919067ffffffffffffffff81111561252857634e487b7160e01b600052604160045260246000fd5b60405190808252806020026020018201604052801561256157816020015b61254e613b16565b8152602001906001900390816125465790505b50905060005b6001600160a01b0384166000908152601c6020526040902054811015611e97576001600160a01b038085166000908152601e60209081526040808320858452825291829020825161016081018452815490941684526001810154918401919091526002810154918301919091526003810154606083015260048101546080830152600581015460a0830152600681015460c0830152600781015460ff80821615801560e08601819052610100938490049092161515928501929092526008830154610120850152600990920154610140840152906126485750428160800151105b1561267a578083838151811061266e57634e487b7160e01b600052603260045260246000fd5b60200260200101819052505b50806126858161407a565b915050612567565b336000908152601d60205260408120546060919067ffffffffffffffff8111156126c757634e487b7160e01b600052604160045260246000fd5b60405190808252806020026020018201604052801561270057816020015b6126ed613b7d565b8152602001906001900390816126e55790505b50905060005b336000908152601d6020526040902054811015610bf357336000908152601f6020908152604080832084845282529182902082516101008101845281546001600160a01b031681526001820154928101929092526002810154928201929092526003820154606082015260048201546080820152600582015460a0820152600682015460ff16151560c0820181905260079092015460e0820152906127d257808383815181106127c657634e487b7160e01b600052603260045260246000fd5b60200260200101819052505b50806127dd8161407a565b915050612706565b6000546001600160a01b0316331461280f5760405162461bcd60e51b8152600401610c2390613f81565b6000816002141561282c5750600b546001600160a01b031661285e565b81600314156128475750600c546001600160a01b031661285e565b816004141561285e5750600d546001600160a01b03165b6040516323b872dd60e01b81526001600160a01b038216906323b872dd9061288e90339030908890600401613cea565b602060405180830381600087803b1580156128a857600080fd5b505af11580156128bc573d6000803e3d6000fd5b505050506040513d601f19601f820116820180604052508101906128e09190613c14565b6128fc5760405162461bcd60e51b8152600401610c2390613ee1565b47600755600282141561291e576004546129169084613a72565b6004556124a4565b8160031415612934576005546129169084613a72565b81600414156124a45760065461294a9084613a72565b600455604080518481526020810184905233917f68dcee598918c1887bfa1c13ac763d4659a12722f88a5eb920014ba1f0bc38fb91016124d8565b600081600214156129a25750600b546001600160a01b03166129d4565b81600314156129bd5750600c546001600160a01b03166129d4565b81600414156129d45750600d546001600160a01b03165b6040516323b872dd60e01b81526001600160a01b038216906323b872dd90612a0490339030908890600401613cea565b602060405180830381600087803b158015612a1e57600080fd5b505af1158015612a32573d6000803e3d6000fd5b505050506040513d601f19601f82011682018060405250810190612a569190613c14565b612a725760405162461bcd60e51b8152600401610c2390613e8b565b612a7a613b7d565b338082526000908152601d6020908152604091829020549083015281018490526002831415612ad157612ac7612ac060646118e860175488613ae690919063ffffffff16565b8590613a72565b6060820152612b23565b8260031415612af757612ac7612ac060646118e860185488613ae690919063ffffffff16565b8260041415612b2357612b1d612ac060646118e860195488613ae690919063ffffffff16565b60608201525b4260808201819052612b389062278d0061400c565b60a08201908152600060c0830181815260e08401868152338352601f60209081526040808520601d83528186205486528252808520875181546001600160a01b0319166001600160a01b03909116178155918701516001830155860151600280830191909155606087015160038301556080870151600483015594516005820155915160068301805460ff19169115159190911790555160079091015581549190612be28361407a565b9091555050336000908152601d60205260408120805491612c028361407a565b91905055508260021415612c2557600454612c1d9085613a72565b600455612c3f565b8260031415612c3f57600554612c3b9085613a72565b6005555b8260041415612c5957600654612c559085613a72565b6006555b612c6233611c0f565b80600001516001600160a01b03167f4ab15cc690495a744ed84b8955b45eb732403b222a485fa1e287db39ad05e0658260400151836060015184608001518560a001518660c001518760e00151604051612ce6969594939291909586526020860194909452604085019290925260608401521515608083015260a082015260c00190565b60405180910390a250505050565b60008260021415612d1557612d0e8664e8d4a51000613a8a565b9050612d48565b8260031415612d2d57612d0e8664e8d4a51000613a8a565b8260041415612d4857612d45866402540be400613a8a565b90505b612d5281846139f1565b612d9e5760405162461bcd60e51b815260206004820152601f60248201527f6c6f616e45746865723a206e6f7420656e6f756768206c6971756964697479006044820152606401610c23565b612da6613b16565b33808252602080830184905260408084018990526000928352601c90915281205460c083015260e082018190526101008201819052610120820185905261014082018490526002851415612dfd5750601454612e1d565b8460031415612e0f5750601554612e1d565b8460041415612e1d57506016545b601a5460011415612f4c578560071415612e6f57612e4a612e4360646118e88685613ae6565b8490613a72565b6060830152612e5c4262093a8061400c565b608083015262093a8060a08301526130b3565b85600e1415612ebd57612e98612e4360646118e884601254612e91919061400c565b8790613ae6565b6060830152612eaa426212750061400c565b60808301526212750060a08301526130b3565b85601e1415612f0457612edf612e4360646118e884601354612e91919061400c565b6060830152612ef14262278d0061400c565b608083015262278d0060a08301526130b3565b60405162461bcd60e51b815260206004820152601d60248201527f6c6f616e546f6b656e3a206e6f2076616c6964206475726174696f6e210000006044820152606401610c23565b601a54600214156130005785601e1415612f7257612edf612e4360646118e88685613ae6565b85603c1415612fb957612f94612e4360646118e884601254612e91919061400c565b6060830152612fa642624f1a0061400c565b6080830152624f1a0060a08301526130b3565b85605a1415612f0457612fdb612e4360646118e884601354612e91919061400c565b6060830152612fed426276a70061400c565b60808301526276a70060a08301526130b3565b601a54600314156130b35785605a141561302657612fdb612e4360646118e88685613ae6565b8560b4141561306d57613048612e4360646118e884601254612e91919061400c565b606083015261305a4262ed4e0061400c565b608083015262ed4e0060a08301526130b3565b856101681415612f0457613090612e4360646118e884601354612e91919061400c565b60608301526130a3426301da9c0061400c565b60808301526301da9c0060a08301525b6000846001146131665750600a5460408084015190516323b872dd60e01b81526001600160a01b039092169182916323b872dd916130f8913391309190600401613cea565b602060405180830381600087803b15801561311257600080fd5b505af1158015613126573d6000803e3d6000fd5b505050506040513d601f19601f8201168201806040525081019061314a9190613c14565b6131665760405162461bcd60e51b8152600401610c2390613fb6565b846001141561317457613189565b604083015160035461318591613a72565b6003555b600086600214156131a65750600b546001600160a01b03166131d8565b86600314156131c15750600c546001600160a01b03166131d8565b86600414156131d85750600d546001600160a01b03165b6040516323b872dd60e01b81526001600160a01b038216906323b872dd9061320890309033908a90600401613cea565b602060405180830381600087803b15801561322257600080fd5b505af1158015613236573d6000803e3d6000fd5b505050506040513d601f19601f8201168201806040525081019061325a9190613c14565b6132765760405162461bcd60e51b8152600401610c2390613fb6565b86600214156132945760045461328c9086613a66565b6004556132cc565b86600314156132b2576005546132aa9086613a66565b6005556132cc565b86600414156132cc576006546132c89086613a66565b6006555b336000908152601e60209081526040808320601c83528184205484528252808320875181546001600160a01b03919091166001600160a01b031990911617815591870151600180840191909155908701516002830155606087015160038301556080870151600483015560a0870151600583015560c0870151600683015560e0870151600783018054610100808b015115150261ff00199315159390931661ffff1990911617919091179055610120870151600883015561014087015160099092019190915580549161339e8361407a565b9091555050336000908152601c602052604081208054916133be8361407a565b9190505550336001600160a01b03167fd3d220740d3967bbabbce5a2d2be80cf584799db8de046928f1b6d1d7500b45e85602001518660400151876060015188608001518960a001518a61012001518b61014001516040516134519796959493929190968752602087019590955260408601939093526060850191909152608084015260a083015260c082015260e00190565b60405180910390a250505050505050505050565b600080600061347384613536565b9050600061348086613536565b905085600214156134b2576134ab60646134a5600f548a613afe90919063ffffffff16565b90613a7e565b92506134fb565b85600314156134d5576134ab60646134a5600e548a613afe90919063ffffffff16565b85600414156134fb576134f860646134a56010548a613afe90919063ffffffff16565b92505b613509826118e88584613a7e565b979650505050505050565b601154600090600190613527858561379f565b1061198f575060009392505050565b601b546000906001600160a01b03166135615760405162461bcd60e51b8152600401610c2390613e54565b600082600214156135f957601b60009054906101000a90046001600160a01b03166001600160a01b031663d63c25186040518163ffffffff1660e01b815260040160206040518083038186803b1580156135ba57600080fd5b505afa1580156135ce573d6000803e3d6000fd5b505050506040513d601f19601f820116820180604052508101906135f29190613c4c565b90506136b5565b826003141561365057601b60009054906101000a90046001600160a01b03166001600160a01b0316633629cf056040518163ffffffff1660e01b815260040160206040518083038186803b1580156135ba57600080fd5b82600414156136a757601b60009054906101000a90046001600160a01b03166001600160a01b0316630f00fa116040518163ffffffff1660e01b815260040160206040518083038186803b1580156135ba57600080fd5b82600514156136b557506008545b600081116119925760405162461bcd60e51b81526020600482015260196024820152781d1bdad95b881c1c9a58d9481a5cdb89dd0818dbdc9c9958dd603a1b6044820152606401610c23565b600080600061370f84613536565b9050600061371c86613536565b905085600214156137485761374160646118e8600f548a613ae690919063ffffffff16565b9250613791565b856003141561376b5761374160646118e8600e548a613ae690919063ffffffff16565b85600414156137915761378e60646118e86010548a613ae690919063ffffffff16565b92505b613509816118e88585613a7e565b6001600160a01b038083166000908152601e602090815260408083208584529091528120601b54919290918391166137e95760405162461bcd60e51b8152600401610c2390613e54565b60006137f88360090154613536565b90506000811161384a5760405162461bcd60e51b815260206004820152601960248201527f65746865722070726963652069736e277420636f7272656374000000000000006044820152606401610c23565b60006138598460080154613536565b9050600081116138a75760405162461bcd60e51b81526020600482015260196024820152781d1bdad95b881c1c9a58d9481a5cdb89dd0818dbdc9c9958dd603a1b6044820152606401610c23565b60038401546000906138b99083613a7e565b905060006138d4848760020154613a7e90919063ffffffff16565b9050856008015460021415613900576138f964e8d4a510006134a56064818686613afe565b9450613949565b856008015460031415613923576138f964e8d4a510006134a56064818686613afe565b856008015460041415613949576139466402540be4006134a56064818686613afe565b94505b5092979650505050505050565b6000546001600160a01b031633146139805760405162461bcd60e51b8152600401610c2390613f81565b6001600160a01b0381166139e55760405162461bcd60e51b815260206004820152602660248201527f4f776e61626c653a206e6577206f776e657220697320746865207a65726f206160448201526564647265737360d01b6064820152608401610c23565b6139ee81613a96565b50565b6000808260011415613a065750600754613a4a565b8260021415613a185750600454613a4a565b8260031415613a2a5750600554613a4a565b8260041415613a3c5750600654613a4a565b8260051415613a4a57506003545b80841115613a5c576000915050611992565b6001915050611992565b600061198f8284614063565b600061198f828461400c565b600061198f8284614044565b600061198f8284614024565b600080546001600160a01b038381166001600160a01b0319831681178455604051919092169283917f8be0079c531659141344cd1fd0a4f28419497f9722a3daafe3b4186f6b6457e09190a35050565b600061198f670de0b6b3a76400006118e88585613a7e565b600061198f826118e885670de0b6b3a7640000613a7e565b60405180610160016040528060006001600160a01b0316815260200160008152602001600081526020016000815260200160008152602001600081526020016000815260200160001515815260200160001515815260200160008152602001600081525090565b60405180610100016040528060006001600160a01b031681526020016000815260200160008152602001600081526020016000815260200160008152602001600015158152602001600081525090565b600060208284031215613bde578081fd5b813561198f816140ab565b60008060408385031215613bfb578081fd5b8235613c06816140ab565b946020939093013593505050565b600060208284031215613c25578081fd5b8151801515811461198f578182fd5b600060208284031215613c45578081fd5b5035919050565b600060208284031215613c5d578081fd5b5051919050565b60008060408385031215613c76578182fd5b50508035926020909101359150565b600080600060608486031215613c99578081fd5b505081359360208301359350604090920135919050565b600080600080600060a08688031215613cc7578081fd5b505083359560208501359550604085013594606081013594506080013592509050565b6001600160a01b039384168152919092166020820152604081019190915260600190565b602080825282518282018190526000919060409081850190868401855b82811015613d9957815180516001600160a01b0316855286810151878601528581015186860152606080820151908601526080808201519086015260a0808201519086015260c08082015115159086015260e090810151908501526101009093019290850190600101613d2b565b5091979650505050505050565b602080825282518282018190526000919060409081850190868401855b82811015613d9957815180516001600160a01b0316855286810151878601528581015186860152606080820151908601526080808201519086015260a0808201519086015260c0808201519086015260e08082015115159086015261010080820151151590860152610120808201519086015261014090810151908501526101609093019290850190600101613dc3565b6020808252601e908201527f7072696365206f7261636c652069736e277420696e697469616c697a65640000604082015260600190565b60208082526036908201527f6c656e64546f6b656e3a205472616e7366657220746f6b656e2066726f6d20756040820152751cd95c881d1bc818dbdb9d1c9858dd0819985a5b195960521b606082015260800190565b60208082526023908201527f5472616e73616374696f6e206661696c6564206f6e20696e69742066756e637460408201526234b7b760e91b606082015260800190565b60208082526039908201527f7061796261636b3a205472616e7366657220636f6c6c61746572616c2066726f60408201527f6d20636f6e747261637420746f2075736572206661696c656400000000000000606082015260800190565b6020808252818101527f4f776e61626c653a2063616c6c6572206973206e6f7420746865206f776e6572604082015260600190565b60208082526036908201527f6c6f616e546f6b656e3a205472616e7366657220746f6b656e2066726f6d20636040820152751bdb9d1c9858dd081d1bc81d5cd95c8819985a5b195960521b606082015260800190565b6000821982111561401f5761401f614095565b500190565b60008261403f57634e487b7160e01b81526012600452602481fd5b500490565b600081600019048311821515161561405e5761405e614095565b500290565b60008282101561407557614075614095565b500390565b600060001982141561408e5761408e614095565b5060010190565b634e487b7160e01b600052601160045260246000fd5b6001600160a01b03811681146139ee57600080fdfea26469706673582212207d78b6c04e52cdd4b289f9f3146f7ce494d0c7b384eda1546f98b21c28bb983f64736f6c63430008040033",
  "linkReferences": {},
  "deployedLinkReferences": {}
}