{
  "_format": "hh-sol-artifact-1",
  "contractName": "Loan",
  "sourceName": "contracts/Loan.sol",
  "abi": [
    {
      "inputs": [
        {
          "internalType": "address",
          "name": "_odonAddress",
          "type": "address"
        },
        {
          "internalType": "address",
          "name": "_usdcAddress",
          "type": "address"
        },
        {
          "internalType": "address",
          "name": "_usdtAddress",
          "type": "address"
        },
        {
          "internalType": "address",
          "name": "_btcAddress",
          "type": "address"
        }
      ],
      "stateMutability": "nonpayable",
      "type": "constructor"
    },
    {
      "anonymous": false,
      "inputs": [
        {
          "indexed": false,
          "internalType": "uint256",
          "name": "_usdcAPY",
          "type": "uint256"
        },
        {
          "indexed": false,
          "internalType": "uint256",
          "name": "_usdtAPY",
          "type": "uint256"
        },
        {
          "indexed": false,
          "internalType": "uint256",
          "name": "_btcAPY",
          "type": "uint256"
        }
      ],
      "name": "BorrowAPYUpdated",
      "type": "event"
    },
    {
      "anonymous": false,
      "inputs": [
        {
          "indexed": true,
          "internalType": "address",
          "name": "admin",
          "type": "address"
        },
        {
          "indexed": false,
          "internalType": "uint256",
          "name": "amount",
          "type": "uint256"
        },
        {
          "indexed": false,
          "internalType": "uint256",
          "name": "mtype",
          "type": "uint256"
        }
      ],
      "name": "InitBalance",
      "type": "event"
    },
    {
      "anonymous": false,
      "inputs": [
        {
          "indexed": false,
          "internalType": "uint256",
          "name": "_usdcAPY",
          "type": "uint256"
        },
        {
          "indexed": false,
          "internalType": "uint256",
          "name": "_usdtAPY",
          "type": "uint256"
        },
        {
          "indexed": false,
          "internalType": "uint256",
          "name": "_btcAPY",
          "type": "uint256"
        }
      ],
      "name": "LendAPYUpdated",
      "type": "event"
    },
    {
      "anonymous": false,
      "inputs": [
        {
          "indexed": false,
          "internalType": "address",
          "name": "liquidator",
          "type": "address"
        },
        {
          "indexed": false,
          "internalType": "uint256",
          "name": "liquidateTime",
          "type": "uint256"
        }
      ],
      "name": "Liquidate",
      "type": "event"
    },
    {
      "anonymous": false,
      "inputs": [
        {
          "indexed": false,
          "internalType": "uint256",
          "name": "mtype",
          "type": "uint256"
        }
      ],
      "name": "LoanDurationModeUpdated",
      "type": "event"
    },
    {
      "anonymous": false,
      "inputs": [
        {
          "indexed": true,
          "internalType": "address",
          "name": "lender",
          "type": "address"
        },
        {
          "indexed": false,
          "internalType": "uint256",
          "name": "lendAmount",
          "type": "uint256"
        },
        {
          "indexed": false,
          "internalType": "uint256",
          "name": "paybackAmount",
          "type": "uint256"
        },
        {
          "indexed": false,
          "internalType": "uint256",
          "name": "timeLend",
          "type": "uint256"
        },
        {
          "indexed": false,
          "internalType": "uint256",
          "name": "timeCanGetInterest",
          "type": "uint256"
        },
        {
          "indexed": false,
          "internalType": "bool",
          "name": "retrieved",
          "type": "bool"
        },
        {
          "indexed": false,
          "internalType": "uint256",
          "name": "mtype",
          "type": "uint256"
        }
      ],
      "name": "NewLend",
      "type": "event"
    },
    {
      "anonymous": false,
      "inputs": [
        {
          "indexed": true,
          "internalType": "address",
          "name": "borrower",
          "type": "address"
        },
        {
          "indexed": false,
          "internalType": "uint256",
          "name": "loanAmount",
          "type": "uint256"
        },
        {
          "indexed": false,
          "internalType": "uint256",
          "name": "collateralAmount",
          "type": "uint256"
        },
        {
          "indexed": false,
          "internalType": "uint256",
          "name": "paybackAmount",
          "type": "uint256"
        },
        {
          "indexed": false,
          "internalType": "uint256",
          "name": "loanDueDate",
          "type": "uint256"
        },
        {
          "indexed": false,
          "internalType": "uint256",
          "name": "duration",
          "type": "uint256"
        },
        {
          "indexed": false,
          "internalType": "uint256",
          "name": "mtype",
          "type": "uint256"
        },
        {
          "indexed": false,
          "internalType": "uint256",
          "name": "ctype",
          "type": "uint256"
        }
      ],
      "name": "NewLoan",
      "type": "event"
    },
    {
      "anonymous": false,
      "inputs": [
        {
          "indexed": false,
          "internalType": "uint256",
          "name": "_price",
          "type": "uint256"
        }
      ],
      "name": "OdonPriceUpdated",
      "type": "event"
    },
    {
      "anonymous": false,
      "inputs": [
        {
          "indexed": true,
          "internalType": "address",
          "name": "previousOwner",
          "type": "address"
        },
        {
          "indexed": true,
          "internalType": "address",
          "name": "newOwner",
          "type": "address"
        }
      ],
      "name": "OwnershipTransferred",
      "type": "event"
    },
    {
      "anonymous": false,
      "inputs": [
        {
          "indexed": false,
          "internalType": "address",
          "name": "borrower",
          "type": "address"
        },
        {
          "indexed": false,
          "internalType": "bool",
          "name": "paybackSuccess",
          "type": "bool"
        },
        {
          "indexed": false,
          "internalType": "uint256",
          "name": "paybackTime",
          "type": "uint256"
        },
        {
          "indexed": false,
          "internalType": "uint256",
          "name": "paybackAmount",
          "type": "uint256"
        },
        {
          "indexed": false,
          "internalType": "uint256",
          "name": "returnCollateralAmount",
          "type": "uint256"
        },
        {
          "indexed": false,
          "internalType": "uint256",
          "name": "mtype",
          "type": "uint256"
        },
        {
          "indexed": false,
          "internalType": "uint256",
          "name": "ctype",
          "type": "uint256"
        }
      ],
      "name": "PayBack",
      "type": "event"
    },
    {
      "anonymous": false,
      "inputs": [
        {
          "indexed": true,
          "internalType": "address",
          "name": "priceOracleAddress",
          "type": "address"
        }
      ],
      "name": "PriceOracleUpdated",
      "type": "event"
    },
    {
      "anonymous": false,
      "inputs": [
        {
          "indexed": false,
          "internalType": "uint256",
          "name": "withdrawAmount",
          "type": "uint256"
        },
        {
          "indexed": false,
          "internalType": "uint256",
          "name": "mtype",
          "type": "uint256"
        }
      ],
      "name": "WithDrawReserve",
      "type": "event"
    },
    {
      "anonymous": false,
      "inputs": [
        {
          "indexed": false,
          "internalType": "bool",
          "name": "isEarnInterest",
          "type": "bool"
        },
        {
          "indexed": false,
          "internalType": "uint256",
          "name": "withdrawAmount",
          "type": "uint256"
        },
        {
          "indexed": false,
          "internalType": "uint256",
          "name": "mtype",
          "type": "uint256"
        }
      ],
      "name": "Withdraw",
      "type": "event"
    },
    {
      "inputs": [],
      "name": "AutoLiquidate",
      "outputs": [],
      "stateMutability": "nonpayable",
      "type": "function"
    },
    {
      "inputs": [
        {
          "internalType": "uint256",
          "name": "",
          "type": "uint256"
        }
      ],
      "name": "LendUserList",
      "outputs": [
        {
          "internalType": "address",
          "name": "",
          "type": "address"
        }
      ],
      "stateMutability": "view",
      "type": "function"
    },
    {
      "inputs": [
        {
          "internalType": "uint256",
          "name": "",
          "type": "uint256"
        }
      ],
      "name": "LoanUserList",
      "outputs": [
        {
          "internalType": "address",
          "name": "",
          "type": "address"
        }
      ],
      "stateMutability": "view",
      "type": "function"
    },
    {
      "inputs": [
        {
          "internalType": "address",
          "name": "_user",
          "type": "address"
        }
      ],
      "name": "addUserToLendUserList",
      "outputs": [],
      "stateMutability": "nonpayable",
      "type": "function"
    },
    {
      "inputs": [
        {
          "internalType": "address",
          "name": "_user",
          "type": "address"
        }
      ],
      "name": "addUserToLoanUserList",
      "outputs": [],
      "stateMutability": "nonpayable",
      "type": "function"
    },
    {
      "inputs": [],
      "name": "btcAddress",
      "outputs": [
        {
          "internalType": "address",
          "name": "",
          "type": "address"
        }
      ],
      "stateMutability": "view",
      "type": "function"
    },
    {
      "inputs": [],
      "name": "btcBorrowAPY",
      "outputs": [
        {
          "internalType": "uint256",
          "name": "",
          "type": "uint256"
        }
      ],
      "stateMutability": "view",
      "type": "function"
    },
    {
      "inputs": [],
      "name": "btcLTV",
      "outputs": [
        {
          "internalType": "uint256",
          "name": "",
          "type": "uint256"
        }
      ],
      "stateMutability": "view",
      "type": "function"
    },
    {
      "inputs": [],
      "name": "btcLendAPY",
      "outputs": [
        {
          "internalType": "uint256",
          "name": "",
          "type": "uint256"
        }
      ],
      "stateMutability": "view",
      "type": "function"
    },
    {
      "inputs": [],
      "name": "btcTotalLiquidity",
      "outputs": [
        {
          "internalType": "uint256",
          "name": "",
          "type": "uint256"
        }
      ],
      "stateMutability": "view",
      "type": "function"
    },
    {
      "inputs": [
        {
          "internalType": "uint256",
          "name": "_amount",
          "type": "uint256"
        },
        {
          "internalType": "uint256",
          "name": "mtype",
          "type": "uint256"
        }
      ],
      "name": "checkEnoughLiquidity",
      "outputs": [
        {
          "internalType": "bool",
          "name": "",
          "type": "bool"
        }
      ],
      "stateMutability": "view",
      "type": "function"
    },
    {
      "inputs": [
        {
          "internalType": "address",
          "name": "borrower",
          "type": "address"
        },
        {
          "internalType": "uint256",
          "name": "_id",
          "type": "uint256"
        }
      ],
      "name": "checkLoanExpire",
      "outputs": [
        {
          "internalType": "bool",
          "name": "",
          "type": "bool"
        }
      ],
      "stateMutability": "view",
      "type": "function"
    },
    {
      "inputs": [
        {
          "internalType": "address",
          "name": "_borrower",
          "type": "address"
        },
        {
          "internalType": "uint256",
          "name": "_id",
          "type": "uint256"
        }
      ],
      "name": "checkLoanHealth",
      "outputs": [
        {
          "internalType": "bool",
          "name": "",
          "type": "bool"
        }
      ],
      "stateMutability": "view",
      "type": "function"
    },
    {
      "inputs": [
        {
          "internalType": "uint256",
          "name": "lnAmount",
          "type": "uint256"
        },
        {
          "internalType": "uint256",
          "name": "mtype",
          "type": "uint256"
        },
        {
          "internalType": "uint256",
          "name": "ctype",
          "type": "uint256"
        }
      ],
      "name": "collateralAmount",
      "outputs": [
        {
          "internalType": "uint256",
          "name": "",
          "type": "uint256"
        }
      ],
      "stateMutability": "view",
      "type": "function"
    },
    {
      "inputs": [],
      "name": "dangerousLTV",
      "outputs": [
        {
          "internalType": "uint256",
          "name": "",
          "type": "uint256"
        }
      ],
      "stateMutability": "view",
      "type": "function"
    },
    {
      "inputs": [
        {
          "internalType": "uint256",
          "name": "_amount",
          "type": "uint256"
        },
        {
          "internalType": "uint256",
          "name": "mtype",
          "type": "uint256"
        }
      ],
      "name": "depositToken",
      "outputs": [],
      "stateMutability": "nonpayable",
      "type": "function"
    },
    {
      "inputs": [],
      "name": "firstAddAPY",
      "outputs": [
        {
          "internalType": "uint256",
          "name": "",
          "type": "uint256"
        }
      ],
      "stateMutability": "view",
      "type": "function"
    },
    {
      "inputs": [],
      "name": "getAllUserLoans",
      "outputs": [
        {
          "components": [
            {
              "internalType": "address",
              "name": "borrower",
              "type": "address"
            },
            {
              "internalType": "uint256",
              "name": "loanAmount",
              "type": "uint256"
            },
            {
              "internalType": "uint256",
              "name": "collateralAmount",
              "type": "uint256"
            },
            {
              "internalType": "uint256",
              "name": "paybackAmount",
              "type": "uint256"
            },
            {
              "internalType": "uint256",
              "name": "loanDueDate",
              "type": "uint256"
            },
            {
              "internalType": "uint256",
              "name": "duration",
              "type": "uint256"
            },
            {
              "internalType": "uint256",
              "name": "loanId",
              "type": "uint256"
            },
            {
              "internalType": "bool",
              "name": "isPayback",
              "type": "bool"
            },
            {
              "internalType": "bool",
              "name": "isLiquidate",
              "type": "bool"
            },
            {
              "internalType": "uint256",
              "name": "mtype",
              "type": "uint256"
            },
            {
              "internalType": "uint256",
              "name": "ctype",
              "type": "uint256"
            }
          ],
          "internalType": "struct Loan.LoanRequest[]",
          "name": "",
          "type": "tuple[]"
        }
      ],
      "stateMutability": "view",
      "type": "function"
    },
    {
      "inputs": [
        {
          "internalType": "address",
          "name": "_borrower",
          "type": "address"
        },
        {
          "internalType": "uint256",
          "name": "_id",
          "type": "uint256"
        }
      ],
      "name": "getLoansLTV",
      "outputs": [
        {
          "internalType": "uint256",
          "name": "",
          "type": "uint256"
        }
      ],
      "stateMutability": "view",
      "type": "function"
    },
    {
      "inputs": [
        {
          "internalType": "uint256",
          "name": "mtype",
          "type": "uint256"
        }
      ],
      "name": "getTokenPriceInUSD",
      "outputs": [
        {
          "internalType": "uint256",
          "name": "",
          "type": "uint256"
        }
      ],
      "stateMutability": "view",
      "type": "function"
    },
    {
      "inputs": [
        {
          "internalType": "uint256",
          "name": "mtype",
          "type": "uint256"
        }
      ],
      "name": "getTotalLiquidityInUSD",
      "outputs": [
        {
          "internalType": "uint256",
          "name": "",
          "type": "uint256"
        }
      ],
      "stateMutability": "view",
      "type": "function"
    },
    {
      "inputs": [],
      "name": "getUserAllLends",
      "outputs": [
        {
          "components": [
            {
              "internalType": "address",
              "name": "lender",
              "type": "address"
            },
            {
              "internalType": "uint256",
              "name": "lendId",
              "type": "uint256"
            },
            {
              "internalType": "uint256",
              "name": "lendAmount",
              "type": "uint256"
            },
            {
              "internalType": "uint256",
              "name": "paybackAmount",
              "type": "uint256"
            },
            {
              "internalType": "uint256",
              "name": "timeLend",
              "type": "uint256"
            },
            {
              "internalType": "uint256",
              "name": "timeCanGetInterest",
              "type": "uint256"
            },
            {
              "internalType": "bool",
              "name": "retrieved",
              "type": "bool"
            },
            {
              "internalType": "uint256",
              "name": "mtype",
              "type": "uint256"
            }
          ],
          "internalType": "struct Loan.LendRequest[]",
          "name": "",
          "type": "tuple[]"
        }
      ],
      "stateMutability": "view",
      "type": "function"
    },
    {
      "inputs": [],
      "name": "getUserNotRetrieveLend",
      "outputs": [
        {
          "components": [
            {
              "internalType": "address",
              "name": "lender",
              "type": "address"
            },
            {
              "internalType": "uint256",
              "name": "lendId",
              "type": "uint256"
            },
            {
              "internalType": "uint256",
              "name": "lendAmount",
              "type": "uint256"
            },
            {
              "internalType": "uint256",
              "name": "paybackAmount",
              "type": "uint256"
            },
            {
              "internalType": "uint256",
              "name": "timeLend",
              "type": "uint256"
            },
            {
              "internalType": "uint256",
              "name": "timeCanGetInterest",
              "type": "uint256"
            },
            {
              "internalType": "bool",
              "name": "retrieved",
              "type": "bool"
            },
            {
              "internalType": "uint256",
              "name": "mtype",
              "type": "uint256"
            }
          ],
          "internalType": "struct Loan.LendRequest[]",
          "name": "",
          "type": "tuple[]"
        }
      ],
      "stateMutability": "view",
      "type": "function"
    },
    {
      "inputs": [],
      "name": "getUserOngoingLoans",
      "outputs": [
        {
          "components": [
            {
              "internalType": "address",
              "name": "borrower",
              "type": "address"
            },
            {
              "internalType": "uint256",
              "name": "loanAmount",
              "type": "uint256"
            },
            {
              "internalType": "uint256",
              "name": "collateralAmount",
              "type": "uint256"
            },
            {
              "internalType": "uint256",
              "name": "paybackAmount",
              "type": "uint256"
            },
            {
              "internalType": "uint256",
              "name": "loanDueDate",
              "type": "uint256"
            },
            {
              "internalType": "uint256",
              "name": "duration",
              "type": "uint256"
            },
            {
              "internalType": "uint256",
              "name": "loanId",
              "type": "uint256"
            },
            {
              "internalType": "bool",
              "name": "isPayback",
              "type": "bool"
            },
            {
              "internalType": "bool",
              "name": "isLiquidate",
              "type": "bool"
            },
            {
              "internalType": "uint256",
              "name": "mtype",
              "type": "uint256"
            },
            {
              "internalType": "uint256",
              "name": "ctype",
              "type": "uint256"
            }
          ],
          "internalType": "struct Loan.LoanRequest[]",
          "name": "",
          "type": "tuple[]"
        }
      ],
      "stateMutability": "view",
      "type": "function"
    },
    {
      "inputs": [
        {
          "internalType": "address",
          "name": "borrower",
          "type": "address"
        }
      ],
      "name": "getUserOverdueLoans",
      "outputs": [
        {
          "components": [
            {
              "internalType": "address",
              "name": "borrower",
              "type": "address"
            },
            {
              "internalType": "uint256",
              "name": "loanAmount",
              "type": "uint256"
            },
            {
              "internalType": "uint256",
              "name": "collateralAmount",
              "type": "uint256"
            },
            {
              "internalType": "uint256",
              "name": "paybackAmount",
              "type": "uint256"
            },
            {
              "internalType": "uint256",
              "name": "loanDueDate",
              "type": "uint256"
            },
            {
              "internalType": "uint256",
              "name": "duration",
              "type": "uint256"
            },
            {
              "internalType": "uint256",
              "name": "loanId",
              "type": "uint256"
            },
            {
              "internalType": "bool",
              "name": "isPayback",
              "type": "bool"
            },
            {
              "internalType": "bool",
              "name": "isLiquidate",
              "type": "bool"
            },
            {
              "internalType": "uint256",
              "name": "mtype",
              "type": "uint256"
            },
            {
              "internalType": "uint256",
              "name": "ctype",
              "type": "uint256"
            }
          ],
          "internalType": "struct Loan.LoanRequest[]",
          "name": "",
          "type": "tuple[]"
        }
      ],
      "stateMutability": "view",
      "type": "function"
    },
    {
      "inputs": [
        {
          "internalType": "address",
          "name": "borrower",
          "type": "address"
        }
      ],
      "name": "getUserUnHealthLoans",
      "outputs": [
        {
          "components": [
            {
              "internalType": "address",
              "name": "borrower",
              "type": "address"
            },
            {
              "internalType": "uint256",
              "name": "loanAmount",
              "type": "uint256"
            },
            {
              "internalType": "uint256",
              "name": "collateralAmount",
              "type": "uint256"
            },
            {
              "internalType": "uint256",
              "name": "paybackAmount",
              "type": "uint256"
            },
            {
              "internalType": "uint256",
              "name": "loanDueDate",
              "type": "uint256"
            },
            {
              "internalType": "uint256",
              "name": "duration",
              "type": "uint256"
            },
            {
              "internalType": "uint256",
              "name": "loanId",
              "type": "uint256"
            },
            {
              "internalType": "bool",
              "name": "isPayback",
              "type": "bool"
            },
            {
              "internalType": "bool",
              "name": "isLiquidate",
              "type": "bool"
            },
            {
              "internalType": "uint256",
              "name": "mtype",
              "type": "uint256"
            },
            {
              "internalType": "uint256",
              "name": "ctype",
              "type": "uint256"
            }
          ],
          "internalType": "struct Loan.LoanRequest[]",
          "name": "",
          "type": "tuple[]"
        }
      ],
      "stateMutability": "view",
      "type": "function"
    },
    {
      "inputs": [
        {
          "internalType": "uint256",
          "name": "_amount",
          "type": "uint256"
        },
        {
          "internalType": "uint256",
          "name": "mtype",
          "type": "uint256"
        }
      ],
      "name": "init",
      "outputs": [],
      "stateMutability": "nonpayable",
      "type": "function"
    },
    {
      "inputs": [],
      "name": "lendCount",
      "outputs": [
        {
          "internalType": "uint256",
          "name": "",
          "type": "uint256"
        }
      ],
      "stateMutability": "view",
      "type": "function"
    },
    {
      "inputs": [
        {
          "internalType": "uint256",
          "name": "_amount",
          "type": "uint256"
        },
        {
          "internalType": "uint256",
          "name": "mtype",
          "type": "uint256"
        }
      ],
      "name": "lendToken",
      "outputs": [],
      "stateMutability": "nonpayable",
      "type": "function"
    },
    {
      "inputs": [
        {
          "internalType": "address",
          "name": "",
          "type": "address"
        },
        {
          "internalType": "uint256",
          "name": "",
          "type": "uint256"
        }
      ],
      "name": "lends",
      "outputs": [
        {
          "internalType": "address",
          "name": "lender",
          "type": "address"
        },
        {
          "internalType": "uint256",
          "name": "lendId",
          "type": "uint256"
        },
        {
          "internalType": "uint256",
          "name": "lendAmount",
          "type": "uint256"
        },
        {
          "internalType": "uint256",
          "name": "paybackAmount",
          "type": "uint256"
        },
        {
          "internalType": "uint256",
          "name": "timeLend",
          "type": "uint256"
        },
        {
          "internalType": "uint256",
          "name": "timeCanGetInterest",
          "type": "uint256"
        },
        {
          "internalType": "bool",
          "name": "retrieved",
          "type": "bool"
        },
        {
          "internalType": "uint256",
          "name": "mtype",
          "type": "uint256"
        }
      ],
      "stateMutability": "view",
      "type": "function"
    },
    {
      "inputs": [
        {
          "internalType": "uint256",
          "name": "_amount",
          "type": "uint256"
        },
        {
          "internalType": "uint256",
          "name": "_duration",
          "type": "uint256"
        },
        {
          "internalType": "uint256",
          "name": "mtype",
          "type": "uint256"
        },
        {
          "internalType": "uint256",
          "name": "ctype",
          "type": "uint256"
        }
      ],
      "name": "loan",
      "outputs": [],
      "stateMutability": "nonpayable",
      "type": "function"
    },
    {
      "inputs": [
        {
          "internalType": "uint256",
          "name": "colAmount",
          "type": "uint256"
        },
        {
          "internalType": "uint256",
          "name": "mtype",
          "type": "uint256"
        },
        {
          "internalType": "uint256",
          "name": "ctype",
          "type": "uint256"
        }
      ],
      "name": "loanAmount",
      "outputs": [
        {
          "internalType": "uint256",
          "name": "",
          "type": "uint256"
        }
      ],
      "stateMutability": "view",
      "type": "function"
    },
    {
      "inputs": [],
      "name": "loanCount",
      "outputs": [
        {
          "internalType": "uint256",
          "name": "",
          "type": "uint256"
        }
      ],
      "stateMutability": "view",
      "type": "function"
    },
    {
      "inputs": [],
      "name": "loanMode",
      "outputs": [
        {
          "internalType": "uint256",
          "name": "",
          "type": "uint256"
        }
      ],
      "stateMutability": "view",
      "type": "function"
    },
    {
      "inputs": [
        {
          "internalType": "address",
          "name": "",
          "type": "address"
        },
        {
          "internalType": "uint256",
          "name": "",
          "type": "uint256"
        }
      ],
      "name": "loans",
      "outputs": [
        {
          "internalType": "address",
          "name": "borrower",
          "type": "address"
        },
        {
          "internalType": "uint256",
          "name": "loanAmount",
          "type": "uint256"
        },
        {
          "internalType": "uint256",
          "name": "collateralAmount",
          "type": "uint256"
        },
        {
          "internalType": "uint256",
          "name": "paybackAmount",
          "type": "uint256"
        },
        {
          "internalType": "uint256",
          "name": "loanDueDate",
          "type": "uint256"
        },
        {
          "internalType": "uint256",
          "name": "duration",
          "type": "uint256"
        },
        {
          "internalType": "uint256",
          "name": "loanId",
          "type": "uint256"
        },
        {
          "internalType": "bool",
          "name": "isPayback",
          "type": "bool"
        },
        {
          "internalType": "bool",
          "name": "isLiquidate",
          "type": "bool"
        },
        {
          "internalType": "uint256",
          "name": "mtype",
          "type": "uint256"
        },
        {
          "internalType": "uint256",
          "name": "ctype",
          "type": "uint256"
        }
      ],
      "stateMutability": "view",
      "type": "function"
    },
    {
      "inputs": [],
      "name": "movrAddress",
      "outputs": [
        {
          "internalType": "address",
          "name": "",
          "type": "address"
        }
      ],
      "stateMutability": "view",
      "type": "function"
    },
    {
      "inputs": [],
      "name": "odonAddress",
      "outputs": [
        {
          "internalType": "address",
          "name": "",
          "type": "address"
        }
      ],
      "stateMutability": "view",
      "type": "function"
    },
    {
      "inputs": [],
      "name": "odonPrice",
      "outputs": [
        {
          "internalType": "uint256",
          "name": "",
          "type": "uint256"
        }
      ],
      "stateMutability": "view",
      "type": "function"
    },
    {
      "inputs": [],
      "name": "odonTotalLiquidity",
      "outputs": [
        {
          "internalType": "uint256",
          "name": "",
          "type": "uint256"
        }
      ],
      "stateMutability": "view",
      "type": "function"
    },
    {
      "inputs": [],
      "name": "owner",
      "outputs": [
        {
          "internalType": "address",
          "name": "",
          "type": "address"
        }
      ],
      "stateMutability": "view",
      "type": "function"
    },
    {
      "inputs": [
        {
          "internalType": "uint256",
          "name": "_id",
          "type": "uint256"
        },
        {
          "internalType": "uint256",
          "name": "_amount",
          "type": "uint256"
        }
      ],
      "name": "payback",
      "outputs": [],
      "stateMutability": "nonpayable",
      "type": "function"
    },
    {
      "inputs": [],
      "name": "renounceOwnership",
      "outputs": [],
      "stateMutability": "nonpayable",
      "type": "function"
    },
    {
      "inputs": [],
      "name": "secondAddAPY",
      "outputs": [
        {
          "internalType": "uint256",
          "name": "",
          "type": "uint256"
        }
      ],
      "stateMutability": "view",
      "type": "function"
    },
    {
      "inputs": [
        {
          "internalType": "uint256",
          "name": "_usdcapy",
          "type": "uint256"
        },
        {
          "internalType": "uint256",
          "name": "_usdtapy",
          "type": "uint256"
        },
        {
          "internalType": "uint256",
          "name": "_btcapy",
          "type": "uint256"
        }
      ],
      "name": "setBorrowAPY",
      "outputs": [],
      "stateMutability": "nonpayable",
      "type": "function"
    },
    {
      "inputs": [
        {
          "internalType": "uint256",
          "name": "_usdcapy",
          "type": "uint256"
        },
        {
          "internalType": "uint256",
          "name": "_usdtapy",
          "type": "uint256"
        },
        {
          "internalType": "uint256",
          "name": "_btcapy",
          "type": "uint256"
        }
      ],
      "name": "setLendAPY",
      "outputs": [],
      "stateMutability": "nonpayable",
      "type": "function"
    },
    {
      "inputs": [
        {
          "internalType": "uint256",
          "name": "mtype",
          "type": "uint256"
        }
      ],
      "name": "setLoanDurationMode",
      "outputs": [],
      "stateMutability": "nonpayable",
      "type": "function"
    },
    {
      "inputs": [
        {
          "internalType": "uint256",
          "name": "_price",
          "type": "uint256"
        }
      ],
      "name": "setPriceOdon",
      "outputs": [],
      "stateMutability": "nonpayable",
      "type": "function"
    },
    {
      "inputs": [
        {
          "internalType": "contract PriceConsumerV3",
          "name": "_oracle",
          "type": "address"
        }
      ],
      "name": "setPriceOracle",
      "outputs": [],
      "stateMutability": "nonpayable",
      "type": "function"
    },
    {
      "inputs": [],
      "name": "totalLiquidity",
      "outputs": [
        {
          "internalType": "uint256",
          "name": "",
          "type": "uint256"
        }
      ],
      "stateMutability": "view",
      "type": "function"
    },
    {
      "inputs": [
        {
          "internalType": "address",
          "name": "newOwner",
          "type": "address"
        }
      ],
      "name": "transferOwnership",
      "outputs": [],
      "stateMutability": "nonpayable",
      "type": "function"
    },
    {
      "inputs": [],
      "name": "usdcAddress",
      "outputs": [
        {
          "internalType": "address",
          "name": "",
          "type": "address"
        }
      ],
      "stateMutability": "view",
      "type": "function"
    },
    {
      "inputs": [],
      "name": "usdcBorrowAPY",
      "outputs": [
        {
          "internalType": "uint256",
          "name": "",
          "type": "uint256"
        }
      ],
      "stateMutability": "view",
      "type": "function"
    },
    {
      "inputs": [],
      "name": "usdcLTV",
      "outputs": [
        {
          "internalType": "uint256",
          "name": "",
          "type": "uint256"
        }
      ],
      "stateMutability": "view",
      "type": "function"
    },
    {
      "inputs": [],
      "name": "usdcLendAPY",
      "outputs": [
        {
          "internalType": "uint256",
          "name": "",
          "type": "uint256"
        }
      ],
      "stateMutability": "view",
      "type": "function"
    },
    {
      "inputs": [],
      "name": "usdcTotalLiquidity",
      "outputs": [
        {
          "internalType": "uint256",
          "name": "",
          "type": "uint256"
        }
      ],
      "stateMutability": "view",
      "type": "function"
    },
    {
      "inputs": [],
      "name": "usdtAddress",
      "outputs": [
        {
          "internalType": "address",
          "name": "",
          "type": "address"
        }
      ],
      "stateMutability": "view",
      "type": "function"
    },
    {
      "inputs": [],
      "name": "usdtBorrowAPY",
      "outputs": [
        {
          "internalType": "uint256",
          "name": "",
          "type": "uint256"
        }
      ],
      "stateMutability": "view",
      "type": "function"
    },
    {
      "inputs": [],
      "name": "usdtLTV",
      "outputs": [
        {
          "internalType": "uint256",
          "name": "",
          "type": "uint256"
        }
      ],
      "stateMutability": "view",
      "type": "function"
    },
    {
      "inputs": [],
      "name": "usdtLendAPY",
      "outputs": [
        {
          "internalType": "uint256",
          "name": "",
          "type": "uint256"
        }
      ],
      "stateMutability": "view",
      "type": "function"
    },
    {
      "inputs": [],
      "name": "usdtTotalLiquidity",
      "outputs": [
        {
          "internalType": "uint256",
          "name": "",
          "type": "uint256"
        }
      ],
      "stateMutability": "view",
      "type": "function"
    },
    {
      "inputs": [
        {
          "internalType": "address",
          "name": "",
          "type": "address"
        }
      ],
      "name": "userLendsCount",
      "outputs": [
        {
          "internalType": "uint256",
          "name": "",
          "type": "uint256"
        }
      ],
      "stateMutability": "view",
      "type": "function"
    },
    {
      "inputs": [
        {
          "internalType": "address",
          "name": "",
          "type": "address"
        }
      ],
      "name": "userLoansCount",
      "outputs": [
        {
          "internalType": "uint256",
          "name": "",
          "type": "uint256"
        }
      ],
      "stateMutability": "view",
      "type": "function"
    },
    {
      "inputs": [
        {
          "internalType": "uint256",
          "name": "_amount",
          "type": "uint256"
        },
        {
          "internalType": "uint256",
          "name": "mtype",
          "type": "uint256"
        }
      ],
      "name": "withDrawReserve",
      "outputs": [],
      "stateMutability": "nonpayable",
      "type": "function"
    },
    {
      "inputs": [
        {
          "internalType": "uint256",
          "name": "_id",
          "type": "uint256"
        }
      ],
      "name": "withdraw",
      "outputs": [],
      "stateMutability": "nonpayable",
      "type": "function"
    }
  ],
  "bytecode": "0x6080604052624c4b406008556803860e639d80640000600e556803afb087b876900000600f556802ed6689e54f18000060105568049b9ca9a6943400006011556729a2241af62c0000601255674563918244f40000601355678ac7230489e800006014556798a7d9b8314c000060155567a688906bd8b00000601655674563918244f400006017556753444835ec580000601855676f05b59d3b2000006019556001601a55348015620000b157600080fd5b50604051620041a1380380620041a1833981016040819052620000d491620001c3565b620000df3362000156565b6000600181905560028190556007819055600481905560038190556005819055600655600a80546001600160a01b039586166001600160a01b031991821617909155600b805494861694821694909417909355600c805492851692841692909217909155600d80549190931691161790556200021f565b600080546001600160a01b038381166001600160a01b0319831681178455604051919092169283917f8be0079c531659141344cd1fd0a4f28419497f9722a3daafe3b4186f6b6457e09190a35050565b80516001600160a01b0381168114620001be57600080fd5b919050565b60008060008060808587031215620001d9578384fd5b620001e485620001a6565b9350620001f460208601620001a6565b92506200020460408601620001a6565b91506200021460608601620001a6565b905092959194509250565b613f72806200022f6000396000f3fe608060405234801561001057600080fd5b50600436106103cf5760003560e01c80636ef9855b116101ff578063b04b022a1161011a578063d9d0befc116100ad578063f2fde38b1161007c578063f2fde38b1461091b578063f6c5dded1461092e578063f7d76ae514610937578063fe3af3ea1461094a57600080fd5b8063d9d0befc146108d9578063df62dbbe146108ec578063e15a6d6a146108f5578063ee9e58001461090857600080fd5b8063d3235306116100e9578063d323530614610897578063d3c9e2c9146108aa578063d3f72d10146108bd578063d5a0b65d146108c657600080fd5b8063b04b022a14610869578063cdb2409a1461087c578063cdbc87f614610885578063ce63094d1461088e57600080fd5b8063973c7d4511610192578063a12af89611610161578063a12af89614610828578063a557b17d1461083b578063a5843f0814610843578063ae5c8fca1461085657600080fd5b8063973c7d451461070e57806398c61c37146107215780639ab4a445146108025780639d2d04d11461081557600080fd5b80637f026f15116101ce5780637f026f15146106a75780638443bccc146106ca5780638a6a29a0146106dd5780638da5cb5b146106fd57600080fd5b80636ef9855b14610678578063715018a61461068157806371d1a70114610689578063725cab5d1461069e57600080fd5b8063439b3543116102ef57806364282ecd11610282578063699e0f5611610251578063699e0f56146106365780636b32991e1461063f5780636c6ac591146106525780636ccbf7581461066557600080fd5b806364282ecd146105fe578063648809901461060757806365440cef1461061a578063693a961d1461062357600080fd5b806353068056116102be57806353068056146105c7578063530e784f146105d057806353bbfefa146105e357806360089fca146105f657600080fd5b8063439b3543146104d957806349a4485d1461058c5780634c0a79fb1461059f57806351bcca5e146105bf57600080fd5b806329055efc116103675780632d1fabec116103365780632d1fabec146104975780632e1a7d4d146104aa5780632e6a1830146104bd5780633583de13146104c657600080fd5b806329055efc14610469578063295dea731461047c57806329b53f85146104855780632b84a68d1461048e57600080fd5b80630bf1644e116103a35780630bf1644e1461043957806315770f9214610442578063168c738c1461044b57806320ec1ff51461046057600080fd5b806208001a146103d457806302d45457146103f0578063048422a51461041b57806309e3136f14610430575b600080fd5b6103dd60195481565b6040519081526020015b60405180910390f35b600b54610403906001600160a01b031681565b6040516001600160a01b0390911681526020016103e7565b61042e610429366004613a52565b61095d565b005b6103dd601a5481565b6103dd60125481565b6103dd60075481565b610453610a1e565b6040516103e79190613c22565b6103dd60175481565b61042e610477366004613b35565b610bdb565b6103dd60135481565b6103dd60035481565b6103dd60045481565b61042e6104a5366004613ab9565b61130d565b61042e6104b8366004613ab9565b611373565b6103dd60165481565b61042e6104d4366004613ae9565b6117f6565b6105456104e7366004613a6e565b601f602090815260009283526040808420909152908252902080546001820154600283015460038401546004850154600586015460068701546007909701546001600160a01b03909616969495939492939192909160ff9091169088565b604080516001600160a01b0390991689526020890197909752958701949094526060860192909252608085015260a0840152151560c083015260e0820152610100016103e7565b61042e61059a366004613b0a565b611d38565b6103dd6105ad366004613a52565b601c6020526000908152604090205481565b61042e611daf565b6103dd600f5481565b61042e6105de366004613a52565b611f2c565b6103dd6105f1366004613ab9565b611fa0565b61045361206d565b6103dd60065481565b61042e610615366004613b0a565b6121e4565b6103dd60055481565b610403610631366004613ab9565b61225b565b6103dd60025481565b61042e61064d366004613ab9565b612285565b61042e610660366004613a52565b6122e4565b610453610673366004613a52565b6123a6565b6103dd60155481565b61042e612573565b6106916125a9565b6040516103e79190613b8a565b6103dd60145481565b6106ba6106b5366004613a6e565b6126fa565b60405190151581526020016103e7565b61042e6106d8366004613ae9565b612737565b6103dd6106eb366004613a52565b601d6020526000908152604090205481565b6000546001600160a01b0316610403565b61040361071c366004613ab9565b6129aa565b6107a161072f366004613a6e565b601e60209081526000928352604080842090915290825290208054600182015460028301546003840154600485015460058601546006870154600788015460088901546009909901546001600160a01b039098169896979596949593949293919260ff8083169361010090930416918b565b604080516001600160a01b03909c168c5260208c019a909a52988a01979097526060890195909552608088019390935260a087019190915260c0860152151560e08501521515610100840152610120830152610140820152610160016103e7565b600c54610403906001600160a01b031681565b61042e610823366004613ae9565b6129ba565b610453610836366004613a52565b612b43565b610691612ceb565b61042e610851366004613ae9565b612e43565b61042e610864366004613ae9565b612fe3565b600a54610403906001600160a01b031681565b6103dd60105481565b6103dd60115481565b6103dd60015481565b6103dd6108a5366004613b0a565b613352565b6106ba6108b8366004613a6e565b613401565b6103dd600e5481565b6103dd6108d4366004613ab9565b613423565b6103dd6108e7366004613b0a565b6135ee565b6103dd60185481565b6103dd610903366004613a6e565b61368c565b600954610403906001600160a01b031681565b61042e610929366004613a52565b6137df565b6103dd60085481565b600d54610403906001600160a01b031681565b6106ba610958366004613ae9565b61387a565b6000805b6020548110156109c857826001600160a01b03166020828154811061099657634e487b7160e01b600052603260045260246000fd5b6000918252602090912001546001600160a01b031614156109b657600191505b806109c081613ef6565b915050610961565b5080610a1a57602080546001810182556000919091527fc97bfaf2f8ee708c303a06d134f5ecd8389ae0432af62dc132a24118292866bb0180546001600160a01b0319166001600160a01b0384161790555b5050565b336000908152601c60205260408120546060919067ffffffffffffffff811115610a5857634e487b7160e01b600052604160045260246000fd5b604051908082528060200260200182016040528015610a9157816020015b610a7e61399b565b815260200190600190039081610a765790505b50905060005b336000908152601c6020526040902054811015610bd557336000908152601e6020908152604080832084845282529182902082516101608101845281546001600160a01b031681526001820154928101929092526002810154928201929092526003820154606082015260048201546080820152600582015460a0820152600682015460c0820152600782015460ff80821615801560e085018190526101009384900490921615159284019290925260088401546101208401526009909301546101408301529091610b6c5750806101000151155b8015610b7c575042816080015110155b15610bc257610b8b3383613401565b151560011415610bc25780838381518110610bb657634e487b7160e01b600052603260045260246000fd5b60200260200101819052505b5080610bcd81613ef6565b915050610a97565b50919050565b610be5848361387a565b610c365760405162461bcd60e51b815260206004820152601f60248201527f6c6f616e45746865723a206e6f7420656e6f756768206c69717569646974790060448201526064015b60405180910390fd5b610c3e61399b565b33815260208101859052610c53858484613352565b604080830191909152336000908152601c6020529081205460c083015260e082018190526101008201819052610120820184905261014082018390526002841415610ca15750601454610cc1565b8360031415610cb35750601554610cc1565b8360041415610cc157506016545b601a5460011415610df6578460071415610d1957610cf4610ced6064610ce789856138ef565b90613907565b8790613913565b6060830152610d064262093a80613e88565b608083015262093a8060a0830152610f5d565b84600e1415610d6757610d42610ced6064610ce784601254610d3b9190613e88565b8a906138ef565b6060830152610d544262127500613e88565b60808301526212750060a0830152610f5d565b84601e1415610dae57610d89610ced6064610ce784601354610d3b9190613e88565b6060830152610d9b4262278d00613e88565b608083015262278d0060a0830152610f5d565b60405162461bcd60e51b815260206004820152601d60248201527f6c6f616e546f6b656e3a206e6f2076616c6964206475726174696f6e210000006044820152606401610c2d565b601a5460021415610eaa5784601e1415610e1c57610d89610ced6064610ce789856138ef565b84603c1415610e6357610e3e610ced6064610ce784601254610d3b9190613e88565b6060830152610e5042624f1a00613e88565b6080830152624f1a0060a0830152610f5d565b84605a1415610dae57610e85610ced6064610ce784601354610d3b9190613e88565b6060830152610e97426276a700613e88565b60808301526276a70060a0830152610f5d565b601a5460031415610f5d5784605a1415610ed057610e85610ced6064610ce789856138ef565b8460b41415610f1757610ef2610ced6064610ce784601254610d3b9190613e88565b6060830152610f044262ed4e00613e88565b608083015262ed4e0060a0830152610f5d565b846101681415610dae57610f3a610ced6064610ce784601354610d3b9190613e88565b6060830152610f4d426301da9c00613e88565b60808301526301da9c0060a08301525b6000836001146110105750600a5460408084015190516323b872dd60e01b81526001600160a01b039092169182916323b872dd91610fa2913391309190600401613b66565b602060405180830381600087803b158015610fbc57600080fd5b505af1158015610fd0573d6000803e3d6000fd5b505050506040513d601f19601f82011682018060405250810190610ff49190613a99565b6110105760405162461bcd60e51b8152600401610c2d90613e32565b836001141561101e57611033565b604083015160035461102f91613913565b6003555b600085600214156110505750600b546001600160a01b0316611082565b856003141561106b5750600c546001600160a01b0316611082565b85600414156110825750600d546001600160a01b03165b6040516323b872dd60e01b81526001600160a01b038216906323b872dd906110b290309033908d90600401613b66565b602060405180830381600087803b1580156110cc57600080fd5b505af11580156110e0573d6000803e3d6000fd5b505050506040513d601f19601f820116820180604052508101906111049190613a99565b6111205760405162461bcd60e51b8152600401610c2d90613e32565b856002141561113e57600454611136908961391f565b600455611176565b856003141561115c57600554611154908961391f565b600555611176565b856004141561117657600654611172908961391f565b6006555b336000908152601e60209081526040808320601c83528184205484528252808320875181546001600160a01b03919091166001600160a01b031990911617815591870151600180840191909155908701516002830155606087015160038301556080870151600483015560a0870151600583015560c0870151600683015560e0870151600783018054610100808b015115150261ff00199315159390931661ffff1990911617919091179055610120870151600883015561014087015160099092019190915580549161124883613ef6565b9091555050336000908152601c6020526040812080549161126883613ef6565b9190505550336001600160a01b03167fd3d220740d3967bbabbce5a2d2be80cf584799db8de046928f1b6d1d7500b45e85602001518660400151876060015188608001518960a001518a61012001518b61014001516040516112fb9796959493929190968752602087019590955260408601939093526060850191909152608084015260a083015260c082015260e00190565b60405180910390a25050505050505050565b6000546001600160a01b031633146113375760405162461bcd60e51b8152600401610c2d90613dfd565b601a8190556040518181527f4d5a4bfab3f36cd8f68133a2361e410afb6899ac665938f88ee5e1abb15fec45906020015b60405180910390a150565b336000908152601f602090815260408083208484529091529020600681015460ff16156113e25760405162461bcd60e51b815260206004820181905260248201527f77697468647261773a204c656e642072657175657374207265747269657665646044820152606401610c2d565b80546001600160a01b031633146114465760405162461bcd60e51b815260206004820152602260248201527f77697468647261773a204f6e6c79206c656e6465722063616e20776974686472604482015261617760f01b6064820152608401610c2d565b6114588160020154826007015461387a565b6114a45760405162461bcd60e51b815260206004820152601e60248201527f77697468647261773a206e6f7420656e6f756768206c697175696469747900006044820152606401610c2d565b60068101805460ff19166001179055600581015442111561165f5760008160070154600214156114e05750600b546001600160a01b031661151a565b8160070154600314156114ff5750600c546001600160a01b031661151a565b81600701546004141561151a5750600d546001600160a01b03165b815460038301546040516323b872dd60e01b81526001600160a01b03848116936323b872dd9361155293309390921691600401613b66565b602060405180830381600087803b15801561156c57600080fd5b505af1158015611580573d6000803e3d6000fd5b505050506040513d601f19601f820116820180604052508101906115a49190613a99565b508160070154600214156115cb5760038201546004546115c39161391f565b6004556115ed565b8160070154600314156115ed5760038201546005546115e99161391f565b6005555b81600701546004141561160f57600382015460065461160b9161391f565b6006555b60038201546007830154604080516001815260208101939093528201527ffedb0622d5d5fa46cc706a5c2c169f2bf2eb31a59ff2f70cef3096376f58c2c0906060015b60405180910390a1505050565b60008160070154600214156116805750600b546001600160a01b03166116ba565b81600701546003141561169f5750600c546001600160a01b03166116ba565b8160070154600414156116ba5750600d546001600160a01b03165b815460028301546040516323b872dd60e01b81526001600160a01b03848116936323b872dd936116f293309390921691600401613b66565b602060405180830381600087803b15801561170c57600080fd5b505af1158015611720573d6000803e3d6000fd5b505050506040513d601f19601f820116820180604052508101906117449190613a99565b5081600701546002141561176b5760028201546004546117639161391f565b60045561178d565b81600701546003141561178d5760028201546005546117899161391f565b6005555b8160070154600414156117af5760028201546006546117ab9161391f565b6006555b60028201546007830154604080516000815260208101939093528201527ffedb0622d5d5fa46cc706a5c2c169f2bf2eb31a59ff2f70cef3096376f58c2c090606001611652565b336000818152601e602090815260408083208684529091529020805490916001600160a01b03909116146118775760405162461bcd60e51b815260206004820152602260248201527f7061796261636b3a204f6e6c7920626f72726f7765722063616e207061796261604482015261636b60f01b6064820152608401610c2d565b600781015460ff16156118cc5760405162461bcd60e51b815260206004820152601860248201527f7061796261636b3a207061796261636b20616c726561647900000000000000006044820152606401610c2d565b80600401544211156119205760405162461bcd60e51b815260206004820152601860248201527f7061796261636b3a2065786365656420647565206461746500000000000000006044820152606401610c2d565b60115461192d338561368c565b106119845760405162461bcd60e51b815260206004820152602160248201527f7061796261636b3a204c5456206578636565642064616e6765726f7573204c546044820152602b60f91b6064820152608401610c2d565b80600301548210156119d85760405162461bcd60e51b815260206004820152601960248201527f7061796261636b3a204e6f7420656e6f75676820746f6b656e000000000000006044820152606401610c2d565b6119ea8160020154826009015461387a565b611a485760405162461bcd60e51b815260206004820152602960248201527f7061796261636b3a206e6f7420656e6f756768206c6971756964697479206f6e6044820152680818dbdb9d1c9858dd60ba1b6064820152608401610c2d565b6000816008015460021415611a695750600b546001600160a01b0316611aa3565b816008015460031415611a885750600c546001600160a01b0316611aa3565b816008015460041415611aa35750600d546001600160a01b03165b6040516323b872dd60e01b81526001600160a01b038216906323b872dd90611ad390339030908890600401613b66565b602060405180830381600087803b158015611aed57600080fd5b505af1158015611b01573d6000803e3d6000fd5b505050506040513d601f19601f82011682018060405250810190611b259190613a99565b611b415760405162461bcd60e51b8152600401610c2d90613da0565b816008015460021415611b6357600454611b5b9084613913565b600455611ba3565b816008015460031415611b8557600554611b7d9084613913565b600555611ba3565b816008015460041415611ba357600654611b9f9084613913565b6006555b6000826009015460011415611bc457506009546001600160a01b0316611bd2565b50600a546001600160a01b03165b60028301546040516323b872dd60e01b81526001600160a01b038316916323b872dd91611c06913091339190600401613b66565b602060405180830381600087803b158015611c2057600080fd5b505af1158015611c34573d6000803e3d6000fd5b505050506040513d601f19601f82011682018060405250810190611c589190613a99565b611c745760405162461bcd60e51b8152600401610c2d90613da0565b826009015460011415611c9a576002830154600754611c929161391f565b600755611caf565b6002830154600354611cab9161391f565b6003555b60078301805461ffff19166001908117909155600384015460028501546008860154600987015460408051338152602081019690965242908601526060850193909352608084019190915260a083015260c08201527f5c775973c71b408f578d06223650690e9508ab4bb549d0691ae69265b311af379060e00160405180910390a15050505050565b6000546001600160a01b03163314611d625760405162461bcd60e51b8152600401610c2d90613dfd565b60148390556015829055601681905560408051848152602081018490529081018290527f5e35c511ddee3bac4f3cd917d8e465c37126e7a8a0bc5f8439a65c7676abe19b90606001611652565b6000546001600160a01b03163314611dd95760405162461bcd60e51b8152600401610c2d90613dfd565b60005b602054811015611ef157600060208281548110611e0957634e487b7160e01b600052603260045260246000fd5b60009182526020822001546001600160a01b031691505b6001600160a01b0382166000908152601c6020526040902054811015611edc576001600160a01b0382166000908152601e602090815260408083208484529091529020600781015460ff16158015611e8257506007810154610100900460ff16155b15611ec9574281600401541015611ea95760078101805461ffff1916610100179055611ec9565b611eb38383613401565b611ec95760078101805461ffff19166101001790555b5080611ed481613ef6565b915050611e20565b50508080611ee990613ef6565b915050611ddc565b50604080513381524260208201527f08813a3631e12129135cc9440d3fea50eec346f1673b20b994b0456d5d46ccb9910160405180910390a1565b6000546001600160a01b03163314611f565760405162461bcd60e51b8152600401610c2d90613dfd565b601b80546001600160a01b0319166001600160a01b0383169081179091556040517fefe8ab924ca486283a79dc604baa67add51afb82af1db8ac386ebbba643cdffd90600090a250565b601b5460009081906001600160a01b0316611fcd5760405162461bcd60e51b8152600401610c2d90613cd0565b8260011415611ff257611feb611fe284613423565b600754906138ef565b9050612067565b826002141561201057611feb61200784613423565b600454906138ef565b826003141561202e57611feb61202584613423565b600554906138ef565b826004141561204c57611feb61204384613423565b600654906138ef565b826005141561206757600854600354612064916138ef565b90505b92915050565b336000908152601c60205260408120546060919067ffffffffffffffff8111156120a757634e487b7160e01b600052604160045260246000fd5b6040519080825280602002602001820160405280156120e057816020015b6120cd61399b565b8152602001906001900390816120c55790505b50905060005b336000908152601c6020526040902054811015610bd557336000908152601e6020908152604080832084845282529182902082516101608101845281546001600160a01b031681526001820154928101929092526002810154928201929092526003820154606082015260048201546080820152600582015460a0820152600682015460c0820152600782015460ff808216151560e08401526101009182900416151590820152600882015461012082015260099091015461014082015282518390839081106121c657634e487b7160e01b600052603260045260246000fd5b602002602001018190525080806121dc90613ef6565b9150506120e6565b6000546001600160a01b0316331461220e5760405162461bcd60e51b8152600401610c2d90613dfd565b60178390556018829055601981905560408051848152602081018490529081018290527f1eb993ea8e47c2ce3cb4aade30f5dbcf13db6e9a00e435ee9d7ee80a3f58788390606001611652565b6021818154811061226b57600080fd5b6000918252602090912001546001600160a01b0316905081565b6000546001600160a01b031633146122af5760405162461bcd60e51b8152600401610c2d90613dfd565b60088190556040518181527f9a470bd568cbe5e7985016006c3093b3634f775e978b0ec2841ef7c634a2c2ff90602001611368565b6000805b60215481101561234f57826001600160a01b03166021828154811061231d57634e487b7160e01b600052603260045260246000fd5b6000918252602090912001546001600160a01b0316141561233d57600191505b8061234781613ef6565b9150506122e8565b5080610a1a57602180546001810182556000919091527f3a6357012c1a3ae0a17d304c9920310382d968ebcc4b1771f41c6b304205b5700180546001600160a01b0384166001600160a01b03199091161790555050565b6001600160a01b0381166000908152601c60205260408120546060919067ffffffffffffffff8111156123e957634e487b7160e01b600052604160045260246000fd5b60405190808252806020026020018201604052801561242257816020015b61240f61399b565b8152602001906001900390816124075790505b50905060005b6001600160a01b0384166000908152601c602052604090205481101561256c576001600160a01b038085166000908152601e60209081526040808320858452825291829020825161016081018452815490941684526001810154918401919091526002810154918301919091526003810154606083015260048101546080830152600581015460a0830152600681015460c0830152600781015460ff80821615801560e08601819052610100938490049092161515928501929092526008830154610120850152600990920154610140840152906125095750806101000151155b8015612519575042816080015110155b15612559576125288583613401565b612559578083838151811061254d57634e487b7160e01b600052603260045260246000fd5b60200260200101819052505b508061256481613ef6565b915050612428565b5092915050565b6000546001600160a01b0316331461259d5760405162461bcd60e51b8152600401610c2d90613dfd565b6125a7600061392b565b565b336000908152601d60205260408120546060919067ffffffffffffffff8111156125e357634e487b7160e01b600052604160045260246000fd5b60405190808252806020026020018201604052801561261c57816020015b612609613a02565b8152602001906001900390816126015790505b50905060005b336000908152601d6020526040902054811015610bd557336000908152601f6020908152604080832084845282529182902082516101008101845281546001600160a01b031681526001820154928101929092526002810154928201929092526003820154606082015260048201546080820152600582015460a0820152600682015460ff16151560c082015260079091015460e082015282518390839081106126dc57634e487b7160e01b600052603260045260246000fd5b602002602001018190525080806126f290613ef6565b915050612622565b6001600160a01b0382166000908152601e6020908152604080832084845290915281206004810154829042111561272f575060015b949350505050565b6000546001600160a01b031633146127615760405162461bcd60e51b8152600401610c2d90613dfd565b61276b828261387a565b6127c35760405162461bcd60e51b815260206004820152602360248201527f776974684472617745746865723a206e6f7420656e6f756768206c697175696460448201526269747960e81b6064820152608401610c2d565b600081600114156127dc57506009546001600160a01b03165b81600214156127f75750600b546001600160a01b0316612844565b81600314156128125750600c546001600160a01b0316612844565b816004141561282d5750600d546001600160a01b0316612844565b81600514156128445750600a546001600160a01b03165b6040516323b872dd60e01b81526001600160a01b038216906323b872dd9061287490309033908890600401613b66565b602060405180830381600087803b15801561288e57600080fd5b505af11580156128a2573d6000803e3d6000fd5b505050506040513d601f19601f820116820180604052508101906128c69190613a99565b6128e25760405162461bcd60e51b8152600401610c2d90613d5d565b8160011415612900576007546128f8908461391f565b600755612974565b816002141561291e57600454612916908461391f565b600455612974565b816003141561293c57600554612934908461391f565b600555612974565b816004141561295a57600654612952908461391f565b600655612974565b816005141561297457600354612970908461391f565b6003555b60408051848152602081018490527f8d7ca91ebdac6a80a88023a61a414acbf330dba3646d6d0a5cc2676bcef101ac9101611652565b6020818154811061226b57600080fd5b600081600214156129d75750600b546001600160a01b0316612a09565b81600314156129f25750600c546001600160a01b0316612a09565b8160041415612a095750600d546001600160a01b03165b6040516323b872dd60e01b81526001600160a01b038216906323b872dd90612a3990339030908890600401613b66565b602060405180830381600087803b158015612a5357600080fd5b505af1158015612a67573d6000803e3d6000fd5b505050506040513d601f19601f82011682018060405250810190612a8b9190613a99565b612aa75760405162461bcd60e51b8152600401610c2d90613d07565b8160021415612ac557600454612abd9084613913565b600455612adf565b8160031415612adf57600554612adb9084613913565b6005555b8160041415612af957600654612af59084613913565b6006555b612b02336122e4565b604080518481526020810184905233917f68dcee598918c1887bfa1c13ac763d4659a12722f88a5eb920014ba1f0bc38fb91015b60405180910390a2505050565b6001600160a01b0381166000908152601c60205260408120546060919067ffffffffffffffff811115612b8657634e487b7160e01b600052604160045260246000fd5b604051908082528060200260200182016040528015612bbf57816020015b612bac61399b565b815260200190600190039081612ba45790505b50905060005b6001600160a01b0384166000908152601c602052604090205481101561256c576001600160a01b038085166000908152601e60209081526040808320858452825291829020825161016081018452815490941684526001810154918401919091526002810154918301919091526003810154606083015260048101546080830152600581015460a0830152600681015460c0830152600781015460ff80821615801560e0860181905261010093849004909216151592850192909252600883015461012085015260099092015461014084015290612ca65750428160800151105b15612cd85780838381518110612ccc57634e487b7160e01b600052603260045260246000fd5b60200260200101819052505b5080612ce381613ef6565b915050612bc5565b336000908152601d60205260408120546060919067ffffffffffffffff811115612d2557634e487b7160e01b600052604160045260246000fd5b604051908082528060200260200182016040528015612d5e57816020015b612d4b613a02565b815260200190600190039081612d435790505b50905060005b336000908152601d6020526040902054811015610bd557336000908152601f6020908152604080832084845282529182902082516101008101845281546001600160a01b031681526001820154928101929092526002810154928201929092526003820154606082015260048201546080820152600582015460a0820152600682015460ff16151560c0820181905260079092015460e082015290612e305780838381518110612e2457634e487b7160e01b600052603260045260246000fd5b60200260200101819052505b5080612e3b81613ef6565b915050612d64565b6000546001600160a01b03163314612e6d5760405162461bcd60e51b8152600401610c2d90613dfd565b60008160021415612e8a5750600b546001600160a01b0316612ebc565b8160031415612ea55750600c546001600160a01b0316612ebc565b8160041415612ebc5750600d546001600160a01b03165b6040516323b872dd60e01b81526001600160a01b038216906323b872dd90612eec90339030908890600401613b66565b602060405180830381600087803b158015612f0657600080fd5b505af1158015612f1a573d6000803e3d6000fd5b505050506040513d601f19601f82011682018060405250810190612f3e9190613a99565b612f5a5760405162461bcd60e51b8152600401610c2d90613d5d565b476007556002821415612f7c57600454612f749084613913565b600455612b02565b8160031415612f9257600554612f749084613913565b8160041415612b0257600654612fa89084613913565b600455604080518481526020810184905233917f68dcee598918c1887bfa1c13ac763d4659a12722f88a5eb920014ba1f0bc38fb9101612b36565b600081600214156130005750600b546001600160a01b0316613032565b816003141561301b5750600c546001600160a01b0316613032565b81600414156130325750600d546001600160a01b03165b6040516323b872dd60e01b81526001600160a01b038216906323b872dd9061306290339030908890600401613b66565b602060405180830381600087803b15801561307c57600080fd5b505af1158015613090573d6000803e3d6000fd5b505050506040513d601f19601f820116820180604052508101906130b49190613a99565b6130d05760405162461bcd60e51b8152600401610c2d90613d07565b6130d8613a02565b338082526000908152601d602090815260409182902054908301528101849052600283141561312f5761312561311e6064610ce7601754886138ef90919063ffffffff16565b8590613913565b6060820152613181565b82600314156131555761312561311e6064610ce7601854886138ef90919063ffffffff16565b82600414156131815761317b61311e6064610ce7601954886138ef90919063ffffffff16565b60608201525b42608082018190526131969062278d00613e88565b60a08201908152600060c0830181815260e08401868152338352601f60209081526040808520601d83528186205486528252808520875181546001600160a01b0319166001600160a01b03909116178155918701516001830155860151600280830191909155606087015160038301556080870151600483015594516005820155915160068301805460ff1916911515919091179055516007909101558154919061324083613ef6565b9091555050336000908152601d6020526040812080549161326083613ef6565b919050555082600214156132835760045461327b9085613913565b60045561329d565b826003141561329d576005546132999085613913565b6005555b82600414156132b7576006546132b39085613913565b6006555b6132c0336122e4565b80600001516001600160a01b03167f4ab15cc690495a744ed84b8955b45eb732403b222a485fa1e287db39ad05e0658260400151836060015184608001518560a001518660c001518760e00151604051613344969594939291909586526020860194909452604085019290925260608401521515608083015260a082015260c00190565b60405180910390a250505050565b600080600061336084613423565b9050600061336d86613423565b9050856002141561339f576133986064613392600f548a61397b90919063ffffffff16565b9061398f565b92506133e8565b85600314156133c2576133986064613392600e548a61397b90919063ffffffff16565b85600414156133e8576133e560646133926010548a61397b90919063ffffffff16565b92505b6133f682610ce7858461398f565b979650505050505050565b601154600090600190613414858561368c565b10612064575060009392505050565b601b546000906001600160a01b031661344e5760405162461bcd60e51b8152600401610c2d90613cd0565b600082600214156134e657601b60009054906101000a90046001600160a01b03166001600160a01b031663d63c25186040518163ffffffff1660e01b815260040160206040518083038186803b1580156134a757600080fd5b505afa1580156134bb573d6000803e3d6000fd5b505050506040513d601f19601f820116820180604052508101906134df9190613ad1565b90506135a2565b826003141561353d57601b60009054906101000a90046001600160a01b03166001600160a01b0316633629cf056040518163ffffffff1660e01b815260040160206040518083038186803b1580156134a757600080fd5b826004141561359457601b60009054906101000a90046001600160a01b03166001600160a01b0316630f00fa116040518163ffffffff1660e01b815260040160206040518083038186803b1580156134a757600080fd5b82600514156135a257506008545b600081116120675760405162461bcd60e51b81526020600482015260196024820152781d1bdad95b881c1c9a58d9481a5cdb89dd0818dbdc9c9958dd603a1b6044820152606401610c2d565b60008060006135fc84613423565b9050600061360986613423565b905085600214156136355761362e6064610ce7600f548a6138ef90919063ffffffff16565b925061367e565b85600314156136585761362e6064610ce7600e548a6138ef90919063ffffffff16565b856004141561367e5761367b6064610ce76010548a6138ef90919063ffffffff16565b92505b6133f681610ce7858561398f565b6001600160a01b038083166000908152601e602090815260408083208584529091528120601b54919290918391166136d65760405162461bcd60e51b8152600401610c2d90613cd0565b60006136e58360090154613423565b9050600081116137375760405162461bcd60e51b815260206004820152601960248201527f65746865722070726963652069736e277420636f7272656374000000000000006044820152606401610c2d565b60006137468460080154613423565b9050600081116137945760405162461bcd60e51b81526020600482015260196024820152781d1bdad95b881c1c9a58d9481a5cdb89dd0818dbdc9c9958dd603a1b6044820152606401610c2d565b60038401546000906137a6908361398f565b905060006137c184876002015461398f90919063ffffffff16565b90506137d26064613392848461397b565b9998505050505050505050565b6000546001600160a01b031633146138095760405162461bcd60e51b8152600401610c2d90613dfd565b6001600160a01b03811661386e5760405162461bcd60e51b815260206004820152602660248201527f4f776e61626c653a206e6577206f776e657220697320746865207a65726f206160448201526564647265737360d01b6064820152608401610c2d565b6138778161392b565b50565b600080826001141561388f57506007546138d3565b82600214156138a157506004546138d3565b82600314156138b357506005546138d3565b82600414156138c557506006546138d3565b82600514156138d357506003545b808411156138e5576000915050612067565b6001915050612067565b6000612064670de0b6b3a7640000610ce7858561398f565b60006120648284613ea0565b60006120648284613e88565b60006120648284613edf565b600080546001600160a01b038381166001600160a01b0319831681178455604051919092169283917f8be0079c531659141344cd1fd0a4f28419497f9722a3daafe3b4186f6b6457e09190a35050565b600061206482610ce785670de0b6b3a76400005b60006120648284613ec0565b60405180610160016040528060006001600160a01b0316815260200160008152602001600081526020016000815260200160008152602001600081526020016000815260200160001515815260200160001515815260200160008152602001600081525090565b60405180610100016040528060006001600160a01b031681526020016000815260200160008152602001600081526020016000815260200160008152602001600015158152602001600081525090565b600060208284031215613a63578081fd5b813561206481613f27565b60008060408385031215613a80578081fd5b8235613a8b81613f27565b946020939093013593505050565b600060208284031215613aaa578081fd5b81518015158114612064578182fd5b600060208284031215613aca578081fd5b5035919050565b600060208284031215613ae2578081fd5b5051919050565b60008060408385031215613afb578182fd5b50508035926020909101359150565b600080600060608486031215613b1e578081fd5b505081359360208301359350604090920135919050565b60008060008060808587031215613b4a578081fd5b5050823594602084013594506040840135936060013592509050565b6001600160a01b039384168152919092166020820152604081019190915260600190565b602080825282518282018190526000919060409081850190868401855b82811015613c1557815180516001600160a01b0316855286810151878601528581015186860152606080820151908601526080808201519086015260a0808201519086015260c08082015115159086015260e090810151908501526101009093019290850190600101613ba7565b5091979650505050505050565b602080825282518282018190526000919060409081850190868401855b82811015613c1557815180516001600160a01b0316855286810151878601528581015186860152606080820151908601526080808201519086015260a0808201519086015260c0808201519086015260e08082015115159086015261010080820151151590860152610120808201519086015261014090810151908501526101609093019290850190600101613c3f565b6020808252601e908201527f7072696365206f7261636c652069736e277420696e697469616c697a65640000604082015260600190565b60208082526036908201527f6c656e64546f6b656e3a205472616e7366657220746f6b656e2066726f6d20756040820152751cd95c881d1bc818dbdb9d1c9858dd0819985a5b195960521b606082015260800190565b60208082526023908201527f5472616e73616374696f6e206661696c6564206f6e20696e69742066756e637460408201526234b7b760e91b606082015260800190565b60208082526039908201527f7061796261636b3a205472616e7366657220636f6c6c61746572616c2066726f60408201527f6d20636f6e747261637420746f2075736572206661696c656400000000000000606082015260800190565b6020808252818101527f4f776e61626c653a2063616c6c6572206973206e6f7420746865206f776e6572604082015260600190565b60208082526036908201527f6c6f616e546f6b656e3a205472616e7366657220746f6b656e2066726f6d20636040820152751bdb9d1c9858dd081d1bc81d5cd95c8819985a5b195960521b606082015260800190565b60008219821115613e9b57613e9b613f11565b500190565b600082613ebb57634e487b7160e01b81526012600452602481fd5b500490565b6000816000190483118215151615613eda57613eda613f11565b500290565b600082821015613ef157613ef1613f11565b500390565b6000600019821415613f0a57613f0a613f11565b5060010190565b634e487b7160e01b600052601160045260246000fd5b6001600160a01b038116811461387757600080fdfea26469706673582212201c5cbb59e9dca3a342e120e3d5bb64fdc6706147345da3f267b6b2cd3ba77d8064736f6c63430008040033",
  "linkReferences": {},
  "deployedLinkReferences": {}
}