{
  "_format": "hh-sol-artifact-1",
  "contractName": "Loan",
  "sourceName": "contracts/Loan.sol",
  "abi": [
    {
      "inputs": [
        {
          "internalType": "address",
          "name": "_odonAddress",
          "type": "address"
        },
        {
          "internalType": "address",
          "name": "_usdcAddress",
          "type": "address"
        },
        {
          "internalType": "address",
          "name": "_usdtAddress",
          "type": "address"
        },
        {
          "internalType": "address",
          "name": "_btcAddress",
          "type": "address"
        }
      ],
      "stateMutability": "nonpayable",
      "type": "constructor"
    },
    {
      "anonymous": false,
      "inputs": [
        {
          "indexed": false,
          "internalType": "uint256",
          "name": "_usdcAPY",
          "type": "uint256"
        },
        {
          "indexed": false,
          "internalType": "uint256",
          "name": "_usdtAPY",
          "type": "uint256"
        },
        {
          "indexed": false,
          "internalType": "uint256",
          "name": "_btcAPY",
          "type": "uint256"
        }
      ],
      "name": "BorrowAPYUpdated",
      "type": "event"
    },
    {
      "anonymous": false,
      "inputs": [
        {
          "indexed": true,
          "internalType": "address",
          "name": "admin",
          "type": "address"
        },
        {
          "indexed": false,
          "internalType": "uint256",
          "name": "amount",
          "type": "uint256"
        },
        {
          "indexed": false,
          "internalType": "uint256",
          "name": "mtype",
          "type": "uint256"
        }
      ],
      "name": "InitBalance",
      "type": "event"
    },
    {
      "anonymous": false,
      "inputs": [
        {
          "indexed": false,
          "internalType": "uint256",
          "name": "_usdcAPY",
          "type": "uint256"
        },
        {
          "indexed": false,
          "internalType": "uint256",
          "name": "_usdtAPY",
          "type": "uint256"
        },
        {
          "indexed": false,
          "internalType": "uint256",
          "name": "_btcAPY",
          "type": "uint256"
        }
      ],
      "name": "LendAPYUpdated",
      "type": "event"
    },
    {
      "anonymous": false,
      "inputs": [
        {
          "indexed": false,
          "internalType": "address",
          "name": "liquidator",
          "type": "address"
        },
        {
          "indexed": false,
          "internalType": "uint256",
          "name": "liquidateTime",
          "type": "uint256"
        }
      ],
      "name": "Liquidate",
      "type": "event"
    },
    {
      "anonymous": false,
      "inputs": [
        {
          "indexed": false,
          "internalType": "uint256",
          "name": "mtype",
          "type": "uint256"
        }
      ],
      "name": "LoanDurationModeUpdated",
      "type": "event"
    },
    {
      "anonymous": false,
      "inputs": [
        {
          "indexed": true,
          "internalType": "address",
          "name": "lender",
          "type": "address"
        },
        {
          "indexed": false,
          "internalType": "uint256",
          "name": "lendAmount",
          "type": "uint256"
        },
        {
          "indexed": false,
          "internalType": "uint256",
          "name": "paybackAmount",
          "type": "uint256"
        },
        {
          "indexed": false,
          "internalType": "uint256",
          "name": "timeLend",
          "type": "uint256"
        },
        {
          "indexed": false,
          "internalType": "uint256",
          "name": "timeCanGetInterest",
          "type": "uint256"
        },
        {
          "indexed": false,
          "internalType": "bool",
          "name": "retrieved",
          "type": "bool"
        },
        {
          "indexed": false,
          "internalType": "uint256",
          "name": "mtype",
          "type": "uint256"
        }
      ],
      "name": "NewLend",
      "type": "event"
    },
    {
      "anonymous": false,
      "inputs": [
        {
          "indexed": true,
          "internalType": "address",
          "name": "borrower",
          "type": "address"
        },
        {
          "indexed": false,
          "internalType": "uint256",
          "name": "loanAmount",
          "type": "uint256"
        },
        {
          "indexed": false,
          "internalType": "uint256",
          "name": "collateralAmount",
          "type": "uint256"
        },
        {
          "indexed": false,
          "internalType": "uint256",
          "name": "paybackAmount",
          "type": "uint256"
        },
        {
          "indexed": false,
          "internalType": "uint256",
          "name": "loanDueDate",
          "type": "uint256"
        },
        {
          "indexed": false,
          "internalType": "uint256",
          "name": "duration",
          "type": "uint256"
        },
        {
          "indexed": false,
          "internalType": "uint256",
          "name": "mtype",
          "type": "uint256"
        },
        {
          "indexed": false,
          "internalType": "uint256",
          "name": "ctype",
          "type": "uint256"
        }
      ],
      "name": "NewLoan",
      "type": "event"
    },
    {
      "anonymous": false,
      "inputs": [
        {
          "indexed": false,
          "internalType": "uint256",
          "name": "_price",
          "type": "uint256"
        }
      ],
      "name": "OdonPriceUpdated",
      "type": "event"
    },
    {
      "anonymous": false,
      "inputs": [
        {
          "indexed": true,
          "internalType": "address",
          "name": "previousOwner",
          "type": "address"
        },
        {
          "indexed": true,
          "internalType": "address",
          "name": "newOwner",
          "type": "address"
        }
      ],
      "name": "OwnershipTransferred",
      "type": "event"
    },
    {
      "anonymous": false,
      "inputs": [
        {
          "indexed": false,
          "internalType": "address",
          "name": "borrower",
          "type": "address"
        },
        {
          "indexed": false,
          "internalType": "bool",
          "name": "paybackSuccess",
          "type": "bool"
        },
        {
          "indexed": false,
          "internalType": "uint256",
          "name": "paybackTime",
          "type": "uint256"
        },
        {
          "indexed": false,
          "internalType": "uint256",
          "name": "paybackAmount",
          "type": "uint256"
        },
        {
          "indexed": false,
          "internalType": "uint256",
          "name": "returnCollateralAmount",
          "type": "uint256"
        },
        {
          "indexed": false,
          "internalType": "uint256",
          "name": "mtype",
          "type": "uint256"
        },
        {
          "indexed": false,
          "internalType": "uint256",
          "name": "ctype",
          "type": "uint256"
        }
      ],
      "name": "PayBack",
      "type": "event"
    },
    {
      "anonymous": false,
      "inputs": [
        {
          "indexed": true,
          "internalType": "address",
          "name": "priceOracleAddress",
          "type": "address"
        }
      ],
      "name": "PriceOracleUpdated",
      "type": "event"
    },
    {
      "anonymous": false,
      "inputs": [
        {
          "indexed": false,
          "internalType": "uint256",
          "name": "_usdcLTV",
          "type": "uint256"
        },
        {
          "indexed": false,
          "internalType": "uint256",
          "name": "_usdtLTV",
          "type": "uint256"
        },
        {
          "indexed": false,
          "internalType": "uint256",
          "name": "_btcLTV",
          "type": "uint256"
        }
      ],
      "name": "StandardLTVUpdated",
      "type": "event"
    },
    {
      "anonymous": false,
      "inputs": [
        {
          "indexed": false,
          "internalType": "uint256",
          "name": "withdrawAmount",
          "type": "uint256"
        },
        {
          "indexed": false,
          "internalType": "uint256",
          "name": "mtype",
          "type": "uint256"
        }
      ],
      "name": "WithDrawReserve",
      "type": "event"
    },
    {
      "anonymous": false,
      "inputs": [
        {
          "indexed": false,
          "internalType": "bool",
          "name": "isEarnInterest",
          "type": "bool"
        },
        {
          "indexed": false,
          "internalType": "uint256",
          "name": "withdrawAmount",
          "type": "uint256"
        },
        {
          "indexed": false,
          "internalType": "uint256",
          "name": "mtype",
          "type": "uint256"
        }
      ],
      "name": "Withdraw",
      "type": "event"
    },
    {
      "inputs": [],
      "name": "AutoLiquidate",
      "outputs": [],
      "stateMutability": "nonpayable",
      "type": "function"
    },
    {
      "inputs": [
        {
          "internalType": "uint256",
          "name": "",
          "type": "uint256"
        }
      ],
      "name": "LendUserList",
      "outputs": [
        {
          "internalType": "address",
          "name": "",
          "type": "address"
        }
      ],
      "stateMutability": "view",
      "type": "function"
    },
    {
      "inputs": [
        {
          "internalType": "uint256",
          "name": "",
          "type": "uint256"
        }
      ],
      "name": "LoanUserList",
      "outputs": [
        {
          "internalType": "address",
          "name": "",
          "type": "address"
        }
      ],
      "stateMutability": "view",
      "type": "function"
    },
    {
      "inputs": [
        {
          "internalType": "address",
          "name": "_user",
          "type": "address"
        }
      ],
      "name": "addUserToLendUserList",
      "outputs": [],
      "stateMutability": "nonpayable",
      "type": "function"
    },
    {
      "inputs": [
        {
          "internalType": "address",
          "name": "_user",
          "type": "address"
        }
      ],
      "name": "addUserToLoanUserList",
      "outputs": [],
      "stateMutability": "nonpayable",
      "type": "function"
    },
    {
      "inputs": [],
      "name": "btcAddress",
      "outputs": [
        {
          "internalType": "address",
          "name": "",
          "type": "address"
        }
      ],
      "stateMutability": "view",
      "type": "function"
    },
    {
      "inputs": [],
      "name": "btcBorrowAPY",
      "outputs": [
        {
          "internalType": "uint256",
          "name": "",
          "type": "uint256"
        }
      ],
      "stateMutability": "view",
      "type": "function"
    },
    {
      "inputs": [],
      "name": "btcLTV",
      "outputs": [
        {
          "internalType": "uint256",
          "name": "",
          "type": "uint256"
        }
      ],
      "stateMutability": "view",
      "type": "function"
    },
    {
      "inputs": [],
      "name": "btcLendAPY",
      "outputs": [
        {
          "internalType": "uint256",
          "name": "",
          "type": "uint256"
        }
      ],
      "stateMutability": "view",
      "type": "function"
    },
    {
      "inputs": [],
      "name": "btcTotalLiquidity",
      "outputs": [
        {
          "internalType": "uint256",
          "name": "",
          "type": "uint256"
        }
      ],
      "stateMutability": "view",
      "type": "function"
    },
    {
      "inputs": [
        {
          "internalType": "uint256",
          "name": "_amount",
          "type": "uint256"
        },
        {
          "internalType": "uint256",
          "name": "mtype",
          "type": "uint256"
        }
      ],
      "name": "checkEnoughLiquidity",
      "outputs": [
        {
          "internalType": "bool",
          "name": "",
          "type": "bool"
        }
      ],
      "stateMutability": "view",
      "type": "function"
    },
    {
      "inputs": [
        {
          "internalType": "address",
          "name": "borrower",
          "type": "address"
        },
        {
          "internalType": "uint256",
          "name": "_id",
          "type": "uint256"
        }
      ],
      "name": "checkLoanExpire",
      "outputs": [
        {
          "internalType": "bool",
          "name": "",
          "type": "bool"
        }
      ],
      "stateMutability": "view",
      "type": "function"
    },
    {
      "inputs": [
        {
          "internalType": "address",
          "name": "_borrower",
          "type": "address"
        },
        {
          "internalType": "uint256",
          "name": "_id",
          "type": "uint256"
        }
      ],
      "name": "checkLoanHealth",
      "outputs": [
        {
          "internalType": "bool",
          "name": "",
          "type": "bool"
        }
      ],
      "stateMutability": "view",
      "type": "function"
    },
    {
      "inputs": [
        {
          "internalType": "uint256",
          "name": "lnAmount",
          "type": "uint256"
        },
        {
          "internalType": "uint256",
          "name": "mtype",
          "type": "uint256"
        },
        {
          "internalType": "uint256",
          "name": "ctype",
          "type": "uint256"
        }
      ],
      "name": "collateralAmount",
      "outputs": [
        {
          "internalType": "uint256",
          "name": "",
          "type": "uint256"
        }
      ],
      "stateMutability": "view",
      "type": "function"
    },
    {
      "inputs": [],
      "name": "dangerousLTV",
      "outputs": [
        {
          "internalType": "uint256",
          "name": "",
          "type": "uint256"
        }
      ],
      "stateMutability": "view",
      "type": "function"
    },
    {
      "inputs": [
        {
          "internalType": "uint256",
          "name": "_amount",
          "type": "uint256"
        },
        {
          "internalType": "uint256",
          "name": "mtype",
          "type": "uint256"
        }
      ],
      "name": "depositToken",
      "outputs": [],
      "stateMutability": "nonpayable",
      "type": "function"
    },
    {
      "inputs": [],
      "name": "firstAddAPY",
      "outputs": [
        {
          "internalType": "uint256",
          "name": "",
          "type": "uint256"
        }
      ],
      "stateMutability": "view",
      "type": "function"
    },
    {
      "inputs": [],
      "name": "getAllUserLoans",
      "outputs": [
        {
          "components": [
            {
              "internalType": "address",
              "name": "borrower",
              "type": "address"
            },
            {
              "internalType": "uint256",
              "name": "loanAmount",
              "type": "uint256"
            },
            {
              "internalType": "uint256",
              "name": "collateralAmount",
              "type": "uint256"
            },
            {
              "internalType": "uint256",
              "name": "paybackAmount",
              "type": "uint256"
            },
            {
              "internalType": "uint256",
              "name": "loanDueDate",
              "type": "uint256"
            },
            {
              "internalType": "uint256",
              "name": "duration",
              "type": "uint256"
            },
            {
              "internalType": "uint256",
              "name": "loanId",
              "type": "uint256"
            },
            {
              "internalType": "bool",
              "name": "isPayback",
              "type": "bool"
            },
            {
              "internalType": "bool",
              "name": "isLiquidate",
              "type": "bool"
            },
            {
              "internalType": "uint256",
              "name": "mtype",
              "type": "uint256"
            },
            {
              "internalType": "uint256",
              "name": "ctype",
              "type": "uint256"
            }
          ],
          "internalType": "struct Loan.LoanRequest[]",
          "name": "",
          "type": "tuple[]"
        }
      ],
      "stateMutability": "view",
      "type": "function"
    },
    {
      "inputs": [
        {
          "internalType": "address",
          "name": "_borrower",
          "type": "address"
        },
        {
          "internalType": "uint256",
          "name": "_id",
          "type": "uint256"
        }
      ],
      "name": "getLoansLTV",
      "outputs": [
        {
          "internalType": "uint256",
          "name": "",
          "type": "uint256"
        }
      ],
      "stateMutability": "view",
      "type": "function"
    },
    {
      "inputs": [
        {
          "internalType": "uint256",
          "name": "mtype",
          "type": "uint256"
        }
      ],
      "name": "getTokenPriceInUSD",
      "outputs": [
        {
          "internalType": "uint256",
          "name": "",
          "type": "uint256"
        }
      ],
      "stateMutability": "view",
      "type": "function"
    },
    {
      "inputs": [
        {
          "internalType": "uint256",
          "name": "mtype",
          "type": "uint256"
        }
      ],
      "name": "getTotalLiquidityInUSD",
      "outputs": [
        {
          "internalType": "uint256",
          "name": "",
          "type": "uint256"
        }
      ],
      "stateMutability": "view",
      "type": "function"
    },
    {
      "inputs": [],
      "name": "getUserAllLends",
      "outputs": [
        {
          "components": [
            {
              "internalType": "address",
              "name": "lender",
              "type": "address"
            },
            {
              "internalType": "uint256",
              "name": "lendId",
              "type": "uint256"
            },
            {
              "internalType": "uint256",
              "name": "lendAmount",
              "type": "uint256"
            },
            {
              "internalType": "uint256",
              "name": "paybackAmount",
              "type": "uint256"
            },
            {
              "internalType": "uint256",
              "name": "timeLend",
              "type": "uint256"
            },
            {
              "internalType": "uint256",
              "name": "timeCanGetInterest",
              "type": "uint256"
            },
            {
              "internalType": "bool",
              "name": "retrieved",
              "type": "bool"
            },
            {
              "internalType": "uint256",
              "name": "mtype",
              "type": "uint256"
            }
          ],
          "internalType": "struct Loan.LendRequest[]",
          "name": "",
          "type": "tuple[]"
        }
      ],
      "stateMutability": "view",
      "type": "function"
    },
    {
      "inputs": [],
      "name": "getUserNotRetrieveLend",
      "outputs": [
        {
          "components": [
            {
              "internalType": "address",
              "name": "lender",
              "type": "address"
            },
            {
              "internalType": "uint256",
              "name": "lendId",
              "type": "uint256"
            },
            {
              "internalType": "uint256",
              "name": "lendAmount",
              "type": "uint256"
            },
            {
              "internalType": "uint256",
              "name": "paybackAmount",
              "type": "uint256"
            },
            {
              "internalType": "uint256",
              "name": "timeLend",
              "type": "uint256"
            },
            {
              "internalType": "uint256",
              "name": "timeCanGetInterest",
              "type": "uint256"
            },
            {
              "internalType": "bool",
              "name": "retrieved",
              "type": "bool"
            },
            {
              "internalType": "uint256",
              "name": "mtype",
              "type": "uint256"
            }
          ],
          "internalType": "struct Loan.LendRequest[]",
          "name": "",
          "type": "tuple[]"
        }
      ],
      "stateMutability": "view",
      "type": "function"
    },
    {
      "inputs": [],
      "name": "getUserOngoingLoans",
      "outputs": [
        {
          "components": [
            {
              "internalType": "address",
              "name": "borrower",
              "type": "address"
            },
            {
              "internalType": "uint256",
              "name": "loanAmount",
              "type": "uint256"
            },
            {
              "internalType": "uint256",
              "name": "collateralAmount",
              "type": "uint256"
            },
            {
              "internalType": "uint256",
              "name": "paybackAmount",
              "type": "uint256"
            },
            {
              "internalType": "uint256",
              "name": "loanDueDate",
              "type": "uint256"
            },
            {
              "internalType": "uint256",
              "name": "duration",
              "type": "uint256"
            },
            {
              "internalType": "uint256",
              "name": "loanId",
              "type": "uint256"
            },
            {
              "internalType": "bool",
              "name": "isPayback",
              "type": "bool"
            },
            {
              "internalType": "bool",
              "name": "isLiquidate",
              "type": "bool"
            },
            {
              "internalType": "uint256",
              "name": "mtype",
              "type": "uint256"
            },
            {
              "internalType": "uint256",
              "name": "ctype",
              "type": "uint256"
            }
          ],
          "internalType": "struct Loan.LoanRequest[]",
          "name": "",
          "type": "tuple[]"
        }
      ],
      "stateMutability": "view",
      "type": "function"
    },
    {
      "inputs": [
        {
          "internalType": "address",
          "name": "borrower",
          "type": "address"
        }
      ],
      "name": "getUserOverdueLoans",
      "outputs": [
        {
          "components": [
            {
              "internalType": "address",
              "name": "borrower",
              "type": "address"
            },
            {
              "internalType": "uint256",
              "name": "loanAmount",
              "type": "uint256"
            },
            {
              "internalType": "uint256",
              "name": "collateralAmount",
              "type": "uint256"
            },
            {
              "internalType": "uint256",
              "name": "paybackAmount",
              "type": "uint256"
            },
            {
              "internalType": "uint256",
              "name": "loanDueDate",
              "type": "uint256"
            },
            {
              "internalType": "uint256",
              "name": "duration",
              "type": "uint256"
            },
            {
              "internalType": "uint256",
              "name": "loanId",
              "type": "uint256"
            },
            {
              "internalType": "bool",
              "name": "isPayback",
              "type": "bool"
            },
            {
              "internalType": "bool",
              "name": "isLiquidate",
              "type": "bool"
            },
            {
              "internalType": "uint256",
              "name": "mtype",
              "type": "uint256"
            },
            {
              "internalType": "uint256",
              "name": "ctype",
              "type": "uint256"
            }
          ],
          "internalType": "struct Loan.LoanRequest[]",
          "name": "",
          "type": "tuple[]"
        }
      ],
      "stateMutability": "view",
      "type": "function"
    },
    {
      "inputs": [
        {
          "internalType": "address",
          "name": "borrower",
          "type": "address"
        }
      ],
      "name": "getUserUnHealthLoans",
      "outputs": [
        {
          "components": [
            {
              "internalType": "address",
              "name": "borrower",
              "type": "address"
            },
            {
              "internalType": "uint256",
              "name": "loanAmount",
              "type": "uint256"
            },
            {
              "internalType": "uint256",
              "name": "collateralAmount",
              "type": "uint256"
            },
            {
              "internalType": "uint256",
              "name": "paybackAmount",
              "type": "uint256"
            },
            {
              "internalType": "uint256",
              "name": "loanDueDate",
              "type": "uint256"
            },
            {
              "internalType": "uint256",
              "name": "duration",
              "type": "uint256"
            },
            {
              "internalType": "uint256",
              "name": "loanId",
              "type": "uint256"
            },
            {
              "internalType": "bool",
              "name": "isPayback",
              "type": "bool"
            },
            {
              "internalType": "bool",
              "name": "isLiquidate",
              "type": "bool"
            },
            {
              "internalType": "uint256",
              "name": "mtype",
              "type": "uint256"
            },
            {
              "internalType": "uint256",
              "name": "ctype",
              "type": "uint256"
            }
          ],
          "internalType": "struct Loan.LoanRequest[]",
          "name": "",
          "type": "tuple[]"
        }
      ],
      "stateMutability": "view",
      "type": "function"
    },
    {
      "inputs": [
        {
          "internalType": "uint256",
          "name": "_amount",
          "type": "uint256"
        },
        {
          "internalType": "uint256",
          "name": "mtype",
          "type": "uint256"
        }
      ],
      "name": "init",
      "outputs": [],
      "stateMutability": "nonpayable",
      "type": "function"
    },
    {
      "inputs": [],
      "name": "lendCount",
      "outputs": [
        {
          "internalType": "uint256",
          "name": "",
          "type": "uint256"
        }
      ],
      "stateMutability": "view",
      "type": "function"
    },
    {
      "inputs": [
        {
          "internalType": "uint256",
          "name": "_amount",
          "type": "uint256"
        },
        {
          "internalType": "uint256",
          "name": "mtype",
          "type": "uint256"
        }
      ],
      "name": "lendToken",
      "outputs": [],
      "stateMutability": "nonpayable",
      "type": "function"
    },
    {
      "inputs": [
        {
          "internalType": "address",
          "name": "",
          "type": "address"
        },
        {
          "internalType": "uint256",
          "name": "",
          "type": "uint256"
        }
      ],
      "name": "lends",
      "outputs": [
        {
          "internalType": "address",
          "name": "lender",
          "type": "address"
        },
        {
          "internalType": "uint256",
          "name": "lendId",
          "type": "uint256"
        },
        {
          "internalType": "uint256",
          "name": "lendAmount",
          "type": "uint256"
        },
        {
          "internalType": "uint256",
          "name": "paybackAmount",
          "type": "uint256"
        },
        {
          "internalType": "uint256",
          "name": "timeLend",
          "type": "uint256"
        },
        {
          "internalType": "uint256",
          "name": "timeCanGetInterest",
          "type": "uint256"
        },
        {
          "internalType": "bool",
          "name": "retrieved",
          "type": "bool"
        },
        {
          "internalType": "uint256",
          "name": "mtype",
          "type": "uint256"
        }
      ],
      "stateMutability": "view",
      "type": "function"
    },
    {
      "inputs": [
        {
          "internalType": "uint256",
          "name": "_amount",
          "type": "uint256"
        },
        {
          "internalType": "uint256",
          "name": "_colAmount",
          "type": "uint256"
        },
        {
          "internalType": "uint256",
          "name": "_duration",
          "type": "uint256"
        },
        {
          "internalType": "uint256",
          "name": "mtype",
          "type": "uint256"
        },
        {
          "internalType": "uint256",
          "name": "ctype",
          "type": "uint256"
        }
      ],
      "name": "loan",
      "outputs": [],
      "stateMutability": "nonpayable",
      "type": "function"
    },
    {
      "inputs": [
        {
          "internalType": "uint256",
          "name": "colAmount",
          "type": "uint256"
        },
        {
          "internalType": "uint256",
          "name": "mtype",
          "type": "uint256"
        },
        {
          "internalType": "uint256",
          "name": "ctype",
          "type": "uint256"
        }
      ],
      "name": "loanAmount",
      "outputs": [
        {
          "internalType": "uint256",
          "name": "",
          "type": "uint256"
        }
      ],
      "stateMutability": "view",
      "type": "function"
    },
    {
      "inputs": [],
      "name": "loanCount",
      "outputs": [
        {
          "internalType": "uint256",
          "name": "",
          "type": "uint256"
        }
      ],
      "stateMutability": "view",
      "type": "function"
    },
    {
      "inputs": [],
      "name": "loanMode",
      "outputs": [
        {
          "internalType": "uint256",
          "name": "",
          "type": "uint256"
        }
      ],
      "stateMutability": "view",
      "type": "function"
    },
    {
      "inputs": [
        {
          "internalType": "address",
          "name": "",
          "type": "address"
        },
        {
          "internalType": "uint256",
          "name": "",
          "type": "uint256"
        }
      ],
      "name": "loans",
      "outputs": [
        {
          "internalType": "address",
          "name": "borrower",
          "type": "address"
        },
        {
          "internalType": "uint256",
          "name": "loanAmount",
          "type": "uint256"
        },
        {
          "internalType": "uint256",
          "name": "collateralAmount",
          "type": "uint256"
        },
        {
          "internalType": "uint256",
          "name": "paybackAmount",
          "type": "uint256"
        },
        {
          "internalType": "uint256",
          "name": "loanDueDate",
          "type": "uint256"
        },
        {
          "internalType": "uint256",
          "name": "duration",
          "type": "uint256"
        },
        {
          "internalType": "uint256",
          "name": "loanId",
          "type": "uint256"
        },
        {
          "internalType": "bool",
          "name": "isPayback",
          "type": "bool"
        },
        {
          "internalType": "bool",
          "name": "isLiquidate",
          "type": "bool"
        },
        {
          "internalType": "uint256",
          "name": "mtype",
          "type": "uint256"
        },
        {
          "internalType": "uint256",
          "name": "ctype",
          "type": "uint256"
        }
      ],
      "stateMutability": "view",
      "type": "function"
    },
    {
      "inputs": [],
      "name": "movrAddress",
      "outputs": [
        {
          "internalType": "address",
          "name": "",
          "type": "address"
        }
      ],
      "stateMutability": "view",
      "type": "function"
    },
    {
      "inputs": [],
      "name": "odonAddress",
      "outputs": [
        {
          "internalType": "address",
          "name": "",
          "type": "address"
        }
      ],
      "stateMutability": "view",
      "type": "function"
    },
    {
      "inputs": [],
      "name": "odonPrice",
      "outputs": [
        {
          "internalType": "uint256",
          "name": "",
          "type": "uint256"
        }
      ],
      "stateMutability": "view",
      "type": "function"
    },
    {
      "inputs": [],
      "name": "odonTotalLiquidity",
      "outputs": [
        {
          "internalType": "uint256",
          "name": "",
          "type": "uint256"
        }
      ],
      "stateMutability": "view",
      "type": "function"
    },
    {
      "inputs": [],
      "name": "owner",
      "outputs": [
        {
          "internalType": "address",
          "name": "",
          "type": "address"
        }
      ],
      "stateMutability": "view",
      "type": "function"
    },
    {
      "inputs": [
        {
          "internalType": "uint256",
          "name": "_id",
          "type": "uint256"
        },
        {
          "internalType": "uint256",
          "name": "_amount",
          "type": "uint256"
        }
      ],
      "name": "payback",
      "outputs": [],
      "stateMutability": "nonpayable",
      "type": "function"
    },
    {
      "inputs": [],
      "name": "renounceOwnership",
      "outputs": [],
      "stateMutability": "nonpayable",
      "type": "function"
    },
    {
      "inputs": [],
      "name": "secondAddAPY",
      "outputs": [
        {
          "internalType": "uint256",
          "name": "",
          "type": "uint256"
        }
      ],
      "stateMutability": "view",
      "type": "function"
    },
    {
      "inputs": [
        {
          "internalType": "uint256",
          "name": "_usdcapy",
          "type": "uint256"
        },
        {
          "internalType": "uint256",
          "name": "_usdtapy",
          "type": "uint256"
        },
        {
          "internalType": "uint256",
          "name": "_btcapy",
          "type": "uint256"
        }
      ],
      "name": "setBorrowAPY",
      "outputs": [],
      "stateMutability": "nonpayable",
      "type": "function"
    },
    {
      "inputs": [
        {
          "internalType": "uint256",
          "name": "_usdcapy",
          "type": "uint256"
        },
        {
          "internalType": "uint256",
          "name": "_usdtapy",
          "type": "uint256"
        },
        {
          "internalType": "uint256",
          "name": "_btcapy",
          "type": "uint256"
        }
      ],
      "name": "setLendAPY",
      "outputs": [],
      "stateMutability": "nonpayable",
      "type": "function"
    },
    {
      "inputs": [
        {
          "internalType": "uint256",
          "name": "mtype",
          "type": "uint256"
        }
      ],
      "name": "setLoanDurationMode",
      "outputs": [],
      "stateMutability": "nonpayable",
      "type": "function"
    },
    {
      "inputs": [
        {
          "internalType": "uint256",
          "name": "_price",
          "type": "uint256"
        }
      ],
      "name": "setPriceOdon",
      "outputs": [],
      "stateMutability": "nonpayable",
      "type": "function"
    },
    {
      "inputs": [
        {
          "internalType": "contract PriceConsumerV3",
          "name": "_oracle",
          "type": "address"
        }
      ],
      "name": "setPriceOracle",
      "outputs": [],
      "stateMutability": "nonpayable",
      "type": "function"
    },
    {
      "inputs": [
        {
          "internalType": "uint256",
          "name": "_usdcltv",
          "type": "uint256"
        },
        {
          "internalType": "uint256",
          "name": "_usdtltv",
          "type": "uint256"
        },
        {
          "internalType": "uint256",
          "name": "_btcltv",
          "type": "uint256"
        }
      ],
      "name": "setStandardLTV",
      "outputs": [],
      "stateMutability": "nonpayable",
      "type": "function"
    },
    {
      "inputs": [],
      "name": "totalLiquidatedAmount",
      "outputs": [
        {
          "internalType": "uint256",
          "name": "",
          "type": "uint256"
        }
      ],
      "stateMutability": "view",
      "type": "function"
    },
    {
      "inputs": [],
      "name": "totalLiquidity",
      "outputs": [
        {
          "internalType": "uint256",
          "name": "",
          "type": "uint256"
        }
      ],
      "stateMutability": "view",
      "type": "function"
    },
    {
      "inputs": [
        {
          "internalType": "address",
          "name": "newOwner",
          "type": "address"
        }
      ],
      "name": "transferOwnership",
      "outputs": [],
      "stateMutability": "nonpayable",
      "type": "function"
    },
    {
      "inputs": [],
      "name": "usdcAddress",
      "outputs": [
        {
          "internalType": "address",
          "name": "",
          "type": "address"
        }
      ],
      "stateMutability": "view",
      "type": "function"
    },
    {
      "inputs": [],
      "name": "usdcBorrowAPY",
      "outputs": [
        {
          "internalType": "uint256",
          "name": "",
          "type": "uint256"
        }
      ],
      "stateMutability": "view",
      "type": "function"
    },
    {
      "inputs": [],
      "name": "usdcLTV",
      "outputs": [
        {
          "internalType": "uint256",
          "name": "",
          "type": "uint256"
        }
      ],
      "stateMutability": "view",
      "type": "function"
    },
    {
      "inputs": [],
      "name": "usdcLendAPY",
      "outputs": [
        {
          "internalType": "uint256",
          "name": "",
          "type": "uint256"
        }
      ],
      "stateMutability": "view",
      "type": "function"
    },
    {
      "inputs": [],
      "name": "usdcTotalLiquidity",
      "outputs": [
        {
          "internalType": "uint256",
          "name": "",
          "type": "uint256"
        }
      ],
      "stateMutability": "view",
      "type": "function"
    },
    {
      "inputs": [],
      "name": "usdtAddress",
      "outputs": [
        {
          "internalType": "address",
          "name": "",
          "type": "address"
        }
      ],
      "stateMutability": "view",
      "type": "function"
    },
    {
      "inputs": [],
      "name": "usdtBorrowAPY",
      "outputs": [
        {
          "internalType": "uint256",
          "name": "",
          "type": "uint256"
        }
      ],
      "stateMutability": "view",
      "type": "function"
    },
    {
      "inputs": [],
      "name": "usdtLTV",
      "outputs": [
        {
          "internalType": "uint256",
          "name": "",
          "type": "uint256"
        }
      ],
      "stateMutability": "view",
      "type": "function"
    },
    {
      "inputs": [],
      "name": "usdtLendAPY",
      "outputs": [
        {
          "internalType": "uint256",
          "name": "",
          "type": "uint256"
        }
      ],
      "stateMutability": "view",
      "type": "function"
    },
    {
      "inputs": [],
      "name": "usdtTotalLiquidity",
      "outputs": [
        {
          "internalType": "uint256",
          "name": "",
          "type": "uint256"
        }
      ],
      "stateMutability": "view",
      "type": "function"
    },
    {
      "inputs": [
        {
          "internalType": "address",
          "name": "",
          "type": "address"
        }
      ],
      "name": "userLendsCount",
      "outputs": [
        {
          "internalType": "uint256",
          "name": "",
          "type": "uint256"
        }
      ],
      "stateMutability": "view",
      "type": "function"
    },
    {
      "inputs": [
        {
          "internalType": "address",
          "name": "",
          "type": "address"
        }
      ],
      "name": "userLoansCount",
      "outputs": [
        {
          "internalType": "uint256",
          "name": "",
          "type": "uint256"
        }
      ],
      "stateMutability": "view",
      "type": "function"
    },
    {
      "inputs": [
        {
          "internalType": "uint256",
          "name": "_amount",
          "type": "uint256"
        },
        {
          "internalType": "uint256",
          "name": "mtype",
          "type": "uint256"
        }
      ],
      "name": "withDrawReserve",
      "outputs": [],
      "stateMutability": "nonpayable",
      "type": "function"
    },
    {
      "inputs": [
        {
          "internalType": "uint256",
          "name": "_id",
          "type": "uint256"
        }
      ],
      "name": "withdraw",
      "outputs": [],
      "stateMutability": "nonpayable",
      "type": "function"
    }
  ],
  "bytecode": "0x6080604052624c4b406009556803860e639d80640000600f556803afb087b8769000006010556802ed6689e54f18000060115568049b9ca9a6943400006012556729a2241af62c00006013556753444835ec580000601455678ac7230489e800006015556798a7d9b8314c000060165567a688906bd8b00000601755674563918244f400006018556753444835ec580000601955676f05b59d3b200000601a556001601b55348015620000b157600080fd5b50604051620043b9380380620043b9833981016040819052620000d491620001c3565b620000df3362000156565b6000600181905560028190556007819055600481905560038190556005819055600655600b80546001600160a01b039586166001600160a01b031991821617909155600c805494861694821694909417909355600d805492851692841692909217909155600e80549190931691161790556200021f565b600080546001600160a01b038381166001600160a01b0319831681178455604051919092169283917f8be0079c531659141344cd1fd0a4f28419497f9722a3daafe3b4186f6b6457e09190a35050565b80516001600160a01b0381168114620001be57600080fd5b919050565b60008060008060808587031215620001d9578384fd5b620001e485620001a6565b9350620001f460208601620001a6565b92506200020460408601620001a6565b91506200021460608601620001a6565b905092959194509250565b61418a806200022f6000396000f3fe608060405234801561001057600080fd5b50600436106103e55760003560e01c806371d1a7011161020a578063b04b022a11610125578063d5a0b65d116100b8578063ee9e580011610087578063ee9e580014610938578063f2fde38b1461094b578063f6c5dded1461095e578063f7d76ae514610967578063fe3af3ea1461097a57600080fd5b8063d5a0b65d146108f6578063d9d0befc14610909578063df62dbbe1461091c578063e15a6d6a1461092557600080fd5b8063ce63094d116100f4578063ce63094d146108be578063d3235306146108c7578063d3c9e2c9146108da578063d3f72d10146108ed57600080fd5b8063b04b022a14610886578063bed1daf514610899578063cdb2409a146108ac578063cdbc87f6146108b557600080fd5b8063973c7d451161019d578063a12af8961161016c578063a12af89614610845578063a557b17d14610858578063a5843f0814610860578063ae5c8fca1461087357600080fd5b8063973c7d451461072b57806398c61c371461073e5780639ab4a4451461081f5780639d2d04d11461083257600080fd5b80638443bccc116101d95780638443bccc146106d45780638a6a29a0146106e75780638be78e8f146107075780638da5cb5b1461071a57600080fd5b806371d1a7011461068a578063725cab5d1461069f5780637f026f15146106a85780638007213f146106cb57600080fd5b806349a4485d1161030557806364880990116102985780636b32991e116102675780636b32991e146106405780636c6ac591146106535780636ccbf758146106665780636ef9855b14610679578063715018a61461068257600080fd5b8063648809901461060857806365440cef1461061b578063693a961d14610624578063699e0f561461063757600080fd5b8063530e784f116102d4578063530e784f146105d157806353bbfefa146105e457806360089fca146105f757806364282ecd146105ff57600080fd5b806349a4485d1461058d5780634c0a79fb146105a057806351bcca5e146105c057806353068056146105c857600080fd5b8063295dea731161037d5780632e1a7d4d1161034c5780632e1a7d4d146104ad5780632e6a1830146104c05780633583de13146104c9578063439b3543146104dc57600080fd5b8063295dea731461047f57806329b53f85146104885780632b84a68d146104915780632d1fabec1461049a57600080fd5b80630bf1644e116103b95780630bf1644e1461044f57806315770f9214610458578063168c738c1461046157806320ec1ff51461047657600080fd5b806208001a146103ea57806302d4545714610406578063048422a51461043157806309e3136f14610446575b600080fd5b6103f3601a5481565b6040519081526020015b60405180910390f35b600c54610419906001600160a01b031681565b6040516001600160a01b0390911681526020016103fd565b61044461043f366004613c61565b61098d565b005b6103f3601b5481565b6103f360135481565b6103f360075481565b610469610a4e565b6040516103fd9190613e3a565b6103f360185481565b6103f360145481565b6103f360035481565b6103f360045481565b6104446104a8366004613cc8565b610c0b565b6104446104bb366004613cc8565b610c7a565b6103f360175481565b6104446104d7366004613cf8565b6110fb565b6105466104ea366004613c7d565b602080805260009283526040808420909152908252902080546001820154600283015460038401546004850154600586015460068701546007909701546001600160a01b03909616969495939492939192909160ff9091169088565b604080516001600160a01b0390991689526020890197909752958701949094526060860192909252608085015260a0840152151560c083015260e0820152610100016103fd565b61044461059b366004613d19565b61163d565b6103f36105ae366004613c61565b601d6020526000908152604090205481565b6104446116b4565b6103f360105481565b6104446105df366004613c61565b611891565b6103f36105f2366004613cc8565b611905565b610469611a08565b6103f360065481565b610444610616366004613d19565b611b7f565b6103f360055481565b610419610632366004613cc8565b611bf6565b6103f360025481565b61044461064e366004613cc8565b611c20565b610444610661366004613c61565b611c7f565b610469610674366004613c61565b611d41565b6103f360165481565b610444611f0e565b610692611f44565b6040516103fd9190613da2565b6103f360155481565b6106bb6106b6366004613c7d565b612093565b60405190151581526020016103fd565b6103f360085481565b6104446106e2366004613cf8565b6120d0565b6103f36106f5366004613c61565b601e6020526000908152604090205481565b610444610715366004613d19565b612367565b6000546001600160a01b0316610419565b610419610739366004613cc8565b6123de565b6107be61074c366004613c7d565b601f60209081526000928352604080842090915290825290208054600182015460028301546003840154600485015460058601546006870154600788015460088901546009909901546001600160a01b039098169896979596949593949293919260ff8083169361010090930416918b565b604080516001600160a01b03909c168c5260208c019a909a52988a01979097526060890195909552608088019390935260a087019190915260c0860152151560e08501521515610100840152610120830152610140820152610160016103fd565b600d54610419906001600160a01b031681565b610444610840366004613cf8565b6123ee565b610469610853366004613c61565b612577565b61069261271f565b61044461086e366004613cf8565b612875565b610444610881366004613cf8565b612a15565b600b54610419906001600160a01b031681565b6104446108a7366004613d44565b612d82565b6103f360115481565b6103f360125481565b6103f360015481565b6103f36108d5366004613d19565b6134fc565b6106bb6108e8366004613c7d565b6135ab565b6103f3600f5481565b6103f3610904366004613cc8565b6135cd565b6103f3610917366004613d19565b613798565b6103f360195481565b6103f3610933366004613c7d565b613836565b600a54610419906001600160a01b031681565b610444610959366004613c61565b6139ed565b6103f360095481565b600e54610419906001600160a01b031681565b6106bb610988366004613cf8565b613a85565b6000805b6021548110156109f857826001600160a01b0316602182815481106109c657634e487b7160e01b600052603260045260246000fd5b6000918252602090912001546001600160a01b031614156109e657600191505b806109f08161410e565b915050610991565b5080610a4a57602180546001810182556000919091527f3a6357012c1a3ae0a17d304c9920310382d968ebcc4b1771f41c6b304205b5700180546001600160a01b0319166001600160a01b0384161790555b5050565b336000908152601d60205260408120546060919067ffffffffffffffff811115610a8857634e487b7160e01b600052604160045260246000fd5b604051908082528060200260200182016040528015610ac157816020015b610aae613baa565b815260200190600190039081610aa65790505b50905060005b336000908152601d6020526040902054811015610c0557336000908152601f6020908152604080832084845282529182902082516101608101845281546001600160a01b031681526001820154928101929092526002810154928201929092526003820154606082015260048201546080820152600582015460a0820152600682015460c0820152600782015460ff80821615801560e085018190526101009384900490921615159284019290925260088401546101208401526009909301546101408301529091610b9c5750806101000151155b8015610bac575042816080015110155b15610bf257610bbb33836135ab565b151560011415610bf25780838381518110610be657634e487b7160e01b600052603260045260246000fd5b60200260200101819052505b5080610bfd8161410e565b915050610ac7565b50919050565b6000546001600160a01b03163314610c3e5760405162461bcd60e51b8152600401610c3590614015565b60405180910390fd5b601b8190556040518181527f4d5a4bfab3f36cd8f68133a2361e410afb6899ac665938f88ee5e1abb15fec45906020015b60405180910390a150565b336000908152602080805260408083208484529091529020600681015460ff1615610ce75760405162461bcd60e51b815260206004820181905260248201527f77697468647261773a204c656e642072657175657374207265747269657665646044820152606401610c35565b80546001600160a01b03163314610d4b5760405162461bcd60e51b815260206004820152602260248201527f77697468647261773a204f6e6c79206c656e6465722063616e20776974686472604482015261617760f01b6064820152608401610c35565b610d5d81600201548260070154613a85565b610da95760405162461bcd60e51b815260206004820152601e60248201527f77697468647261773a206e6f7420656e6f756768206c697175696469747900006044820152606401610c35565b60068101805460ff191660011790556005810154421115610f64576000816007015460021415610de55750600c546001600160a01b0316610e1f565b816007015460031415610e045750600d546001600160a01b0316610e1f565b816007015460041415610e1f5750600e546001600160a01b03165b815460038301546040516323b872dd60e01b81526001600160a01b03848116936323b872dd93610e5793309390921691600401613d7e565b602060405180830381600087803b158015610e7157600080fd5b505af1158015610e85573d6000803e3d6000fd5b505050506040513d601f19601f82011682018060405250810190610ea99190613ca8565b50816007015460021415610ed0576003820154600454610ec891613afa565b600455610ef2565b816007015460031415610ef2576003820154600554610eee91613afa565b6005555b816007015460041415610f14576003820154600654610f1091613afa565b6006555b60038201546007830154604080516001815260208101939093528201527ffedb0622d5d5fa46cc706a5c2c169f2bf2eb31a59ff2f70cef3096376f58c2c0906060015b60405180910390a1505050565b6000816007015460021415610f855750600c546001600160a01b0316610fbf565b816007015460031415610fa45750600d546001600160a01b0316610fbf565b816007015460041415610fbf5750600e546001600160a01b03165b815460028301546040516323b872dd60e01b81526001600160a01b03848116936323b872dd93610ff793309390921691600401613d7e565b602060405180830381600087803b15801561101157600080fd5b505af1158015611025573d6000803e3d6000fd5b505050506040513d601f19601f820116820180604052508101906110499190613ca8565b5081600701546002141561107057600282015460045461106891613afa565b600455611092565b81600701546003141561109257600282015460055461108e91613afa565b6005555b8160070154600414156110b45760028201546006546110b091613afa565b6006555b60028201546007830154604080516000815260208101939093528201527ffedb0622d5d5fa46cc706a5c2c169f2bf2eb31a59ff2f70cef3096376f58c2c090606001610f57565b336000818152601f602090815260408083208684529091529020805490916001600160a01b039091161461117c5760405162461bcd60e51b815260206004820152602260248201527f7061796261636b3a204f6e6c7920626f72726f7765722063616e207061796261604482015261636b60f01b6064820152608401610c35565b600781015460ff16156111d15760405162461bcd60e51b815260206004820152601860248201527f7061796261636b3a207061796261636b20616c726561647900000000000000006044820152606401610c35565b80600401544211156112255760405162461bcd60e51b815260206004820152601860248201527f7061796261636b3a2065786365656420647565206461746500000000000000006044820152606401610c35565b6012546112323385613836565b106112895760405162461bcd60e51b815260206004820152602160248201527f7061796261636b3a204c5456206578636565642064616e6765726f7573204c546044820152602b60f91b6064820152608401610c35565b80600301548210156112dd5760405162461bcd60e51b815260206004820152601960248201527f7061796261636b3a204e6f7420656e6f75676820746f6b656e000000000000006044820152606401610c35565b6112ef81600201548260090154613a85565b61134d5760405162461bcd60e51b815260206004820152602960248201527f7061796261636b3a206e6f7420656e6f756768206c6971756964697479206f6e6044820152680818dbdb9d1c9858dd60ba1b6064820152608401610c35565b600081600801546002141561136e5750600c546001600160a01b03166113a8565b81600801546003141561138d5750600d546001600160a01b03166113a8565b8160080154600414156113a85750600e546001600160a01b03165b6040516323b872dd60e01b81526001600160a01b038216906323b872dd906113d890339030908890600401613d7e565b602060405180830381600087803b1580156113f257600080fd5b505af1158015611406573d6000803e3d6000fd5b505050506040513d601f19601f8201168201806040525081019061142a9190613ca8565b6114465760405162461bcd60e51b8152600401610c3590613fb8565b816008015460021415611468576004546114609084613b06565b6004556114a8565b81600801546003141561148a576005546114829084613b06565b6005556114a8565b8160080154600414156114a8576006546114a49084613b06565b6006555b60008260090154600114156114c95750600a546001600160a01b03166114d7565b50600b546001600160a01b03165b60028301546040516323b872dd60e01b81526001600160a01b038316916323b872dd9161150b913091339190600401613d7e565b602060405180830381600087803b15801561152557600080fd5b505af1158015611539573d6000803e3d6000fd5b505050506040513d601f19601f8201168201806040525081019061155d9190613ca8565b6115795760405162461bcd60e51b8152600401610c3590613fb8565b82600901546001141561159f57600283015460075461159791613afa565b6007556115b4565b60028301546003546115b091613afa565b6003555b60078301805461ffff19166001908117909155600384015460028501546008860154600987015460408051338152602081019690965242908601526060850193909352608084019190915260a083015260c08201527f5c775973c71b408f578d06223650690e9508ab4bb549d0691ae69265b311af379060e00160405180910390a15050505050565b6000546001600160a01b031633146116675760405162461bcd60e51b8152600401610c3590614015565b60158390556016829055601781905560408051848152602081018490529081018290527f5e35c511ddee3bac4f3cd917d8e465c37126e7a8a0bc5f8439a65c7676abe19b90606001610f57565b6000546001600160a01b031633146116de5760405162461bcd60e51b8152600401610c3590614015565b60005b60215481101561188e5760006021828154811061170e57634e487b7160e01b600052603260045260246000fd5b60009182526020822001546001600160a01b031691505b6001600160a01b0382166000908152601d6020526040902054811015611879576001600160a01b0382166000908152601f602090815260408083208484529091529020600781015460ff1615801561178757506007810154610100900460ff16155b156118665742816004015410156117fa5760078101805461ffff191661010017905560028101546008546117ba91613b06565b600855604080513381524260208201527f08813a3631e12129135cc9440d3fea50eec346f1673b20b994b0456d5d46ccb9910160405180910390a1611866565b61180483836135ab565b6118665760078101805461ffff1916610100179055600281015460085461182a91613b06565b600855604080513381524260208201527f08813a3631e12129135cc9440d3fea50eec346f1673b20b994b0456d5d46ccb9910160405180910390a15b50806118718161410e565b915050611725565b505080806118869061410e565b9150506116e1565b50565b6000546001600160a01b031633146118bb5760405162461bcd60e51b8152600401610c3590614015565b601c80546001600160a01b0319166001600160a01b0383169081179091556040517fefe8ab924ca486283a79dc604baa67add51afb82af1db8ac386ebbba643cdffd90600090a250565b601c5460009081906001600160a01b03166119325760405162461bcd60e51b8152600401610c3590613ee8565b82600114156119655761195e6305f5e10061195861194f866135cd565b60075490613b12565b90613b1e565b9050611a02565b826002141561198b5761195e6305f5e100611958611982866135cd565b60045490613b12565b82600314156119b15761195e6305f5e1006119586119a8866135cd565b60055490613b12565b82600414156119d75761195e6305f5e1006119586119ce866135cd565b60065490613b12565b8260051415611a02576119ff6305f5e100611958600954600354613b1290919063ffffffff16565b90505b92915050565b336000908152601d60205260408120546060919067ffffffffffffffff811115611a4257634e487b7160e01b600052604160045260246000fd5b604051908082528060200260200182016040528015611a7b57816020015b611a68613baa565b815260200190600190039081611a605790505b50905060005b336000908152601d6020526040902054811015610c0557336000908152601f6020908152604080832084845282529182902082516101608101845281546001600160a01b031681526001820154928101929092526002810154928201929092526003820154606082015260048201546080820152600582015460a0820152600682015460c0820152600782015460ff808216151560e0840152610100918290041615159082015260088201546101208201526009909101546101408201528251839083908110611b6157634e487b7160e01b600052603260045260246000fd5b60200260200101819052508080611b779061410e565b915050611a81565b6000546001600160a01b03163314611ba95760405162461bcd60e51b8152600401610c3590614015565b60188390556019829055601a81905560408051848152602081018490529081018290527f1eb993ea8e47c2ce3cb4aade30f5dbcf13db6e9a00e435ee9d7ee80a3f58788390606001610f57565b60228181548110611c0657600080fd5b6000918252602090912001546001600160a01b0316905081565b6000546001600160a01b03163314611c4a5760405162461bcd60e51b8152600401610c3590614015565b60098190556040518181527f9a470bd568cbe5e7985016006c3093b3634f775e978b0ec2841ef7c634a2c2ff90602001610c6f565b6000805b602254811015611cea57826001600160a01b031660228281548110611cb857634e487b7160e01b600052603260045260246000fd5b6000918252602090912001546001600160a01b03161415611cd857600191505b80611ce28161410e565b915050611c83565b5080610a4a57602280546001810182556000919091527f61035b26e3e9eee00e0d72fd1ee8ddca6894550dca6916ea2ac6baa90d11e5100180546001600160a01b0384166001600160a01b03199091161790555050565b6001600160a01b0381166000908152601d60205260408120546060919067ffffffffffffffff811115611d8457634e487b7160e01b600052604160045260246000fd5b604051908082528060200260200182016040528015611dbd57816020015b611daa613baa565b815260200190600190039081611da25790505b50905060005b6001600160a01b0384166000908152601d6020526040902054811015611f07576001600160a01b038085166000908152601f60209081526040808320858452825291829020825161016081018452815490941684526001810154918401919091526002810154918301919091526003810154606083015260048101546080830152600581015460a0830152600681015460c0830152600781015460ff80821615801560e0860181905261010093849004909216151592850192909252600883015461012085015260099092015461014084015290611ea45750806101000151155b8015611eb4575042816080015110155b15611ef457611ec385836135ab565b611ef45780838381518110611ee857634e487b7160e01b600052603260045260246000fd5b60200260200101819052505b5080611eff8161410e565b915050611dc3565b5092915050565b6000546001600160a01b03163314611f385760405162461bcd60e51b8152600401610c3590614015565b611f426000613b2a565b565b336000908152601e60205260408120546060919067ffffffffffffffff811115611f7e57634e487b7160e01b600052604160045260246000fd5b604051908082528060200260200182016040528015611fb757816020015b611fa4613c11565b815260200190600190039081611f9c5790505b50905060005b336000908152601e6020526040902054811015610c05573360009081526020808052604080832084845282529182902082516101008101845281546001600160a01b031681526001820154928101929092526002810154928201929092526003820154606082015260048201546080820152600582015460a0820152600682015460ff16151560c082015260079091015460e0820152825183908390811061207557634e487b7160e01b600052603260045260246000fd5b6020026020010181905250808061208b9061410e565b915050611fbd565b6001600160a01b0382166000908152601f602090815260408083208484529091528120600481015482904211156120c8575060015b949350505050565b6000546001600160a01b031633146120fa5760405162461bcd60e51b8152600401610c3590614015565b6121048282613a85565b61215c5760405162461bcd60e51b815260206004820152602360248201527f776974684472617745746865723a206e6f7420656e6f756768206c697175696460448201526269747960e81b6064820152608401610c35565b600081600114156121755750600a546001600160a01b03165b81600214156121905750600c546001600160a01b03166121dd565b81600314156121ab5750600d546001600160a01b03166121dd565b81600414156121c65750600e546001600160a01b03166121dd565b81600514156121dd5750600b546001600160a01b03165b6040516323b872dd60e01b81526001600160a01b038216906323b872dd9061220d90309033908890600401613d7e565b602060405180830381600087803b15801561222757600080fd5b505af115801561223b573d6000803e3d6000fd5b505050506040513d601f19601f8201168201806040525081019061225f9190613ca8565b61227b5760405162461bcd60e51b8152600401610c3590613f75565b8160011415612299576007546122919084613afa565b600755612331565b81600214156122b7576004546122af9084613afa565b600455612331565b81600314156122d5576005546122cd9084613afa565b600555612331565b81600414156122f3576006546122eb9084613afa565b600655612331565b8160051415612331576003546123099084613afa565b60035560085483101561232b576008546123239084613afa565b600855612331565b60006008555b60408051848152602081018490527f8d7ca91ebdac6a80a88023a61a414acbf330dba3646d6d0a5cc2676bcef101ac9101610f57565b6000546001600160a01b031633146123915760405162461bcd60e51b8152600401610c3590614015565b6010839055600f829055601181905560408051848152602081018490529081018290527fdd710624e490596cc885c47f15298efcace6c97e5109216e0092fa7f1a2329db90606001610f57565b60218181548110611c0657600080fd5b6000816002141561240b5750600c546001600160a01b031661243d565b81600314156124265750600d546001600160a01b031661243d565b816004141561243d5750600e546001600160a01b03165b6040516323b872dd60e01b81526001600160a01b038216906323b872dd9061246d90339030908890600401613d7e565b602060405180830381600087803b15801561248757600080fd5b505af115801561249b573d6000803e3d6000fd5b505050506040513d601f19601f820116820180604052508101906124bf9190613ca8565b6124db5760405162461bcd60e51b8152600401610c3590613f1f565b81600214156124f9576004546124f19084613b06565b600455612513565b81600314156125135760055461250f9084613b06565b6005555b816004141561252d576006546125299084613b06565b6006555b61253633611c7f565b604080518481526020810184905233917f68dcee598918c1887bfa1c13ac763d4659a12722f88a5eb920014ba1f0bc38fb91015b60405180910390a2505050565b6001600160a01b0381166000908152601d60205260408120546060919067ffffffffffffffff8111156125ba57634e487b7160e01b600052604160045260246000fd5b6040519080825280602002602001820160405280156125f357816020015b6125e0613baa565b8152602001906001900390816125d85790505b50905060005b6001600160a01b0384166000908152601d6020526040902054811015611f07576001600160a01b038085166000908152601f60209081526040808320858452825291829020825161016081018452815490941684526001810154918401919091526002810154918301919091526003810154606083015260048101546080830152600581015460a0830152600681015460c0830152600781015460ff80821615801560e08601819052610100938490049092161515928501929092526008830154610120850152600990920154610140840152906126da5750428160800151105b1561270c578083838151811061270057634e487b7160e01b600052603260045260246000fd5b60200260200101819052505b50806127178161410e565b9150506125f9565b336000908152601e60205260408120546060919067ffffffffffffffff81111561275957634e487b7160e01b600052604160045260246000fd5b60405190808252806020026020018201604052801561279257816020015b61277f613c11565b8152602001906001900390816127775790505b50905060005b336000908152601e6020526040902054811015610c05573360009081526020808052604080832084845282529182902082516101008101845281546001600160a01b031681526001820154928101929092526002810154928201929092526003820154606082015260048201546080820152600582015460a0820152600682015460ff16151560c0820181905260079092015460e082015290612862578083838151811061285657634e487b7160e01b600052603260045260246000fd5b60200260200101819052505b508061286d8161410e565b915050612798565b6000546001600160a01b0316331461289f5760405162461bcd60e51b8152600401610c3590614015565b600081600214156128bc5750600c546001600160a01b03166128ee565b81600314156128d75750600d546001600160a01b03166128ee565b81600414156128ee5750600e546001600160a01b03165b6040516323b872dd60e01b81526001600160a01b038216906323b872dd9061291e90339030908890600401613d7e565b602060405180830381600087803b15801561293857600080fd5b505af115801561294c573d6000803e3d6000fd5b505050506040513d601f19601f820116820180604052508101906129709190613ca8565b61298c5760405162461bcd60e51b8152600401610c3590613f75565b4760075560028214156129ae576004546129a69084613b06565b600455612536565b81600314156129c4576005546129a69084613b06565b8160041415612536576006546129da9084613b06565b600455604080518481526020810184905233917f68dcee598918c1887bfa1c13ac763d4659a12722f88a5eb920014ba1f0bc38fb910161256a565b60008160021415612a325750600c546001600160a01b0316612a64565b8160031415612a4d5750600d546001600160a01b0316612a64565b8160041415612a645750600e546001600160a01b03165b6040516323b872dd60e01b81526001600160a01b038216906323b872dd90612a9490339030908890600401613d7e565b602060405180830381600087803b158015612aae57600080fd5b505af1158015612ac2573d6000803e3d6000fd5b505050506040513d601f19601f82011682018060405250810190612ae69190613ca8565b612b025760405162461bcd60e51b8152600401610c3590613f1f565b612b0a613c11565b338082526000908152601e6020908152604091829020549083015281018490526002831415612b6157612b57612b50606461195860185488613b7a90919063ffffffff16565b8590613b06565b6060820152612bb3565b8260031415612b8757612b57612b50606461195860195488613b7a90919063ffffffff16565b8260041415612bb357612bad612b506064611958601a5488613b7a90919063ffffffff16565b60608201525b4260808201819052612bc89062278d006140a0565b60a08201908152600060c0830181815260e0840186815233835260208080526040808520601e83528186205486528252808520875181546001600160a01b0319166001600160a01b03909116178155918701516001830155860151600280830191909155606087015160038301556080870151600483015594516005820155915160068301805460ff19169115159190911790555160079091015581549190612c708361410e565b9091555050336000908152601e60205260408120805491612c908361410e565b91905055508260021415612cb357600454612cab9085613b06565b600455612ccd565b8260031415612ccd57600554612cc99085613b06565b6005555b8260041415612ce757600654612ce39085613b06565b6006555b612cf033611c7f565b80600001516001600160a01b03167f4ab15cc690495a744ed84b8955b45eb732403b222a485fa1e287db39ad05e0658260400151836060015184608001518560a001518660c001518760e00151604051612d74969594939291909586526020860194909452604085019290925260608401521515608083015260a082015260c00190565b60405180910390a250505050565b60008260021415612da357612d9c8664e8d4a51000613b1e565b9050612dd6565b8260031415612dbb57612d9c8664e8d4a51000613b1e565b8260041415612dd657612dd3866402540be400613b1e565b90505b612de08184613a85565b612e2c5760405162461bcd60e51b815260206004820152601f60248201527f6c6f616e45746865723a206e6f7420656e6f756768206c6971756964697479006044820152606401610c35565b612e34613baa565b33808252602080830184905260408084018990526000928352601d90915281205460c083015260e082018190526101008201819052610120820185905261014082018490526002851415612e8b5750601554612eab565b8460031415612e9d5750601654612eab565b8460041415612eab57506017545b601b5460011415612fda578560071415612efd57612ed8612ed160646119588685613b7a565b8490613b06565b6060830152612eea4262093a806140a0565b608083015262093a8060a0830152613141565b85600e1415612f4b57612f26612ed1606461195884601354612f1f91906140a0565b8790613b7a565b6060830152612f3842621275006140a0565b60808301526212750060a0830152613141565b85601e1415612f9257612f6d612ed1606461195884601454612f1f91906140a0565b6060830152612f7f4262278d006140a0565b608083015262278d0060a0830152613141565b60405162461bcd60e51b815260206004820152601d60248201527f6c6f616e546f6b656e3a206e6f2076616c6964206475726174696f6e210000006044820152606401610c35565b601b546002141561308e5785601e141561300057612f6d612ed160646119588685613b7a565b85603c141561304757613022612ed1606461195884601354612f1f91906140a0565b606083015261303442624f1a006140a0565b6080830152624f1a0060a0830152613141565b85605a1415612f9257613069612ed1606461195884601454612f1f91906140a0565b606083015261307b426276a7006140a0565b60808301526276a70060a0830152613141565b601b54600314156131415785605a14156130b457613069612ed160646119588685613b7a565b8560b414156130fb576130d6612ed1606461195884601354612f1f91906140a0565b60608301526130e84262ed4e006140a0565b608083015262ed4e0060a0830152613141565b856101681415612f925761311e612ed1606461195884601454612f1f91906140a0565b6060830152613131426301da9c006140a0565b60808301526301da9c0060a08301525b6000846001146131f45750600b5460408084015190516323b872dd60e01b81526001600160a01b039092169182916323b872dd91613186913391309190600401613d7e565b602060405180830381600087803b1580156131a057600080fd5b505af11580156131b4573d6000803e3d6000fd5b505050506040513d601f19601f820116820180604052508101906131d89190613ca8565b6131f45760405162461bcd60e51b8152600401610c359061404a565b846001141561320257613217565b604083015160035461321391613b06565b6003555b600086600214156132345750600c546001600160a01b0316613266565b866003141561324f5750600d546001600160a01b0316613266565b86600414156132665750600e546001600160a01b03165b6040516323b872dd60e01b81526001600160a01b038216906323b872dd9061329690309033908a90600401613d7e565b602060405180830381600087803b1580156132b057600080fd5b505af11580156132c4573d6000803e3d6000fd5b505050506040513d601f19601f820116820180604052508101906132e89190613ca8565b6133045760405162461bcd60e51b8152600401610c359061404a565b86600214156133225760045461331a9086613afa565b60045561335a565b8660031415613340576005546133389086613afa565b60055561335a565b866004141561335a576006546133569086613afa565b6006555b336000908152601f60209081526040808320601d83528184205484528252808320875181546001600160a01b03919091166001600160a01b031990911617815591870151600180840191909155908701516002830155606087015160038301556080870151600483015560a0870151600583015560c0870151600683015560e0870151600783018054610100808b015115150261ff00199315159390931661ffff1990911617919091179055610120870151600883015561014087015160099092019190915580549161342c8361410e565b9091555050336000908152601d6020526040812080549161344c8361410e565b919050555061345a3361098d565b336001600160a01b03167fd3d220740d3967bbabbce5a2d2be80cf584799db8de046928f1b6d1d7500b45e85602001518660400151876060015188608001518960a001518a61012001518b61014001516040516134e89796959493929190968752602087019590955260408601939093526060850191909152608084015260a083015260c082015260e00190565b60405180910390a250505050505050505050565b600080600061350a846135cd565b90506000613517866135cd565b9050856002141561354957613542606461353c6010548a613b9290919063ffffffff16565b90613b12565b9250613592565b856003141561356c57613542606461353c600f548a613b9290919063ffffffff16565b85600414156135925761358f606461353c6011548a613b9290919063ffffffff16565b92505b6135a0826119588584613b12565b979650505050505050565b6012546000906001906135be8585613836565b106119ff575060009392505050565b601c546000906001600160a01b03166135f85760405162461bcd60e51b8152600401610c3590613ee8565b6000826002141561369057601c60009054906101000a90046001600160a01b03166001600160a01b031663d63c25186040518163ffffffff1660e01b815260040160206040518083038186803b15801561365157600080fd5b505afa158015613665573d6000803e3d6000fd5b505050506040513d601f19601f820116820180604052508101906136899190613ce0565b905061374c565b82600314156136e757601c60009054906101000a90046001600160a01b03166001600160a01b0316633629cf056040518163ffffffff1660e01b815260040160206040518083038186803b15801561365157600080fd5b826004141561373e57601c60009054906101000a90046001600160a01b03166001600160a01b0316630f00fa116040518163ffffffff1660e01b815260040160206040518083038186803b15801561365157600080fd5b826005141561374c57506009545b60008111611a025760405162461bcd60e51b81526020600482015260196024820152781d1bdad95b881c1c9a58d9481a5cdb89dd0818dbdc9c9958dd603a1b6044820152606401610c35565b60008060006137a6846135cd565b905060006137b3866135cd565b905085600214156137df576137d860646119586010548a613b7a90919063ffffffff16565b9250613828565b8560031415613802576137d86064611958600f548a613b7a90919063ffffffff16565b85600414156138285761382560646119586011548a613b7a90919063ffffffff16565b92505b6135a0816119588585613b12565b6001600160a01b038083166000908152601f602090815260408083208584529091528120601c54919290918391166138805760405162461bcd60e51b8152600401610c3590613ee8565b600061388f83600901546135cd565b9050600081116138e15760405162461bcd60e51b815260206004820152601960248201527f65746865722070726963652069736e277420636f7272656374000000000000006044820152606401610c35565b60006138f084600801546135cd565b90506000811161393e5760405162461bcd60e51b81526020600482015260196024820152781d1bdad95b881c1c9a58d9481a5cdb89dd0818dbdc9c9958dd603a1b6044820152606401610c35565b60038401546000906139509083613b12565b9050600061396b848760020154613b1290919063ffffffff16565b90508560080154600214156139975761399064e8d4a5100061353c6064818686613b92565b94506139e0565b8560080154600314156139ba5761399064e8d4a5100061353c6064818686613b92565b8560080154600414156139e0576139dd6402540be40061353c6064818686613b92565b94505b5092979650505050505050565b6000546001600160a01b03163314613a175760405162461bcd60e51b8152600401610c3590614015565b6001600160a01b038116613a7c5760405162461bcd60e51b815260206004820152602660248201527f4f776e61626c653a206e6577206f776e657220697320746865207a65726f206160448201526564647265737360d01b6064820152608401610c35565b61188e81613b2a565b6000808260011415613a9a5750600754613ade565b8260021415613aac5750600454613ade565b8260031415613abe5750600554613ade565b8260041415613ad05750600654613ade565b8260051415613ade57506003545b80841115613af0576000915050611a02565b6001915050611a02565b60006119ff82846140f7565b60006119ff82846140a0565b60006119ff82846140d8565b60006119ff82846140b8565b600080546001600160a01b038381166001600160a01b0319831681178455604051919092169283917f8be0079c531659141344cd1fd0a4f28419497f9722a3daafe3b4186f6b6457e09190a35050565b60006119ff670de0b6b3a76400006119588585613b12565b60006119ff8261195885670de0b6b3a7640000613b12565b60405180610160016040528060006001600160a01b0316815260200160008152602001600081526020016000815260200160008152602001600081526020016000815260200160001515815260200160001515815260200160008152602001600081525090565b60405180610100016040528060006001600160a01b031681526020016000815260200160008152602001600081526020016000815260200160008152602001600015158152602001600081525090565b600060208284031215613c72578081fd5b81356119ff8161413f565b60008060408385031215613c8f578081fd5b8235613c9a8161413f565b946020939093013593505050565b600060208284031215613cb9578081fd5b815180151581146119ff578182fd5b600060208284031215613cd9578081fd5b5035919050565b600060208284031215613cf1578081fd5b5051919050565b60008060408385031215613d0a578182fd5b50508035926020909101359150565b600080600060608486031215613d2d578081fd5b505081359360208301359350604090920135919050565b600080600080600060a08688031215613d5b578081fd5b505083359560208501359550604085013594606081013594506080013592509050565b6001600160a01b039384168152919092166020820152604081019190915260600190565b602080825282518282018190526000919060409081850190868401855b82811015613e2d57815180516001600160a01b0316855286810151878601528581015186860152606080820151908601526080808201519086015260a0808201519086015260c08082015115159086015260e090810151908501526101009093019290850190600101613dbf565b5091979650505050505050565b602080825282518282018190526000919060409081850190868401855b82811015613e2d57815180516001600160a01b0316855286810151878601528581015186860152606080820151908601526080808201519086015260a0808201519086015260c0808201519086015260e08082015115159086015261010080820151151590860152610120808201519086015261014090810151908501526101609093019290850190600101613e57565b6020808252601e908201527f7072696365206f7261636c652069736e277420696e697469616c697a65640000604082015260600190565b60208082526036908201527f6c656e64546f6b656e3a205472616e7366657220746f6b656e2066726f6d20756040820152751cd95c881d1bc818dbdb9d1c9858dd0819985a5b195960521b606082015260800190565b60208082526023908201527f5472616e73616374696f6e206661696c6564206f6e20696e69742066756e637460408201526234b7b760e91b606082015260800190565b60208082526039908201527f7061796261636b3a205472616e7366657220636f6c6c61746572616c2066726f60408201527f6d20636f6e747261637420746f2075736572206661696c656400000000000000606082015260800190565b6020808252818101527f4f776e61626c653a2063616c6c6572206973206e6f7420746865206f776e6572604082015260600190565b60208082526036908201527f6c6f616e546f6b656e3a205472616e7366657220746f6b656e2066726f6d20636040820152751bdb9d1c9858dd081d1bc81d5cd95c8819985a5b195960521b606082015260800190565b600082198211156140b3576140b3614129565b500190565b6000826140d357634e487b7160e01b81526012600452602481fd5b500490565b60008160001904831182151516156140f2576140f2614129565b500290565b60008282101561410957614109614129565b500390565b600060001982141561412257614122614129565b5060010190565b634e487b7160e01b600052601160045260246000fd5b6001600160a01b038116811461188e57600080fdfea2646970667358221220f37618ff13d29b26210e875039ddfa54fda2008d5bb1670e22a422fb4c5dd25e64736f6c63430008040033",
  "linkReferences": {},
  "deployedLinkReferences": {}
}