{
  "_format": "hh-sol-artifact-1",
  "contractName": "Loan",
  "sourceName": "contracts/Loan.sol",
  "abi": [
    {
      "inputs": [
        {
          "internalType": "address",
          "name": "_odonAddress",
          "type": "address"
        },
        {
          "internalType": "address",
          "name": "_usdcAddress",
          "type": "address"
        },
        {
          "internalType": "address",
          "name": "_usdtAddress",
          "type": "address"
        },
        {
          "internalType": "address",
          "name": "_btcAddress",
          "type": "address"
        }
      ],
      "stateMutability": "nonpayable",
      "type": "constructor"
    },
    {
      "anonymous": false,
      "inputs": [
        {
          "indexed": false,
          "internalType": "uint256",
          "name": "_usdcAPY",
          "type": "uint256"
        },
        {
          "indexed": false,
          "internalType": "uint256",
          "name": "_usdtAPY",
          "type": "uint256"
        },
        {
          "indexed": false,
          "internalType": "uint256",
          "name": "_btcAPY",
          "type": "uint256"
        }
      ],
      "name": "BorrowAPYUpdated",
      "type": "event"
    },
    {
      "anonymous": false,
      "inputs": [
        {
          "indexed": true,
          "internalType": "address",
          "name": "admin",
          "type": "address"
        },
        {
          "indexed": false,
          "internalType": "uint256",
          "name": "amount",
          "type": "uint256"
        },
        {
          "indexed": false,
          "internalType": "uint256",
          "name": "mtype",
          "type": "uint256"
        }
      ],
      "name": "InitBalance",
      "type": "event"
    },
    {
      "anonymous": false,
      "inputs": [
        {
          "indexed": false,
          "internalType": "uint256",
          "name": "_usdcAPY",
          "type": "uint256"
        },
        {
          "indexed": false,
          "internalType": "uint256",
          "name": "_usdtAPY",
          "type": "uint256"
        },
        {
          "indexed": false,
          "internalType": "uint256",
          "name": "_btcAPY",
          "type": "uint256"
        }
      ],
      "name": "LendAPYUpdated",
      "type": "event"
    },
    {
      "anonymous": false,
      "inputs": [
        {
          "indexed": false,
          "internalType": "address",
          "name": "liquidator",
          "type": "address"
        },
        {
          "indexed": false,
          "internalType": "uint256",
          "name": "liquidateTime",
          "type": "uint256"
        }
      ],
      "name": "Liquidate",
      "type": "event"
    },
    {
      "anonymous": false,
      "inputs": [
        {
          "indexed": false,
          "internalType": "uint256",
          "name": "mtype",
          "type": "uint256"
        }
      ],
      "name": "LoanDurationModeUpdated",
      "type": "event"
    },
    {
      "anonymous": false,
      "inputs": [
        {
          "indexed": true,
          "internalType": "address",
          "name": "lender",
          "type": "address"
        },
        {
          "indexed": false,
          "internalType": "uint256",
          "name": "lendAmount",
          "type": "uint256"
        },
        {
          "indexed": false,
          "internalType": "uint256",
          "name": "paybackAmount",
          "type": "uint256"
        },
        {
          "indexed": false,
          "internalType": "uint256",
          "name": "timeLend",
          "type": "uint256"
        },
        {
          "indexed": false,
          "internalType": "uint256",
          "name": "timeCanGetInterest",
          "type": "uint256"
        },
        {
          "indexed": false,
          "internalType": "bool",
          "name": "retrieved",
          "type": "bool"
        },
        {
          "indexed": false,
          "internalType": "uint256",
          "name": "mtype",
          "type": "uint256"
        }
      ],
      "name": "NewLend",
      "type": "event"
    },
    {
      "anonymous": false,
      "inputs": [
        {
          "indexed": true,
          "internalType": "address",
          "name": "borrower",
          "type": "address"
        },
        {
          "indexed": false,
          "internalType": "uint256",
          "name": "loanAmount",
          "type": "uint256"
        },
        {
          "indexed": false,
          "internalType": "uint256",
          "name": "collateralAmount",
          "type": "uint256"
        },
        {
          "indexed": false,
          "internalType": "uint256",
          "name": "paybackAmount",
          "type": "uint256"
        },
        {
          "indexed": false,
          "internalType": "uint256",
          "name": "loanDueDate",
          "type": "uint256"
        },
        {
          "indexed": false,
          "internalType": "uint256",
          "name": "duration",
          "type": "uint256"
        },
        {
          "indexed": false,
          "internalType": "uint256",
          "name": "mtype",
          "type": "uint256"
        },
        {
          "indexed": false,
          "internalType": "uint256",
          "name": "ctype",
          "type": "uint256"
        }
      ],
      "name": "NewLoan",
      "type": "event"
    },
    {
      "anonymous": false,
      "inputs": [
        {
          "indexed": false,
          "internalType": "uint256",
          "name": "_price",
          "type": "uint256"
        }
      ],
      "name": "OdonPriceUpdated",
      "type": "event"
    },
    {
      "anonymous": false,
      "inputs": [
        {
          "indexed": true,
          "internalType": "address",
          "name": "previousOwner",
          "type": "address"
        },
        {
          "indexed": true,
          "internalType": "address",
          "name": "newOwner",
          "type": "address"
        }
      ],
      "name": "OwnershipTransferred",
      "type": "event"
    },
    {
      "anonymous": false,
      "inputs": [
        {
          "indexed": false,
          "internalType": "address",
          "name": "borrower",
          "type": "address"
        },
        {
          "indexed": false,
          "internalType": "bool",
          "name": "paybackSuccess",
          "type": "bool"
        },
        {
          "indexed": false,
          "internalType": "uint256",
          "name": "paybackTime",
          "type": "uint256"
        },
        {
          "indexed": false,
          "internalType": "uint256",
          "name": "paybackAmount",
          "type": "uint256"
        },
        {
          "indexed": false,
          "internalType": "uint256",
          "name": "returnCollateralAmount",
          "type": "uint256"
        },
        {
          "indexed": false,
          "internalType": "uint256",
          "name": "mtype",
          "type": "uint256"
        },
        {
          "indexed": false,
          "internalType": "uint256",
          "name": "ctype",
          "type": "uint256"
        }
      ],
      "name": "PayBack",
      "type": "event"
    },
    {
      "anonymous": false,
      "inputs": [
        {
          "indexed": true,
          "internalType": "address",
          "name": "priceOracleAddress",
          "type": "address"
        }
      ],
      "name": "PriceOracleUpdated",
      "type": "event"
    },
    {
      "anonymous": false,
      "inputs": [
        {
          "indexed": false,
          "internalType": "uint256",
          "name": "withdrawAmount",
          "type": "uint256"
        },
        {
          "indexed": false,
          "internalType": "uint256",
          "name": "mtype",
          "type": "uint256"
        }
      ],
      "name": "WithDrawReserve",
      "type": "event"
    },
    {
      "anonymous": false,
      "inputs": [
        {
          "indexed": false,
          "internalType": "bool",
          "name": "isEarnInterest",
          "type": "bool"
        },
        {
          "indexed": false,
          "internalType": "uint256",
          "name": "withdrawAmount",
          "type": "uint256"
        },
        {
          "indexed": false,
          "internalType": "uint256",
          "name": "mtype",
          "type": "uint256"
        }
      ],
      "name": "Withdraw",
      "type": "event"
    },
    {
      "inputs": [],
      "name": "AutoLiquidate",
      "outputs": [],
      "stateMutability": "nonpayable",
      "type": "function"
    },
    {
      "inputs": [
        {
          "internalType": "uint256",
          "name": "",
          "type": "uint256"
        }
      ],
      "name": "LendUserList",
      "outputs": [
        {
          "internalType": "address",
          "name": "",
          "type": "address"
        }
      ],
      "stateMutability": "view",
      "type": "function"
    },
    {
      "inputs": [
        {
          "internalType": "uint256",
          "name": "",
          "type": "uint256"
        }
      ],
      "name": "LoanUserList",
      "outputs": [
        {
          "internalType": "address",
          "name": "",
          "type": "address"
        }
      ],
      "stateMutability": "view",
      "type": "function"
    },
    {
      "inputs": [
        {
          "internalType": "address",
          "name": "_user",
          "type": "address"
        }
      ],
      "name": "addUserToLendUserList",
      "outputs": [],
      "stateMutability": "nonpayable",
      "type": "function"
    },
    {
      "inputs": [
        {
          "internalType": "address",
          "name": "_user",
          "type": "address"
        }
      ],
      "name": "addUserToLoanUserList",
      "outputs": [],
      "stateMutability": "nonpayable",
      "type": "function"
    },
    {
      "inputs": [],
      "name": "btcAddress",
      "outputs": [
        {
          "internalType": "address",
          "name": "",
          "type": "address"
        }
      ],
      "stateMutability": "view",
      "type": "function"
    },
    {
      "inputs": [],
      "name": "btcBorrowAPY",
      "outputs": [
        {
          "internalType": "uint256",
          "name": "",
          "type": "uint256"
        }
      ],
      "stateMutability": "view",
      "type": "function"
    },
    {
      "inputs": [],
      "name": "btcLTV",
      "outputs": [
        {
          "internalType": "uint256",
          "name": "",
          "type": "uint256"
        }
      ],
      "stateMutability": "view",
      "type": "function"
    },
    {
      "inputs": [],
      "name": "btcLendAPY",
      "outputs": [
        {
          "internalType": "uint256",
          "name": "",
          "type": "uint256"
        }
      ],
      "stateMutability": "view",
      "type": "function"
    },
    {
      "inputs": [],
      "name": "btcTotalLiquidity",
      "outputs": [
        {
          "internalType": "uint256",
          "name": "",
          "type": "uint256"
        }
      ],
      "stateMutability": "view",
      "type": "function"
    },
    {
      "inputs": [
        {
          "internalType": "uint256",
          "name": "_amount",
          "type": "uint256"
        },
        {
          "internalType": "uint256",
          "name": "mtype",
          "type": "uint256"
        }
      ],
      "name": "checkEnoughLiquidity",
      "outputs": [
        {
          "internalType": "bool",
          "name": "",
          "type": "bool"
        }
      ],
      "stateMutability": "view",
      "type": "function"
    },
    {
      "inputs": [
        {
          "internalType": "address",
          "name": "borrower",
          "type": "address"
        },
        {
          "internalType": "uint256",
          "name": "_id",
          "type": "uint256"
        }
      ],
      "name": "checkLoanExpire",
      "outputs": [
        {
          "internalType": "bool",
          "name": "",
          "type": "bool"
        }
      ],
      "stateMutability": "view",
      "type": "function"
    },
    {
      "inputs": [
        {
          "internalType": "address",
          "name": "_borrower",
          "type": "address"
        },
        {
          "internalType": "uint256",
          "name": "_id",
          "type": "uint256"
        }
      ],
      "name": "checkLoanHealth",
      "outputs": [
        {
          "internalType": "bool",
          "name": "",
          "type": "bool"
        }
      ],
      "stateMutability": "view",
      "type": "function"
    },
    {
      "inputs": [
        {
          "internalType": "uint256",
          "name": "lnAmount",
          "type": "uint256"
        },
        {
          "internalType": "uint256",
          "name": "mtype",
          "type": "uint256"
        },
        {
          "internalType": "uint256",
          "name": "ctype",
          "type": "uint256"
        }
      ],
      "name": "collateralAmount",
      "outputs": [
        {
          "internalType": "uint256",
          "name": "",
          "type": "uint256"
        }
      ],
      "stateMutability": "view",
      "type": "function"
    },
    {
      "inputs": [],
      "name": "dangerousLTV",
      "outputs": [
        {
          "internalType": "uint256",
          "name": "",
          "type": "uint256"
        }
      ],
      "stateMutability": "view",
      "type": "function"
    },
    {
      "inputs": [
        {
          "internalType": "uint256",
          "name": "_amount",
          "type": "uint256"
        },
        {
          "internalType": "uint256",
          "name": "mtype",
          "type": "uint256"
        }
      ],
      "name": "depositToken",
      "outputs": [],
      "stateMutability": "nonpayable",
      "type": "function"
    },
    {
      "inputs": [],
      "name": "firstAddAPY",
      "outputs": [
        {
          "internalType": "uint256",
          "name": "",
          "type": "uint256"
        }
      ],
      "stateMutability": "view",
      "type": "function"
    },
    {
      "inputs": [],
      "name": "getAllUserLoans",
      "outputs": [
        {
          "components": [
            {
              "internalType": "address",
              "name": "borrower",
              "type": "address"
            },
            {
              "internalType": "uint256",
              "name": "loanAmount",
              "type": "uint256"
            },
            {
              "internalType": "uint256",
              "name": "collateralAmount",
              "type": "uint256"
            },
            {
              "internalType": "uint256",
              "name": "paybackAmount",
              "type": "uint256"
            },
            {
              "internalType": "uint256",
              "name": "loanDueDate",
              "type": "uint256"
            },
            {
              "internalType": "uint256",
              "name": "duration",
              "type": "uint256"
            },
            {
              "internalType": "uint256",
              "name": "loanId",
              "type": "uint256"
            },
            {
              "internalType": "bool",
              "name": "isPayback",
              "type": "bool"
            },
            {
              "internalType": "bool",
              "name": "isLiquidate",
              "type": "bool"
            },
            {
              "internalType": "uint256",
              "name": "mtype",
              "type": "uint256"
            },
            {
              "internalType": "uint256",
              "name": "ctype",
              "type": "uint256"
            }
          ],
          "internalType": "struct Loan.LoanRequest[]",
          "name": "",
          "type": "tuple[]"
        }
      ],
      "stateMutability": "view",
      "type": "function"
    },
    {
      "inputs": [
        {
          "internalType": "address",
          "name": "_borrower",
          "type": "address"
        },
        {
          "internalType": "uint256",
          "name": "_id",
          "type": "uint256"
        }
      ],
      "name": "getLoansLTV",
      "outputs": [
        {
          "internalType": "uint256",
          "name": "",
          "type": "uint256"
        }
      ],
      "stateMutability": "view",
      "type": "function"
    },
    {
      "inputs": [
        {
          "internalType": "uint256",
          "name": "mtype",
          "type": "uint256"
        }
      ],
      "name": "getTokenPriceInUSD",
      "outputs": [
        {
          "internalType": "uint256",
          "name": "",
          "type": "uint256"
        }
      ],
      "stateMutability": "view",
      "type": "function"
    },
    {
      "inputs": [
        {
          "internalType": "uint256",
          "name": "mtype",
          "type": "uint256"
        }
      ],
      "name": "getTotalLiquidityInUSD",
      "outputs": [
        {
          "internalType": "uint256",
          "name": "",
          "type": "uint256"
        }
      ],
      "stateMutability": "view",
      "type": "function"
    },
    {
      "inputs": [],
      "name": "getUserAllLends",
      "outputs": [
        {
          "components": [
            {
              "internalType": "address",
              "name": "lender",
              "type": "address"
            },
            {
              "internalType": "uint256",
              "name": "lendId",
              "type": "uint256"
            },
            {
              "internalType": "uint256",
              "name": "lendAmount",
              "type": "uint256"
            },
            {
              "internalType": "uint256",
              "name": "paybackAmount",
              "type": "uint256"
            },
            {
              "internalType": "uint256",
              "name": "timeLend",
              "type": "uint256"
            },
            {
              "internalType": "uint256",
              "name": "timeCanGetInterest",
              "type": "uint256"
            },
            {
              "internalType": "bool",
              "name": "retrieved",
              "type": "bool"
            },
            {
              "internalType": "uint256",
              "name": "mtype",
              "type": "uint256"
            }
          ],
          "internalType": "struct Loan.LendRequest[]",
          "name": "",
          "type": "tuple[]"
        }
      ],
      "stateMutability": "view",
      "type": "function"
    },
    {
      "inputs": [],
      "name": "getUserNotRetrieveLend",
      "outputs": [
        {
          "components": [
            {
              "internalType": "address",
              "name": "lender",
              "type": "address"
            },
            {
              "internalType": "uint256",
              "name": "lendId",
              "type": "uint256"
            },
            {
              "internalType": "uint256",
              "name": "lendAmount",
              "type": "uint256"
            },
            {
              "internalType": "uint256",
              "name": "paybackAmount",
              "type": "uint256"
            },
            {
              "internalType": "uint256",
              "name": "timeLend",
              "type": "uint256"
            },
            {
              "internalType": "uint256",
              "name": "timeCanGetInterest",
              "type": "uint256"
            },
            {
              "internalType": "bool",
              "name": "retrieved",
              "type": "bool"
            },
            {
              "internalType": "uint256",
              "name": "mtype",
              "type": "uint256"
            }
          ],
          "internalType": "struct Loan.LendRequest[]",
          "name": "",
          "type": "tuple[]"
        }
      ],
      "stateMutability": "view",
      "type": "function"
    },
    {
      "inputs": [],
      "name": "getUserOngoingLoans",
      "outputs": [
        {
          "components": [
            {
              "internalType": "address",
              "name": "borrower",
              "type": "address"
            },
            {
              "internalType": "uint256",
              "name": "loanAmount",
              "type": "uint256"
            },
            {
              "internalType": "uint256",
              "name": "collateralAmount",
              "type": "uint256"
            },
            {
              "internalType": "uint256",
              "name": "paybackAmount",
              "type": "uint256"
            },
            {
              "internalType": "uint256",
              "name": "loanDueDate",
              "type": "uint256"
            },
            {
              "internalType": "uint256",
              "name": "duration",
              "type": "uint256"
            },
            {
              "internalType": "uint256",
              "name": "loanId",
              "type": "uint256"
            },
            {
              "internalType": "bool",
              "name": "isPayback",
              "type": "bool"
            },
            {
              "internalType": "bool",
              "name": "isLiquidate",
              "type": "bool"
            },
            {
              "internalType": "uint256",
              "name": "mtype",
              "type": "uint256"
            },
            {
              "internalType": "uint256",
              "name": "ctype",
              "type": "uint256"
            }
          ],
          "internalType": "struct Loan.LoanRequest[]",
          "name": "",
          "type": "tuple[]"
        }
      ],
      "stateMutability": "view",
      "type": "function"
    },
    {
      "inputs": [
        {
          "internalType": "address",
          "name": "borrower",
          "type": "address"
        }
      ],
      "name": "getUserOverdueLoans",
      "outputs": [
        {
          "components": [
            {
              "internalType": "address",
              "name": "borrower",
              "type": "address"
            },
            {
              "internalType": "uint256",
              "name": "loanAmount",
              "type": "uint256"
            },
            {
              "internalType": "uint256",
              "name": "collateralAmount",
              "type": "uint256"
            },
            {
              "internalType": "uint256",
              "name": "paybackAmount",
              "type": "uint256"
            },
            {
              "internalType": "uint256",
              "name": "loanDueDate",
              "type": "uint256"
            },
            {
              "internalType": "uint256",
              "name": "duration",
              "type": "uint256"
            },
            {
              "internalType": "uint256",
              "name": "loanId",
              "type": "uint256"
            },
            {
              "internalType": "bool",
              "name": "isPayback",
              "type": "bool"
            },
            {
              "internalType": "bool",
              "name": "isLiquidate",
              "type": "bool"
            },
            {
              "internalType": "uint256",
              "name": "mtype",
              "type": "uint256"
            },
            {
              "internalType": "uint256",
              "name": "ctype",
              "type": "uint256"
            }
          ],
          "internalType": "struct Loan.LoanRequest[]",
          "name": "",
          "type": "tuple[]"
        }
      ],
      "stateMutability": "view",
      "type": "function"
    },
    {
      "inputs": [
        {
          "internalType": "address",
          "name": "borrower",
          "type": "address"
        }
      ],
      "name": "getUserUnHealthLoans",
      "outputs": [
        {
          "components": [
            {
              "internalType": "address",
              "name": "borrower",
              "type": "address"
            },
            {
              "internalType": "uint256",
              "name": "loanAmount",
              "type": "uint256"
            },
            {
              "internalType": "uint256",
              "name": "collateralAmount",
              "type": "uint256"
            },
            {
              "internalType": "uint256",
              "name": "paybackAmount",
              "type": "uint256"
            },
            {
              "internalType": "uint256",
              "name": "loanDueDate",
              "type": "uint256"
            },
            {
              "internalType": "uint256",
              "name": "duration",
              "type": "uint256"
            },
            {
              "internalType": "uint256",
              "name": "loanId",
              "type": "uint256"
            },
            {
              "internalType": "bool",
              "name": "isPayback",
              "type": "bool"
            },
            {
              "internalType": "bool",
              "name": "isLiquidate",
              "type": "bool"
            },
            {
              "internalType": "uint256",
              "name": "mtype",
              "type": "uint256"
            },
            {
              "internalType": "uint256",
              "name": "ctype",
              "type": "uint256"
            }
          ],
          "internalType": "struct Loan.LoanRequest[]",
          "name": "",
          "type": "tuple[]"
        }
      ],
      "stateMutability": "view",
      "type": "function"
    },
    {
      "inputs": [
        {
          "internalType": "uint256",
          "name": "_amount",
          "type": "uint256"
        },
        {
          "internalType": "uint256",
          "name": "mtype",
          "type": "uint256"
        }
      ],
      "name": "init",
      "outputs": [],
      "stateMutability": "nonpayable",
      "type": "function"
    },
    {
      "inputs": [],
      "name": "lendCount",
      "outputs": [
        {
          "internalType": "uint256",
          "name": "",
          "type": "uint256"
        }
      ],
      "stateMutability": "view",
      "type": "function"
    },
    {
      "inputs": [
        {
          "internalType": "uint256",
          "name": "_amount",
          "type": "uint256"
        },
        {
          "internalType": "uint256",
          "name": "mtype",
          "type": "uint256"
        }
      ],
      "name": "lendToken",
      "outputs": [],
      "stateMutability": "nonpayable",
      "type": "function"
    },
    {
      "inputs": [
        {
          "internalType": "address",
          "name": "",
          "type": "address"
        },
        {
          "internalType": "uint256",
          "name": "",
          "type": "uint256"
        }
      ],
      "name": "lends",
      "outputs": [
        {
          "internalType": "address",
          "name": "lender",
          "type": "address"
        },
        {
          "internalType": "uint256",
          "name": "lendId",
          "type": "uint256"
        },
        {
          "internalType": "uint256",
          "name": "lendAmount",
          "type": "uint256"
        },
        {
          "internalType": "uint256",
          "name": "paybackAmount",
          "type": "uint256"
        },
        {
          "internalType": "uint256",
          "name": "timeLend",
          "type": "uint256"
        },
        {
          "internalType": "uint256",
          "name": "timeCanGetInterest",
          "type": "uint256"
        },
        {
          "internalType": "bool",
          "name": "retrieved",
          "type": "bool"
        },
        {
          "internalType": "uint256",
          "name": "mtype",
          "type": "uint256"
        }
      ],
      "stateMutability": "view",
      "type": "function"
    },
    {
      "inputs": [
        {
          "internalType": "uint256",
          "name": "_amount",
          "type": "uint256"
        },
        {
          "internalType": "uint256",
          "name": "_duration",
          "type": "uint256"
        },
        {
          "internalType": "uint256",
          "name": "mtype",
          "type": "uint256"
        },
        {
          "internalType": "uint256",
          "name": "ctype",
          "type": "uint256"
        }
      ],
      "name": "loan",
      "outputs": [],
      "stateMutability": "nonpayable",
      "type": "function"
    },
    {
      "inputs": [
        {
          "internalType": "uint256",
          "name": "colAmount",
          "type": "uint256"
        },
        {
          "internalType": "uint256",
          "name": "mtype",
          "type": "uint256"
        },
        {
          "internalType": "uint256",
          "name": "ctype",
          "type": "uint256"
        }
      ],
      "name": "loanAmount",
      "outputs": [
        {
          "internalType": "uint256",
          "name": "",
          "type": "uint256"
        }
      ],
      "stateMutability": "view",
      "type": "function"
    },
    {
      "inputs": [],
      "name": "loanCount",
      "outputs": [
        {
          "internalType": "uint256",
          "name": "",
          "type": "uint256"
        }
      ],
      "stateMutability": "view",
      "type": "function"
    },
    {
      "inputs": [],
      "name": "loanModeFirst",
      "outputs": [
        {
          "internalType": "bool",
          "name": "",
          "type": "bool"
        }
      ],
      "stateMutability": "view",
      "type": "function"
    },
    {
      "inputs": [
        {
          "internalType": "address",
          "name": "",
          "type": "address"
        },
        {
          "internalType": "uint256",
          "name": "",
          "type": "uint256"
        }
      ],
      "name": "loans",
      "outputs": [
        {
          "internalType": "address",
          "name": "borrower",
          "type": "address"
        },
        {
          "internalType": "uint256",
          "name": "loanAmount",
          "type": "uint256"
        },
        {
          "internalType": "uint256",
          "name": "collateralAmount",
          "type": "uint256"
        },
        {
          "internalType": "uint256",
          "name": "paybackAmount",
          "type": "uint256"
        },
        {
          "internalType": "uint256",
          "name": "loanDueDate",
          "type": "uint256"
        },
        {
          "internalType": "uint256",
          "name": "duration",
          "type": "uint256"
        },
        {
          "internalType": "uint256",
          "name": "loanId",
          "type": "uint256"
        },
        {
          "internalType": "bool",
          "name": "isPayback",
          "type": "bool"
        },
        {
          "internalType": "bool",
          "name": "isLiquidate",
          "type": "bool"
        },
        {
          "internalType": "uint256",
          "name": "mtype",
          "type": "uint256"
        },
        {
          "internalType": "uint256",
          "name": "ctype",
          "type": "uint256"
        }
      ],
      "stateMutability": "view",
      "type": "function"
    },
    {
      "inputs": [],
      "name": "movrAddress",
      "outputs": [
        {
          "internalType": "address",
          "name": "",
          "type": "address"
        }
      ],
      "stateMutability": "view",
      "type": "function"
    },
    {
      "inputs": [],
      "name": "odonAddress",
      "outputs": [
        {
          "internalType": "address",
          "name": "",
          "type": "address"
        }
      ],
      "stateMutability": "view",
      "type": "function"
    },
    {
      "inputs": [],
      "name": "odonPrice",
      "outputs": [
        {
          "internalType": "uint256",
          "name": "",
          "type": "uint256"
        }
      ],
      "stateMutability": "view",
      "type": "function"
    },
    {
      "inputs": [],
      "name": "odonTotalLiquidity",
      "outputs": [
        {
          "internalType": "uint256",
          "name": "",
          "type": "uint256"
        }
      ],
      "stateMutability": "view",
      "type": "function"
    },
    {
      "inputs": [],
      "name": "owner",
      "outputs": [
        {
          "internalType": "address",
          "name": "",
          "type": "address"
        }
      ],
      "stateMutability": "view",
      "type": "function"
    },
    {
      "inputs": [
        {
          "internalType": "uint256",
          "name": "_id",
          "type": "uint256"
        },
        {
          "internalType": "uint256",
          "name": "_amount",
          "type": "uint256"
        }
      ],
      "name": "payback",
      "outputs": [],
      "stateMutability": "nonpayable",
      "type": "function"
    },
    {
      "inputs": [],
      "name": "renounceOwnership",
      "outputs": [],
      "stateMutability": "nonpayable",
      "type": "function"
    },
    {
      "inputs": [],
      "name": "secondAddAPY",
      "outputs": [
        {
          "internalType": "uint256",
          "name": "",
          "type": "uint256"
        }
      ],
      "stateMutability": "view",
      "type": "function"
    },
    {
      "inputs": [
        {
          "internalType": "uint256",
          "name": "_usdcapy",
          "type": "uint256"
        },
        {
          "internalType": "uint256",
          "name": "_usdtapy",
          "type": "uint256"
        },
        {
          "internalType": "uint256",
          "name": "_btcapy",
          "type": "uint256"
        }
      ],
      "name": "setBorrowAPY",
      "outputs": [],
      "stateMutability": "nonpayable",
      "type": "function"
    },
    {
      "inputs": [
        {
          "internalType": "uint256",
          "name": "_usdcapy",
          "type": "uint256"
        },
        {
          "internalType": "uint256",
          "name": "_usdtapy",
          "type": "uint256"
        },
        {
          "internalType": "uint256",
          "name": "_btcapy",
          "type": "uint256"
        }
      ],
      "name": "setLendAPY",
      "outputs": [],
      "stateMutability": "nonpayable",
      "type": "function"
    },
    {
      "inputs": [
        {
          "internalType": "uint256",
          "name": "mtype",
          "type": "uint256"
        }
      ],
      "name": "setLoanDurationMode",
      "outputs": [],
      "stateMutability": "nonpayable",
      "type": "function"
    },
    {
      "inputs": [
        {
          "internalType": "uint256",
          "name": "_price",
          "type": "uint256"
        }
      ],
      "name": "setPriceOdon",
      "outputs": [],
      "stateMutability": "nonpayable",
      "type": "function"
    },
    {
      "inputs": [
        {
          "internalType": "contract PriceConsumerV3",
          "name": "_oracle",
          "type": "address"
        }
      ],
      "name": "setPriceOracle",
      "outputs": [],
      "stateMutability": "nonpayable",
      "type": "function"
    },
    {
      "inputs": [],
      "name": "totalLiquidity",
      "outputs": [
        {
          "internalType": "uint256",
          "name": "",
          "type": "uint256"
        }
      ],
      "stateMutability": "view",
      "type": "function"
    },
    {
      "inputs": [
        {
          "internalType": "address",
          "name": "newOwner",
          "type": "address"
        }
      ],
      "name": "transferOwnership",
      "outputs": [],
      "stateMutability": "nonpayable",
      "type": "function"
    },
    {
      "inputs": [],
      "name": "usdcAddress",
      "outputs": [
        {
          "internalType": "address",
          "name": "",
          "type": "address"
        }
      ],
      "stateMutability": "view",
      "type": "function"
    },
    {
      "inputs": [],
      "name": "usdcBorrowAPY",
      "outputs": [
        {
          "internalType": "uint256",
          "name": "",
          "type": "uint256"
        }
      ],
      "stateMutability": "view",
      "type": "function"
    },
    {
      "inputs": [],
      "name": "usdcLTV",
      "outputs": [
        {
          "internalType": "uint256",
          "name": "",
          "type": "uint256"
        }
      ],
      "stateMutability": "view",
      "type": "function"
    },
    {
      "inputs": [],
      "name": "usdcLendAPY",
      "outputs": [
        {
          "internalType": "uint256",
          "name": "",
          "type": "uint256"
        }
      ],
      "stateMutability": "view",
      "type": "function"
    },
    {
      "inputs": [],
      "name": "usdcTotalLiquidity",
      "outputs": [
        {
          "internalType": "uint256",
          "name": "",
          "type": "uint256"
        }
      ],
      "stateMutability": "view",
      "type": "function"
    },
    {
      "inputs": [],
      "name": "usdtAddress",
      "outputs": [
        {
          "internalType": "address",
          "name": "",
          "type": "address"
        }
      ],
      "stateMutability": "view",
      "type": "function"
    },
    {
      "inputs": [],
      "name": "usdtBorrowAPY",
      "outputs": [
        {
          "internalType": "uint256",
          "name": "",
          "type": "uint256"
        }
      ],
      "stateMutability": "view",
      "type": "function"
    },
    {
      "inputs": [],
      "name": "usdtLTV",
      "outputs": [
        {
          "internalType": "uint256",
          "name": "",
          "type": "uint256"
        }
      ],
      "stateMutability": "view",
      "type": "function"
    },
    {
      "inputs": [],
      "name": "usdtLendAPY",
      "outputs": [
        {
          "internalType": "uint256",
          "name": "",
          "type": "uint256"
        }
      ],
      "stateMutability": "view",
      "type": "function"
    },
    {
      "inputs": [],
      "name": "usdtTotalLiquidity",
      "outputs": [
        {
          "internalType": "uint256",
          "name": "",
          "type": "uint256"
        }
      ],
      "stateMutability": "view",
      "type": "function"
    },
    {
      "inputs": [
        {
          "internalType": "address",
          "name": "",
          "type": "address"
        }
      ],
      "name": "userLendsCount",
      "outputs": [
        {
          "internalType": "uint256",
          "name": "",
          "type": "uint256"
        }
      ],
      "stateMutability": "view",
      "type": "function"
    },
    {
      "inputs": [
        {
          "internalType": "address",
          "name": "",
          "type": "address"
        }
      ],
      "name": "userLoansCount",
      "outputs": [
        {
          "internalType": "uint256",
          "name": "",
          "type": "uint256"
        }
      ],
      "stateMutability": "view",
      "type": "function"
    },
    {
      "inputs": [
        {
          "internalType": "uint256",
          "name": "_amount",
          "type": "uint256"
        },
        {
          "internalType": "uint256",
          "name": "mtype",
          "type": "uint256"
        }
      ],
      "name": "withDrawReserve",
      "outputs": [],
      "stateMutability": "nonpayable",
      "type": "function"
    },
    {
      "inputs": [
        {
          "internalType": "uint256",
          "name": "_id",
          "type": "uint256"
        }
      ],
      "name": "withdraw",
      "outputs": [],
      "stateMutability": "nonpayable",
      "type": "function"
    }
  ],
  "bytecode": "0x60806040526302faf0806008556803860e639d80640000600e556803afb087b876900000600f556802ed6689e54f18000060105568049b9ca9a6943400006011556729a2241af62c0000601255674563918244f400006013819055678ac7230489e800006014556798a7d9b8314c000060155567a688906bd8b000006016556017556753444835ec580000601855676f05b59d3b200000601955601a805460ff19169055348015620000b057600080fd5b50604051620046dc380380620046dc833981016040819052620000d391620001c2565b620000de3362000155565b6000600181905560028190556007819055600481905560038190556005819055600655600a80546001600160a01b039586166001600160a01b031991821617909155600b805494861694821694909417909355600c805492851692841692909217909155600d80549190931691161790556200021e565b600080546001600160a01b038381166001600160a01b0319831681178455604051919092169283917f8be0079c531659141344cd1fd0a4f28419497f9722a3daafe3b4186f6b6457e09190a35050565b80516001600160a01b0381168114620001bd57600080fd5b919050565b60008060008060808587031215620001d8578384fd5b620001e385620001a5565b9350620001f360208601620001a5565b92506200020360408601620001a5565b91506200021360608601620001a5565b905092959194509250565b6144ae806200022e6000396000f3fe608060405234801561001057600080fd5b50600436106103cf5760003560e01c8063715018a6116101ff578063b04b022a1161011a578063d9d0befc116100ad578063f2fde38b1161007c578063f2fde38b1461091f578063f6c5dded14610932578063f7d76ae51461093b578063fe3af3ea1461094e57600080fd5b8063d9d0befc146108dd578063df62dbbe146108f0578063e15a6d6a146108f9578063ee9e58001461090c57600080fd5b8063d3235306116100e9578063d32353061461089b578063d3c9e2c9146108ae578063d3f72d10146108c1578063d5a0b65d146108ca57600080fd5b8063b04b022a1461086d578063cdb2409a14610880578063cdbc87f614610889578063ce63094d1461089257600080fd5b8063973c7d4511610192578063a12af89611610161578063a12af8961461082c578063a557b17d1461083f578063a5843f0814610847578063ae5c8fca1461085a57600080fd5b8063973c7d451461071257806398c61c37146107255780639ab4a445146108065780639d2d04d11461081957600080fd5b80638443bccc116101ce5780638443bccc146106c15780638a6a29a0146106d45780638da5cb5b146106f45780638dda75b71461070557600080fd5b8063715018a61461067857806371d1a70114610680578063725cab5d146106955780637f026f151461069e57600080fd5b806349a4485d116102ef57806364880990116102825780636b32991e116102515780636b32991e146106365780636c6ac591146106495780636ccbf7581461065c5780636ef9855b1461066f57600080fd5b806364880990146105fe57806365440cef14610611578063693a961d1461061a578063699e0f561461062d57600080fd5b8063530e784f116102be578063530e784f146105c757806353bbfefa146105da57806360089fca146105ed57806364282ecd146105f557600080fd5b806349a4485d146105835780634c0a79fb1461059657806351bcca5e146105b657806353068056146105be57600080fd5b8063295dea73116103675780632e1a7d4d116103365780632e1a7d4d146104a15780632e6a1830146104b45780633583de13146104bd578063439b3543146104d057600080fd5b8063295dea731461047357806329b53f851461047c5780632b84a68d146104855780632d1fabec1461048e57600080fd5b806315770f92116103a357806315770f9214610439578063168c738c1461044257806320ec1ff51461045757806329055efc1461046057600080fd5b806208001a146103d457806302d45457146103f0578063048422a51461041b5780630bf1644e14610430575b600080fd5b6103dd60195481565b6040519081526020015b60405180910390f35b600b54610403906001600160a01b031681565b6040516001600160a01b0390911681526020016103e7565b61042e610429366004613f75565b610961565b005b6103dd60125481565b6103dd60075481565b61044a610a22565b6040516103e7919061415e565b6103dd60175481565b61042e61046e366004614058565b610bdf565b6103dd60135481565b6103dd60035481565b6103dd60045481565b61042e61049c366004613fdc565b6112d4565b61042e6104af366004613fdc565b61135b565b6103dd60165481565b61042e6104cb36600461400c565b6118e6565b61053c6104de366004613f91565b601e602090815260009283526040808420909152908252902080546001820154600283015460038401546004850154600586015460068701546007909701546001600160a01b03909616969495939492939192909160ff9091169088565b604080516001600160a01b0390991689526020890197909752958701949094526060860192909252608085015260a0840152151560c083015260e0820152610100016103e7565b61042e61059136600461402d565b611f2d565b6103dd6105a4366004613f75565b601b6020526000908152604090205481565b61042e611fa4565b6103dd600f5481565b61042e6105d5366004613f75565b612239565b6103dd6105e8366004613fdc565b6122b5565b61044a612387565b6103dd60065481565b61042e61060c36600461402d565b6124fe565b6103dd60055481565b610403610628366004613fdc565b612575565b6103dd60025481565b61042e610644366004613fdc565b61259f565b61042e610657366004613f75565b6125fe565b61044a61066a366004613f75565b6126c0565b6103dd60155481565b61042e61288d565b6106886128c3565b6040516103e791906140c6565b6103dd60145481565b6106b16106ac366004613f91565b612a14565b60405190151581526020016103e7565b61042e6106cf36600461400c565b612a51565b6103dd6106e2366004613f75565b601c6020526000908152604090205481565b6000546001600160a01b0316610403565b601a546106b19060ff1681565b610403610720366004613fdc565b612d45565b6107a5610733366004613f91565b601d60209081526000928352604080842090915290825290208054600182015460028301546003840154600485015460058601546006870154600788015460088901546009909901546001600160a01b039098169896979596949593949293919260ff8083169361010090930416918b565b604080516001600160a01b03909c168c5260208c019a909a52988a01979097526060890195909552608088019390935260a087019190915260c0860152151560e08501521515610100840152610120830152610140820152610160016103e7565b600c54610403906001600160a01b031681565b61042e61082736600461400c565b612d55565b61044a61083a366004613f75565b612f5f565b610688613107565b61042e61085536600461400c565b61325f565b61042e61086836600461400c565b613480565b600a54610403906001600160a01b031681565b6103dd60105481565b6103dd60115481565b6103dd60015481565b6103dd6108a936600461402d565b613870565b6106b16108bc366004613f91565b613919565b6103dd600e5481565b6103dd6108d8366004613fdc565b61393b565b6103dd6108eb36600461402d565b613b0b565b6103dd60185481565b6103dd610907366004613f91565b613ba9565b600954610403906001600160a01b031681565b61042e61092d366004613f75565b613d02565b6103dd60085481565b600d54610403906001600160a01b031681565b6106b161095c36600461400c565b613d9d565b6000805b601f548110156109cc57826001600160a01b0316601f828154811061099a57634e487b7160e01b600052603260045260246000fd5b6000918252602090912001546001600160a01b031614156109ba57600191505b806109c481614432565b915050610965565b5080610a1e57601f80546001810182556000919091527fa03837a25210ee280c2113ff4b77ca23440b19d4866cca721c801278fd08d8070180546001600160a01b0319166001600160a01b0384161790555b5050565b336000908152601b60205260408120546060919067ffffffffffffffff811115610a5c57634e487b7160e01b600052604160045260246000fd5b604051908082528060200260200182016040528015610a9557816020015b610a82613ebe565b815260200190600190039081610a7a5790505b50905060005b336000908152601b6020526040902054811015610bd957336000908152601d6020908152604080832084845282529182902082516101608101845281546001600160a01b031681526001820154928101929092526002810154928201929092526003820154606082015260048201546080820152600582015460a0820152600682015460c0820152600782015460ff80821615801560e085018190526101009384900490921615159284019290925260088401546101208401526009909301546101408301529091610b705750806101000151155b8015610b80575042816080015110155b15610bc657610b8f3383613919565b151560011415610bc65780838381518110610bba57634e487b7160e01b600052603260045260246000fd5b60200260200101819052505b5080610bd181614432565b915050610a9b565b50919050565b610be98483613d9d565b610c3a5760405162461bcd60e51b815260206004820152601f60248201527f6c6f616e45746865723a206e6f7420656e6f756768206c69717569646974790060448201526064015b60405180910390fd5b610c42613ebe565b33815260208101859052610c57858484613870565b604080830191909152336000908152601b6020529081205460c083015260e082018190526101008201819052610120820184905261014082018390526002841415610ca55750601454610cc5565b8360031415610cb75750601554610cc5565b8360041415610cc557506016545b601a5460ff1615610dfa578460071415610d1d57610cf8610cf16064610ceb8985613e12565b90613e2a565b8790613e36565b6060830152610d0a4262093a806143c4565b608083015262093a8060a0830152610e9f565b84600e1415610d6b57610d46610cf16064610ceb84601254610d3f91906143c4565b8a90613e12565b6060830152610d5842621275006143c4565b60808301526212750060a0830152610e9f565b84601e1415610db257610d8d610cf16064610ceb84601354610d3f91906143c4565b6060830152610d9f4262278d006143c4565b608083015262278d0060a0830152610e9f565b60405162461bcd60e51b815260206004820152601d60248201527f6c6f616e546f6b656e3a206e6f2076616c6964206475726174696f6e210000006044820152606401610c31565b84601e1415610e1557610d8d610cf16064610ceb8985613e12565b84603c1415610e5c57610e37610cf16064610ceb84601254610d3f91906143c4565b6060830152610e4942624f1a006143c4565b6080830152624f1a0060a0830152610e9f565b84605a1415610db257610e7e610cf16064610ceb84601354610d3f91906143c4565b6060830152610e90426276a7006143c4565b60808301526276a70060a08301525b600083600114610fd75750600a5460408084015190516323b872dd60e01b81526001600160a01b039092169182916323b872dd91610ee4913391309190600401614089565b602060405180830381600087803b158015610efe57600080fd5b505af1158015610f12573d6000803e3d6000fd5b505050506040513d601f19601f82011682018060405250810190610f369190613fbc565b610f525760405162461bcd60e51b8152600401610c319061436e565b6040808401519051633950935160e01b81526001600160a01b03831691633950935191610f839130916004016140ad565b602060405180830381600087803b158015610f9d57600080fd5b505af1158015610fb1573d6000803e3d6000fd5b505050506040513d601f19601f82011682018060405250810190610fd59190613fbc565b505b8360011415610fe557610ffa565b6040830151600354610ff691613e36565b6003555b600085600214156110175750600b546001600160a01b0316611049565b85600314156110325750600c546001600160a01b0316611049565b85600414156110495750600d546001600160a01b03165b6040516323b872dd60e01b81526001600160a01b038216906323b872dd9061107990309033908d90600401614089565b602060405180830381600087803b15801561109357600080fd5b505af11580156110a7573d6000803e3d6000fd5b505050506040513d601f19601f820116820180604052508101906110cb9190613fbc565b6110e75760405162461bcd60e51b8152600401610c319061436e565b8560021415611105576004546110fd9089613e42565b60045561113d565b85600314156111235760055461111b9089613e42565b60055561113d565b856004141561113d576006546111399089613e42565b6006555b336000908152601d60209081526040808320601b83528184205484528252808320875181546001600160a01b03919091166001600160a01b031990911617815591870151600180840191909155908701516002830155606087015160038301556080870151600483015560a0870151600583015560c0870151600683015560e0870151600783018054610100808b015115150261ff00199315159390931661ffff1990911617919091179055610120870151600883015561014087015160099092019190915580549161120f83614432565b9091555050336000908152601b6020526040812080549161122f83614432565b9190505550336001600160a01b03167fd3d220740d3967bbabbce5a2d2be80cf584799db8de046928f1b6d1d7500b45e85602001518660400151876060015188608001518960a001518a61012001518b61014001516040516112c29796959493929190968752602087019590955260408601939093526060850191909152608084015260a083015260c082015260e00190565b60405180910390a25050505050505050565b6000546001600160a01b031633146112fe5760405162461bcd60e51b8152600401610c3190614339565b806001141561131957601a805460ff19166001179055611324565b601a805460ff191690555b6040518181527f4d5a4bfab3f36cd8f68133a2361e410afb6899ac665938f88ee5e1abb15fec45906020015b60405180910390a150565b336000908152601e602090815260408083208484529091529020600681015460ff16156113ca5760405162461bcd60e51b815260206004820181905260248201527f77697468647261773a204c656e642072657175657374207265747269657665646044820152606401610c31565b80546001600160a01b0316331461142e5760405162461bcd60e51b815260206004820152602260248201527f77697468647261773a204f6e6c79206c656e6465722063616e20776974686472604482015261617760f01b6064820152608401610c31565b61144081600201548260070154613d9d565b61148c5760405162461bcd60e51b815260206004820152601e60248201527f77697468647261773a206e6f7420656e6f756768206c697175696469747900006044820152606401610c31565b60068101805460ff1916600117905560058101544211156116cb5760008160070154600214156114c85750600b546001600160a01b0316611502565b8160070154600314156114e75750600c546001600160a01b0316611502565b8160070154600414156115025750600d546001600160a01b03165b815460038301546040516323b872dd60e01b81526001600160a01b03848116936323b872dd9361153a93309390921691600401614089565b602060405180830381600087803b15801561155457600080fd5b505af1158015611568573d6000803e3d6000fd5b505050506040513d601f19601f8201168201806040525081019061158c9190613fbc565b506003820154604051633950935160e01b81526001600160a01b038316916339509351916115be9130916004016140ad565b602060405180830381600087803b1580156115d857600080fd5b505af11580156115ec573d6000803e3d6000fd5b505050506040513d601f19601f820116820180604052508101906116109190613fbc565b5081600701546002141561163757600382015460045461162f91613e42565b600455611659565b81600701546003141561165957600382015460055461165591613e42565b6005555b81600701546004141561167b57600382015460065461167791613e42565b6006555b60038201546007830154604080516001815260208101939093528201527ffedb0622d5d5fa46cc706a5c2c169f2bf2eb31a59ff2f70cef3096376f58c2c0906060015b60405180910390a1505050565b60008160070154600214156116ec5750600b546001600160a01b0316611726565b81600701546003141561170b5750600c546001600160a01b0316611726565b8160070154600414156117265750600d546001600160a01b03165b815460028301546040516323b872dd60e01b81526001600160a01b03848116936323b872dd9361175e93309390921691600401614089565b602060405180830381600087803b15801561177857600080fd5b505af115801561178c573d6000803e3d6000fd5b505050506040513d601f19601f820116820180604052508101906117b09190613fbc565b506002820154604051633950935160e01b81526001600160a01b038316916339509351916117e29130916004016140ad565b602060405180830381600087803b1580156117fc57600080fd5b505af1158015611810573d6000803e3d6000fd5b505050506040513d601f19601f820116820180604052508101906118349190613fbc565b5081600701546002141561185b57600282015460045461185391613e42565b60045561187d565b81600701546003141561187d57600282015460055461187991613e42565b6005555b81600701546004141561189f57600282015460065461189b91613e42565b6006555b60028201546007830154604080516000815260208101939093528201527ffedb0622d5d5fa46cc706a5c2c169f2bf2eb31a59ff2f70cef3096376f58c2c0906060016116be565b336000818152601d602090815260408083208684529091529020805490916001600160a01b03909116146119675760405162461bcd60e51b815260206004820152602260248201527f7061796261636b3a204f6e6c7920626f72726f7765722063616e207061796261604482015261636b60f01b6064820152608401610c31565b600781015460ff16156119bc5760405162461bcd60e51b815260206004820152601860248201527f7061796261636b3a207061796261636b20616c726561647900000000000000006044820152606401610c31565b8060040154421115611a105760405162461bcd60e51b815260206004820152601860248201527f7061796261636b3a2065786365656420647565206461746500000000000000006044820152606401610c31565b601154611a1d3385613ba9565b10611a745760405162461bcd60e51b815260206004820152602160248201527f7061796261636b3a204c5456206578636565642064616e6765726f7573204c546044820152602b60f91b6064820152608401610c31565b8060030154821015611ac85760405162461bcd60e51b815260206004820152601960248201527f7061796261636b3a204e6f7420656e6f75676820746f6b656e000000000000006044820152606401610c31565b611ada81600201548260090154613d9d565b611b385760405162461bcd60e51b815260206004820152602960248201527f7061796261636b3a206e6f7420656e6f756768206c6971756964697479206f6e6044820152680818dbdb9d1c9858dd60ba1b6064820152608401610c31565b6000816008015460021415611b595750600b546001600160a01b0316611b93565b816008015460031415611b785750600c546001600160a01b0316611b93565b816008015460041415611b935750600d546001600160a01b03165b6040516323b872dd60e01b81526001600160a01b038216906323b872dd90611bc390339030908890600401614089565b602060405180830381600087803b158015611bdd57600080fd5b505af1158015611bf1573d6000803e3d6000fd5b505050506040513d601f19601f82011682018060405250810190611c159190613fbc565b611c315760405162461bcd60e51b8152600401610c31906142dc565b604051633950935160e01b81526001600160a01b03821690633950935190611c5f90309087906004016140ad565b602060405180830381600087803b158015611c7957600080fd5b505af1158015611c8d573d6000803e3d6000fd5b505050506040513d601f19601f82011682018060405250810190611cb19190613fbc565b50816008015460021415611cd457600454611ccc9084613e36565b600455611d14565b816008015460031415611cf657600554611cee9084613e36565b600555611d14565b816008015460041415611d1457600654611d109084613e36565b6006555b6000826009015460011415611d3557506009546001600160a01b0316611d43565b50600a546001600160a01b03165b60028301546040516323b872dd60e01b81526001600160a01b038316916323b872dd91611d77913091339190600401614089565b602060405180830381600087803b158015611d9157600080fd5b505af1158015611da5573d6000803e3d6000fd5b505050506040513d601f19601f82011682018060405250810190611dc99190613fbc565b611de55760405162461bcd60e51b8152600401610c31906142dc565b6002830154604051633950935160e01b81526001600160a01b03831691633950935191611e169130916004016140ad565b602060405180830381600087803b158015611e3057600080fd5b505af1158015611e44573d6000803e3d6000fd5b505050506040513d601f19601f82011682018060405250810190611e689190613fbc565b50826009015460011415611e8f576002830154600754611e8791613e42565b600755611ea4565b6002830154600354611ea091613e42565b6003555b60078301805461ffff19166001908117909155600384015460028501546008860154600987015460408051338152602081019690965242908601526060850193909352608084019190915260a083015260c08201527f5c775973c71b408f578d06223650690e9508ab4bb549d0691ae69265b311af379060e00160405180910390a15050505050565b6000546001600160a01b03163314611f575760405162461bcd60e51b8152600401610c3190614339565b60148390556015829055601681905560408051848152602081018490529081018290527f5e35c511ddee3bac4f3cd917d8e465c37126e7a8a0bc5f8439a65c7676abe19b906060016116be565b6000546001600160a01b03163314611fce5760405162461bcd60e51b8152600401610c3190614339565b60005b601f548110156121fd576000601f8281548110611ffe57634e487b7160e01b600052603260045260246000fd5b60009182526020822001546001600160a01b031691505b6001600160a01b0382166000908152601b60205260409020548110156121e8576001600160a01b038083166000908152601d60209081526040808320858452825291829020825161016081018452815490941684526001810154918401919091526002810154918301919091526003810154606083015260048101546080830152600581015460a0830152600681015460c0830152600781015460ff80821615801560e08601819052610100938490049092161515928501929092526008830154610120850152600990920154610140840152906120f65750806101000151155b156121d557428160800151101561211b57600060e082015260016101008201526121d5565b601a5460009061010090046001600160a01b0316156121d357600061214483610140015161393b565b9050600061215684610120015161393b565b90506000821180156121685750600081115b156121d057606084015160009061217f9083613e12565b9050600061219a848760400151613e1290919063ffffffff16565b90506121b160646121ab8484613e4e565b90613e62565b94506011548511156121cd57600060e087015260016101008701525b50505b50505b505b50806121e081614432565b915050612015565b505080806121f590614432565b915050611fd1565b507f08813a3631e12129135cc9440d3fea50eec346f1673b20b994b0456d5d46ccb9334260405161222f9291906140ad565b60405180910390a1565b6000546001600160a01b031633146122635760405162461bcd60e51b8152600401610c3190614339565b601a8054610100600160a81b0319166101006001600160a01b038416908102919091179091556040517fefe8ab924ca486283a79dc604baa67add51afb82af1db8ac386ebbba643cdffd90600090a250565b601a54600090819061010090046001600160a01b03166122e75760405162461bcd60e51b8152600401610c319061420c565b826001141561230c576123056122fc8461393b565b60075490613e12565b9050612381565b826002141561232a576123056123218461393b565b60045490613e12565b82600314156123485761230561233f8461393b565b60055490613e12565b82600414156123665761230561235d8461393b565b60065490613e12565b82600514156123815760085460035461237e91613e12565b90505b92915050565b336000908152601b60205260408120546060919067ffffffffffffffff8111156123c157634e487b7160e01b600052604160045260246000fd5b6040519080825280602002602001820160405280156123fa57816020015b6123e7613ebe565b8152602001906001900390816123df5790505b50905060005b336000908152601b6020526040902054811015610bd957336000908152601d6020908152604080832084845282529182902082516101608101845281546001600160a01b031681526001820154928101929092526002810154928201929092526003820154606082015260048201546080820152600582015460a0820152600682015460c0820152600782015460ff808216151560e08401526101009182900416151590820152600882015461012082015260099091015461014082015282518390839081106124e057634e487b7160e01b600052603260045260246000fd5b602002602001018190525080806124f690614432565b915050612400565b6000546001600160a01b031633146125285760405162461bcd60e51b8152600401610c3190614339565b60178390556018829055601981905560408051848152602081018490529081018290527f1eb993ea8e47c2ce3cb4aade30f5dbcf13db6e9a00e435ee9d7ee80a3f587883906060016116be565b6020818154811061258557600080fd5b6000918252602090912001546001600160a01b0316905081565b6000546001600160a01b031633146125c95760405162461bcd60e51b8152600401610c3190614339565b60088190556040518181527f9a470bd568cbe5e7985016006c3093b3634f775e978b0ec2841ef7c634a2c2ff90602001611350565b6000805b60205481101561266957826001600160a01b03166020828154811061263757634e487b7160e01b600052603260045260246000fd5b6000918252602090912001546001600160a01b0316141561265757600191505b8061266181614432565b915050612602565b5080610a1e57602080546001810182556000919091527fc97bfaf2f8ee708c303a06d134f5ecd8389ae0432af62dc132a24118292866bb0180546001600160a01b0384166001600160a01b03199091161790555050565b6001600160a01b0381166000908152601b60205260408120546060919067ffffffffffffffff81111561270357634e487b7160e01b600052604160045260246000fd5b60405190808252806020026020018201604052801561273c57816020015b612729613ebe565b8152602001906001900390816127215790505b50905060005b6001600160a01b0384166000908152601b6020526040902054811015612886576001600160a01b038085166000908152601d60209081526040808320858452825291829020825161016081018452815490941684526001810154918401919091526002810154918301919091526003810154606083015260048101546080830152600581015460a0830152600681015460c0830152600781015460ff80821615801560e08601819052610100938490049092161515928501929092526008830154610120850152600990920154610140840152906128235750806101000151155b8015612833575042816080015110155b15612873576128428583613919565b612873578083838151811061286757634e487b7160e01b600052603260045260246000fd5b60200260200101819052505b508061287e81614432565b915050612742565b5092915050565b6000546001600160a01b031633146128b75760405162461bcd60e51b8152600401610c3190614339565b6128c16000613e6e565b565b336000908152601c60205260408120546060919067ffffffffffffffff8111156128fd57634e487b7160e01b600052604160045260246000fd5b60405190808252806020026020018201604052801561293657816020015b612923613f25565b81526020019060019003908161291b5790505b50905060005b336000908152601c6020526040902054811015610bd957336000908152601e6020908152604080832084845282529182902082516101008101845281546001600160a01b031681526001820154928101929092526002810154928201929092526003820154606082015260048201546080820152600582015460a0820152600682015460ff16151560c082015260079091015460e082015282518390839081106129f657634e487b7160e01b600052603260045260246000fd5b60200260200101819052508080612a0c90614432565b91505061293c565b6001600160a01b0382166000908152601d60209081526040808320848452909152812060048101548290421115612a49575060015b949350505050565b6000546001600160a01b03163314612a7b5760405162461bcd60e51b8152600401610c3190614339565b612a858282613d9d565b612add5760405162461bcd60e51b815260206004820152602360248201527f776974684472617745746865723a206e6f7420656e6f756768206c697175696460448201526269747960e81b6064820152608401610c31565b60008160011415612af657506009546001600160a01b03165b8160021415612b115750600b546001600160a01b0316612b5e565b8160031415612b2c5750600c546001600160a01b0316612b5e565b8160041415612b475750600d546001600160a01b0316612b5e565b8160051415612b5e5750600a546001600160a01b03165b6040516323b872dd60e01b81526001600160a01b038216906323b872dd90612b8e90309033908890600401614089565b602060405180830381600087803b158015612ba857600080fd5b505af1158015612bbc573d6000803e3d6000fd5b505050506040513d601f19601f82011682018060405250810190612be09190613fbc565b612bfc5760405162461bcd60e51b8152600401610c3190614299565b604051633950935160e01b81526001600160a01b03821690633950935190612c2a90309087906004016140ad565b602060405180830381600087803b158015612c4457600080fd5b505af1158015612c58573d6000803e3d6000fd5b505050506040513d601f19601f82011682018060405250810190612c7c9190613fbc565b508160011415612c9b57600754612c939084613e42565b600755612d0f565b8160021415612cb957600454612cb19084613e42565b600455612d0f565b8160031415612cd757600554612ccf9084613e42565b600555612d0f565b8160041415612cf557600654612ced9084613e42565b600655612d0f565b8160051415612d0f57600354612d0b9084613e42565b6003555b60408051848152602081018490527f8d7ca91ebdac6a80a88023a61a414acbf330dba3646d6d0a5cc2676bcef101ac91016116be565b601f818154811061258557600080fd5b60008160021415612d725750600b546001600160a01b0316612da4565b8160031415612d8d5750600c546001600160a01b0316612da4565b8160041415612da45750600d546001600160a01b03165b6040516323b872dd60e01b81526001600160a01b038216906323b872dd90612dd490339030908890600401614089565b602060405180830381600087803b158015612dee57600080fd5b505af1158015612e02573d6000803e3d6000fd5b505050506040513d601f19601f82011682018060405250810190612e269190613fbc565b612e425760405162461bcd60e51b8152600401610c3190614243565b604051633950935160e01b81526001600160a01b03821690633950935190612e7090309087906004016140ad565b602060405180830381600087803b158015612e8a57600080fd5b505af1158015612e9e573d6000803e3d6000fd5b505050506040513d601f19601f82011682018060405250810190612ec29190613fbc565b508160021415612ee157600454612ed99084613e36565b600455612efb565b8160031415612efb57600554612ef79084613e36565b6005555b8160041415612f1557600654612f119084613e36565b6006555b612f1e336125fe565b604080518481526020810184905233917f68dcee598918c1887bfa1c13ac763d4659a12722f88a5eb920014ba1f0bc38fb91015b60405180910390a2505050565b6001600160a01b0381166000908152601b60205260408120546060919067ffffffffffffffff811115612fa257634e487b7160e01b600052604160045260246000fd5b604051908082528060200260200182016040528015612fdb57816020015b612fc8613ebe565b815260200190600190039081612fc05790505b50905060005b6001600160a01b0384166000908152601b6020526040902054811015612886576001600160a01b038085166000908152601d60209081526040808320858452825291829020825161016081018452815490941684526001810154918401919091526002810154918301919091526003810154606083015260048101546080830152600581015460a0830152600681015460c0830152600781015460ff80821615801560e08601819052610100938490049092161515928501929092526008830154610120850152600990920154610140840152906130c25750428160800151105b156130f457808383815181106130e857634e487b7160e01b600052603260045260246000fd5b60200260200101819052505b50806130ff81614432565b915050612fe1565b336000908152601c60205260408120546060919067ffffffffffffffff81111561314157634e487b7160e01b600052604160045260246000fd5b60405190808252806020026020018201604052801561317a57816020015b613167613f25565b81526020019060019003908161315f5790505b50905060005b336000908152601c6020526040902054811015610bd957336000908152601e6020908152604080832084845282529182902082516101008101845281546001600160a01b031681526001820154928101929092526002810154928201929092526003820154606082015260048201546080820152600582015460a0820152600682015460ff16151560c0820181905260079092015460e08201529061324c578083838151811061324057634e487b7160e01b600052603260045260246000fd5b60200260200101819052505b508061325781614432565b915050613180565b6000546001600160a01b031633146132895760405162461bcd60e51b8152600401610c3190614339565b600081600214156132a65750600b546001600160a01b03166132d8565b81600314156132c15750600c546001600160a01b03166132d8565b81600414156132d85750600d546001600160a01b03165b6040516323b872dd60e01b81526001600160a01b038216906323b872dd9061330890339030908890600401614089565b602060405180830381600087803b15801561332257600080fd5b505af1158015613336573d6000803e3d6000fd5b505050506040513d601f19601f8201168201806040525081019061335a9190613fbc565b6133765760405162461bcd60e51b8152600401610c3190614299565b604051633950935160e01b81526001600160a01b038216906339509351906133a490309087906004016140ad565b602060405180830381600087803b1580156133be57600080fd5b505af11580156133d2573d6000803e3d6000fd5b505050506040513d601f19601f820116820180604052508101906133f69190613fbc565b50476007556002821415613419576004546134119084613e36565b600455612f1e565b816003141561342f576005546134119084613e36565b8160041415612f1e576006546134459084613e36565b600455604080518481526020810184905233917f68dcee598918c1887bfa1c13ac763d4659a12722f88a5eb920014ba1f0bc38fb9101612f52565b6000816002141561349d5750600b546001600160a01b03166134cf565b81600314156134b85750600c546001600160a01b03166134cf565b81600414156134cf5750600d546001600160a01b03165b6040516323b872dd60e01b81526001600160a01b038216906323b872dd906134ff90339030908890600401614089565b602060405180830381600087803b15801561351957600080fd5b505af115801561352d573d6000803e3d6000fd5b505050506040513d601f19601f820116820180604052508101906135519190613fbc565b61356d5760405162461bcd60e51b8152600401610c3190614243565b613575613f25565b338082526000908152601c60209081526040918290205490830152810184905260028314156135cc576135c26135bb6064610ceb60175488613e1290919063ffffffff16565b8590613e36565b606082015261361e565b82600314156135f2576135c26135bb6064610ceb60185488613e1290919063ffffffff16565b826004141561361e576136186135bb6064610ceb60195488613e1290919063ffffffff16565b60608201525b42608082018190526136339062278d006143c4565b60a08201908152600060c0830181815260e08401868152338352601e60209081526040808520601c83528186205486528252808520875181546001600160a01b0319166001600160a01b03909116178155918701516001830155860151600280830191909155606087015160038301556080870151600483015594516005820155915160068301805460ff191691151591909117905551600790910155815491906136dd83614432565b9091555050336000908152601c602052604081208054916136fd83614432565b9091555050604051633950935160e01b81526001600160a01b0383169063395093519061373090309088906004016140ad565b602060405180830381600087803b15801561374a57600080fd5b505af115801561375e573d6000803e3d6000fd5b505050506040513d601f19601f820116820180604052508101906137829190613fbc565b5082600214156137a1576004546137999085613e36565b6004556137bb565b82600314156137bb576005546137b79085613e36565b6005555b82600414156137d5576006546137d19085613e36565b6006555b6137de336125fe565b80600001516001600160a01b03167f4ab15cc690495a744ed84b8955b45eb732403b222a485fa1e287db39ad05e0658260400151836060015184608001518560a001518660c001518760e00151604051613862969594939291909586526020860194909452604085019290925260608401521515608083015260a082015260c00190565b60405180910390a250505050565b600080600061387e8461393b565b9050600061388b8661393b565b905085600214156138b7576138b060646121ab600f548a613e4e90919063ffffffff16565b9250613900565b85600314156138da576138b060646121ab600e548a613e4e90919063ffffffff16565b8560041415613900576138fd60646121ab6010548a613e4e90919063ffffffff16565b92505b61390e82610ceb8584613e62565b979650505050505050565b60115460009060019061392c8585613ba9565b1061237e575060009392505050565b601a5460009061010090046001600160a01b031661396b5760405162461bcd60e51b8152600401610c319061420c565b60008260021415613a0357601a60019054906101000a90046001600160a01b03166001600160a01b031663d63c25186040518163ffffffff1660e01b815260040160206040518083038186803b1580156139c457600080fd5b505afa1580156139d8573d6000803e3d6000fd5b505050506040513d601f19601f820116820180604052508101906139fc9190613ff4565b9050613abf565b8260031415613a5a57601a60019054906101000a90046001600160a01b03166001600160a01b0316633629cf056040518163ffffffff1660e01b815260040160206040518083038186803b1580156139c457600080fd5b8260041415613ab157601a60019054906101000a90046001600160a01b03166001600160a01b0316630f00fa116040518163ffffffff1660e01b815260040160206040518083038186803b1580156139c457600080fd5b8260051415613abf57506008545b600081116123815760405162461bcd60e51b81526020600482015260196024820152781d1bdad95b881c1c9a58d9481a5cdb89dd0818dbdc9c9958dd603a1b6044820152606401610c31565b6000806000613b198461393b565b90506000613b268661393b565b90508560021415613b5257613b4b6064610ceb600f548a613e1290919063ffffffff16565b9250613b9b565b8560031415613b7557613b4b6064610ceb600e548a613e1290919063ffffffff16565b8560041415613b9b57613b986064610ceb6010548a613e1290919063ffffffff16565b92505b61390e81610ceb8585613e62565b6001600160a01b038083166000908152601d602090815260408083208584529091528120601a5491929091839161010090910416613bf95760405162461bcd60e51b8152600401610c319061420c565b6000613c08836009015461393b565b905060008111613c5a5760405162461bcd60e51b815260206004820152601960248201527f65746865722070726963652069736e277420636f7272656374000000000000006044820152606401610c31565b6000613c69846008015461393b565b905060008111613cb75760405162461bcd60e51b81526020600482015260196024820152781d1bdad95b881c1c9a58d9481a5cdb89dd0818dbdc9c9958dd603a1b6044820152606401610c31565b6003840154600090613cc99083613e12565b90506000613ce4848760020154613e1290919063ffffffff16565b9050613cf560646121ab8484613e4e565b9998505050505050505050565b6000546001600160a01b03163314613d2c5760405162461bcd60e51b8152600401610c3190614339565b6001600160a01b038116613d915760405162461bcd60e51b815260206004820152602660248201527f4f776e61626c653a206e6577206f776e657220697320746865207a65726f206160448201526564647265737360d01b6064820152608401610c31565b613d9a81613e6e565b50565b6000808260011415613db25750600754613df6565b8260021415613dc45750600454613df6565b8260031415613dd65750600554613df6565b8260041415613de85750600654613df6565b8260051415613df657506003545b80841115613e08576000915050612381565b6001915050612381565b600061237e670de0b6b3a7640000610ceb8585613e62565b600061237e82846143dc565b600061237e82846143c4565b600061237e828461441b565b600061237e82610ceb85670de0b6b3a76400005b600061237e82846143fc565b600080546001600160a01b038381166001600160a01b0319831681178455604051919092169283917f8be0079c531659141344cd1fd0a4f28419497f9722a3daafe3b4186f6b6457e09190a35050565b60405180610160016040528060006001600160a01b0316815260200160008152602001600081526020016000815260200160008152602001600081526020016000815260200160001515815260200160001515815260200160008152602001600081525090565b60405180610100016040528060006001600160a01b031681526020016000815260200160008152602001600081526020016000815260200160008152602001600015158152602001600081525090565b600060208284031215613f86578081fd5b813561237e81614463565b60008060408385031215613fa3578081fd5b8235613fae81614463565b946020939093013593505050565b600060208284031215613fcd578081fd5b8151801515811461237e578182fd5b600060208284031215613fed578081fd5b5035919050565b600060208284031215614005578081fd5b5051919050565b6000806040838503121561401e578182fd5b50508035926020909101359150565b600080600060608486031215614041578081fd5b505081359360208301359350604090920135919050565b6000806000806080858703121561406d578081fd5b5050823594602084013594506040840135936060013592509050565b6001600160a01b039384168152919092166020820152604081019190915260600190565b6001600160a01b03929092168252602082015260400190565b602080825282518282018190526000919060409081850190868401855b8281101561415157815180516001600160a01b0316855286810151878601528581015186860152606080820151908601526080808201519086015260a0808201519086015260c08082015115159086015260e0908101519085015261010090930192908501906001016140e3565b5091979650505050505050565b602080825282518282018190526000919060409081850190868401855b8281101561415157815180516001600160a01b0316855286810151878601528581015186860152606080820151908601526080808201519086015260a0808201519086015260c0808201519086015260e0808201511515908601526101008082015115159086015261012080820151908601526101409081015190850152610160909301929085019060010161417b565b6020808252601e908201527f7072696365206f7261636c652069736e277420696e697469616c697a65640000604082015260600190565b60208082526036908201527f6c656e64546f6b656e3a205472616e7366657220746f6b656e2066726f6d20756040820152751cd95c881d1bc818dbdb9d1c9858dd0819985a5b195960521b606082015260800190565b60208082526023908201527f5472616e73616374696f6e206661696c6564206f6e20696e69742066756e637460408201526234b7b760e91b606082015260800190565b60208082526039908201527f7061796261636b3a205472616e7366657220636f6c6c61746572616c2066726f60408201527f6d20636f6e747261637420746f2075736572206661696c656400000000000000606082015260800190565b6020808252818101527f4f776e61626c653a2063616c6c6572206973206e6f7420746865206f776e6572604082015260600190565b60208082526036908201527f6c6f616e546f6b656e3a205472616e7366657220746f6b656e2066726f6d20636040820152751bdb9d1c9858dd081d1bc81d5cd95c8819985a5b195960521b606082015260800190565b600082198211156143d7576143d761444d565b500190565b6000826143f757634e487b7160e01b81526012600452602481fd5b500490565b60008160001904831182151516156144165761441661444d565b500290565b60008282101561442d5761442d61444d565b500390565b60006000198214156144465761444661444d565b5060010190565b634e487b7160e01b600052601160045260246000fd5b6001600160a01b0381168114613d9a57600080fdfea2646970667358221220632fcedca31e1b250a89bc300c372d1b73036925ec686674d5f11fa4b35a2db564736f6c63430008040033",
  "linkReferences": {},
  "deployedLinkReferences": {}
}