{
  "_format": "hh-sol-artifact-1",
  "contractName": "Loan",
  "sourceName": "contracts/Loan.sol",
  "abi": [
    {
      "inputs": [
        {
          "internalType": "address",
          "name": "_odonAddress",
          "type": "address"
        },
        {
          "internalType": "address",
          "name": "_usdcAddress",
          "type": "address"
        },
        {
          "internalType": "address",
          "name": "_usdtAddress",
          "type": "address"
        },
        {
          "internalType": "address",
          "name": "_btcAddress",
          "type": "address"
        }
      ],
      "stateMutability": "nonpayable",
      "type": "constructor"
    },
    {
      "anonymous": false,
      "inputs": [
        {
          "indexed": false,
          "internalType": "uint256",
          "name": "_usdcAPY",
          "type": "uint256"
        },
        {
          "indexed": false,
          "internalType": "uint256",
          "name": "_usdtAPY",
          "type": "uint256"
        },
        {
          "indexed": false,
          "internalType": "uint256",
          "name": "_btcAPY",
          "type": "uint256"
        }
      ],
      "name": "BorrowAPYUpdated",
      "type": "event"
    },
    {
      "anonymous": false,
      "inputs": [
        {
          "indexed": true,
          "internalType": "address",
          "name": "admin",
          "type": "address"
        },
        {
          "indexed": false,
          "internalType": "uint256",
          "name": "amount",
          "type": "uint256"
        },
        {
          "indexed": false,
          "internalType": "uint256",
          "name": "mtype",
          "type": "uint256"
        }
      ],
      "name": "InitBalance",
      "type": "event"
    },
    {
      "anonymous": false,
      "inputs": [
        {
          "indexed": false,
          "internalType": "uint256",
          "name": "_usdcAPY",
          "type": "uint256"
        },
        {
          "indexed": false,
          "internalType": "uint256",
          "name": "_usdtAPY",
          "type": "uint256"
        },
        {
          "indexed": false,
          "internalType": "uint256",
          "name": "_btcAPY",
          "type": "uint256"
        }
      ],
      "name": "LendAPYUpdated",
      "type": "event"
    },
    {
      "anonymous": false,
      "inputs": [
        {
          "indexed": false,
          "internalType": "address",
          "name": "borrower",
          "type": "address"
        },
        {
          "indexed": false,
          "internalType": "uint256",
          "name": "liquidateTime",
          "type": "uint256"
        },
        {
          "indexed": false,
          "internalType": "uint256",
          "name": "liquidateAmount",
          "type": "uint256"
        },
        {
          "indexed": false,
          "internalType": "uint256",
          "name": "ctype",
          "type": "uint256"
        }
      ],
      "name": "Liquidate",
      "type": "event"
    },
    {
      "anonymous": false,
      "inputs": [
        {
          "indexed": false,
          "internalType": "uint256",
          "name": "mtype",
          "type": "uint256"
        }
      ],
      "name": "LoanDurationModeUpdated",
      "type": "event"
    },
    {
      "anonymous": false,
      "inputs": [
        {
          "indexed": true,
          "internalType": "address",
          "name": "lender",
          "type": "address"
        },
        {
          "indexed": false,
          "internalType": "uint256",
          "name": "lendAmount",
          "type": "uint256"
        },
        {
          "indexed": false,
          "internalType": "uint256",
          "name": "paybackAmount",
          "type": "uint256"
        },
        {
          "indexed": false,
          "internalType": "uint256",
          "name": "timeLend",
          "type": "uint256"
        },
        {
          "indexed": false,
          "internalType": "uint256",
          "name": "timeCanGetInterest",
          "type": "uint256"
        },
        {
          "indexed": false,
          "internalType": "bool",
          "name": "retrieved",
          "type": "bool"
        },
        {
          "indexed": false,
          "internalType": "uint256",
          "name": "mtype",
          "type": "uint256"
        }
      ],
      "name": "NewLend",
      "type": "event"
    },
    {
      "anonymous": false,
      "inputs": [
        {
          "indexed": true,
          "internalType": "address",
          "name": "borrower",
          "type": "address"
        },
        {
          "indexed": false,
          "internalType": "uint256",
          "name": "loanAmount",
          "type": "uint256"
        },
        {
          "indexed": false,
          "internalType": "uint256",
          "name": "collateralAmount",
          "type": "uint256"
        },
        {
          "indexed": false,
          "internalType": "uint256",
          "name": "paybackAmount",
          "type": "uint256"
        },
        {
          "indexed": false,
          "internalType": "uint256",
          "name": "loanDueDate",
          "type": "uint256"
        },
        {
          "indexed": false,
          "internalType": "uint256",
          "name": "duration",
          "type": "uint256"
        },
        {
          "indexed": false,
          "internalType": "uint256",
          "name": "mtype",
          "type": "uint256"
        },
        {
          "indexed": false,
          "internalType": "uint256",
          "name": "ctype",
          "type": "uint256"
        }
      ],
      "name": "NewLoan",
      "type": "event"
    },
    {
      "anonymous": false,
      "inputs": [
        {
          "indexed": false,
          "internalType": "uint256",
          "name": "_price",
          "type": "uint256"
        }
      ],
      "name": "OdonPriceUpdated",
      "type": "event"
    },
    {
      "anonymous": false,
      "inputs": [
        {
          "indexed": true,
          "internalType": "address",
          "name": "previousOwner",
          "type": "address"
        },
        {
          "indexed": true,
          "internalType": "address",
          "name": "newOwner",
          "type": "address"
        }
      ],
      "name": "OwnershipTransferred",
      "type": "event"
    },
    {
      "anonymous": false,
      "inputs": [
        {
          "indexed": false,
          "internalType": "address",
          "name": "borrower",
          "type": "address"
        },
        {
          "indexed": false,
          "internalType": "bool",
          "name": "paybackSuccess",
          "type": "bool"
        },
        {
          "indexed": false,
          "internalType": "uint256",
          "name": "paybackTime",
          "type": "uint256"
        },
        {
          "indexed": false,
          "internalType": "uint256",
          "name": "paybackAmount",
          "type": "uint256"
        },
        {
          "indexed": false,
          "internalType": "uint256",
          "name": "returnCollateralAmount",
          "type": "uint256"
        },
        {
          "indexed": false,
          "internalType": "uint256",
          "name": "mtype",
          "type": "uint256"
        },
        {
          "indexed": false,
          "internalType": "uint256",
          "name": "ctype",
          "type": "uint256"
        }
      ],
      "name": "PayBack",
      "type": "event"
    },
    {
      "anonymous": false,
      "inputs": [
        {
          "indexed": true,
          "internalType": "address",
          "name": "priceOracleAddress",
          "type": "address"
        }
      ],
      "name": "PriceOracleUpdated",
      "type": "event"
    },
    {
      "anonymous": false,
      "inputs": [
        {
          "indexed": false,
          "internalType": "uint256",
          "name": "withdrawAmount",
          "type": "uint256"
        },
        {
          "indexed": false,
          "internalType": "uint256",
          "name": "mtype",
          "type": "uint256"
        }
      ],
      "name": "WithDrawReserve",
      "type": "event"
    },
    {
      "anonymous": false,
      "inputs": [
        {
          "indexed": false,
          "internalType": "bool",
          "name": "isEarnInterest",
          "type": "bool"
        },
        {
          "indexed": false,
          "internalType": "uint256",
          "name": "withdrawAmount",
          "type": "uint256"
        },
        {
          "indexed": false,
          "internalType": "uint256",
          "name": "mtype",
          "type": "uint256"
        }
      ],
      "name": "Withdraw",
      "type": "event"
    },
    {
      "inputs": [],
      "name": "AutoLiquidate",
      "outputs": [],
      "stateMutability": "nonpayable",
      "type": "function"
    },
    {
      "inputs": [
        {
          "internalType": "uint256",
          "name": "",
          "type": "uint256"
        }
      ],
      "name": "LendUserList",
      "outputs": [
        {
          "internalType": "address",
          "name": "",
          "type": "address"
        }
      ],
      "stateMutability": "view",
      "type": "function"
    },
    {
      "inputs": [
        {
          "internalType": "uint256",
          "name": "",
          "type": "uint256"
        }
      ],
      "name": "LoanUserList",
      "outputs": [
        {
          "internalType": "address",
          "name": "",
          "type": "address"
        }
      ],
      "stateMutability": "view",
      "type": "function"
    },
    {
      "inputs": [
        {
          "internalType": "address",
          "name": "_user",
          "type": "address"
        }
      ],
      "name": "addUserToLendUserList",
      "outputs": [],
      "stateMutability": "nonpayable",
      "type": "function"
    },
    {
      "inputs": [
        {
          "internalType": "address",
          "name": "_user",
          "type": "address"
        }
      ],
      "name": "addUserToLoanUserList",
      "outputs": [],
      "stateMutability": "nonpayable",
      "type": "function"
    },
    {
      "inputs": [],
      "name": "btcAddress",
      "outputs": [
        {
          "internalType": "address",
          "name": "",
          "type": "address"
        }
      ],
      "stateMutability": "view",
      "type": "function"
    },
    {
      "inputs": [],
      "name": "btcBorrowAPY",
      "outputs": [
        {
          "internalType": "uint256",
          "name": "",
          "type": "uint256"
        }
      ],
      "stateMutability": "view",
      "type": "function"
    },
    {
      "inputs": [],
      "name": "btcLTV",
      "outputs": [
        {
          "internalType": "uint256",
          "name": "",
          "type": "uint256"
        }
      ],
      "stateMutability": "view",
      "type": "function"
    },
    {
      "inputs": [],
      "name": "btcLendAPY",
      "outputs": [
        {
          "internalType": "uint256",
          "name": "",
          "type": "uint256"
        }
      ],
      "stateMutability": "view",
      "type": "function"
    },
    {
      "inputs": [],
      "name": "btcTotalLiquidity",
      "outputs": [
        {
          "internalType": "uint256",
          "name": "",
          "type": "uint256"
        }
      ],
      "stateMutability": "view",
      "type": "function"
    },
    {
      "inputs": [
        {
          "internalType": "uint256",
          "name": "_amount",
          "type": "uint256"
        },
        {
          "internalType": "uint256",
          "name": "mtype",
          "type": "uint256"
        }
      ],
      "name": "checkEnoughLiquidity",
      "outputs": [
        {
          "internalType": "bool",
          "name": "",
          "type": "bool"
        }
      ],
      "stateMutability": "view",
      "type": "function"
    },
    {
      "inputs": [
        {
          "internalType": "address",
          "name": "borrower",
          "type": "address"
        },
        {
          "internalType": "uint256",
          "name": "_id",
          "type": "uint256"
        }
      ],
      "name": "checkLoanExpire",
      "outputs": [
        {
          "internalType": "bool",
          "name": "",
          "type": "bool"
        }
      ],
      "stateMutability": "view",
      "type": "function"
    },
    {
      "inputs": [
        {
          "internalType": "address",
          "name": "_borrower",
          "type": "address"
        },
        {
          "internalType": "uint256",
          "name": "_id",
          "type": "uint256"
        }
      ],
      "name": "checkLoanHealth",
      "outputs": [
        {
          "internalType": "bool",
          "name": "",
          "type": "bool"
        }
      ],
      "stateMutability": "view",
      "type": "function"
    },
    {
      "inputs": [
        {
          "internalType": "uint256",
          "name": "lnAmount",
          "type": "uint256"
        },
        {
          "internalType": "uint256",
          "name": "mtype",
          "type": "uint256"
        },
        {
          "internalType": "uint256",
          "name": "ctype",
          "type": "uint256"
        }
      ],
      "name": "collateralAmount",
      "outputs": [
        {
          "internalType": "uint256",
          "name": "",
          "type": "uint256"
        }
      ],
      "stateMutability": "view",
      "type": "function"
    },
    {
      "inputs": [],
      "name": "dangerousLTV",
      "outputs": [
        {
          "internalType": "uint256",
          "name": "",
          "type": "uint256"
        }
      ],
      "stateMutability": "view",
      "type": "function"
    },
    {
      "inputs": [],
      "name": "firstAddAPY",
      "outputs": [
        {
          "internalType": "uint256",
          "name": "",
          "type": "uint256"
        }
      ],
      "stateMutability": "view",
      "type": "function"
    },
    {
      "inputs": [],
      "name": "getAllUserLoans",
      "outputs": [
        {
          "components": [
            {
              "internalType": "address",
              "name": "borrower",
              "type": "address"
            },
            {
              "internalType": "uint256",
              "name": "loanAmount",
              "type": "uint256"
            },
            {
              "internalType": "uint256",
              "name": "collateralAmount",
              "type": "uint256"
            },
            {
              "internalType": "uint256",
              "name": "paybackAmount",
              "type": "uint256"
            },
            {
              "internalType": "uint256",
              "name": "loanDueDate",
              "type": "uint256"
            },
            {
              "internalType": "uint256",
              "name": "duration",
              "type": "uint256"
            },
            {
              "internalType": "uint256",
              "name": "loanId",
              "type": "uint256"
            },
            {
              "internalType": "bool",
              "name": "isPayback",
              "type": "bool"
            },
            {
              "internalType": "bool",
              "name": "isLiquidate",
              "type": "bool"
            },
            {
              "internalType": "uint256",
              "name": "mtype",
              "type": "uint256"
            },
            {
              "internalType": "uint256",
              "name": "ctype",
              "type": "uint256"
            }
          ],
          "internalType": "struct Loan.LoanRequest[]",
          "name": "",
          "type": "tuple[]"
        }
      ],
      "stateMutability": "view",
      "type": "function"
    },
    {
      "inputs": [
        {
          "internalType": "address",
          "name": "_borrower",
          "type": "address"
        },
        {
          "internalType": "uint256",
          "name": "_id",
          "type": "uint256"
        }
      ],
      "name": "getLoansLTV",
      "outputs": [
        {
          "internalType": "uint256",
          "name": "",
          "type": "uint256"
        }
      ],
      "stateMutability": "view",
      "type": "function"
    },
    {
      "inputs": [
        {
          "internalType": "uint256",
          "name": "mtype",
          "type": "uint256"
        }
      ],
      "name": "getTokenPriceInUSD",
      "outputs": [
        {
          "internalType": "uint256",
          "name": "",
          "type": "uint256"
        }
      ],
      "stateMutability": "view",
      "type": "function"
    },
    {
      "inputs": [
        {
          "internalType": "uint256",
          "name": "mtype",
          "type": "uint256"
        }
      ],
      "name": "getTotalLiquidityInUSD",
      "outputs": [
        {
          "internalType": "uint256",
          "name": "",
          "type": "uint256"
        }
      ],
      "stateMutability": "view",
      "type": "function"
    },
    {
      "inputs": [],
      "name": "getUserAllLends",
      "outputs": [
        {
          "components": [
            {
              "internalType": "address",
              "name": "lender",
              "type": "address"
            },
            {
              "internalType": "uint256",
              "name": "lendId",
              "type": "uint256"
            },
            {
              "internalType": "uint256",
              "name": "lendAmount",
              "type": "uint256"
            },
            {
              "internalType": "uint256",
              "name": "paybackAmount",
              "type": "uint256"
            },
            {
              "internalType": "uint256",
              "name": "timeLend",
              "type": "uint256"
            },
            {
              "internalType": "uint256",
              "name": "timeCanGetInterest",
              "type": "uint256"
            },
            {
              "internalType": "bool",
              "name": "retrieved",
              "type": "bool"
            },
            {
              "internalType": "uint256",
              "name": "mtype",
              "type": "uint256"
            }
          ],
          "internalType": "struct Loan.LendRequest[]",
          "name": "",
          "type": "tuple[]"
        }
      ],
      "stateMutability": "view",
      "type": "function"
    },
    {
      "inputs": [],
      "name": "getUserNotRetrieveLend",
      "outputs": [
        {
          "components": [
            {
              "internalType": "address",
              "name": "lender",
              "type": "address"
            },
            {
              "internalType": "uint256",
              "name": "lendId",
              "type": "uint256"
            },
            {
              "internalType": "uint256",
              "name": "lendAmount",
              "type": "uint256"
            },
            {
              "internalType": "uint256",
              "name": "paybackAmount",
              "type": "uint256"
            },
            {
              "internalType": "uint256",
              "name": "timeLend",
              "type": "uint256"
            },
            {
              "internalType": "uint256",
              "name": "timeCanGetInterest",
              "type": "uint256"
            },
            {
              "internalType": "bool",
              "name": "retrieved",
              "type": "bool"
            },
            {
              "internalType": "uint256",
              "name": "mtype",
              "type": "uint256"
            }
          ],
          "internalType": "struct Loan.LendRequest[]",
          "name": "",
          "type": "tuple[]"
        }
      ],
      "stateMutability": "view",
      "type": "function"
    },
    {
      "inputs": [],
      "name": "getUserOngoingLoans",
      "outputs": [
        {
          "components": [
            {
              "internalType": "address",
              "name": "borrower",
              "type": "address"
            },
            {
              "internalType": "uint256",
              "name": "loanAmount",
              "type": "uint256"
            },
            {
              "internalType": "uint256",
              "name": "collateralAmount",
              "type": "uint256"
            },
            {
              "internalType": "uint256",
              "name": "paybackAmount",
              "type": "uint256"
            },
            {
              "internalType": "uint256",
              "name": "loanDueDate",
              "type": "uint256"
            },
            {
              "internalType": "uint256",
              "name": "duration",
              "type": "uint256"
            },
            {
              "internalType": "uint256",
              "name": "loanId",
              "type": "uint256"
            },
            {
              "internalType": "bool",
              "name": "isPayback",
              "type": "bool"
            },
            {
              "internalType": "bool",
              "name": "isLiquidate",
              "type": "bool"
            },
            {
              "internalType": "uint256",
              "name": "mtype",
              "type": "uint256"
            },
            {
              "internalType": "uint256",
              "name": "ctype",
              "type": "uint256"
            }
          ],
          "internalType": "struct Loan.LoanRequest[]",
          "name": "",
          "type": "tuple[]"
        }
      ],
      "stateMutability": "view",
      "type": "function"
    },
    {
      "inputs": [
        {
          "internalType": "address",
          "name": "borrower",
          "type": "address"
        }
      ],
      "name": "getUserOverdueLoans",
      "outputs": [
        {
          "components": [
            {
              "internalType": "address",
              "name": "borrower",
              "type": "address"
            },
            {
              "internalType": "uint256",
              "name": "loanAmount",
              "type": "uint256"
            },
            {
              "internalType": "uint256",
              "name": "collateralAmount",
              "type": "uint256"
            },
            {
              "internalType": "uint256",
              "name": "paybackAmount",
              "type": "uint256"
            },
            {
              "internalType": "uint256",
              "name": "loanDueDate",
              "type": "uint256"
            },
            {
              "internalType": "uint256",
              "name": "duration",
              "type": "uint256"
            },
            {
              "internalType": "uint256",
              "name": "loanId",
              "type": "uint256"
            },
            {
              "internalType": "bool",
              "name": "isPayback",
              "type": "bool"
            },
            {
              "internalType": "bool",
              "name": "isLiquidate",
              "type": "bool"
            },
            {
              "internalType": "uint256",
              "name": "mtype",
              "type": "uint256"
            },
            {
              "internalType": "uint256",
              "name": "ctype",
              "type": "uint256"
            }
          ],
          "internalType": "struct Loan.LoanRequest[]",
          "name": "",
          "type": "tuple[]"
        }
      ],
      "stateMutability": "view",
      "type": "function"
    },
    {
      "inputs": [
        {
          "internalType": "address",
          "name": "borrower",
          "type": "address"
        }
      ],
      "name": "getUserUnHealthLoans",
      "outputs": [
        {
          "components": [
            {
              "internalType": "address",
              "name": "borrower",
              "type": "address"
            },
            {
              "internalType": "uint256",
              "name": "loanAmount",
              "type": "uint256"
            },
            {
              "internalType": "uint256",
              "name": "collateralAmount",
              "type": "uint256"
            },
            {
              "internalType": "uint256",
              "name": "paybackAmount",
              "type": "uint256"
            },
            {
              "internalType": "uint256",
              "name": "loanDueDate",
              "type": "uint256"
            },
            {
              "internalType": "uint256",
              "name": "duration",
              "type": "uint256"
            },
            {
              "internalType": "uint256",
              "name": "loanId",
              "type": "uint256"
            },
            {
              "internalType": "bool",
              "name": "isPayback",
              "type": "bool"
            },
            {
              "internalType": "bool",
              "name": "isLiquidate",
              "type": "bool"
            },
            {
              "internalType": "uint256",
              "name": "mtype",
              "type": "uint256"
            },
            {
              "internalType": "uint256",
              "name": "ctype",
              "type": "uint256"
            }
          ],
          "internalType": "struct Loan.LoanRequest[]",
          "name": "",
          "type": "tuple[]"
        }
      ],
      "stateMutability": "view",
      "type": "function"
    },
    {
      "inputs": [
        {
          "internalType": "uint256",
          "name": "_amount",
          "type": "uint256"
        },
        {
          "internalType": "uint256",
          "name": "mtype",
          "type": "uint256"
        }
      ],
      "name": "init",
      "outputs": [],
      "stateMutability": "nonpayable",
      "type": "function"
    },
    {
      "inputs": [],
      "name": "lendCount",
      "outputs": [
        {
          "internalType": "uint256",
          "name": "",
          "type": "uint256"
        }
      ],
      "stateMutability": "view",
      "type": "function"
    },
    {
      "inputs": [
        {
          "internalType": "uint256",
          "name": "_amount",
          "type": "uint256"
        },
        {
          "internalType": "uint256",
          "name": "mtype",
          "type": "uint256"
        }
      ],
      "name": "lendToken",
      "outputs": [],
      "stateMutability": "nonpayable",
      "type": "function"
    },
    {
      "inputs": [
        {
          "internalType": "address",
          "name": "",
          "type": "address"
        },
        {
          "internalType": "uint256",
          "name": "",
          "type": "uint256"
        }
      ],
      "name": "lends",
      "outputs": [
        {
          "internalType": "address",
          "name": "lender",
          "type": "address"
        },
        {
          "internalType": "uint256",
          "name": "lendId",
          "type": "uint256"
        },
        {
          "internalType": "uint256",
          "name": "lendAmount",
          "type": "uint256"
        },
        {
          "internalType": "uint256",
          "name": "paybackAmount",
          "type": "uint256"
        },
        {
          "internalType": "uint256",
          "name": "timeLend",
          "type": "uint256"
        },
        {
          "internalType": "uint256",
          "name": "timeCanGetInterest",
          "type": "uint256"
        },
        {
          "internalType": "bool",
          "name": "retrieved",
          "type": "bool"
        },
        {
          "internalType": "uint256",
          "name": "mtype",
          "type": "uint256"
        }
      ],
      "stateMutability": "view",
      "type": "function"
    },
    {
      "inputs": [
        {
          "internalType": "uint256",
          "name": "_amount",
          "type": "uint256"
        },
        {
          "internalType": "uint256",
          "name": "_duration",
          "type": "uint256"
        },
        {
          "internalType": "uint256",
          "name": "mtype",
          "type": "uint256"
        },
        {
          "internalType": "uint256",
          "name": "ctype",
          "type": "uint256"
        }
      ],
      "name": "loan",
      "outputs": [],
      "stateMutability": "nonpayable",
      "type": "function"
    },
    {
      "inputs": [
        {
          "internalType": "uint256",
          "name": "colAmount",
          "type": "uint256"
        },
        {
          "internalType": "uint256",
          "name": "mtype",
          "type": "uint256"
        },
        {
          "internalType": "uint256",
          "name": "ctype",
          "type": "uint256"
        }
      ],
      "name": "loanAmount",
      "outputs": [
        {
          "internalType": "uint256",
          "name": "",
          "type": "uint256"
        }
      ],
      "stateMutability": "view",
      "type": "function"
    },
    {
      "inputs": [],
      "name": "loanCount",
      "outputs": [
        {
          "internalType": "uint256",
          "name": "",
          "type": "uint256"
        }
      ],
      "stateMutability": "view",
      "type": "function"
    },
    {
      "inputs": [],
      "name": "loanModeFirst",
      "outputs": [
        {
          "internalType": "bool",
          "name": "",
          "type": "bool"
        }
      ],
      "stateMutability": "view",
      "type": "function"
    },
    {
      "inputs": [
        {
          "internalType": "address",
          "name": "",
          "type": "address"
        },
        {
          "internalType": "uint256",
          "name": "",
          "type": "uint256"
        }
      ],
      "name": "loans",
      "outputs": [
        {
          "internalType": "address",
          "name": "borrower",
          "type": "address"
        },
        {
          "internalType": "uint256",
          "name": "loanAmount",
          "type": "uint256"
        },
        {
          "internalType": "uint256",
          "name": "collateralAmount",
          "type": "uint256"
        },
        {
          "internalType": "uint256",
          "name": "paybackAmount",
          "type": "uint256"
        },
        {
          "internalType": "uint256",
          "name": "loanDueDate",
          "type": "uint256"
        },
        {
          "internalType": "uint256",
          "name": "duration",
          "type": "uint256"
        },
        {
          "internalType": "uint256",
          "name": "loanId",
          "type": "uint256"
        },
        {
          "internalType": "bool",
          "name": "isPayback",
          "type": "bool"
        },
        {
          "internalType": "bool",
          "name": "isLiquidate",
          "type": "bool"
        },
        {
          "internalType": "uint256",
          "name": "mtype",
          "type": "uint256"
        },
        {
          "internalType": "uint256",
          "name": "ctype",
          "type": "uint256"
        }
      ],
      "stateMutability": "view",
      "type": "function"
    },
    {
      "inputs": [],
      "name": "movrAddress",
      "outputs": [
        {
          "internalType": "address",
          "name": "",
          "type": "address"
        }
      ],
      "stateMutability": "view",
      "type": "function"
    },
    {
      "inputs": [],
      "name": "odonAddress",
      "outputs": [
        {
          "internalType": "address",
          "name": "",
          "type": "address"
        }
      ],
      "stateMutability": "view",
      "type": "function"
    },
    {
      "inputs": [],
      "name": "odonPrice",
      "outputs": [
        {
          "internalType": "uint256",
          "name": "",
          "type": "uint256"
        }
      ],
      "stateMutability": "view",
      "type": "function"
    },
    {
      "inputs": [],
      "name": "odonTotalLiquidity",
      "outputs": [
        {
          "internalType": "uint256",
          "name": "",
          "type": "uint256"
        }
      ],
      "stateMutability": "view",
      "type": "function"
    },
    {
      "inputs": [],
      "name": "owner",
      "outputs": [
        {
          "internalType": "address",
          "name": "",
          "type": "address"
        }
      ],
      "stateMutability": "view",
      "type": "function"
    },
    {
      "inputs": [
        {
          "internalType": "uint256",
          "name": "_id",
          "type": "uint256"
        },
        {
          "internalType": "uint256",
          "name": "_amount",
          "type": "uint256"
        }
      ],
      "name": "payback",
      "outputs": [],
      "stateMutability": "nonpayable",
      "type": "function"
    },
    {
      "inputs": [],
      "name": "renounceOwnership",
      "outputs": [],
      "stateMutability": "nonpayable",
      "type": "function"
    },
    {
      "inputs": [],
      "name": "secondAddAPY",
      "outputs": [
        {
          "internalType": "uint256",
          "name": "",
          "type": "uint256"
        }
      ],
      "stateMutability": "view",
      "type": "function"
    },
    {
      "inputs": [
        {
          "internalType": "uint256",
          "name": "_usdcapy",
          "type": "uint256"
        },
        {
          "internalType": "uint256",
          "name": "_usdtapy",
          "type": "uint256"
        },
        {
          "internalType": "uint256",
          "name": "_btcapy",
          "type": "uint256"
        }
      ],
      "name": "setBorrowAPY",
      "outputs": [],
      "stateMutability": "nonpayable",
      "type": "function"
    },
    {
      "inputs": [
        {
          "internalType": "uint256",
          "name": "_usdcapy",
          "type": "uint256"
        },
        {
          "internalType": "uint256",
          "name": "_usdtapy",
          "type": "uint256"
        },
        {
          "internalType": "uint256",
          "name": "_btcapy",
          "type": "uint256"
        }
      ],
      "name": "setLendAPY",
      "outputs": [],
      "stateMutability": "nonpayable",
      "type": "function"
    },
    {
      "inputs": [
        {
          "internalType": "uint256",
          "name": "mtype",
          "type": "uint256"
        }
      ],
      "name": "setLoanDurationMode",
      "outputs": [],
      "stateMutability": "nonpayable",
      "type": "function"
    },
    {
      "inputs": [
        {
          "internalType": "uint256",
          "name": "_price",
          "type": "uint256"
        }
      ],
      "name": "setPriceOdon",
      "outputs": [],
      "stateMutability": "nonpayable",
      "type": "function"
    },
    {
      "inputs": [
        {
          "internalType": "contract PriceConsumerV3",
          "name": "_oracle",
          "type": "address"
        }
      ],
      "name": "setPriceOracle",
      "outputs": [],
      "stateMutability": "nonpayable",
      "type": "function"
    },
    {
      "inputs": [],
      "name": "totalLiquidity",
      "outputs": [
        {
          "internalType": "uint256",
          "name": "",
          "type": "uint256"
        }
      ],
      "stateMutability": "view",
      "type": "function"
    },
    {
      "inputs": [
        {
          "internalType": "address",
          "name": "newOwner",
          "type": "address"
        }
      ],
      "name": "transferOwnership",
      "outputs": [],
      "stateMutability": "nonpayable",
      "type": "function"
    },
    {
      "inputs": [],
      "name": "usdcAddress",
      "outputs": [
        {
          "internalType": "address",
          "name": "",
          "type": "address"
        }
      ],
      "stateMutability": "view",
      "type": "function"
    },
    {
      "inputs": [],
      "name": "usdcBorrowAPY",
      "outputs": [
        {
          "internalType": "uint256",
          "name": "",
          "type": "uint256"
        }
      ],
      "stateMutability": "view",
      "type": "function"
    },
    {
      "inputs": [],
      "name": "usdcLTV",
      "outputs": [
        {
          "internalType": "uint256",
          "name": "",
          "type": "uint256"
        }
      ],
      "stateMutability": "view",
      "type": "function"
    },
    {
      "inputs": [],
      "name": "usdcLendAPY",
      "outputs": [
        {
          "internalType": "uint256",
          "name": "",
          "type": "uint256"
        }
      ],
      "stateMutability": "view",
      "type": "function"
    },
    {
      "inputs": [],
      "name": "usdcTotalLiquidity",
      "outputs": [
        {
          "internalType": "uint256",
          "name": "",
          "type": "uint256"
        }
      ],
      "stateMutability": "view",
      "type": "function"
    },
    {
      "inputs": [],
      "name": "usdtAddress",
      "outputs": [
        {
          "internalType": "address",
          "name": "",
          "type": "address"
        }
      ],
      "stateMutability": "view",
      "type": "function"
    },
    {
      "inputs": [],
      "name": "usdtBorrowAPY",
      "outputs": [
        {
          "internalType": "uint256",
          "name": "",
          "type": "uint256"
        }
      ],
      "stateMutability": "view",
      "type": "function"
    },
    {
      "inputs": [],
      "name": "usdtLTV",
      "outputs": [
        {
          "internalType": "uint256",
          "name": "",
          "type": "uint256"
        }
      ],
      "stateMutability": "view",
      "type": "function"
    },
    {
      "inputs": [],
      "name": "usdtLendAPY",
      "outputs": [
        {
          "internalType": "uint256",
          "name": "",
          "type": "uint256"
        }
      ],
      "stateMutability": "view",
      "type": "function"
    },
    {
      "inputs": [],
      "name": "usdtTotalLiquidity",
      "outputs": [
        {
          "internalType": "uint256",
          "name": "",
          "type": "uint256"
        }
      ],
      "stateMutability": "view",
      "type": "function"
    },
    {
      "inputs": [
        {
          "internalType": "address",
          "name": "",
          "type": "address"
        }
      ],
      "name": "userLendsCount",
      "outputs": [
        {
          "internalType": "uint256",
          "name": "",
          "type": "uint256"
        }
      ],
      "stateMutability": "view",
      "type": "function"
    },
    {
      "inputs": [
        {
          "internalType": "address",
          "name": "",
          "type": "address"
        }
      ],
      "name": "userLoansCount",
      "outputs": [
        {
          "internalType": "uint256",
          "name": "",
          "type": "uint256"
        }
      ],
      "stateMutability": "view",
      "type": "function"
    },
    {
      "inputs": [
        {
          "internalType": "uint256",
          "name": "_amount",
          "type": "uint256"
        },
        {
          "internalType": "uint256",
          "name": "mtype",
          "type": "uint256"
        }
      ],
      "name": "withDrawReserve",
      "outputs": [],
      "stateMutability": "nonpayable",
      "type": "function"
    },
    {
      "inputs": [
        {
          "internalType": "uint256",
          "name": "_id",
          "type": "uint256"
        }
      ],
      "name": "withdraw",
      "outputs": [],
      "stateMutability": "nonpayable",
      "type": "function"
    }
  ],
  "bytecode": "0x60806040526302faf0806008556803860e639d80640000600e556803afb087b876900000600f556802ed6689e54f18000060105568049b9ca9a6943400006011556729a2241af62c0000601255674563918244f400006013819055678ac7230489e800006014556798a7d9b8314c000060155567a688906bd8b000006016556017556753444835ec580000601855676f05b59d3b200000601955601a805460ff19169055348015620000b057600080fd5b506040516200458438038062004584833981016040819052620000d391620001c0565b620000de3362000153565b600180805560025560006007819055600481905560038190556005819055600655600a80546001600160a01b039586166001600160a01b031991821617909155600b805494861694821694909417909355600c805492851692841692909217909155600d80549190931691161790556200021c565b600080546001600160a01b038381166001600160a01b0319831681178455604051919092169283917f8be0079c531659141344cd1fd0a4f28419497f9722a3daafe3b4186f6b6457e09190a35050565b80516001600160a01b0381168114620001bb57600080fd5b919050565b60008060008060808587031215620001d6578384fd5b620001e185620001a3565b9350620001f160208601620001a3565b92506200020160408601620001a3565b91506200021160608601620001a3565b905092959194509250565b614358806200022c6000396000f3fe608060405234801561001057600080fd5b50600436106103c45760003560e01c80636ef9855b116101ff578063b04b022a1161011a578063d9d0befc116100ad578063f2fde38b1161007c578063f2fde38b14610901578063f6c5dded14610914578063f7d76ae51461091d578063fe3af3ea1461093057600080fd5b8063d9d0befc146108bf578063df62dbbe146108d2578063e15a6d6a146108db578063ee9e5800146108ee57600080fd5b8063d3235306116100e9578063d32353061461087d578063d3c9e2c914610890578063d3f72d10146108a3578063d5a0b65d146108ac57600080fd5b8063b04b022a1461084f578063cdb2409a14610862578063cdbc87f61461086b578063ce63094d1461087457600080fd5b80638dda75b711610192578063a12af89611610161578063a12af8961461080e578063a557b17d14610821578063a5843f0814610829578063ae5c8fca1461083c57600080fd5b80638dda75b7146106fa578063973c7d451461070757806398c61c371461071a5780639ab4a445146107fb57600080fd5b80637f026f15116101ce5780637f026f15146106935780638443bccc146106b65780638a6a29a0146106c95780638da5cb5b146106e957600080fd5b80636ef9855b14610664578063715018a61461066d57806371d1a70114610675578063725cab5d1461068a57600080fd5b8063439b3543116102ef57806364282ecd11610282578063699e0f5611610251578063699e0f56146106225780636b32991e1461062b5780636c6ac5911461063e5780636ccbf7581461065157600080fd5b806364282ecd146105ea57806364880990146105f357806365440cef14610606578063693a961d1461060f57600080fd5b806353068056116102be57806353068056146105b3578063530e784f146105bc57806353bbfefa146105cf57806360089fca146105e257600080fd5b8063439b3543146104c557806349a4485d146105785780634c0a79fb1461058b57806351bcca5e146105ab57600080fd5b806329055efc116103675780632d1fabec116103365780632d1fabec146104835780632e1a7d4d146104965780632e6a1830146104a95780633583de13146104b257600080fd5b806329055efc14610455578063295dea731461046857806329b53f85146104715780632b84a68d1461047a57600080fd5b80630bf1644e116103a35780630bf1644e1461042557806315770f921461042e578063168c738c1461043757806320ec1ff51461044c57600080fd5b806208001a146103c957806302d45457146103e5578063048422a514610410575b600080fd5b6103d260195481565b6040519081526020015b60405180910390f35b600b546103f8906001600160a01b031681565b6040516001600160a01b0390911681526020016103dc565b61042361041e366004613e14565b610943565b005b6103d260125481565b6103d260075481565b61043f610a04565b6040516103dc9190613fe4565b6103d260175481565b610423610463366004613ef7565b610bac565b6103d260135481565b6103d260035481565b6103d260045481565b610423610491366004613e7b565b6112a4565b6104236104a4366004613e7b565b61132b565b6103d260165481565b6104236104c0366004613eab565b61189f565b6105316104d3366004613e30565b601e602090815260009283526040808420909152908252902080546001820154600283015460038401546004850154600586015460068701546007909701546001600160a01b03909616969495939492939192909160ff9091169088565b604080516001600160a01b0390991689526020890197909752958701949094526060860192909252608085015260a0840152151560c083015260e0820152610100016103dc565b610423610586366004613ecc565b611eb9565b6103d2610599366004613e14565b601b6020526000908152604090205481565b610423611f30565b6103d2600f5481565b6104236105ca366004613e14565b6120bf565b6103d26105dd366004613e7b565b61213b565b61043f61220d565b6103d260065481565b610423610601366004613ecc565b612384565b6103d260055481565b6103f861061d366004613e7b565b6123fb565b6103d260025481565b610423610639366004613e7b565b612425565b61042361064c366004613e14565b612484565b61043f61065f366004613e14565b612546565b6103d260155481565b610423612712565b61067d612748565b6040516103dc9190613f4c565b6103d260145481565b6106a66106a1366004613e30565b612899565b60405190151581526020016103dc565b6104236106c4366004613eab565b6128d6565b6103d26106d7366004613e14565b601c6020526000908152604090205481565b6000546001600160a01b03166103f8565b601a546106a69060ff1681565b6103f8610715366004613e7b565b612b7e565b61079a610728366004613e30565b601d60209081526000928352604080842090915290825290208054600182015460028301546003840154600485015460058601546006870154600788015460088901546009909901546001600160a01b039098169896979596949593949293919260ff8083169361010090930416918b565b604080516001600160a01b03909c168c5260208c019a909a52988a01979097526060890195909552608088019390935260a087019190915260c0860152151560e08501521515610100840152610120830152610140820152610160016103dc565b600c546103f8906001600160a01b031681565b61043f61081c366004613e14565b612b8e565b61067d612d36565b610423610837366004613eab565b612e8e565b61042361084a366004613eab565b6130b8565b600a546103f8906001600160a01b031681565b6103d260105481565b6103d260115481565b6103d260015481565b6103d261088b366004613ecc565b6134f7565b6106a661089e366004613e30565b6135a6565b6103d2600e5481565b6103d26108ba366004613e7b565b6135c8565b6103d26108cd366004613ecc565b613798565b6103d260185481565b6103d26108e9366004613e30565b613836565b6009546103f8906001600160a01b031681565b61042361090f366004613e14565b61398f565b6103d260085481565b600d546103f8906001600160a01b031681565b6106a661093e366004613eab565b613a27565b6000805b601f548110156109ae57826001600160a01b0316601f828154811061097c57634e487b7160e01b600052603260045260246000fd5b6000918252602090912001546001600160a01b0316141561099c57600191505b806109a6816142dc565b915050610947565b5080610a0057601f80546001810182556000919091527fa03837a25210ee280c2113ff4b77ca23440b19d4866cca721c801278fd08d8070180546001600160a01b0319166001600160a01b0384161790555b5050565b336000908152601b60205260408120546060919067ffffffffffffffff811115610a3e57634e487b7160e01b600052604160045260246000fd5b604051908082528060200260200182016040528015610a7757816020015b610a64613d5d565b815260200190600190039081610a5c5790505b50905060005b336000908152601b6020526040902054811015610ba657336000908152601d6020908152604080832084845282529182902082516101608101845281546001600160a01b031681526001820154928101929092526002810154928201929092526003820154606082015260048201546080820152600582015460a0820152600682015460c0820152600782015460ff80821615801560e085018190526101009384900490921615159284019290925260088401546101208401526009909301546101408301529091610b525750806101000151155b8015610b615750428160800151115b15610b935780838381518110610b8757634e487b7160e01b600052603260045260246000fd5b60200260200101819052505b5080610b9e816142dc565b915050610a7d565b50919050565b610bb68483613a27565b610c075760405162461bcd60e51b815260206004820152601f60248201527f6c6f616e45746865723a206e6f7420656e6f756768206c69717569646974790060448201526064015b60405180910390fd5b610c0f613d5d565b33815260208101859052610c248584846134f7565b604080830191909152336000908152601b6020529081205460c083015260e082018190526101008201819052610120820184905261014082018390526002841415610c725750601454610c92565b8360031415610c845750601554610c92565b8360041415610c9257506016545b601a5460ff1615610dc7578460071415610cea57610cc5610cbe6064610cb88985613a9c565b90613ab4565b8790613ac0565b6060830152610cd74262093a8061426e565b608083015262093a8060a0830152610e6c565b84600e1415610d3857610d13610cbe6064610cb884601254610d0c919061426e565b8a90613a9c565b6060830152610d25426212750061426e565b60808301526212750060a0830152610e6c565b84601e1415610d7f57610d5a610cbe6064610cb884601354610d0c919061426e565b6060830152610d6c4262278d0061426e565b608083015262278d0060a0830152610e6c565b60405162461bcd60e51b815260206004820152601d60248201527f6c6f616e546f6b656e3a206e6f2076616c6964206475726174696f6e210000006044820152606401610bfe565b84601e1415610de257610d5a610cbe6064610cb88985613a9c565b84603c1415610e2957610e04610cbe6064610cb884601254610d0c919061426e565b6060830152610e1642624f1a0061426e565b6080830152624f1a0060a0830152610e6c565b84605a1415610d7f57610e4b610cbe6064610cb884601354610d0c919061426e565b6060830152610e5d426276a70061426e565b60808301526276a70060a08301525b600083600114610fa75750600a5460408084015190516323b872dd60e01b81526001600160a01b039092169182916323b872dd91610eb1913391309190600401613f28565b602060405180830381600087803b158015610ecb57600080fd5b505af1158015610edf573d6000803e3d6000fd5b505050506040513d601f19601f82011682018060405250810190610f039190613e5b565b610f1f5760405162461bcd60e51b8152600401610bfe906141e1565b6040838101519051633950935160e01b815230600482015260248101919091526001600160a01b03821690633950935190604401602060405180830381600087803b158015610f6d57600080fd5b505af1158015610f81573d6000803e3d6000fd5b505050506040513d601f19601f82011682018060405250810190610fa59190613e5b565b505b8360011415610fb557610fca565b6040830151600354610fc691613ac0565b6003555b60008560021415610fe75750600b546001600160a01b0316611019565b85600314156110025750600c546001600160a01b0316611019565b85600414156110195750600d546001600160a01b03165b6040516323b872dd60e01b81526001600160a01b038216906323b872dd9061104990309033908d90600401613f28565b602060405180830381600087803b15801561106357600080fd5b505af1158015611077573d6000803e3d6000fd5b505050506040513d601f19601f8201168201806040525081019061109b9190613e5b565b6110b75760405162461bcd60e51b8152600401610bfe906141e1565b85600214156110d5576004546110cd9089613acc565b60045561110d565b85600314156110f3576005546110eb9089613acc565b60055561110d565b856004141561110d576006546111099089613acc565b6006555b336000908152601d60209081526040808320601b83528184205484528252808320875181546001600160a01b03919091166001600160a01b031990911617815591870151600180840191909155908701516002830155606087015160038301556080870151600483015560a0870151600583015560c0870151600683015560e0870151600783018054610100808b015115150261ff00199315159390931661ffff199091161791909117905561012087015160088301556101408701516009909201919091558054916111df836142dc565b9091555050336000908152601b602052604081208054916111ff836142dc565b9190505550336001600160a01b03167fd3d220740d3967bbabbce5a2d2be80cf584799db8de046928f1b6d1d7500b45e85602001518660400151876060015188608001518960a001518a61012001518b61014001516040516112929796959493929190968752602087019590955260408601939093526060850191909152608084015260a083015260c082015260e00190565b60405180910390a25050505050505050565b6000546001600160a01b031633146112ce5760405162461bcd60e51b8152600401610bfe90614169565b80600114156112e957601a805460ff191660011790556112f4565b601a805460ff191690555b6040518181527f4d5a4bfab3f36cd8f68133a2361e410afb6899ac665938f88ee5e1abb15fec45906020015b60405180910390a150565b336000908152601e602090815260408083208484529091529020600681015460ff16156113a85760405162461bcd60e51b815260206004820152602560248201527f7769746864726177546f6b656e3a204c656e64207265717565737420726574726044820152641a595d995960da1b6064820152608401610bfe565b80546001600160a01b031633146114115760405162461bcd60e51b815260206004820152602760248201527f776974686472617745746865723a204f6e6c79206c656e6465722063616e20776044820152666974686472617760c81b6064820152608401610bfe565b61142381600201548260070154613a27565b61143f5760405162461bcd60e51b8152600401610bfe9061419e565b60068101805460ff19166001179055600581015442111561168157600081600701546002141561147b5750600b546001600160a01b03166114b5565b81600701546003141561149a5750600c546001600160a01b03166114b5565b8160070154600414156114b55750600d546001600160a01b03165b815460038301546040516323b872dd60e01b81526001600160a01b03848116936323b872dd936114ed93309390921691600401613f28565b602060405180830381600087803b15801561150757600080fd5b505af115801561151b573d6000803e3d6000fd5b505050506040513d601f19601f8201168201806040525081019061153f9190613e5b565b506003820154604051633950935160e01b815230600482015260248101919091526001600160a01b03821690633950935190604401602060405180830381600087803b15801561158e57600080fd5b505af11580156115a2573d6000803e3d6000fd5b505050506040513d601f19601f820116820180604052508101906115c69190613e5b565b508160070154600214156115ed5760038201546004546115e591613acc565b60045561160f565b81600701546003141561160f57600382015460055461160b91613acc565b6005555b81600701546004141561163157600382015460065461162d91613acc565b6006555b60038201546007830154604080516001815260208101939093528201527ffedb0622d5d5fa46cc706a5c2c169f2bf2eb31a59ff2f70cef3096376f58c2c0906060015b60405180910390a1505050565b60008160070154600214156116a25750600b546001600160a01b03166116dc565b8160070154600314156116c15750600c546001600160a01b03166116dc565b8160070154600414156116dc5750600d546001600160a01b03165b815460028301546040516323b872dd60e01b81526001600160a01b03848116936323b872dd9361171493309390921691600401613f28565b602060405180830381600087803b15801561172e57600080fd5b505af1158015611742573d6000803e3d6000fd5b505050506040513d601f19601f820116820180604052508101906117669190613e5b565b506002820154604051633950935160e01b815230600482015260248101919091526001600160a01b03821690633950935190604401602060405180830381600087803b1580156117b557600080fd5b505af11580156117c9573d6000803e3d6000fd5b505050506040513d601f19601f820116820180604052508101906117ed9190613e5b565b5081600701546002141561181457600282015460045461180c91613acc565b600455611836565b81600701546003141561183657600282015460055461183291613acc565b6005555b81600701546004141561185857600282015460065461185491613acc565b6006555b60028201546007830154604080516000815260208101939093528201527ffedb0622d5d5fa46cc706a5c2c169f2bf2eb31a59ff2f70cef3096376f58c2c090606001611674565b336000818152601d602090815260408083208684529091529020805490916001600160a01b03909116146119205760405162461bcd60e51b815260206004820152602260248201527f7061796261636b3a204f6e6c7920626f72726f7765722063616e207061796261604482015261636b60f01b6064820152608401610bfe565b600781015460ff16156119455760405162461bcd60e51b8152600401610bfe90614237565b80600401544211156119995760405162461bcd60e51b815260206004820152601860248201527f7061796261636b3a2065786365656420647565206461746500000000000000006044820152606401610bfe565b6011546119a63385613836565b106119fd5760405162461bcd60e51b815260206004820152602160248201527f7061796261636b3a204c5456206578636565642064616e6765726f7573204c546044820152602b60f91b6064820152608401610bfe565b8060030154821015611a515760405162461bcd60e51b815260206004820152601960248201527f7061796261636b3a204e6f7420656e6f75676820746f6b656e000000000000006044820152606401610bfe565b611a6381600201548260090154613a27565b611ac15760405162461bcd60e51b815260206004820152602960248201527f7061796261636b3a206e6f7420656e6f756768206c6971756964697479206f6e6044820152680818dbdb9d1c9858dd60ba1b6064820152608401610bfe565b6000816008015460021415611ae25750600b546001600160a01b0316611b1c565b816008015460031415611b015750600c546001600160a01b0316611b1c565b816008015460041415611b1c5750600d546001600160a01b03165b6040516323b872dd60e01b81526001600160a01b038216906323b872dd90611b4c90339030908890600401613f28565b602060405180830381600087803b158015611b6657600080fd5b505af1158015611b7a573d6000803e3d6000fd5b505050506040513d601f19601f82011682018060405250810190611b9e9190613e5b565b611bba5760405162461bcd60e51b8152600401610bfe9061410c565b604051633950935160e01b8152306004820152602481018490526001600160a01b03821690633950935190604401602060405180830381600087803b158015611c0257600080fd5b505af1158015611c16573d6000803e3d6000fd5b505050506040513d601f19601f82011682018060405250810190611c3a9190613e5b565b50816008015460021415611c5d57600454611c559084613ac0565b600455611c9d565b816008015460031415611c7f57600554611c779084613ac0565b600555611c9d565b816008015460041415611c9d57600654611c999084613ac0565b6006555b6000826009015460011415611cbe57506009546001600160a01b0316611ccc565b50600a546001600160a01b03165b60028301546040516323b872dd60e01b81526001600160a01b038316916323b872dd91611d00913091339190600401613f28565b602060405180830381600087803b158015611d1a57600080fd5b505af1158015611d2e573d6000803e3d6000fd5b505050506040513d601f19601f82011682018060405250810190611d529190613e5b565b611d6e5760405162461bcd60e51b8152600401610bfe9061410c565b6002830154604051633950935160e01b815230600482015260248101919091526001600160a01b03821690633950935190604401602060405180830381600087803b158015611dbc57600080fd5b505af1158015611dd0573d6000803e3d6000fd5b505050506040513d601f19601f82011682018060405250810190611df49190613e5b565b50826009015460011415611e1b576002830154600754611e1391613acc565b600755611e30565b6002830154600354611e2c91613acc565b6003555b60078301805461ffff19166001908117909155600384015460028501546008860154600987015460408051338152602081019690965242908601526060850193909352608084019190915260a083015260c08201527f5c775973c71b408f578d06223650690e9508ab4bb549d0691ae69265b311af379060e00160405180910390a15050505050565b6000546001600160a01b03163314611ee35760405162461bcd60e51b8152600401610bfe90614169565b60148390556015829055601681905560408051848152602081018490529081018290527f5e35c511ddee3bac4f3cd917d8e465c37126e7a8a0bc5f8439a65c7676abe19b90606001611674565b6000546001600160a01b03163314611f5a5760405162461bcd60e51b8152600401610bfe90614169565b60005b601f548110156120bc576000611fa7601f8381548110611f8d57634e487b7160e01b600052603260045260246000fd5b6000918252602090912001546001600160a01b0316612b8e565b905060005b8151831015612006576000828281518110611fd757634e487b7160e01b600052603260045260246000fd5b60200260200101519050611ff381600001518260c00151613ad8565b5080611ffe816142dc565b915050611fac565b506000612047601f848154811061202d57634e487b7160e01b600052603260045260246000fd5b6000918252602090912001546001600160a01b0316612546565b905060005b81518110156120a657600082828151811061207757634e487b7160e01b600052603260045260246000fd5b6020026020010151905061209381600001518260c00151613c19565b508061209e816142dc565b91505061204c565b50505080806120b4906142dc565b915050611f5d565b50565b6000546001600160a01b031633146120e95760405162461bcd60e51b8152600401610bfe90614169565b601a8054610100600160a81b0319166101006001600160a01b038416908102919091179091556040517fefe8ab924ca486283a79dc604baa67add51afb82af1db8ac386ebbba643cdffd90600090a250565b601a54600090819061010090046001600160a01b031661216d5760405162461bcd60e51b8152600401610bfe90614092565b82600114156121925761218b612182846135c8565b60075490613a9c565b9050612207565b82600214156121b05761218b6121a7846135c8565b60045490613a9c565b82600314156121ce5761218b6121c5846135c8565b60055490613a9c565b82600414156121ec5761218b6121e3846135c8565b60065490613a9c565b82600514156122075760085460035461220491613a9c565b90505b92915050565b336000908152601b60205260408120546060919067ffffffffffffffff81111561224757634e487b7160e01b600052604160045260246000fd5b60405190808252806020026020018201604052801561228057816020015b61226d613d5d565b8152602001906001900390816122655790505b50905060005b336000908152601b6020526040902054811015610ba657336000908152601d6020908152604080832084845282529182902082516101608101845281546001600160a01b031681526001820154928101929092526002810154928201929092526003820154606082015260048201546080820152600582015460a0820152600682015460c0820152600782015460ff808216151560e084015261010091829004161515908201526008820154610120820152600990910154610140820152825183908390811061236657634e487b7160e01b600052603260045260246000fd5b6020026020010181905250808061237c906142dc565b915050612286565b6000546001600160a01b031633146123ae5760405162461bcd60e51b8152600401610bfe90614169565b60178390556018829055601981905560408051848152602081018490529081018290527f1eb993ea8e47c2ce3cb4aade30f5dbcf13db6e9a00e435ee9d7ee80a3f58788390606001611674565b6020818154811061240b57600080fd5b6000918252602090912001546001600160a01b0316905081565b6000546001600160a01b0316331461244f5760405162461bcd60e51b8152600401610bfe90614169565b60088190556040518181527f9a470bd568cbe5e7985016006c3093b3634f775e978b0ec2841ef7c634a2c2ff90602001611320565b6000805b6020548110156124ef57826001600160a01b0316602082815481106124bd57634e487b7160e01b600052603260045260246000fd5b6000918252602090912001546001600160a01b031614156124dd57600191505b806124e7816142dc565b915050612488565b5080610a0057602080546001810182556000919091527fc97bfaf2f8ee708c303a06d134f5ecd8389ae0432af62dc132a24118292866bb0180546001600160a01b0384166001600160a01b03199091161790555050565b6001600160a01b0381166000908152601b60205260408120546060919067ffffffffffffffff81111561258957634e487b7160e01b600052604160045260246000fd5b6040519080825280602002602001820160405280156125c257816020015b6125af613d5d565b8152602001906001900390816125a75790505b50905060005b6001600160a01b0384166000908152601b602052604090205481101561270b576001600160a01b038085166000908152601d60209081526040808320858452825291829020825161016081018452815490941684526001810154918401919091526002810154918301919091526003810154606083015260048101546080830152600581015460a0830152600681015460c0830152600781015460ff80821615801560e08601819052610100938490049092161515928501929092526008830154610120850152600990920154610140840152906126a95750806101000151155b80156126b85750428160800151115b156126f8576126c785836135a6565b6126f857808383815181106126ec57634e487b7160e01b600052603260045260246000fd5b60200260200101819052505b5080612703816142dc565b9150506125c8565b5092915050565b6000546001600160a01b0316331461273c5760405162461bcd60e51b8152600401610bfe90614169565b6127466000613ced565b565b336000908152601c60205260408120546060919067ffffffffffffffff81111561278257634e487b7160e01b600052604160045260246000fd5b6040519080825280602002602001820160405280156127bb57816020015b6127a8613dc4565b8152602001906001900390816127a05790505b50905060005b336000908152601c6020526040902054811015610ba657336000908152601e6020908152604080832084845282529182902082516101008101845281546001600160a01b031681526001820154928101929092526002810154928201929092526003820154606082015260048201546080820152600582015460a0820152600682015460ff16151560c082015260079091015460e0820152825183908390811061287b57634e487b7160e01b600052603260045260246000fd5b60200260200101819052508080612891906142dc565b9150506127c1565b6001600160a01b0382166000908152601d602090815260408083208484529091528120600481015482904211156128ce575060015b949350505050565b6000546001600160a01b031633146129005760405162461bcd60e51b8152600401610bfe90614169565b61290a8282613a27565b6129265760405162461bcd60e51b8152600401610bfe9061419e565b6000816001141561293f57506009546001600160a01b03165b816002141561295a5750600b546001600160a01b03166129a7565b81600314156129755750600c546001600160a01b03166129a7565b81600414156129905750600d546001600160a01b03166129a7565b81600514156129a75750600a546001600160a01b03165b6040516323b872dd60e01b81526001600160a01b038216906323b872dd906129d790309033908890600401613f28565b602060405180830381600087803b1580156129f157600080fd5b505af1158015612a05573d6000803e3d6000fd5b505050506040513d601f19601f82011682018060405250810190612a299190613e5b565b612a455760405162461bcd60e51b8152600401610bfe906140c9565b604051633950935160e01b8152306004820152602481018490526001600160a01b03821690633950935190604401602060405180830381600087803b158015612a8d57600080fd5b505af1158015612aa1573d6000803e3d6000fd5b505050506040513d601f19601f82011682018060405250810190612ac59190613e5b565b508160011415612ae457600754612adc9084613acc565b600755612b48565b8160021415612b0257600454612afa9084613acc565b600455612b48565b8160031415612b1857600554612afa9084613acc565b8160041415612b2e57600654612afa9084613acc565b8160051415612b4857600354612b449084613acc565b6004555b60408051848152602081018490527f8d7ca91ebdac6a80a88023a61a414acbf330dba3646d6d0a5cc2676bcef101ac9101611674565b601f818154811061240b57600080fd5b6001600160a01b0381166000908152601b60205260408120546060919067ffffffffffffffff811115612bd157634e487b7160e01b600052604160045260246000fd5b604051908082528060200260200182016040528015612c0a57816020015b612bf7613d5d565b815260200190600190039081612bef5790505b50905060005b6001600160a01b0384166000908152601b602052604090205481101561270b576001600160a01b038085166000908152601d60209081526040808320858452825291829020825161016081018452815490941684526001810154918401919091526002810154918301919091526003810154606083015260048101546080830152600581015460a0830152600681015460c0830152600781015460ff80821615801560e0860181905261010093849004909216151592850192909252600883015461012085015260099092015461014084015290612cf15750428160800151105b15612d235780838381518110612d1757634e487b7160e01b600052603260045260246000fd5b60200260200101819052505b5080612d2e816142dc565b915050612c10565b336000908152601c60205260408120546060919067ffffffffffffffff811115612d7057634e487b7160e01b600052604160045260246000fd5b604051908082528060200260200182016040528015612da957816020015b612d96613dc4565b815260200190600190039081612d8e5790505b50905060005b336000908152601c6020526040902054811015610ba657336000908152601e6020908152604080832084845282529182902082516101008101845281546001600160a01b031681526001820154928101929092526002810154928201929092526003820154606082015260048201546080820152600582015460a0820152600682015460ff16151560c0820181905260079092015460e082015290612e7b5780838381518110612e6f57634e487b7160e01b600052603260045260246000fd5b60200260200101819052505b5080612e86816142dc565b915050612daf565b6000546001600160a01b03163314612eb85760405162461bcd60e51b8152600401610bfe90614169565b60008160021415612ed55750600b546001600160a01b0316612f07565b8160031415612ef05750600c546001600160a01b0316612f07565b8160041415612f075750600d546001600160a01b03165b6040516323b872dd60e01b81526001600160a01b038216906323b872dd90612f3790339030908890600401613f28565b602060405180830381600087803b158015612f5157600080fd5b505af1158015612f65573d6000803e3d6000fd5b505050506040513d601f19601f82011682018060405250810190612f899190613e5b565b612fa55760405162461bcd60e51b8152600401610bfe906140c9565b604051633950935160e01b8152306004820152602481018490526001600160a01b03821690633950935190604401602060405180830381600087803b158015612fed57600080fd5b505af1158015613001573d6000803e3d6000fd5b505050506040513d601f19601f820116820180604052508101906130259190613e5b565b50476007556002821415613048576004546130409084613ac0565b600455613078565b816003141561305e576005546130409084613ac0565b8160041415613078576006546130749084613ac0565b6004555b604080518481526020810184905233917f68dcee598918c1887bfa1c13ac763d4659a12722f88a5eb920014ba1f0bc38fb910160405180910390a2505050565b600081600214156130d55750600b546001600160a01b0316613107565b81600314156130f05750600c546001600160a01b0316613107565b81600414156131075750600d546001600160a01b03165b6040516323b872dd60e01b81526001600160a01b038216906323b872dd9061313790339030908890600401613f28565b602060405180830381600087803b15801561315157600080fd5b505af1158015613165573d6000803e3d6000fd5b505050506040513d601f19601f820116820180604052508101906131899190613e5b565b6131f45760405162461bcd60e51b815260206004820152603660248201527f6c656e64546f6b656e3a205472616e7366657220746f6b656e2066726f6d20756044820152751cd95c881d1bc818dbdb9d1c9858dd0819985a5b195960521b6064820152608401610bfe565b6131fc613dc4565b338082526000908152601c6020908152604091829020549083015281018490526002831415613253576132496132426064610cb860175488613a9c90919063ffffffff16565b8590613ac0565b60608201526132a5565b8260031415613279576132496132426064610cb860185488613a9c90919063ffffffff16565b82600414156132a55761329f6132426064610cb860195488613a9c90919063ffffffff16565b60608201525b42608082018190526132ba9062278d0061426e565b60a08201908152600060c0830181815260e08401868152338352601e60209081526040808520601c83528186205486528252808520875181546001600160a01b0319166001600160a01b03909116178155918701516001830155860151600280830191909155606087015160038301556080870151600483015594516005820155915160068301805460ff19169115159190911790555160079091015581549190613364836142dc565b9091555050336000908152601c60205260408120805491613384836142dc565b9091555050604051633950935160e01b8152306004820152602481018590526001600160a01b03831690633950935190604401602060405180830381600087803b1580156133d157600080fd5b505af11580156133e5573d6000803e3d6000fd5b505050506040513d601f19601f820116820180604052508101906134099190613e5b565b508260021415613428576004546134209085613ac0565b600455613442565b82600314156134425760055461343e9085613ac0565b6005555b826004141561345c576006546134589085613ac0565b6006555b61346533612484565b80600001516001600160a01b03167f4ab15cc690495a744ed84b8955b45eb732403b222a485fa1e287db39ad05e0658260400151836060015184608001518560a001518660c001518760e001516040516134e9969594939291909586526020860194909452604085019290925260608401521515608083015260a082015260c00190565b60405180910390a250505050565b6000806000613505846135c8565b90506000613512866135c8565b905085600214156135445761353d6064613537600f548a613d3d90919063ffffffff16565b90613d51565b925061358d565b85600314156135675761353d6064613537600e548a613d3d90919063ffffffff16565b856004141561358d5761358a60646135376010548a613d3d90919063ffffffff16565b92505b61359b82610cb88584613d51565b979650505050505050565b6011546000906001906135b98585613836565b10612204575060009392505050565b601a5460009061010090046001600160a01b03166135f85760405162461bcd60e51b8152600401610bfe90614092565b6000826002141561369057601a60019054906101000a90046001600160a01b03166001600160a01b031663d63c25186040518163ffffffff1660e01b815260040160206040518083038186803b15801561365157600080fd5b505afa158015613665573d6000803e3d6000fd5b505050506040513d601f19601f820116820180604052508101906136899190613e93565b905061374c565b82600314156136e757601a60019054906101000a90046001600160a01b03166001600160a01b0316633629cf056040518163ffffffff1660e01b815260040160206040518083038186803b15801561365157600080fd5b826004141561373e57601a60019054906101000a90046001600160a01b03166001600160a01b0316630f00fa116040518163ffffffff1660e01b815260040160206040518083038186803b15801561365157600080fd5b826005141561374c57506008545b600081116122075760405162461bcd60e51b81526020600482015260196024820152781d1bdad95b881c1c9a58d9481a5cdb89dd0818dbdc9c9958dd603a1b6044820152606401610bfe565b60008060006137a6846135c8565b905060006137b3866135c8565b905085600214156137df576137d86064610cb8600f548a613a9c90919063ffffffff16565b9250613828565b8560031415613802576137d86064610cb8600e548a613a9c90919063ffffffff16565b8560041415613828576138256064610cb86010548a613a9c90919063ffffffff16565b92505b61359b81610cb88585613d51565b6001600160a01b038083166000908152601d602090815260408083208584529091528120601a54919290918391610100909104166138865760405162461bcd60e51b8152600401610bfe90614092565b600061389583600901546135c8565b9050600081116138e75760405162461bcd60e51b815260206004820152601960248201527f65746865722070726963652069736e277420636f7272656374000000000000006044820152606401610bfe565b60006138f684600801546135c8565b9050600081116139445760405162461bcd60e51b81526020600482015260196024820152781d1bdad95b881c1c9a58d9481a5cdb89dd0818dbdc9c9958dd603a1b6044820152606401610bfe565b60038401546000906139569083613a9c565b90506000613971848760020154613a9c90919063ffffffff16565b905061398260646135378484613d3d565b9998505050505050505050565b6000546001600160a01b031633146139b95760405162461bcd60e51b8152600401610bfe90614169565b6001600160a01b038116613a1e5760405162461bcd60e51b815260206004820152602660248201527f4f776e61626c653a206e6577206f776e657220697320746865207a65726f206160448201526564647265737360d01b6064820152608401610bfe565b6120bc81613ced565b6000808260011415613a3c5750600754613a80565b8260021415613a4e5750600454613a80565b8260031415613a605750600554613a80565b8260041415613a725750600654613a80565b8260051415613a8057506003545b80841115613a92576000915050612207565b6001915050612207565b6000612204670de0b6b3a7640000610cb88585613d51565b60006122048284614286565b6000612204828461426e565b600061220482846142c5565b6000546001600160a01b03163314613b025760405162461bcd60e51b8152600401610bfe90614169565b6001600160a01b0382166000908152601d602090815260408083208484529091529020600781015460ff1615613b4a5760405162461bcd60e51b8152600401610bfe90614237565b613b548383612899565b1515600114613bb05760405162461bcd60e51b815260206004820152602260248201527f776974686472617745746865723a204c6f616e206973206e6f74206578706972604482015261195960f21b6064820152608401610bfe565b60078101805461ffff1916610100179055805460028201546009830154604080516001600160a01b03909416845242602085015283019190915260608201527f158ba9ab7bbbd08eeffa4753bad41f4d450e24831d293427308badf3eadd8c7690608001611674565b6000546001600160a01b03163314613c435760405162461bcd60e51b8152600401610bfe90614169565b6001600160a01b0382166000908152601d602090815260408083208484529091529020600781015460ff1615613c8b5760405162461bcd60e51b8152600401610bfe90614237565b613c9583836135a6565b15613bb05760405162461bcd60e51b815260206004820152602260248201527f776974686472617745746865723a204c6f616e206865616c7468206973207472604482015261756560f01b6064820152608401610bfe565b600080546001600160a01b038381166001600160a01b0319831681178455604051919092169283917f8be0079c531659141344cd1fd0a4f28419497f9722a3daafe3b4186f6b6457e09190a35050565b600061220482610cb885670de0b6b3a76400005b600061220482846142a6565b60405180610160016040528060006001600160a01b0316815260200160008152602001600081526020016000815260200160008152602001600081526020016000815260200160001515815260200160001515815260200160008152602001600081525090565b60405180610100016040528060006001600160a01b031681526020016000815260200160008152602001600081526020016000815260200160008152602001600015158152602001600081525090565b600060208284031215613e25578081fd5b81356122048161430d565b60008060408385031215613e42578081fd5b8235613e4d8161430d565b946020939093013593505050565b600060208284031215613e6c578081fd5b81518015158114612204578182fd5b600060208284031215613e8c578081fd5b5035919050565b600060208284031215613ea4578081fd5b5051919050565b60008060408385031215613ebd578182fd5b50508035926020909101359150565b600080600060608486031215613ee0578081fd5b505081359360208301359350604090920135919050565b60008060008060808587031215613f0c578081fd5b5050823594602084013594506040840135936060013592509050565b6001600160a01b039384168152919092166020820152604081019190915260600190565b602080825282518282018190526000919060409081850190868401855b82811015613fd757815180516001600160a01b0316855286810151878601528581015186860152606080820151908601526080808201519086015260a0808201519086015260c08082015115159086015260e090810151908501526101009093019290850190600101613f69565b5091979650505050505050565b602080825282518282018190526000919060409081850190868401855b82811015613fd757815180516001600160a01b0316855286810151878601528581015186860152606080820151908601526080808201519086015260a0808201519086015260c0808201519086015260e08082015115159086015261010080820151151590860152610120808201519086015261014090810151908501526101609093019290850190600101614001565b6020808252601e908201527f7072696365206f7261636c652069736e277420696e697469616c697a65640000604082015260600190565b60208082526023908201527f5472616e73616374696f6e206661696c6564206f6e20696e69742066756e637460408201526234b7b760e91b606082015260800190565b60208082526039908201527f7061796261636b3a205472616e7366657220636f6c6c61746572616c2066726f60408201527f6d20636f6e747261637420746f2075736572206661696c656400000000000000606082015260800190565b6020808252818101527f4f776e61626c653a2063616c6c6572206973206e6f7420746865206f776e6572604082015260600190565b60208082526023908201527f776974684472617745746865723a206e6f7420656e6f756768206c697175696460408201526269747960e81b606082015260800190565b60208082526036908201527f6c6f616e546f6b656e3a205472616e7366657220746f6b656e2066726f6d20636040820152751bdb9d1c9858dd081d1bc81d5cd95c8819985a5b195960521b606082015260800190565b60208082526018908201527f7061796261636b3a207061796261636b20616c72656164790000000000000000604082015260600190565b60008219821115614281576142816142f7565b500190565b6000826142a157634e487b7160e01b81526012600452602481fd5b500490565b60008160001904831182151516156142c0576142c06142f7565b500290565b6000828210156142d7576142d76142f7565b500390565b60006000198214156142f0576142f06142f7565b5060010190565b634e487b7160e01b600052601160045260246000fd5b6001600160a01b03811681146120bc57600080fdfea2646970667358221220dbeb6427a532ab5f170104cf9d354df7d4ea10eceea252833dde3bf17e5b76e064736f6c63430008040033",
  "linkReferences": {},
  "deployedLinkReferences": {}
}