{
  "_format": "hh-sol-artifact-1",
  "contractName": "Loan",
  "sourceName": "contracts/Loan.sol",
  "abi": [
    {
      "inputs": [
        {
          "internalType": "address",
          "name": "_odonAddress",
          "type": "address"
        },
        {
          "internalType": "address",
          "name": "_usdcAddress",
          "type": "address"
        },
        {
          "internalType": "address",
          "name": "_usdtAddress",
          "type": "address"
        },
        {
          "internalType": "address",
          "name": "_btcAddress",
          "type": "address"
        }
      ],
      "stateMutability": "nonpayable",
      "type": "constructor"
    },
    {
      "anonymous": false,
      "inputs": [
        {
          "indexed": false,
          "internalType": "uint256",
          "name": "_usdcAPY",
          "type": "uint256"
        },
        {
          "indexed": false,
          "internalType": "uint256",
          "name": "_usdtAPY",
          "type": "uint256"
        },
        {
          "indexed": false,
          "internalType": "uint256",
          "name": "_btcAPY",
          "type": "uint256"
        }
      ],
      "name": "BorrowAPYUpdated",
      "type": "event"
    },
    {
      "anonymous": false,
      "inputs": [
        {
          "indexed": true,
          "internalType": "address",
          "name": "admin",
          "type": "address"
        },
        {
          "indexed": false,
          "internalType": "uint256",
          "name": "amount",
          "type": "uint256"
        },
        {
          "indexed": false,
          "internalType": "uint256",
          "name": "mtype",
          "type": "uint256"
        }
      ],
      "name": "InitBalance",
      "type": "event"
    },
    {
      "anonymous": false,
      "inputs": [
        {
          "indexed": false,
          "internalType": "uint256",
          "name": "_usdcAPY",
          "type": "uint256"
        },
        {
          "indexed": false,
          "internalType": "uint256",
          "name": "_usdtAPY",
          "type": "uint256"
        },
        {
          "indexed": false,
          "internalType": "uint256",
          "name": "_btcAPY",
          "type": "uint256"
        }
      ],
      "name": "LendAPYUpdated",
      "type": "event"
    },
    {
      "anonymous": false,
      "inputs": [
        {
          "indexed": false,
          "internalType": "address",
          "name": "liquidator",
          "type": "address"
        },
        {
          "indexed": false,
          "internalType": "uint256",
          "name": "liquidateTime",
          "type": "uint256"
        }
      ],
      "name": "Liquidate",
      "type": "event"
    },
    {
      "anonymous": false,
      "inputs": [
        {
          "indexed": false,
          "internalType": "uint256",
          "name": "mtype",
          "type": "uint256"
        }
      ],
      "name": "LoanDurationModeUpdated",
      "type": "event"
    },
    {
      "anonymous": false,
      "inputs": [
        {
          "indexed": true,
          "internalType": "address",
          "name": "lender",
          "type": "address"
        },
        {
          "indexed": false,
          "internalType": "uint256",
          "name": "lendAmount",
          "type": "uint256"
        },
        {
          "indexed": false,
          "internalType": "uint256",
          "name": "paybackAmount",
          "type": "uint256"
        },
        {
          "indexed": false,
          "internalType": "uint256",
          "name": "timeLend",
          "type": "uint256"
        },
        {
          "indexed": false,
          "internalType": "uint256",
          "name": "timeCanGetInterest",
          "type": "uint256"
        },
        {
          "indexed": false,
          "internalType": "bool",
          "name": "retrieved",
          "type": "bool"
        },
        {
          "indexed": false,
          "internalType": "uint256",
          "name": "mtype",
          "type": "uint256"
        }
      ],
      "name": "NewLend",
      "type": "event"
    },
    {
      "anonymous": false,
      "inputs": [
        {
          "indexed": true,
          "internalType": "address",
          "name": "borrower",
          "type": "address"
        },
        {
          "indexed": false,
          "internalType": "uint256",
          "name": "loanAmount",
          "type": "uint256"
        },
        {
          "indexed": false,
          "internalType": "uint256",
          "name": "collateralAmount",
          "type": "uint256"
        },
        {
          "indexed": false,
          "internalType": "uint256",
          "name": "paybackAmount",
          "type": "uint256"
        },
        {
          "indexed": false,
          "internalType": "uint256",
          "name": "loanDueDate",
          "type": "uint256"
        },
        {
          "indexed": false,
          "internalType": "uint256",
          "name": "duration",
          "type": "uint256"
        },
        {
          "indexed": false,
          "internalType": "uint256",
          "name": "mtype",
          "type": "uint256"
        },
        {
          "indexed": false,
          "internalType": "uint256",
          "name": "ctype",
          "type": "uint256"
        }
      ],
      "name": "NewLoan",
      "type": "event"
    },
    {
      "anonymous": false,
      "inputs": [
        {
          "indexed": false,
          "internalType": "address",
          "name": "_address",
          "type": "address"
        }
      ],
      "name": "OdonAddressUpdated",
      "type": "event"
    },
    {
      "anonymous": false,
      "inputs": [
        {
          "indexed": false,
          "internalType": "uint256",
          "name": "_price",
          "type": "uint256"
        }
      ],
      "name": "OdonPriceUpdated",
      "type": "event"
    },
    {
      "anonymous": false,
      "inputs": [
        {
          "indexed": true,
          "internalType": "address",
          "name": "previousOwner",
          "type": "address"
        },
        {
          "indexed": true,
          "internalType": "address",
          "name": "newOwner",
          "type": "address"
        }
      ],
      "name": "OwnershipTransferred",
      "type": "event"
    },
    {
      "anonymous": false,
      "inputs": [
        {
          "indexed": false,
          "internalType": "address",
          "name": "borrower",
          "type": "address"
        },
        {
          "indexed": false,
          "internalType": "bool",
          "name": "paybackSuccess",
          "type": "bool"
        },
        {
          "indexed": false,
          "internalType": "uint256",
          "name": "paybackTime",
          "type": "uint256"
        },
        {
          "indexed": false,
          "internalType": "uint256",
          "name": "paybackAmount",
          "type": "uint256"
        },
        {
          "indexed": false,
          "internalType": "uint256",
          "name": "returnCollateralAmount",
          "type": "uint256"
        },
        {
          "indexed": false,
          "internalType": "uint256",
          "name": "mtype",
          "type": "uint256"
        },
        {
          "indexed": false,
          "internalType": "uint256",
          "name": "ctype",
          "type": "uint256"
        }
      ],
      "name": "PayBack",
      "type": "event"
    },
    {
      "anonymous": false,
      "inputs": [
        {
          "indexed": true,
          "internalType": "address",
          "name": "priceOracleAddress",
          "type": "address"
        }
      ],
      "name": "PriceOracleUpdated",
      "type": "event"
    },
    {
      "anonymous": false,
      "inputs": [
        {
          "indexed": false,
          "internalType": "uint256",
          "name": "withdrawAmount",
          "type": "uint256"
        },
        {
          "indexed": false,
          "internalType": "uint256",
          "name": "mtype",
          "type": "uint256"
        }
      ],
      "name": "WithDrawReserve",
      "type": "event"
    },
    {
      "anonymous": false,
      "inputs": [
        {
          "indexed": false,
          "internalType": "bool",
          "name": "isEarnInterest",
          "type": "bool"
        },
        {
          "indexed": false,
          "internalType": "uint256",
          "name": "withdrawAmount",
          "type": "uint256"
        },
        {
          "indexed": false,
          "internalType": "uint256",
          "name": "mtype",
          "type": "uint256"
        }
      ],
      "name": "Withdraw",
      "type": "event"
    },
    {
      "inputs": [],
      "name": "AutoLiquidate",
      "outputs": [],
      "stateMutability": "nonpayable",
      "type": "function"
    },
    {
      "inputs": [
        {
          "internalType": "uint256",
          "name": "",
          "type": "uint256"
        }
      ],
      "name": "LendUserList",
      "outputs": [
        {
          "internalType": "address",
          "name": "",
          "type": "address"
        }
      ],
      "stateMutability": "view",
      "type": "function"
    },
    {
      "inputs": [
        {
          "internalType": "uint256",
          "name": "",
          "type": "uint256"
        }
      ],
      "name": "LoanUserList",
      "outputs": [
        {
          "internalType": "address",
          "name": "",
          "type": "address"
        }
      ],
      "stateMutability": "view",
      "type": "function"
    },
    {
      "inputs": [
        {
          "internalType": "address",
          "name": "_user",
          "type": "address"
        }
      ],
      "name": "addUserToLendUserList",
      "outputs": [],
      "stateMutability": "nonpayable",
      "type": "function"
    },
    {
      "inputs": [
        {
          "internalType": "address",
          "name": "_user",
          "type": "address"
        }
      ],
      "name": "addUserToLoanUserList",
      "outputs": [],
      "stateMutability": "nonpayable",
      "type": "function"
    },
    {
      "inputs": [],
      "name": "btcAddress",
      "outputs": [
        {
          "internalType": "address",
          "name": "",
          "type": "address"
        }
      ],
      "stateMutability": "view",
      "type": "function"
    },
    {
      "inputs": [],
      "name": "btcBorrowAPY",
      "outputs": [
        {
          "internalType": "uint256",
          "name": "",
          "type": "uint256"
        }
      ],
      "stateMutability": "view",
      "type": "function"
    },
    {
      "inputs": [],
      "name": "btcLTV",
      "outputs": [
        {
          "internalType": "uint256",
          "name": "",
          "type": "uint256"
        }
      ],
      "stateMutability": "view",
      "type": "function"
    },
    {
      "inputs": [],
      "name": "btcLendAPY",
      "outputs": [
        {
          "internalType": "uint256",
          "name": "",
          "type": "uint256"
        }
      ],
      "stateMutability": "view",
      "type": "function"
    },
    {
      "inputs": [],
      "name": "btcTotalLiquidity",
      "outputs": [
        {
          "internalType": "uint256",
          "name": "",
          "type": "uint256"
        }
      ],
      "stateMutability": "view",
      "type": "function"
    },
    {
      "inputs": [
        {
          "internalType": "uint256",
          "name": "_amount",
          "type": "uint256"
        },
        {
          "internalType": "uint256",
          "name": "mtype",
          "type": "uint256"
        }
      ],
      "name": "checkEnoughLiquidity",
      "outputs": [
        {
          "internalType": "bool",
          "name": "",
          "type": "bool"
        }
      ],
      "stateMutability": "view",
      "type": "function"
    },
    {
      "inputs": [
        {
          "internalType": "address",
          "name": "borrower",
          "type": "address"
        },
        {
          "internalType": "uint256",
          "name": "_id",
          "type": "uint256"
        }
      ],
      "name": "checkLoanExpire",
      "outputs": [
        {
          "internalType": "bool",
          "name": "",
          "type": "bool"
        }
      ],
      "stateMutability": "view",
      "type": "function"
    },
    {
      "inputs": [
        {
          "internalType": "address",
          "name": "_borrower",
          "type": "address"
        },
        {
          "internalType": "uint256",
          "name": "_id",
          "type": "uint256"
        }
      ],
      "name": "checkLoanHealth",
      "outputs": [
        {
          "internalType": "bool",
          "name": "",
          "type": "bool"
        }
      ],
      "stateMutability": "view",
      "type": "function"
    },
    {
      "inputs": [
        {
          "internalType": "uint256",
          "name": "lnAmount",
          "type": "uint256"
        },
        {
          "internalType": "uint256",
          "name": "mtype",
          "type": "uint256"
        },
        {
          "internalType": "uint256",
          "name": "ctype",
          "type": "uint256"
        }
      ],
      "name": "collateralAmount",
      "outputs": [
        {
          "internalType": "uint256",
          "name": "",
          "type": "uint256"
        }
      ],
      "stateMutability": "view",
      "type": "function"
    },
    {
      "inputs": [],
      "name": "dangerousLTV",
      "outputs": [
        {
          "internalType": "uint256",
          "name": "",
          "type": "uint256"
        }
      ],
      "stateMutability": "view",
      "type": "function"
    },
    {
      "inputs": [
        {
          "internalType": "uint256",
          "name": "_amount",
          "type": "uint256"
        },
        {
          "internalType": "uint256",
          "name": "mtype",
          "type": "uint256"
        }
      ],
      "name": "depositToken",
      "outputs": [],
      "stateMutability": "nonpayable",
      "type": "function"
    },
    {
      "inputs": [],
      "name": "firstAddAPY",
      "outputs": [
        {
          "internalType": "uint256",
          "name": "",
          "type": "uint256"
        }
      ],
      "stateMutability": "view",
      "type": "function"
    },
    {
      "inputs": [],
      "name": "getAllUserLoans",
      "outputs": [
        {
          "components": [
            {
              "internalType": "address",
              "name": "borrower",
              "type": "address"
            },
            {
              "internalType": "uint256",
              "name": "loanAmount",
              "type": "uint256"
            },
            {
              "internalType": "uint256",
              "name": "collateralAmount",
              "type": "uint256"
            },
            {
              "internalType": "uint256",
              "name": "paybackAmount",
              "type": "uint256"
            },
            {
              "internalType": "uint256",
              "name": "loanDueDate",
              "type": "uint256"
            },
            {
              "internalType": "uint256",
              "name": "duration",
              "type": "uint256"
            },
            {
              "internalType": "uint256",
              "name": "loanId",
              "type": "uint256"
            },
            {
              "internalType": "bool",
              "name": "isPayback",
              "type": "bool"
            },
            {
              "internalType": "bool",
              "name": "isLiquidate",
              "type": "bool"
            },
            {
              "internalType": "uint256",
              "name": "mtype",
              "type": "uint256"
            },
            {
              "internalType": "uint256",
              "name": "ctype",
              "type": "uint256"
            }
          ],
          "internalType": "struct Loan.LoanRequest[]",
          "name": "",
          "type": "tuple[]"
        }
      ],
      "stateMutability": "view",
      "type": "function"
    },
    {
      "inputs": [
        {
          "internalType": "address",
          "name": "_borrower",
          "type": "address"
        },
        {
          "internalType": "uint256",
          "name": "_id",
          "type": "uint256"
        }
      ],
      "name": "getLoansLTV",
      "outputs": [
        {
          "internalType": "uint256",
          "name": "",
          "type": "uint256"
        }
      ],
      "stateMutability": "view",
      "type": "function"
    },
    {
      "inputs": [
        {
          "internalType": "uint256",
          "name": "mtype",
          "type": "uint256"
        }
      ],
      "name": "getTokenPriceInUSD",
      "outputs": [
        {
          "internalType": "uint256",
          "name": "",
          "type": "uint256"
        }
      ],
      "stateMutability": "view",
      "type": "function"
    },
    {
      "inputs": [
        {
          "internalType": "uint256",
          "name": "mtype",
          "type": "uint256"
        }
      ],
      "name": "getTotalLiquidityInUSD",
      "outputs": [
        {
          "internalType": "uint256",
          "name": "",
          "type": "uint256"
        }
      ],
      "stateMutability": "view",
      "type": "function"
    },
    {
      "inputs": [],
      "name": "getUserAllLends",
      "outputs": [
        {
          "components": [
            {
              "internalType": "address",
              "name": "lender",
              "type": "address"
            },
            {
              "internalType": "uint256",
              "name": "lendId",
              "type": "uint256"
            },
            {
              "internalType": "uint256",
              "name": "lendAmount",
              "type": "uint256"
            },
            {
              "internalType": "uint256",
              "name": "paybackAmount",
              "type": "uint256"
            },
            {
              "internalType": "uint256",
              "name": "timeLend",
              "type": "uint256"
            },
            {
              "internalType": "uint256",
              "name": "timeCanGetInterest",
              "type": "uint256"
            },
            {
              "internalType": "bool",
              "name": "retrieved",
              "type": "bool"
            },
            {
              "internalType": "uint256",
              "name": "mtype",
              "type": "uint256"
            }
          ],
          "internalType": "struct Loan.LendRequest[]",
          "name": "",
          "type": "tuple[]"
        }
      ],
      "stateMutability": "view",
      "type": "function"
    },
    {
      "inputs": [],
      "name": "getUserNotRetrieveLend",
      "outputs": [
        {
          "components": [
            {
              "internalType": "address",
              "name": "lender",
              "type": "address"
            },
            {
              "internalType": "uint256",
              "name": "lendId",
              "type": "uint256"
            },
            {
              "internalType": "uint256",
              "name": "lendAmount",
              "type": "uint256"
            },
            {
              "internalType": "uint256",
              "name": "paybackAmount",
              "type": "uint256"
            },
            {
              "internalType": "uint256",
              "name": "timeLend",
              "type": "uint256"
            },
            {
              "internalType": "uint256",
              "name": "timeCanGetInterest",
              "type": "uint256"
            },
            {
              "internalType": "bool",
              "name": "retrieved",
              "type": "bool"
            },
            {
              "internalType": "uint256",
              "name": "mtype",
              "type": "uint256"
            }
          ],
          "internalType": "struct Loan.LendRequest[]",
          "name": "",
          "type": "tuple[]"
        }
      ],
      "stateMutability": "view",
      "type": "function"
    },
    {
      "inputs": [],
      "name": "getUserOngoingLoans",
      "outputs": [
        {
          "components": [
            {
              "internalType": "address",
              "name": "borrower",
              "type": "address"
            },
            {
              "internalType": "uint256",
              "name": "loanAmount",
              "type": "uint256"
            },
            {
              "internalType": "uint256",
              "name": "collateralAmount",
              "type": "uint256"
            },
            {
              "internalType": "uint256",
              "name": "paybackAmount",
              "type": "uint256"
            },
            {
              "internalType": "uint256",
              "name": "loanDueDate",
              "type": "uint256"
            },
            {
              "internalType": "uint256",
              "name": "duration",
              "type": "uint256"
            },
            {
              "internalType": "uint256",
              "name": "loanId",
              "type": "uint256"
            },
            {
              "internalType": "bool",
              "name": "isPayback",
              "type": "bool"
            },
            {
              "internalType": "bool",
              "name": "isLiquidate",
              "type": "bool"
            },
            {
              "internalType": "uint256",
              "name": "mtype",
              "type": "uint256"
            },
            {
              "internalType": "uint256",
              "name": "ctype",
              "type": "uint256"
            }
          ],
          "internalType": "struct Loan.LoanRequest[]",
          "name": "",
          "type": "tuple[]"
        }
      ],
      "stateMutability": "view",
      "type": "function"
    },
    {
      "inputs": [
        {
          "internalType": "address",
          "name": "borrower",
          "type": "address"
        }
      ],
      "name": "getUserOverdueLoans",
      "outputs": [
        {
          "components": [
            {
              "internalType": "address",
              "name": "borrower",
              "type": "address"
            },
            {
              "internalType": "uint256",
              "name": "loanAmount",
              "type": "uint256"
            },
            {
              "internalType": "uint256",
              "name": "collateralAmount",
              "type": "uint256"
            },
            {
              "internalType": "uint256",
              "name": "paybackAmount",
              "type": "uint256"
            },
            {
              "internalType": "uint256",
              "name": "loanDueDate",
              "type": "uint256"
            },
            {
              "internalType": "uint256",
              "name": "duration",
              "type": "uint256"
            },
            {
              "internalType": "uint256",
              "name": "loanId",
              "type": "uint256"
            },
            {
              "internalType": "bool",
              "name": "isPayback",
              "type": "bool"
            },
            {
              "internalType": "bool",
              "name": "isLiquidate",
              "type": "bool"
            },
            {
              "internalType": "uint256",
              "name": "mtype",
              "type": "uint256"
            },
            {
              "internalType": "uint256",
              "name": "ctype",
              "type": "uint256"
            }
          ],
          "internalType": "struct Loan.LoanRequest[]",
          "name": "",
          "type": "tuple[]"
        }
      ],
      "stateMutability": "view",
      "type": "function"
    },
    {
      "inputs": [
        {
          "internalType": "address",
          "name": "borrower",
          "type": "address"
        }
      ],
      "name": "getUserUnHealthLoans",
      "outputs": [
        {
          "components": [
            {
              "internalType": "address",
              "name": "borrower",
              "type": "address"
            },
            {
              "internalType": "uint256",
              "name": "loanAmount",
              "type": "uint256"
            },
            {
              "internalType": "uint256",
              "name": "collateralAmount",
              "type": "uint256"
            },
            {
              "internalType": "uint256",
              "name": "paybackAmount",
              "type": "uint256"
            },
            {
              "internalType": "uint256",
              "name": "loanDueDate",
              "type": "uint256"
            },
            {
              "internalType": "uint256",
              "name": "duration",
              "type": "uint256"
            },
            {
              "internalType": "uint256",
              "name": "loanId",
              "type": "uint256"
            },
            {
              "internalType": "bool",
              "name": "isPayback",
              "type": "bool"
            },
            {
              "internalType": "bool",
              "name": "isLiquidate",
              "type": "bool"
            },
            {
              "internalType": "uint256",
              "name": "mtype",
              "type": "uint256"
            },
            {
              "internalType": "uint256",
              "name": "ctype",
              "type": "uint256"
            }
          ],
          "internalType": "struct Loan.LoanRequest[]",
          "name": "",
          "type": "tuple[]"
        }
      ],
      "stateMutability": "view",
      "type": "function"
    },
    {
      "inputs": [
        {
          "internalType": "uint256",
          "name": "_amount",
          "type": "uint256"
        },
        {
          "internalType": "uint256",
          "name": "mtype",
          "type": "uint256"
        }
      ],
      "name": "init",
      "outputs": [],
      "stateMutability": "nonpayable",
      "type": "function"
    },
    {
      "inputs": [],
      "name": "lendCount",
      "outputs": [
        {
          "internalType": "uint256",
          "name": "",
          "type": "uint256"
        }
      ],
      "stateMutability": "view",
      "type": "function"
    },
    {
      "inputs": [
        {
          "internalType": "uint256",
          "name": "_amount",
          "type": "uint256"
        },
        {
          "internalType": "uint256",
          "name": "mtype",
          "type": "uint256"
        }
      ],
      "name": "lendToken",
      "outputs": [],
      "stateMutability": "nonpayable",
      "type": "function"
    },
    {
      "inputs": [
        {
          "internalType": "address",
          "name": "",
          "type": "address"
        },
        {
          "internalType": "uint256",
          "name": "",
          "type": "uint256"
        }
      ],
      "name": "lends",
      "outputs": [
        {
          "internalType": "address",
          "name": "lender",
          "type": "address"
        },
        {
          "internalType": "uint256",
          "name": "lendId",
          "type": "uint256"
        },
        {
          "internalType": "uint256",
          "name": "lendAmount",
          "type": "uint256"
        },
        {
          "internalType": "uint256",
          "name": "paybackAmount",
          "type": "uint256"
        },
        {
          "internalType": "uint256",
          "name": "timeLend",
          "type": "uint256"
        },
        {
          "internalType": "uint256",
          "name": "timeCanGetInterest",
          "type": "uint256"
        },
        {
          "internalType": "bool",
          "name": "retrieved",
          "type": "bool"
        },
        {
          "internalType": "uint256",
          "name": "mtype",
          "type": "uint256"
        }
      ],
      "stateMutability": "view",
      "type": "function"
    },
    {
      "inputs": [
        {
          "internalType": "uint256",
          "name": "_amount",
          "type": "uint256"
        },
        {
          "internalType": "uint256",
          "name": "_duration",
          "type": "uint256"
        },
        {
          "internalType": "uint256",
          "name": "mtype",
          "type": "uint256"
        },
        {
          "internalType": "uint256",
          "name": "ctype",
          "type": "uint256"
        }
      ],
      "name": "loan",
      "outputs": [],
      "stateMutability": "nonpayable",
      "type": "function"
    },
    {
      "inputs": [
        {
          "internalType": "uint256",
          "name": "colAmount",
          "type": "uint256"
        },
        {
          "internalType": "uint256",
          "name": "mtype",
          "type": "uint256"
        },
        {
          "internalType": "uint256",
          "name": "ctype",
          "type": "uint256"
        }
      ],
      "name": "loanAmount",
      "outputs": [
        {
          "internalType": "uint256",
          "name": "",
          "type": "uint256"
        }
      ],
      "stateMutability": "view",
      "type": "function"
    },
    {
      "inputs": [],
      "name": "loanCount",
      "outputs": [
        {
          "internalType": "uint256",
          "name": "",
          "type": "uint256"
        }
      ],
      "stateMutability": "view",
      "type": "function"
    },
    {
      "inputs": [],
      "name": "loanMode",
      "outputs": [
        {
          "internalType": "uint256",
          "name": "",
          "type": "uint256"
        }
      ],
      "stateMutability": "view",
      "type": "function"
    },
    {
      "inputs": [
        {
          "internalType": "address",
          "name": "",
          "type": "address"
        },
        {
          "internalType": "uint256",
          "name": "",
          "type": "uint256"
        }
      ],
      "name": "loans",
      "outputs": [
        {
          "internalType": "address",
          "name": "borrower",
          "type": "address"
        },
        {
          "internalType": "uint256",
          "name": "loanAmount",
          "type": "uint256"
        },
        {
          "internalType": "uint256",
          "name": "collateralAmount",
          "type": "uint256"
        },
        {
          "internalType": "uint256",
          "name": "paybackAmount",
          "type": "uint256"
        },
        {
          "internalType": "uint256",
          "name": "loanDueDate",
          "type": "uint256"
        },
        {
          "internalType": "uint256",
          "name": "duration",
          "type": "uint256"
        },
        {
          "internalType": "uint256",
          "name": "loanId",
          "type": "uint256"
        },
        {
          "internalType": "bool",
          "name": "isPayback",
          "type": "bool"
        },
        {
          "internalType": "bool",
          "name": "isLiquidate",
          "type": "bool"
        },
        {
          "internalType": "uint256",
          "name": "mtype",
          "type": "uint256"
        },
        {
          "internalType": "uint256",
          "name": "ctype",
          "type": "uint256"
        }
      ],
      "stateMutability": "view",
      "type": "function"
    },
    {
      "inputs": [],
      "name": "movrAddress",
      "outputs": [
        {
          "internalType": "address",
          "name": "",
          "type": "address"
        }
      ],
      "stateMutability": "view",
      "type": "function"
    },
    {
      "inputs": [],
      "name": "odonAddress",
      "outputs": [
        {
          "internalType": "address",
          "name": "",
          "type": "address"
        }
      ],
      "stateMutability": "view",
      "type": "function"
    },
    {
      "inputs": [],
      "name": "odonPrice",
      "outputs": [
        {
          "internalType": "uint256",
          "name": "",
          "type": "uint256"
        }
      ],
      "stateMutability": "view",
      "type": "function"
    },
    {
      "inputs": [],
      "name": "odonTotalLiquidity",
      "outputs": [
        {
          "internalType": "uint256",
          "name": "",
          "type": "uint256"
        }
      ],
      "stateMutability": "view",
      "type": "function"
    },
    {
      "inputs": [],
      "name": "owner",
      "outputs": [
        {
          "internalType": "address",
          "name": "",
          "type": "address"
        }
      ],
      "stateMutability": "view",
      "type": "function"
    },
    {
      "inputs": [
        {
          "internalType": "uint256",
          "name": "_id",
          "type": "uint256"
        },
        {
          "internalType": "uint256",
          "name": "_amount",
          "type": "uint256"
        }
      ],
      "name": "payback",
      "outputs": [],
      "stateMutability": "nonpayable",
      "type": "function"
    },
    {
      "inputs": [],
      "name": "renounceOwnership",
      "outputs": [],
      "stateMutability": "nonpayable",
      "type": "function"
    },
    {
      "inputs": [],
      "name": "secondAddAPY",
      "outputs": [
        {
          "internalType": "uint256",
          "name": "",
          "type": "uint256"
        }
      ],
      "stateMutability": "view",
      "type": "function"
    },
    {
      "inputs": [
        {
          "internalType": "uint256",
          "name": "_usdcapy",
          "type": "uint256"
        },
        {
          "internalType": "uint256",
          "name": "_usdtapy",
          "type": "uint256"
        },
        {
          "internalType": "uint256",
          "name": "_btcapy",
          "type": "uint256"
        }
      ],
      "name": "setBorrowAPY",
      "outputs": [],
      "stateMutability": "nonpayable",
      "type": "function"
    },
    {
      "inputs": [
        {
          "internalType": "uint256",
          "name": "_usdcapy",
          "type": "uint256"
        },
        {
          "internalType": "uint256",
          "name": "_usdtapy",
          "type": "uint256"
        },
        {
          "internalType": "uint256",
          "name": "_btcapy",
          "type": "uint256"
        }
      ],
      "name": "setLendAPY",
      "outputs": [],
      "stateMutability": "nonpayable",
      "type": "function"
    },
    {
      "inputs": [
        {
          "internalType": "uint256",
          "name": "mtype",
          "type": "uint256"
        }
      ],
      "name": "setLoanDurationMode",
      "outputs": [],
      "stateMutability": "nonpayable",
      "type": "function"
    },
    {
      "inputs": [
        {
          "internalType": "address",
          "name": "_address",
          "type": "address"
        }
      ],
      "name": "setOdonAddress",
      "outputs": [],
      "stateMutability": "nonpayable",
      "type": "function"
    },
    {
      "inputs": [
        {
          "internalType": "uint256",
          "name": "_price",
          "type": "uint256"
        }
      ],
      "name": "setPriceOdon",
      "outputs": [],
      "stateMutability": "nonpayable",
      "type": "function"
    },
    {
      "inputs": [
        {
          "internalType": "contract PriceConsumerV3",
          "name": "_oracle",
          "type": "address"
        }
      ],
      "name": "setPriceOracle",
      "outputs": [],
      "stateMutability": "nonpayable",
      "type": "function"
    },
    {
      "inputs": [],
      "name": "totalLiquidity",
      "outputs": [
        {
          "internalType": "uint256",
          "name": "",
          "type": "uint256"
        }
      ],
      "stateMutability": "view",
      "type": "function"
    },
    {
      "inputs": [
        {
          "internalType": "address",
          "name": "newOwner",
          "type": "address"
        }
      ],
      "name": "transferOwnership",
      "outputs": [],
      "stateMutability": "nonpayable",
      "type": "function"
    },
    {
      "inputs": [],
      "name": "usdcAddress",
      "outputs": [
        {
          "internalType": "address",
          "name": "",
          "type": "address"
        }
      ],
      "stateMutability": "view",
      "type": "function"
    },
    {
      "inputs": [],
      "name": "usdcBorrowAPY",
      "outputs": [
        {
          "internalType": "uint256",
          "name": "",
          "type": "uint256"
        }
      ],
      "stateMutability": "view",
      "type": "function"
    },
    {
      "inputs": [],
      "name": "usdcLTV",
      "outputs": [
        {
          "internalType": "uint256",
          "name": "",
          "type": "uint256"
        }
      ],
      "stateMutability": "view",
      "type": "function"
    },
    {
      "inputs": [],
      "name": "usdcLendAPY",
      "outputs": [
        {
          "internalType": "uint256",
          "name": "",
          "type": "uint256"
        }
      ],
      "stateMutability": "view",
      "type": "function"
    },
    {
      "inputs": [],
      "name": "usdcTotalLiquidity",
      "outputs": [
        {
          "internalType": "uint256",
          "name": "",
          "type": "uint256"
        }
      ],
      "stateMutability": "view",
      "type": "function"
    },
    {
      "inputs": [],
      "name": "usdtAddress",
      "outputs": [
        {
          "internalType": "address",
          "name": "",
          "type": "address"
        }
      ],
      "stateMutability": "view",
      "type": "function"
    },
    {
      "inputs": [],
      "name": "usdtBorrowAPY",
      "outputs": [
        {
          "internalType": "uint256",
          "name": "",
          "type": "uint256"
        }
      ],
      "stateMutability": "view",
      "type": "function"
    },
    {
      "inputs": [],
      "name": "usdtLTV",
      "outputs": [
        {
          "internalType": "uint256",
          "name": "",
          "type": "uint256"
        }
      ],
      "stateMutability": "view",
      "type": "function"
    },
    {
      "inputs": [],
      "name": "usdtLendAPY",
      "outputs": [
        {
          "internalType": "uint256",
          "name": "",
          "type": "uint256"
        }
      ],
      "stateMutability": "view",
      "type": "function"
    },
    {
      "inputs": [],
      "name": "usdtTotalLiquidity",
      "outputs": [
        {
          "internalType": "uint256",
          "name": "",
          "type": "uint256"
        }
      ],
      "stateMutability": "view",
      "type": "function"
    },
    {
      "inputs": [
        {
          "internalType": "address",
          "name": "",
          "type": "address"
        }
      ],
      "name": "userLendsCount",
      "outputs": [
        {
          "internalType": "uint256",
          "name": "",
          "type": "uint256"
        }
      ],
      "stateMutability": "view",
      "type": "function"
    },
    {
      "inputs": [
        {
          "internalType": "address",
          "name": "",
          "type": "address"
        }
      ],
      "name": "userLoansCount",
      "outputs": [
        {
          "internalType": "uint256",
          "name": "",
          "type": "uint256"
        }
      ],
      "stateMutability": "view",
      "type": "function"
    },
    {
      "inputs": [
        {
          "internalType": "uint256",
          "name": "_amount",
          "type": "uint256"
        },
        {
          "internalType": "uint256",
          "name": "mtype",
          "type": "uint256"
        }
      ],
      "name": "withDrawReserve",
      "outputs": [],
      "stateMutability": "nonpayable",
      "type": "function"
    },
    {
      "inputs": [
        {
          "internalType": "uint256",
          "name": "_id",
          "type": "uint256"
        }
      ],
      "name": "withdraw",
      "outputs": [],
      "stateMutability": "nonpayable",
      "type": "function"
    }
  ],
  "bytecode": "0x6080604052624c4b406008556803860e639d80640000600e556803afb087b876900000600f556802ed6689e54f18000060105568049b9ca9a6943400006011556729a2241af62c0000601255674563918244f40000601355678ac7230489e800006014556798a7d9b8314c000060155567a688906bd8b00000601655674563918244f400006017556753444835ec580000601855676f05b59d3b2000006019556001601a55348015620000b157600080fd5b50604051620046e7380380620046e7833981016040819052620000d491620001c3565b620000df3362000156565b6000600181905560028190556007819055600481905560038190556005819055600655600a80546001600160a01b039586166001600160a01b031991821617909155600b805494861694821694909417909355600c805492851692841692909217909155600d80549190931691161790556200021f565b600080546001600160a01b038381166001600160a01b0319831681178455604051919092169283917f8be0079c531659141344cd1fd0a4f28419497f9722a3daafe3b4186f6b6457e09190a35050565b80516001600160a01b0381168114620001be57600080fd5b919050565b60008060008060808587031215620001d9578384fd5b620001e485620001a6565b9350620001f460208601620001a6565b92506200020460408601620001a6565b91506200021460608601620001a6565b905092959194509250565b6144b8806200022f6000396000f3fe608060405234801561001057600080fd5b50600436106103da5760003560e01c80636ef9855b1161020a578063b04b022a11610125578063d9d0befc116100b8578063ee9e580011610087578063ee9e580014610926578063f2fde38b14610939578063f6c5dded1461094c578063f7d76ae514610955578063fe3af3ea1461096857600080fd5b8063d9d0befc146108e4578063df62dbbe146108f7578063e15a6d6a14610900578063e7e96dc51461091357600080fd5b8063d3235306116100f4578063d3235306146108a2578063d3c9e2c9146108b5578063d3f72d10146108c8578063d5a0b65d146108d157600080fd5b8063b04b022a14610874578063cdb2409a14610887578063cdbc87f614610890578063ce63094d1461089957600080fd5b8063973c7d451161019d578063a12af8961161016c578063a12af89614610833578063a557b17d14610846578063a5843f081461084e578063ae5c8fca1461086157600080fd5b8063973c7d451461071957806398c61c371461072c5780639ab4a4451461080d5780639d2d04d11461082057600080fd5b80637f026f15116101d95780637f026f15146106b25780638443bccc146106d55780638a6a29a0146106e85780638da5cb5b1461070857600080fd5b80636ef9855b14610683578063715018a61461068c57806371d1a70114610694578063725cab5d146106a957600080fd5b8063439b3543116102fa57806364282ecd1161028d578063699e0f561161025c578063699e0f56146106415780636b32991e1461064a5780636c6ac5911461065d5780636ccbf7581461067057600080fd5b806364282ecd14610609578063648809901461061257806365440cef14610625578063693a961d1461062e57600080fd5b806353068056116102c957806353068056146105d2578063530e784f146105db57806353bbfefa146105ee57806360089fca1461060157600080fd5b8063439b3543146104e457806349a4485d146105975780634c0a79fb146105aa57806351bcca5e146105ca57600080fd5b806329055efc116103725780632d1fabec116103415780632d1fabec146104a25780632e1a7d4d146104b55780632e6a1830146104c85780633583de13146104d157600080fd5b806329055efc14610474578063295dea731461048757806329b53f85146104905780632b84a68d1461049957600080fd5b80630bf1644e116103ae5780630bf1644e1461044457806315770f921461044d578063168c738c1461045657806320ec1ff51461046b57600080fd5b806208001a146103df57806302d45457146103fb578063048422a51461042657806309e3136f1461043b575b600080fd5b6103e860195481565b6040519081526020015b60405180910390f35b600b5461040e906001600160a01b031681565b6040516001600160a01b0390911681526020016103f2565b610439610434366004613f7f565b61097b565b005b6103e8601a5481565b6103e860125481565b6103e860075481565b61045e610a3c565b6040516103f29190614168565b6103e860175481565b610439610482366004614062565b610bf9565b6103e860135481565b6103e860035481565b6103e860045481565b6104396104b0366004613fe6565b6113b0565b6104396104c3366004613fe6565b611416565b6103e860165481565b6104396104df366004614016565b6119a1565b6105506104f2366004613f9b565b601f602090815260009283526040808420909152908252902080546001820154600283015460038401546004850154600586015460068701546007909701546001600160a01b03909616969495939492939192909160ff9091169088565b604080516001600160a01b0390991689526020890197909752958701949094526060860192909252608085015260a0840152151560c083015260e0820152610100016103f2565b6104396105a5366004614037565b611fe8565b6103e86105b8366004613f7f565b601c6020526000908152604090205481565b61043961205f565b6103e8600f5481565b6104396105e9366004613f7f565b6121dd565b6103e86105fc366004613fe6565b612251565b61045e61231e565b6103e860065481565b610439610620366004614037565b612495565b6103e860055481565b61040e61063c366004613fe6565b61250c565b6103e860025481565b610439610658366004613fe6565b612536565b61043961066b366004613f7f565b612595565b61045e61067e366004613f7f565b612657565b6103e860155481565b610439612824565b61069c61285a565b6040516103f291906140d0565b6103e860145481565b6106c56106c0366004613f9b565b6129ab565b60405190151581526020016103f2565b6104396106e3366004614016565b6129e8565b6103e86106f6366004613f7f565b601d6020526000908152604090205481565b6000546001600160a01b031661040e565b61040e610727366004613fe6565b612cdc565b6107ac61073a366004613f9b565b601e60209081526000928352604080842090915290825290208054600182015460028301546003840154600485015460058601546006870154600788015460088901546009909901546001600160a01b039098169896979596949593949293919260ff8083169361010090930416918b565b604080516001600160a01b03909c168c5260208c019a909a52988a01979097526060890195909552608088019390935260a087019190915260c0860152151560e08501521515610100840152610120830152610140820152610160016103f2565b600c5461040e906001600160a01b031681565b61043961082e366004614016565b612cec565b61045e610841366004613f7f565b612ef6565b61069c61309e565b61043961085c366004614016565b6131f6565b61043961086f366004614016565b613417565b600a5461040e906001600160a01b031681565b6103e860105481565b6103e860115481565b6103e860015481565b6103e86108b0366004614037565b613807565b6106c56108c3366004613f9b565b6138b6565b6103e8600e5481565b6103e86108df366004613fe6565b6138d8565b6103e86108f2366004614037565b613aa3565b6103e860185481565b6103e861090e366004613f9b565b613b41565b610439610921366004613f7f565b613c94565b60095461040e906001600160a01b031681565b610439610947366004613f7f565b613d0c565b6103e860085481565b600d5461040e906001600160a01b031681565b6106c5610976366004614016565b613da7565b6000805b6020548110156109e657826001600160a01b0316602082815481106109b457634e487b7160e01b600052603260045260246000fd5b6000918252602090912001546001600160a01b031614156109d457600191505b806109de8161443c565b91505061097f565b5080610a3857602080546001810182556000919091527fc97bfaf2f8ee708c303a06d134f5ecd8389ae0432af62dc132a24118292866bb0180546001600160a01b0319166001600160a01b0384161790555b5050565b336000908152601c60205260408120546060919067ffffffffffffffff811115610a7657634e487b7160e01b600052604160045260246000fd5b604051908082528060200260200182016040528015610aaf57816020015b610a9c613ec8565b815260200190600190039081610a945790505b50905060005b336000908152601c6020526040902054811015610bf357336000908152601e6020908152604080832084845282529182902082516101608101845281546001600160a01b031681526001820154928101929092526002810154928201929092526003820154606082015260048201546080820152600582015460a0820152600682015460c0820152600782015460ff80821615801560e085018190526101009384900490921615159284019290925260088401546101208401526009909301546101408301529091610b8a5750806101000151155b8015610b9a575042816080015110155b15610be057610ba933836138b6565b151560011415610be05780838381518110610bd457634e487b7160e01b600052603260045260246000fd5b60200260200101819052505b5080610beb8161443c565b915050610ab5565b50919050565b610c038483613da7565b610c545760405162461bcd60e51b815260206004820152601f60248201527f6c6f616e45746865723a206e6f7420656e6f756768206c69717569646974790060448201526064015b60405180910390fd5b610c5c613ec8565b33815260208101859052610c71858484613807565b604080830191909152336000908152601c6020529081205460c083015260e082018190526101008201819052610120820184905261014082018390526002841415610cbf5750601454610cdf565b8360031415610cd15750601554610cdf565b8360041415610cdf57506016545b601a5460011415610e14578460071415610d3757610d12610d0b6064610d058985613e1c565b90613e34565b8790613e40565b6060830152610d244262093a806143ce565b608083015262093a8060a0830152610f7b565b84600e1415610d8557610d60610d0b6064610d0584601254610d5991906143ce565b8a90613e1c565b6060830152610d7242621275006143ce565b60808301526212750060a0830152610f7b565b84601e1415610dcc57610da7610d0b6064610d0584601354610d5991906143ce565b6060830152610db94262278d006143ce565b608083015262278d0060a0830152610f7b565b60405162461bcd60e51b815260206004820152601d60248201527f6c6f616e546f6b656e3a206e6f2076616c6964206475726174696f6e210000006044820152606401610c4b565b601a5460021415610ec85784601e1415610e3a57610da7610d0b6064610d058985613e1c565b84603c1415610e8157610e5c610d0b6064610d0584601254610d5991906143ce565b6060830152610e6e42624f1a006143ce565b6080830152624f1a0060a0830152610f7b565b84605a1415610dcc57610ea3610d0b6064610d0584601354610d5991906143ce565b6060830152610eb5426276a7006143ce565b60808301526276a70060a0830152610f7b565b601a5460031415610f7b5784605a1415610eee57610ea3610d0b6064610d058985613e1c565b8460b41415610f3557610f10610d0b6064610d0584601254610d5991906143ce565b6060830152610f224262ed4e006143ce565b608083015262ed4e0060a0830152610f7b565b846101681415610dcc57610f58610d0b6064610d0584601354610d5991906143ce565b6060830152610f6b426301da9c006143ce565b60808301526301da9c0060a08301525b6000836001146110b35750600a5460408084015190516323b872dd60e01b81526001600160a01b039092169182916323b872dd91610fc0913391309190600401614093565b602060405180830381600087803b158015610fda57600080fd5b505af1158015610fee573d6000803e3d6000fd5b505050506040513d601f19601f820116820180604052508101906110129190613fc6565b61102e5760405162461bcd60e51b8152600401610c4b90614378565b6040808401519051633950935160e01b81526001600160a01b0383169163395093519161105f9130916004016140b7565b602060405180830381600087803b15801561107957600080fd5b505af115801561108d573d6000803e3d6000fd5b505050506040513d601f19601f820116820180604052508101906110b19190613fc6565b505b83600114156110c1576110d6565b60408301516003546110d291613e40565b6003555b600085600214156110f35750600b546001600160a01b0316611125565b856003141561110e5750600c546001600160a01b0316611125565b85600414156111255750600d546001600160a01b03165b6040516323b872dd60e01b81526001600160a01b038216906323b872dd9061115590309033908d90600401614093565b602060405180830381600087803b15801561116f57600080fd5b505af1158015611183573d6000803e3d6000fd5b505050506040513d601f19601f820116820180604052508101906111a79190613fc6565b6111c35760405162461bcd60e51b8152600401610c4b90614378565b85600214156111e1576004546111d99089613e4c565b600455611219565b85600314156111ff576005546111f79089613e4c565b600555611219565b8560041415611219576006546112159089613e4c565b6006555b336000908152601e60209081526040808320601c83528184205484528252808320875181546001600160a01b03919091166001600160a01b031990911617815591870151600180840191909155908701516002830155606087015160038301556080870151600483015560a0870151600583015560c0870151600683015560e0870151600783018054610100808b015115150261ff00199315159390931661ffff199091161791909117905561012087015160088301556101408701516009909201919091558054916112eb8361443c565b9091555050336000908152601c6020526040812080549161130b8361443c565b9190505550336001600160a01b03167fd3d220740d3967bbabbce5a2d2be80cf584799db8de046928f1b6d1d7500b45e85602001518660400151876060015188608001518960a001518a61012001518b610140015160405161139e9796959493929190968752602087019590955260408601939093526060850191909152608084015260a083015260c082015260e00190565b60405180910390a25050505050505050565b6000546001600160a01b031633146113da5760405162461bcd60e51b8152600401610c4b90614343565b601a8190556040518181527f4d5a4bfab3f36cd8f68133a2361e410afb6899ac665938f88ee5e1abb15fec45906020015b60405180910390a150565b336000908152601f602090815260408083208484529091529020600681015460ff16156114855760405162461bcd60e51b815260206004820181905260248201527f77697468647261773a204c656e642072657175657374207265747269657665646044820152606401610c4b565b80546001600160a01b031633146114e95760405162461bcd60e51b815260206004820152602260248201527f77697468647261773a204f6e6c79206c656e6465722063616e20776974686472604482015261617760f01b6064820152608401610c4b565b6114fb81600201548260070154613da7565b6115475760405162461bcd60e51b815260206004820152601e60248201527f77697468647261773a206e6f7420656e6f756768206c697175696469747900006044820152606401610c4b565b60068101805460ff1916600117905560058101544211156117865760008160070154600214156115835750600b546001600160a01b03166115bd565b8160070154600314156115a25750600c546001600160a01b03166115bd565b8160070154600414156115bd5750600d546001600160a01b03165b815460038301546040516323b872dd60e01b81526001600160a01b03848116936323b872dd936115f593309390921691600401614093565b602060405180830381600087803b15801561160f57600080fd5b505af1158015611623573d6000803e3d6000fd5b505050506040513d601f19601f820116820180604052508101906116479190613fc6565b506003820154604051633950935160e01b81526001600160a01b038316916339509351916116799130916004016140b7565b602060405180830381600087803b15801561169357600080fd5b505af11580156116a7573d6000803e3d6000fd5b505050506040513d601f19601f820116820180604052508101906116cb9190613fc6565b508160070154600214156116f25760038201546004546116ea91613e4c565b600455611714565b81600701546003141561171457600382015460055461171091613e4c565b6005555b81600701546004141561173657600382015460065461173291613e4c565b6006555b60038201546007830154604080516001815260208101939093528201527ffedb0622d5d5fa46cc706a5c2c169f2bf2eb31a59ff2f70cef3096376f58c2c0906060015b60405180910390a1505050565b60008160070154600214156117a75750600b546001600160a01b03166117e1565b8160070154600314156117c65750600c546001600160a01b03166117e1565b8160070154600414156117e15750600d546001600160a01b03165b815460028301546040516323b872dd60e01b81526001600160a01b03848116936323b872dd9361181993309390921691600401614093565b602060405180830381600087803b15801561183357600080fd5b505af1158015611847573d6000803e3d6000fd5b505050506040513d601f19601f8201168201806040525081019061186b9190613fc6565b506002820154604051633950935160e01b81526001600160a01b0383169163395093519161189d9130916004016140b7565b602060405180830381600087803b1580156118b757600080fd5b505af11580156118cb573d6000803e3d6000fd5b505050506040513d601f19601f820116820180604052508101906118ef9190613fc6565b5081600701546002141561191657600282015460045461190e91613e4c565b600455611938565b81600701546003141561193857600282015460055461193491613e4c565b6005555b81600701546004141561195a57600282015460065461195691613e4c565b6006555b60028201546007830154604080516000815260208101939093528201527ffedb0622d5d5fa46cc706a5c2c169f2bf2eb31a59ff2f70cef3096376f58c2c090606001611779565b336000818152601e602090815260408083208684529091529020805490916001600160a01b0390911614611a225760405162461bcd60e51b815260206004820152602260248201527f7061796261636b3a204f6e6c7920626f72726f7765722063616e207061796261604482015261636b60f01b6064820152608401610c4b565b600781015460ff1615611a775760405162461bcd60e51b815260206004820152601860248201527f7061796261636b3a207061796261636b20616c726561647900000000000000006044820152606401610c4b565b8060040154421115611acb5760405162461bcd60e51b815260206004820152601860248201527f7061796261636b3a2065786365656420647565206461746500000000000000006044820152606401610c4b565b601154611ad83385613b41565b10611b2f5760405162461bcd60e51b815260206004820152602160248201527f7061796261636b3a204c5456206578636565642064616e6765726f7573204c546044820152602b60f91b6064820152608401610c4b565b8060030154821015611b835760405162461bcd60e51b815260206004820152601960248201527f7061796261636b3a204e6f7420656e6f75676820746f6b656e000000000000006044820152606401610c4b565b611b9581600201548260090154613da7565b611bf35760405162461bcd60e51b815260206004820152602960248201527f7061796261636b3a206e6f7420656e6f756768206c6971756964697479206f6e6044820152680818dbdb9d1c9858dd60ba1b6064820152608401610c4b565b6000816008015460021415611c145750600b546001600160a01b0316611c4e565b816008015460031415611c335750600c546001600160a01b0316611c4e565b816008015460041415611c4e5750600d546001600160a01b03165b6040516323b872dd60e01b81526001600160a01b038216906323b872dd90611c7e90339030908890600401614093565b602060405180830381600087803b158015611c9857600080fd5b505af1158015611cac573d6000803e3d6000fd5b505050506040513d601f19601f82011682018060405250810190611cd09190613fc6565b611cec5760405162461bcd60e51b8152600401610c4b906142e6565b604051633950935160e01b81526001600160a01b03821690633950935190611d1a90309087906004016140b7565b602060405180830381600087803b158015611d3457600080fd5b505af1158015611d48573d6000803e3d6000fd5b505050506040513d601f19601f82011682018060405250810190611d6c9190613fc6565b50816008015460021415611d8f57600454611d879084613e40565b600455611dcf565b816008015460031415611db157600554611da99084613e40565b600555611dcf565b816008015460041415611dcf57600654611dcb9084613e40565b6006555b6000826009015460011415611df057506009546001600160a01b0316611dfe565b50600a546001600160a01b03165b60028301546040516323b872dd60e01b81526001600160a01b038316916323b872dd91611e32913091339190600401614093565b602060405180830381600087803b158015611e4c57600080fd5b505af1158015611e60573d6000803e3d6000fd5b505050506040513d601f19601f82011682018060405250810190611e849190613fc6565b611ea05760405162461bcd60e51b8152600401610c4b906142e6565b6002830154604051633950935160e01b81526001600160a01b03831691633950935191611ed19130916004016140b7565b602060405180830381600087803b158015611eeb57600080fd5b505af1158015611eff573d6000803e3d6000fd5b505050506040513d601f19601f82011682018060405250810190611f239190613fc6565b50826009015460011415611f4a576002830154600754611f4291613e4c565b600755611f5f565b6002830154600354611f5b91613e4c565b6003555b60078301805461ffff19166001908117909155600384015460028501546008860154600987015460408051338152602081019690965242908601526060850193909352608084019190915260a083015260c08201527f5c775973c71b408f578d06223650690e9508ab4bb549d0691ae69265b311af379060e00160405180910390a15050505050565b6000546001600160a01b031633146120125760405162461bcd60e51b8152600401610c4b90614343565b60148390556015829055601681905560408051848152602081018490529081018290527f5e35c511ddee3bac4f3cd917d8e465c37126e7a8a0bc5f8439a65c7676abe19b90606001611779565b6000546001600160a01b031633146120895760405162461bcd60e51b8152600401610c4b90614343565b60005b6020548110156121a1576000602082815481106120b957634e487b7160e01b600052603260045260246000fd5b60009182526020822001546001600160a01b031691505b6001600160a01b0382166000908152601c602052604090205481101561218c576001600160a01b0382166000908152601e602090815260408083208484529091529020600781015460ff1615801561213257506007810154610100900460ff16155b156121795742816004015410156121595760078101805461ffff1916610100179055612179565b61216383836138b6565b6121795760078101805461ffff19166101001790555b50806121848161443c565b9150506120d0565b505080806121999061443c565b91505061208c565b507f08813a3631e12129135cc9440d3fea50eec346f1673b20b994b0456d5d46ccb933426040516121d39291906140b7565b60405180910390a1565b6000546001600160a01b031633146122075760405162461bcd60e51b8152600401610c4b90614343565b601b80546001600160a01b0319166001600160a01b0383169081179091556040517fefe8ab924ca486283a79dc604baa67add51afb82af1db8ac386ebbba643cdffd90600090a250565b601b5460009081906001600160a01b031661227e5760405162461bcd60e51b8152600401610c4b90614216565b82600114156122a35761229c612293846138d8565b60075490613e1c565b9050612318565b82600214156122c15761229c6122b8846138d8565b60045490613e1c565b82600314156122df5761229c6122d6846138d8565b60055490613e1c565b82600414156122fd5761229c6122f4846138d8565b60065490613e1c565b82600514156123185760085460035461231591613e1c565b90505b92915050565b336000908152601c60205260408120546060919067ffffffffffffffff81111561235857634e487b7160e01b600052604160045260246000fd5b60405190808252806020026020018201604052801561239157816020015b61237e613ec8565b8152602001906001900390816123765790505b50905060005b336000908152601c6020526040902054811015610bf357336000908152601e6020908152604080832084845282529182902082516101608101845281546001600160a01b031681526001820154928101929092526002810154928201929092526003820154606082015260048201546080820152600582015460a0820152600682015460c0820152600782015460ff808216151560e084015261010091829004161515908201526008820154610120820152600990910154610140820152825183908390811061247757634e487b7160e01b600052603260045260246000fd5b6020026020010181905250808061248d9061443c565b915050612397565b6000546001600160a01b031633146124bf5760405162461bcd60e51b8152600401610c4b90614343565b60178390556018829055601981905560408051848152602081018490529081018290527f1eb993ea8e47c2ce3cb4aade30f5dbcf13db6e9a00e435ee9d7ee80a3f58788390606001611779565b6021818154811061251c57600080fd5b6000918252602090912001546001600160a01b0316905081565b6000546001600160a01b031633146125605760405162461bcd60e51b8152600401610c4b90614343565b60088190556040518181527f9a470bd568cbe5e7985016006c3093b3634f775e978b0ec2841ef7c634a2c2ff9060200161140b565b6000805b60215481101561260057826001600160a01b0316602182815481106125ce57634e487b7160e01b600052603260045260246000fd5b6000918252602090912001546001600160a01b031614156125ee57600191505b806125f88161443c565b915050612599565b5080610a3857602180546001810182556000919091527f3a6357012c1a3ae0a17d304c9920310382d968ebcc4b1771f41c6b304205b5700180546001600160a01b0384166001600160a01b03199091161790555050565b6001600160a01b0381166000908152601c60205260408120546060919067ffffffffffffffff81111561269a57634e487b7160e01b600052604160045260246000fd5b6040519080825280602002602001820160405280156126d357816020015b6126c0613ec8565b8152602001906001900390816126b85790505b50905060005b6001600160a01b0384166000908152601c602052604090205481101561281d576001600160a01b038085166000908152601e60209081526040808320858452825291829020825161016081018452815490941684526001810154918401919091526002810154918301919091526003810154606083015260048101546080830152600581015460a0830152600681015460c0830152600781015460ff80821615801560e08601819052610100938490049092161515928501929092526008830154610120850152600990920154610140840152906127ba5750806101000151155b80156127ca575042816080015110155b1561280a576127d985836138b6565b61280a57808383815181106127fe57634e487b7160e01b600052603260045260246000fd5b60200260200101819052505b50806128158161443c565b9150506126d9565b5092915050565b6000546001600160a01b0316331461284e5760405162461bcd60e51b8152600401610c4b90614343565b6128586000613e58565b565b336000908152601d60205260408120546060919067ffffffffffffffff81111561289457634e487b7160e01b600052604160045260246000fd5b6040519080825280602002602001820160405280156128cd57816020015b6128ba613f2f565b8152602001906001900390816128b25790505b50905060005b336000908152601d6020526040902054811015610bf357336000908152601f6020908152604080832084845282529182902082516101008101845281546001600160a01b031681526001820154928101929092526002810154928201929092526003820154606082015260048201546080820152600582015460a0820152600682015460ff16151560c082015260079091015460e0820152825183908390811061298d57634e487b7160e01b600052603260045260246000fd5b602002602001018190525080806129a39061443c565b9150506128d3565b6001600160a01b0382166000908152601e602090815260408083208484529091528120600481015482904211156129e0575060015b949350505050565b6000546001600160a01b03163314612a125760405162461bcd60e51b8152600401610c4b90614343565b612a1c8282613da7565b612a745760405162461bcd60e51b815260206004820152602360248201527f776974684472617745746865723a206e6f7420656e6f756768206c697175696460448201526269747960e81b6064820152608401610c4b565b60008160011415612a8d57506009546001600160a01b03165b8160021415612aa85750600b546001600160a01b0316612af5565b8160031415612ac35750600c546001600160a01b0316612af5565b8160041415612ade5750600d546001600160a01b0316612af5565b8160051415612af55750600a546001600160a01b03165b6040516323b872dd60e01b81526001600160a01b038216906323b872dd90612b2590309033908890600401614093565b602060405180830381600087803b158015612b3f57600080fd5b505af1158015612b53573d6000803e3d6000fd5b505050506040513d601f19601f82011682018060405250810190612b779190613fc6565b612b935760405162461bcd60e51b8152600401610c4b906142a3565b604051633950935160e01b81526001600160a01b03821690633950935190612bc190309087906004016140b7565b602060405180830381600087803b158015612bdb57600080fd5b505af1158015612bef573d6000803e3d6000fd5b505050506040513d601f19601f82011682018060405250810190612c139190613fc6565b508160011415612c3257600754612c2a9084613e4c565b600755612ca6565b8160021415612c5057600454612c489084613e4c565b600455612ca6565b8160031415612c6e57600554612c669084613e4c565b600555612ca6565b8160041415612c8c57600654612c849084613e4c565b600655612ca6565b8160051415612ca657600354612ca29084613e4c565b6003555b60408051848152602081018490527f8d7ca91ebdac6a80a88023a61a414acbf330dba3646d6d0a5cc2676bcef101ac9101611779565b6020818154811061251c57600080fd5b60008160021415612d095750600b546001600160a01b0316612d3b565b8160031415612d245750600c546001600160a01b0316612d3b565b8160041415612d3b5750600d546001600160a01b03165b6040516323b872dd60e01b81526001600160a01b038216906323b872dd90612d6b90339030908890600401614093565b602060405180830381600087803b158015612d8557600080fd5b505af1158015612d99573d6000803e3d6000fd5b505050506040513d601f19601f82011682018060405250810190612dbd9190613fc6565b612dd95760405162461bcd60e51b8152600401610c4b9061424d565b604051633950935160e01b81526001600160a01b03821690633950935190612e0790309087906004016140b7565b602060405180830381600087803b158015612e2157600080fd5b505af1158015612e35573d6000803e3d6000fd5b505050506040513d601f19601f82011682018060405250810190612e599190613fc6565b508160021415612e7857600454612e709084613e40565b600455612e92565b8160031415612e9257600554612e8e9084613e40565b6005555b8160041415612eac57600654612ea89084613e40565b6006555b612eb533612595565b604080518481526020810184905233917f68dcee598918c1887bfa1c13ac763d4659a12722f88a5eb920014ba1f0bc38fb91015b60405180910390a2505050565b6001600160a01b0381166000908152601c60205260408120546060919067ffffffffffffffff811115612f3957634e487b7160e01b600052604160045260246000fd5b604051908082528060200260200182016040528015612f7257816020015b612f5f613ec8565b815260200190600190039081612f575790505b50905060005b6001600160a01b0384166000908152601c602052604090205481101561281d576001600160a01b038085166000908152601e60209081526040808320858452825291829020825161016081018452815490941684526001810154918401919091526002810154918301919091526003810154606083015260048101546080830152600581015460a0830152600681015460c0830152600781015460ff80821615801560e08601819052610100938490049092161515928501929092526008830154610120850152600990920154610140840152906130595750428160800151105b1561308b578083838151811061307f57634e487b7160e01b600052603260045260246000fd5b60200260200101819052505b50806130968161443c565b915050612f78565b336000908152601d60205260408120546060919067ffffffffffffffff8111156130d857634e487b7160e01b600052604160045260246000fd5b60405190808252806020026020018201604052801561311157816020015b6130fe613f2f565b8152602001906001900390816130f65790505b50905060005b336000908152601d6020526040902054811015610bf357336000908152601f6020908152604080832084845282529182902082516101008101845281546001600160a01b031681526001820154928101929092526002810154928201929092526003820154606082015260048201546080820152600582015460a0820152600682015460ff16151560c0820181905260079092015460e0820152906131e357808383815181106131d757634e487b7160e01b600052603260045260246000fd5b60200260200101819052505b50806131ee8161443c565b915050613117565b6000546001600160a01b031633146132205760405162461bcd60e51b8152600401610c4b90614343565b6000816002141561323d5750600b546001600160a01b031661326f565b81600314156132585750600c546001600160a01b031661326f565b816004141561326f5750600d546001600160a01b03165b6040516323b872dd60e01b81526001600160a01b038216906323b872dd9061329f90339030908890600401614093565b602060405180830381600087803b1580156132b957600080fd5b505af11580156132cd573d6000803e3d6000fd5b505050506040513d601f19601f820116820180604052508101906132f19190613fc6565b61330d5760405162461bcd60e51b8152600401610c4b906142a3565b604051633950935160e01b81526001600160a01b0382169063395093519061333b90309087906004016140b7565b602060405180830381600087803b15801561335557600080fd5b505af1158015613369573d6000803e3d6000fd5b505050506040513d601f19601f8201168201806040525081019061338d9190613fc6565b504760075560028214156133b0576004546133a89084613e40565b600455612eb5565b81600314156133c6576005546133a89084613e40565b8160041415612eb5576006546133dc9084613e40565b600455604080518481526020810184905233917f68dcee598918c1887bfa1c13ac763d4659a12722f88a5eb920014ba1f0bc38fb9101612ee9565b600081600214156134345750600b546001600160a01b0316613466565b816003141561344f5750600c546001600160a01b0316613466565b81600414156134665750600d546001600160a01b03165b6040516323b872dd60e01b81526001600160a01b038216906323b872dd9061349690339030908890600401614093565b602060405180830381600087803b1580156134b057600080fd5b505af11580156134c4573d6000803e3d6000fd5b505050506040513d601f19601f820116820180604052508101906134e89190613fc6565b6135045760405162461bcd60e51b8152600401610c4b9061424d565b61350c613f2f565b338082526000908152601d6020908152604091829020549083015281018490526002831415613563576135596135526064610d0560175488613e1c90919063ffffffff16565b8590613e40565b60608201526135b5565b8260031415613589576135596135526064610d0560185488613e1c90919063ffffffff16565b82600414156135b5576135af6135526064610d0560195488613e1c90919063ffffffff16565b60608201525b42608082018190526135ca9062278d006143ce565b60a08201908152600060c0830181815260e08401868152338352601f60209081526040808520601d83528186205486528252808520875181546001600160a01b0319166001600160a01b03909116178155918701516001830155860151600280830191909155606087015160038301556080870151600483015594516005820155915160068301805460ff191691151591909117905551600790910155815491906136748361443c565b9091555050336000908152601d602052604081208054916136948361443c565b9091555050604051633950935160e01b81526001600160a01b038316906339509351906136c790309088906004016140b7565b602060405180830381600087803b1580156136e157600080fd5b505af11580156136f5573d6000803e3d6000fd5b505050506040513d601f19601f820116820180604052508101906137199190613fc6565b508260021415613738576004546137309085613e40565b600455613752565b82600314156137525760055461374e9085613e40565b6005555b826004141561376c576006546137689085613e40565b6006555b61377533612595565b80600001516001600160a01b03167f4ab15cc690495a744ed84b8955b45eb732403b222a485fa1e287db39ad05e0658260400151836060015184608001518560a001518660c001518760e001516040516137f9969594939291909586526020860194909452604085019290925260608401521515608083015260a082015260c00190565b60405180910390a250505050565b6000806000613815846138d8565b90506000613822866138d8565b905085600214156138545761384d6064613847600f548a613ea890919063ffffffff16565b90613ebc565b925061389d565b85600314156138775761384d6064613847600e548a613ea890919063ffffffff16565b856004141561389d5761389a60646138476010548a613ea890919063ffffffff16565b92505b6138ab82610d058584613ebc565b979650505050505050565b6011546000906001906138c98585613b41565b10612315575060009392505050565b601b546000906001600160a01b03166139035760405162461bcd60e51b8152600401610c4b90614216565b6000826002141561399b57601b60009054906101000a90046001600160a01b03166001600160a01b031663d63c25186040518163ffffffff1660e01b815260040160206040518083038186803b15801561395c57600080fd5b505afa158015613970573d6000803e3d6000fd5b505050506040513d601f19601f820116820180604052508101906139949190613ffe565b9050613a57565b82600314156139f257601b60009054906101000a90046001600160a01b03166001600160a01b0316633629cf056040518163ffffffff1660e01b815260040160206040518083038186803b15801561395c57600080fd5b8260041415613a4957601b60009054906101000a90046001600160a01b03166001600160a01b0316630f00fa116040518163ffffffff1660e01b815260040160206040518083038186803b15801561395c57600080fd5b8260051415613a5757506008545b600081116123185760405162461bcd60e51b81526020600482015260196024820152781d1bdad95b881c1c9a58d9481a5cdb89dd0818dbdc9c9958dd603a1b6044820152606401610c4b565b6000806000613ab1846138d8565b90506000613abe866138d8565b90508560021415613aea57613ae36064610d05600f548a613e1c90919063ffffffff16565b9250613b33565b8560031415613b0d57613ae36064610d05600e548a613e1c90919063ffffffff16565b8560041415613b3357613b306064610d056010548a613e1c90919063ffffffff16565b92505b6138ab81610d058585613ebc565b6001600160a01b038083166000908152601e602090815260408083208584529091528120601b5491929091839116613b8b5760405162461bcd60e51b8152600401610c4b90614216565b6000613b9a83600901546138d8565b905060008111613bec5760405162461bcd60e51b815260206004820152601960248201527f65746865722070726963652069736e277420636f7272656374000000000000006044820152606401610c4b565b6000613bfb84600801546138d8565b905060008111613c495760405162461bcd60e51b81526020600482015260196024820152781d1bdad95b881c1c9a58d9481a5cdb89dd0818dbdc9c9958dd603a1b6044820152606401610c4b565b6003840154600090613c5b9083613ebc565b90506000613c76848760020154613ebc90919063ffffffff16565b9050613c8760646138478484613ea8565b9998505050505050505050565b6000546001600160a01b03163314613cbe5760405162461bcd60e51b8152600401610c4b90614343565b600a80546001600160a01b0319166001600160a01b0383169081179091556040519081527f055f64f86bb937fd3f0cdc4ca34eed15bf4c3c616514e9268ec252955c452d889060200161140b565b6000546001600160a01b03163314613d365760405162461bcd60e51b8152600401610c4b90614343565b6001600160a01b038116613d9b5760405162461bcd60e51b815260206004820152602660248201527f4f776e61626c653a206e6577206f776e657220697320746865207a65726f206160448201526564647265737360d01b6064820152608401610c4b565b613da481613e58565b50565b6000808260011415613dbc5750600754613e00565b8260021415613dce5750600454613e00565b8260031415613de05750600554613e00565b8260041415613df25750600654613e00565b8260051415613e0057506003545b80841115613e12576000915050612318565b6001915050612318565b6000612315670de0b6b3a7640000610d058585613ebc565b600061231582846143e6565b600061231582846143ce565b60006123158284614425565b600080546001600160a01b038381166001600160a01b0319831681178455604051919092169283917f8be0079c531659141344cd1fd0a4f28419497f9722a3daafe3b4186f6b6457e09190a35050565b600061231582610d0585670de0b6b3a76400005b60006123158284614406565b60405180610160016040528060006001600160a01b0316815260200160008152602001600081526020016000815260200160008152602001600081526020016000815260200160001515815260200160001515815260200160008152602001600081525090565b60405180610100016040528060006001600160a01b031681526020016000815260200160008152602001600081526020016000815260200160008152602001600015158152602001600081525090565b600060208284031215613f90578081fd5b81356123158161446d565b60008060408385031215613fad578081fd5b8235613fb88161446d565b946020939093013593505050565b600060208284031215613fd7578081fd5b81518015158114612315578182fd5b600060208284031215613ff7578081fd5b5035919050565b60006020828403121561400f578081fd5b5051919050565b60008060408385031215614028578182fd5b50508035926020909101359150565b60008060006060848603121561404b578081fd5b505081359360208301359350604090920135919050565b60008060008060808587031215614077578081fd5b5050823594602084013594506040840135936060013592509050565b6001600160a01b039384168152919092166020820152604081019190915260600190565b6001600160a01b03929092168252602082015260400190565b602080825282518282018190526000919060409081850190868401855b8281101561415b57815180516001600160a01b0316855286810151878601528581015186860152606080820151908601526080808201519086015260a0808201519086015260c08082015115159086015260e0908101519085015261010090930192908501906001016140ed565b5091979650505050505050565b602080825282518282018190526000919060409081850190868401855b8281101561415b57815180516001600160a01b0316855286810151878601528581015186860152606080820151908601526080808201519086015260a0808201519086015260c0808201519086015260e08082015115159086015261010080820151151590860152610120808201519086015261014090810151908501526101609093019290850190600101614185565b6020808252601e908201527f7072696365206f7261636c652069736e277420696e697469616c697a65640000604082015260600190565b60208082526036908201527f6c656e64546f6b656e3a205472616e7366657220746f6b656e2066726f6d20756040820152751cd95c881d1bc818dbdb9d1c9858dd0819985a5b195960521b606082015260800190565b60208082526023908201527f5472616e73616374696f6e206661696c6564206f6e20696e69742066756e637460408201526234b7b760e91b606082015260800190565b60208082526039908201527f7061796261636b3a205472616e7366657220636f6c6c61746572616c2066726f60408201527f6d20636f6e747261637420746f2075736572206661696c656400000000000000606082015260800190565b6020808252818101527f4f776e61626c653a2063616c6c6572206973206e6f7420746865206f776e6572604082015260600190565b60208082526036908201527f6c6f616e546f6b656e3a205472616e7366657220746f6b656e2066726f6d20636040820152751bdb9d1c9858dd081d1bc81d5cd95c8819985a5b195960521b606082015260800190565b600082198211156143e1576143e1614457565b500190565b60008261440157634e487b7160e01b81526012600452602481fd5b500490565b600081600019048311821515161561442057614420614457565b500290565b60008282101561443757614437614457565b500390565b600060001982141561445057614450614457565b5060010190565b634e487b7160e01b600052601160045260246000fd5b6001600160a01b0381168114613da457600080fdfea2646970667358221220c9b803012984d3b0ac904f037c27a4c680bf08caaa5d3b7b3393aebcad2b41a264736f6c63430008040033",
  "linkReferences": {},
  "deployedLinkReferences": {}
}