{
  "_format": "hh-sol-artifact-1",
  "contractName": "Loan",
  "sourceName": "contracts/Loan.sol",
  "abi": [
    {
      "inputs": [
        {
          "internalType": "address",
          "name": "_odonAddress",
          "type": "address"
        },
        {
          "internalType": "address",
          "name": "_usdcAddress",
          "type": "address"
        },
        {
          "internalType": "address",
          "name": "_usdtAddress",
          "type": "address"
        },
        {
          "internalType": "address",
          "name": "_btcAddress",
          "type": "address"
        }
      ],
      "stateMutability": "nonpayable",
      "type": "constructor"
    },
    {
      "anonymous": false,
      "inputs": [
        {
          "indexed": false,
          "internalType": "uint256",
          "name": "_usdcAPY",
          "type": "uint256"
        },
        {
          "indexed": false,
          "internalType": "uint256",
          "name": "_usdtAPY",
          "type": "uint256"
        },
        {
          "indexed": false,
          "internalType": "uint256",
          "name": "_btcAPY",
          "type": "uint256"
        }
      ],
      "name": "BorrowAPYUpdated",
      "type": "event"
    },
    {
      "anonymous": false,
      "inputs": [
        {
          "indexed": true,
          "internalType": "address",
          "name": "admin",
          "type": "address"
        },
        {
          "indexed": false,
          "internalType": "uint256",
          "name": "amount",
          "type": "uint256"
        },
        {
          "indexed": false,
          "internalType": "uint256",
          "name": "mtype",
          "type": "uint256"
        }
      ],
      "name": "InitBalance",
      "type": "event"
    },
    {
      "anonymous": false,
      "inputs": [
        {
          "indexed": false,
          "internalType": "uint256",
          "name": "_usdcAPY",
          "type": "uint256"
        },
        {
          "indexed": false,
          "internalType": "uint256",
          "name": "_usdtAPY",
          "type": "uint256"
        },
        {
          "indexed": false,
          "internalType": "uint256",
          "name": "_btcAPY",
          "type": "uint256"
        }
      ],
      "name": "LendAPYUpdated",
      "type": "event"
    },
    {
      "anonymous": false,
      "inputs": [
        {
          "indexed": false,
          "internalType": "address",
          "name": "borrower",
          "type": "address"
        },
        {
          "indexed": false,
          "internalType": "uint256",
          "name": "liquidateTime",
          "type": "uint256"
        },
        {
          "indexed": false,
          "internalType": "uint256",
          "name": "liquidateAmount",
          "type": "uint256"
        },
        {
          "indexed": false,
          "internalType": "uint256",
          "name": "ctype",
          "type": "uint256"
        }
      ],
      "name": "Liquidate",
      "type": "event"
    },
    {
      "anonymous": false,
      "inputs": [
        {
          "indexed": false,
          "internalType": "uint256",
          "name": "mtype",
          "type": "uint256"
        }
      ],
      "name": "LoanDurationModeUpdated",
      "type": "event"
    },
    {
      "anonymous": false,
      "inputs": [
        {
          "indexed": true,
          "internalType": "address",
          "name": "lender",
          "type": "address"
        },
        {
          "indexed": false,
          "internalType": "uint256",
          "name": "lendAmount",
          "type": "uint256"
        },
        {
          "indexed": false,
          "internalType": "uint256",
          "name": "paybackAmount",
          "type": "uint256"
        },
        {
          "indexed": false,
          "internalType": "uint256",
          "name": "timeLend",
          "type": "uint256"
        },
        {
          "indexed": false,
          "internalType": "uint256",
          "name": "timeCanGetInterest",
          "type": "uint256"
        },
        {
          "indexed": false,
          "internalType": "bool",
          "name": "retrieved",
          "type": "bool"
        },
        {
          "indexed": false,
          "internalType": "uint256",
          "name": "mtype",
          "type": "uint256"
        }
      ],
      "name": "NewLend",
      "type": "event"
    },
    {
      "anonymous": false,
      "inputs": [
        {
          "indexed": true,
          "internalType": "address",
          "name": "borrower",
          "type": "address"
        },
        {
          "indexed": false,
          "internalType": "uint256",
          "name": "loanAmount",
          "type": "uint256"
        },
        {
          "indexed": false,
          "internalType": "uint256",
          "name": "collateralAmount",
          "type": "uint256"
        },
        {
          "indexed": false,
          "internalType": "uint256",
          "name": "paybackAmount",
          "type": "uint256"
        },
        {
          "indexed": false,
          "internalType": "uint256",
          "name": "loanDueDate",
          "type": "uint256"
        },
        {
          "indexed": false,
          "internalType": "uint256",
          "name": "duration",
          "type": "uint256"
        },
        {
          "indexed": false,
          "internalType": "uint256",
          "name": "mtype",
          "type": "uint256"
        },
        {
          "indexed": false,
          "internalType": "uint256",
          "name": "ctype",
          "type": "uint256"
        }
      ],
      "name": "NewLoan",
      "type": "event"
    },
    {
      "anonymous": false,
      "inputs": [
        {
          "indexed": false,
          "internalType": "uint256",
          "name": "_price",
          "type": "uint256"
        }
      ],
      "name": "OdonPriceUpdated",
      "type": "event"
    },
    {
      "anonymous": false,
      "inputs": [
        {
          "indexed": true,
          "internalType": "address",
          "name": "previousOwner",
          "type": "address"
        },
        {
          "indexed": true,
          "internalType": "address",
          "name": "newOwner",
          "type": "address"
        }
      ],
      "name": "OwnershipTransferred",
      "type": "event"
    },
    {
      "anonymous": false,
      "inputs": [
        {
          "indexed": false,
          "internalType": "address",
          "name": "borrower",
          "type": "address"
        },
        {
          "indexed": false,
          "internalType": "bool",
          "name": "paybackSuccess",
          "type": "bool"
        },
        {
          "indexed": false,
          "internalType": "uint256",
          "name": "paybackTime",
          "type": "uint256"
        },
        {
          "indexed": false,
          "internalType": "uint256",
          "name": "paybackAmount",
          "type": "uint256"
        },
        {
          "indexed": false,
          "internalType": "uint256",
          "name": "returnCollateralAmount",
          "type": "uint256"
        },
        {
          "indexed": false,
          "internalType": "uint256",
          "name": "mtype",
          "type": "uint256"
        },
        {
          "indexed": false,
          "internalType": "uint256",
          "name": "ctype",
          "type": "uint256"
        }
      ],
      "name": "PayBack",
      "type": "event"
    },
    {
      "anonymous": false,
      "inputs": [
        {
          "indexed": true,
          "internalType": "address",
          "name": "priceOracleAddress",
          "type": "address"
        }
      ],
      "name": "PriceOracleUpdated",
      "type": "event"
    },
    {
      "anonymous": false,
      "inputs": [
        {
          "indexed": false,
          "internalType": "uint256",
          "name": "withdrawAmount",
          "type": "uint256"
        },
        {
          "indexed": false,
          "internalType": "uint256",
          "name": "mtype",
          "type": "uint256"
        }
      ],
      "name": "WithDrawReserve",
      "type": "event"
    },
    {
      "anonymous": false,
      "inputs": [
        {
          "indexed": false,
          "internalType": "bool",
          "name": "isEarnInterest",
          "type": "bool"
        },
        {
          "indexed": false,
          "internalType": "uint256",
          "name": "withdrawAmount",
          "type": "uint256"
        },
        {
          "indexed": false,
          "internalType": "uint256",
          "name": "mtype",
          "type": "uint256"
        }
      ],
      "name": "Withdraw",
      "type": "event"
    },
    {
      "inputs": [],
      "name": "AutoLiquidate",
      "outputs": [],
      "stateMutability": "nonpayable",
      "type": "function"
    },
    {
      "inputs": [
        {
          "internalType": "uint256",
          "name": "",
          "type": "uint256"
        }
      ],
      "name": "LendUserList",
      "outputs": [
        {
          "internalType": "address",
          "name": "",
          "type": "address"
        }
      ],
      "stateMutability": "view",
      "type": "function"
    },
    {
      "inputs": [
        {
          "internalType": "uint256",
          "name": "",
          "type": "uint256"
        }
      ],
      "name": "LoanUserList",
      "outputs": [
        {
          "internalType": "address",
          "name": "",
          "type": "address"
        }
      ],
      "stateMutability": "view",
      "type": "function"
    },
    {
      "inputs": [
        {
          "internalType": "address",
          "name": "_user",
          "type": "address"
        }
      ],
      "name": "addUserToLendUserList",
      "outputs": [],
      "stateMutability": "nonpayable",
      "type": "function"
    },
    {
      "inputs": [
        {
          "internalType": "address",
          "name": "_user",
          "type": "address"
        }
      ],
      "name": "addUserToLoanUserList",
      "outputs": [],
      "stateMutability": "nonpayable",
      "type": "function"
    },
    {
      "inputs": [],
      "name": "btcAddress",
      "outputs": [
        {
          "internalType": "address",
          "name": "",
          "type": "address"
        }
      ],
      "stateMutability": "view",
      "type": "function"
    },
    {
      "inputs": [],
      "name": "btcBorrowAPY",
      "outputs": [
        {
          "internalType": "uint256",
          "name": "",
          "type": "uint256"
        }
      ],
      "stateMutability": "view",
      "type": "function"
    },
    {
      "inputs": [],
      "name": "btcLTV",
      "outputs": [
        {
          "internalType": "uint256",
          "name": "",
          "type": "uint256"
        }
      ],
      "stateMutability": "view",
      "type": "function"
    },
    {
      "inputs": [],
      "name": "btcLendAPY",
      "outputs": [
        {
          "internalType": "uint256",
          "name": "",
          "type": "uint256"
        }
      ],
      "stateMutability": "view",
      "type": "function"
    },
    {
      "inputs": [],
      "name": "btcTotalLiquidity",
      "outputs": [
        {
          "internalType": "uint256",
          "name": "",
          "type": "uint256"
        }
      ],
      "stateMutability": "view",
      "type": "function"
    },
    {
      "inputs": [
        {
          "internalType": "uint256",
          "name": "_amount",
          "type": "uint256"
        },
        {
          "internalType": "uint256",
          "name": "mtype",
          "type": "uint256"
        }
      ],
      "name": "checkEnoughLiquidity",
      "outputs": [
        {
          "internalType": "bool",
          "name": "",
          "type": "bool"
        }
      ],
      "stateMutability": "view",
      "type": "function"
    },
    {
      "inputs": [
        {
          "internalType": "address",
          "name": "borrower",
          "type": "address"
        },
        {
          "internalType": "uint256",
          "name": "_id",
          "type": "uint256"
        }
      ],
      "name": "checkLoanExpire",
      "outputs": [
        {
          "internalType": "bool",
          "name": "",
          "type": "bool"
        }
      ],
      "stateMutability": "view",
      "type": "function"
    },
    {
      "inputs": [
        {
          "internalType": "address",
          "name": "_borrower",
          "type": "address"
        },
        {
          "internalType": "uint256",
          "name": "_id",
          "type": "uint256"
        }
      ],
      "name": "checkLoanHealth",
      "outputs": [
        {
          "internalType": "bool",
          "name": "",
          "type": "bool"
        }
      ],
      "stateMutability": "view",
      "type": "function"
    },
    {
      "inputs": [
        {
          "internalType": "uint256",
          "name": "lnAmount",
          "type": "uint256"
        },
        {
          "internalType": "uint256",
          "name": "mtype",
          "type": "uint256"
        },
        {
          "internalType": "uint256",
          "name": "ctype",
          "type": "uint256"
        }
      ],
      "name": "collateralAmount",
      "outputs": [
        {
          "internalType": "uint256",
          "name": "",
          "type": "uint256"
        }
      ],
      "stateMutability": "view",
      "type": "function"
    },
    {
      "inputs": [],
      "name": "dangerousLTV",
      "outputs": [
        {
          "internalType": "uint256",
          "name": "",
          "type": "uint256"
        }
      ],
      "stateMutability": "view",
      "type": "function"
    },
    {
      "inputs": [
        {
          "internalType": "uint256",
          "name": "_amount",
          "type": "uint256"
        },
        {
          "internalType": "uint256",
          "name": "mtype",
          "type": "uint256"
        }
      ],
      "name": "depositToken",
      "outputs": [],
      "stateMutability": "nonpayable",
      "type": "function"
    },
    {
      "inputs": [],
      "name": "firstAddAPY",
      "outputs": [
        {
          "internalType": "uint256",
          "name": "",
          "type": "uint256"
        }
      ],
      "stateMutability": "view",
      "type": "function"
    },
    {
      "inputs": [],
      "name": "getAllUserLoans",
      "outputs": [
        {
          "components": [
            {
              "internalType": "address",
              "name": "borrower",
              "type": "address"
            },
            {
              "internalType": "uint256",
              "name": "loanAmount",
              "type": "uint256"
            },
            {
              "internalType": "uint256",
              "name": "collateralAmount",
              "type": "uint256"
            },
            {
              "internalType": "uint256",
              "name": "paybackAmount",
              "type": "uint256"
            },
            {
              "internalType": "uint256",
              "name": "loanDueDate",
              "type": "uint256"
            },
            {
              "internalType": "uint256",
              "name": "duration",
              "type": "uint256"
            },
            {
              "internalType": "uint256",
              "name": "loanId",
              "type": "uint256"
            },
            {
              "internalType": "bool",
              "name": "isPayback",
              "type": "bool"
            },
            {
              "internalType": "bool",
              "name": "isLiquidate",
              "type": "bool"
            },
            {
              "internalType": "uint256",
              "name": "mtype",
              "type": "uint256"
            },
            {
              "internalType": "uint256",
              "name": "ctype",
              "type": "uint256"
            }
          ],
          "internalType": "struct Loan.LoanRequest[]",
          "name": "",
          "type": "tuple[]"
        }
      ],
      "stateMutability": "view",
      "type": "function"
    },
    {
      "inputs": [
        {
          "internalType": "address",
          "name": "_borrower",
          "type": "address"
        },
        {
          "internalType": "uint256",
          "name": "_id",
          "type": "uint256"
        }
      ],
      "name": "getLoansLTV",
      "outputs": [
        {
          "internalType": "uint256",
          "name": "",
          "type": "uint256"
        }
      ],
      "stateMutability": "view",
      "type": "function"
    },
    {
      "inputs": [
        {
          "internalType": "uint256",
          "name": "mtype",
          "type": "uint256"
        }
      ],
      "name": "getTokenPriceInUSD",
      "outputs": [
        {
          "internalType": "uint256",
          "name": "",
          "type": "uint256"
        }
      ],
      "stateMutability": "view",
      "type": "function"
    },
    {
      "inputs": [
        {
          "internalType": "uint256",
          "name": "mtype",
          "type": "uint256"
        }
      ],
      "name": "getTotalLiquidityInUSD",
      "outputs": [
        {
          "internalType": "uint256",
          "name": "",
          "type": "uint256"
        }
      ],
      "stateMutability": "view",
      "type": "function"
    },
    {
      "inputs": [],
      "name": "getUserAllLends",
      "outputs": [
        {
          "components": [
            {
              "internalType": "address",
              "name": "lender",
              "type": "address"
            },
            {
              "internalType": "uint256",
              "name": "lendId",
              "type": "uint256"
            },
            {
              "internalType": "uint256",
              "name": "lendAmount",
              "type": "uint256"
            },
            {
              "internalType": "uint256",
              "name": "paybackAmount",
              "type": "uint256"
            },
            {
              "internalType": "uint256",
              "name": "timeLend",
              "type": "uint256"
            },
            {
              "internalType": "uint256",
              "name": "timeCanGetInterest",
              "type": "uint256"
            },
            {
              "internalType": "bool",
              "name": "retrieved",
              "type": "bool"
            },
            {
              "internalType": "uint256",
              "name": "mtype",
              "type": "uint256"
            }
          ],
          "internalType": "struct Loan.LendRequest[]",
          "name": "",
          "type": "tuple[]"
        }
      ],
      "stateMutability": "view",
      "type": "function"
    },
    {
      "inputs": [],
      "name": "getUserNotRetrieveLend",
      "outputs": [
        {
          "components": [
            {
              "internalType": "address",
              "name": "lender",
              "type": "address"
            },
            {
              "internalType": "uint256",
              "name": "lendId",
              "type": "uint256"
            },
            {
              "internalType": "uint256",
              "name": "lendAmount",
              "type": "uint256"
            },
            {
              "internalType": "uint256",
              "name": "paybackAmount",
              "type": "uint256"
            },
            {
              "internalType": "uint256",
              "name": "timeLend",
              "type": "uint256"
            },
            {
              "internalType": "uint256",
              "name": "timeCanGetInterest",
              "type": "uint256"
            },
            {
              "internalType": "bool",
              "name": "retrieved",
              "type": "bool"
            },
            {
              "internalType": "uint256",
              "name": "mtype",
              "type": "uint256"
            }
          ],
          "internalType": "struct Loan.LendRequest[]",
          "name": "",
          "type": "tuple[]"
        }
      ],
      "stateMutability": "view",
      "type": "function"
    },
    {
      "inputs": [],
      "name": "getUserOngoingLoans",
      "outputs": [
        {
          "components": [
            {
              "internalType": "address",
              "name": "borrower",
              "type": "address"
            },
            {
              "internalType": "uint256",
              "name": "loanAmount",
              "type": "uint256"
            },
            {
              "internalType": "uint256",
              "name": "collateralAmount",
              "type": "uint256"
            },
            {
              "internalType": "uint256",
              "name": "paybackAmount",
              "type": "uint256"
            },
            {
              "internalType": "uint256",
              "name": "loanDueDate",
              "type": "uint256"
            },
            {
              "internalType": "uint256",
              "name": "duration",
              "type": "uint256"
            },
            {
              "internalType": "uint256",
              "name": "loanId",
              "type": "uint256"
            },
            {
              "internalType": "bool",
              "name": "isPayback",
              "type": "bool"
            },
            {
              "internalType": "bool",
              "name": "isLiquidate",
              "type": "bool"
            },
            {
              "internalType": "uint256",
              "name": "mtype",
              "type": "uint256"
            },
            {
              "internalType": "uint256",
              "name": "ctype",
              "type": "uint256"
            }
          ],
          "internalType": "struct Loan.LoanRequest[]",
          "name": "",
          "type": "tuple[]"
        }
      ],
      "stateMutability": "view",
      "type": "function"
    },
    {
      "inputs": [
        {
          "internalType": "address",
          "name": "borrower",
          "type": "address"
        }
      ],
      "name": "getUserOverdueLoans",
      "outputs": [
        {
          "components": [
            {
              "internalType": "address",
              "name": "borrower",
              "type": "address"
            },
            {
              "internalType": "uint256",
              "name": "loanAmount",
              "type": "uint256"
            },
            {
              "internalType": "uint256",
              "name": "collateralAmount",
              "type": "uint256"
            },
            {
              "internalType": "uint256",
              "name": "paybackAmount",
              "type": "uint256"
            },
            {
              "internalType": "uint256",
              "name": "loanDueDate",
              "type": "uint256"
            },
            {
              "internalType": "uint256",
              "name": "duration",
              "type": "uint256"
            },
            {
              "internalType": "uint256",
              "name": "loanId",
              "type": "uint256"
            },
            {
              "internalType": "bool",
              "name": "isPayback",
              "type": "bool"
            },
            {
              "internalType": "bool",
              "name": "isLiquidate",
              "type": "bool"
            },
            {
              "internalType": "uint256",
              "name": "mtype",
              "type": "uint256"
            },
            {
              "internalType": "uint256",
              "name": "ctype",
              "type": "uint256"
            }
          ],
          "internalType": "struct Loan.LoanRequest[]",
          "name": "",
          "type": "tuple[]"
        }
      ],
      "stateMutability": "view",
      "type": "function"
    },
    {
      "inputs": [
        {
          "internalType": "address",
          "name": "borrower",
          "type": "address"
        }
      ],
      "name": "getUserUnHealthLoans",
      "outputs": [
        {
          "components": [
            {
              "internalType": "address",
              "name": "borrower",
              "type": "address"
            },
            {
              "internalType": "uint256",
              "name": "loanAmount",
              "type": "uint256"
            },
            {
              "internalType": "uint256",
              "name": "collateralAmount",
              "type": "uint256"
            },
            {
              "internalType": "uint256",
              "name": "paybackAmount",
              "type": "uint256"
            },
            {
              "internalType": "uint256",
              "name": "loanDueDate",
              "type": "uint256"
            },
            {
              "internalType": "uint256",
              "name": "duration",
              "type": "uint256"
            },
            {
              "internalType": "uint256",
              "name": "loanId",
              "type": "uint256"
            },
            {
              "internalType": "bool",
              "name": "isPayback",
              "type": "bool"
            },
            {
              "internalType": "bool",
              "name": "isLiquidate",
              "type": "bool"
            },
            {
              "internalType": "uint256",
              "name": "mtype",
              "type": "uint256"
            },
            {
              "internalType": "uint256",
              "name": "ctype",
              "type": "uint256"
            }
          ],
          "internalType": "struct Loan.LoanRequest[]",
          "name": "",
          "type": "tuple[]"
        }
      ],
      "stateMutability": "view",
      "type": "function"
    },
    {
      "inputs": [
        {
          "internalType": "uint256",
          "name": "_amount",
          "type": "uint256"
        },
        {
          "internalType": "uint256",
          "name": "mtype",
          "type": "uint256"
        }
      ],
      "name": "init",
      "outputs": [],
      "stateMutability": "nonpayable",
      "type": "function"
    },
    {
      "inputs": [],
      "name": "lendCount",
      "outputs": [
        {
          "internalType": "uint256",
          "name": "",
          "type": "uint256"
        }
      ],
      "stateMutability": "view",
      "type": "function"
    },
    {
      "inputs": [
        {
          "internalType": "uint256",
          "name": "_amount",
          "type": "uint256"
        },
        {
          "internalType": "uint256",
          "name": "mtype",
          "type": "uint256"
        }
      ],
      "name": "lendToken",
      "outputs": [],
      "stateMutability": "nonpayable",
      "type": "function"
    },
    {
      "inputs": [
        {
          "internalType": "address",
          "name": "",
          "type": "address"
        },
        {
          "internalType": "uint256",
          "name": "",
          "type": "uint256"
        }
      ],
      "name": "lends",
      "outputs": [
        {
          "internalType": "address",
          "name": "lender",
          "type": "address"
        },
        {
          "internalType": "uint256",
          "name": "lendId",
          "type": "uint256"
        },
        {
          "internalType": "uint256",
          "name": "lendAmount",
          "type": "uint256"
        },
        {
          "internalType": "uint256",
          "name": "paybackAmount",
          "type": "uint256"
        },
        {
          "internalType": "uint256",
          "name": "timeLend",
          "type": "uint256"
        },
        {
          "internalType": "uint256",
          "name": "timeCanGetInterest",
          "type": "uint256"
        },
        {
          "internalType": "bool",
          "name": "retrieved",
          "type": "bool"
        },
        {
          "internalType": "uint256",
          "name": "mtype",
          "type": "uint256"
        }
      ],
      "stateMutability": "view",
      "type": "function"
    },
    {
      "inputs": [
        {
          "internalType": "uint256",
          "name": "_amount",
          "type": "uint256"
        },
        {
          "internalType": "uint256",
          "name": "_duration",
          "type": "uint256"
        },
        {
          "internalType": "uint256",
          "name": "mtype",
          "type": "uint256"
        },
        {
          "internalType": "uint256",
          "name": "ctype",
          "type": "uint256"
        }
      ],
      "name": "loan",
      "outputs": [],
      "stateMutability": "nonpayable",
      "type": "function"
    },
    {
      "inputs": [
        {
          "internalType": "uint256",
          "name": "colAmount",
          "type": "uint256"
        },
        {
          "internalType": "uint256",
          "name": "mtype",
          "type": "uint256"
        },
        {
          "internalType": "uint256",
          "name": "ctype",
          "type": "uint256"
        }
      ],
      "name": "loanAmount",
      "outputs": [
        {
          "internalType": "uint256",
          "name": "",
          "type": "uint256"
        }
      ],
      "stateMutability": "view",
      "type": "function"
    },
    {
      "inputs": [],
      "name": "loanCount",
      "outputs": [
        {
          "internalType": "uint256",
          "name": "",
          "type": "uint256"
        }
      ],
      "stateMutability": "view",
      "type": "function"
    },
    {
      "inputs": [],
      "name": "loanModeFirst",
      "outputs": [
        {
          "internalType": "bool",
          "name": "",
          "type": "bool"
        }
      ],
      "stateMutability": "view",
      "type": "function"
    },
    {
      "inputs": [
        {
          "internalType": "address",
          "name": "",
          "type": "address"
        },
        {
          "internalType": "uint256",
          "name": "",
          "type": "uint256"
        }
      ],
      "name": "loans",
      "outputs": [
        {
          "internalType": "address",
          "name": "borrower",
          "type": "address"
        },
        {
          "internalType": "uint256",
          "name": "loanAmount",
          "type": "uint256"
        },
        {
          "internalType": "uint256",
          "name": "collateralAmount",
          "type": "uint256"
        },
        {
          "internalType": "uint256",
          "name": "paybackAmount",
          "type": "uint256"
        },
        {
          "internalType": "uint256",
          "name": "loanDueDate",
          "type": "uint256"
        },
        {
          "internalType": "uint256",
          "name": "duration",
          "type": "uint256"
        },
        {
          "internalType": "uint256",
          "name": "loanId",
          "type": "uint256"
        },
        {
          "internalType": "bool",
          "name": "isPayback",
          "type": "bool"
        },
        {
          "internalType": "bool",
          "name": "isLiquidate",
          "type": "bool"
        },
        {
          "internalType": "uint256",
          "name": "mtype",
          "type": "uint256"
        },
        {
          "internalType": "uint256",
          "name": "ctype",
          "type": "uint256"
        }
      ],
      "stateMutability": "view",
      "type": "function"
    },
    {
      "inputs": [],
      "name": "movrAddress",
      "outputs": [
        {
          "internalType": "address",
          "name": "",
          "type": "address"
        }
      ],
      "stateMutability": "view",
      "type": "function"
    },
    {
      "inputs": [],
      "name": "odonAddress",
      "outputs": [
        {
          "internalType": "address",
          "name": "",
          "type": "address"
        }
      ],
      "stateMutability": "view",
      "type": "function"
    },
    {
      "inputs": [],
      "name": "odonPrice",
      "outputs": [
        {
          "internalType": "uint256",
          "name": "",
          "type": "uint256"
        }
      ],
      "stateMutability": "view",
      "type": "function"
    },
    {
      "inputs": [],
      "name": "odonTotalLiquidity",
      "outputs": [
        {
          "internalType": "uint256",
          "name": "",
          "type": "uint256"
        }
      ],
      "stateMutability": "view",
      "type": "function"
    },
    {
      "inputs": [],
      "name": "owner",
      "outputs": [
        {
          "internalType": "address",
          "name": "",
          "type": "address"
        }
      ],
      "stateMutability": "view",
      "type": "function"
    },
    {
      "inputs": [
        {
          "internalType": "uint256",
          "name": "_id",
          "type": "uint256"
        },
        {
          "internalType": "uint256",
          "name": "_amount",
          "type": "uint256"
        }
      ],
      "name": "payback",
      "outputs": [],
      "stateMutability": "nonpayable",
      "type": "function"
    },
    {
      "inputs": [],
      "name": "renounceOwnership",
      "outputs": [],
      "stateMutability": "nonpayable",
      "type": "function"
    },
    {
      "inputs": [],
      "name": "secondAddAPY",
      "outputs": [
        {
          "internalType": "uint256",
          "name": "",
          "type": "uint256"
        }
      ],
      "stateMutability": "view",
      "type": "function"
    },
    {
      "inputs": [
        {
          "internalType": "uint256",
          "name": "_usdcapy",
          "type": "uint256"
        },
        {
          "internalType": "uint256",
          "name": "_usdtapy",
          "type": "uint256"
        },
        {
          "internalType": "uint256",
          "name": "_btcapy",
          "type": "uint256"
        }
      ],
      "name": "setBorrowAPY",
      "outputs": [],
      "stateMutability": "nonpayable",
      "type": "function"
    },
    {
      "inputs": [
        {
          "internalType": "uint256",
          "name": "_usdcapy",
          "type": "uint256"
        },
        {
          "internalType": "uint256",
          "name": "_usdtapy",
          "type": "uint256"
        },
        {
          "internalType": "uint256",
          "name": "_btcapy",
          "type": "uint256"
        }
      ],
      "name": "setLendAPY",
      "outputs": [],
      "stateMutability": "nonpayable",
      "type": "function"
    },
    {
      "inputs": [
        {
          "internalType": "uint256",
          "name": "mtype",
          "type": "uint256"
        }
      ],
      "name": "setLoanDurationMode",
      "outputs": [],
      "stateMutability": "nonpayable",
      "type": "function"
    },
    {
      "inputs": [
        {
          "internalType": "uint256",
          "name": "_price",
          "type": "uint256"
        }
      ],
      "name": "setPriceOdon",
      "outputs": [],
      "stateMutability": "nonpayable",
      "type": "function"
    },
    {
      "inputs": [
        {
          "internalType": "contract PriceConsumerV3",
          "name": "_oracle",
          "type": "address"
        }
      ],
      "name": "setPriceOracle",
      "outputs": [],
      "stateMutability": "nonpayable",
      "type": "function"
    },
    {
      "inputs": [],
      "name": "totalLiquidity",
      "outputs": [
        {
          "internalType": "uint256",
          "name": "",
          "type": "uint256"
        }
      ],
      "stateMutability": "view",
      "type": "function"
    },
    {
      "inputs": [
        {
          "internalType": "address",
          "name": "newOwner",
          "type": "address"
        }
      ],
      "name": "transferOwnership",
      "outputs": [],
      "stateMutability": "nonpayable",
      "type": "function"
    },
    {
      "inputs": [],
      "name": "usdcAddress",
      "outputs": [
        {
          "internalType": "address",
          "name": "",
          "type": "address"
        }
      ],
      "stateMutability": "view",
      "type": "function"
    },
    {
      "inputs": [],
      "name": "usdcBorrowAPY",
      "outputs": [
        {
          "internalType": "uint256",
          "name": "",
          "type": "uint256"
        }
      ],
      "stateMutability": "view",
      "type": "function"
    },
    {
      "inputs": [],
      "name": "usdcLTV",
      "outputs": [
        {
          "internalType": "uint256",
          "name": "",
          "type": "uint256"
        }
      ],
      "stateMutability": "view",
      "type": "function"
    },
    {
      "inputs": [],
      "name": "usdcLendAPY",
      "outputs": [
        {
          "internalType": "uint256",
          "name": "",
          "type": "uint256"
        }
      ],
      "stateMutability": "view",
      "type": "function"
    },
    {
      "inputs": [],
      "name": "usdcTotalLiquidity",
      "outputs": [
        {
          "internalType": "uint256",
          "name": "",
          "type": "uint256"
        }
      ],
      "stateMutability": "view",
      "type": "function"
    },
    {
      "inputs": [],
      "name": "usdtAddress",
      "outputs": [
        {
          "internalType": "address",
          "name": "",
          "type": "address"
        }
      ],
      "stateMutability": "view",
      "type": "function"
    },
    {
      "inputs": [],
      "name": "usdtBorrowAPY",
      "outputs": [
        {
          "internalType": "uint256",
          "name": "",
          "type": "uint256"
        }
      ],
      "stateMutability": "view",
      "type": "function"
    },
    {
      "inputs": [],
      "name": "usdtLTV",
      "outputs": [
        {
          "internalType": "uint256",
          "name": "",
          "type": "uint256"
        }
      ],
      "stateMutability": "view",
      "type": "function"
    },
    {
      "inputs": [],
      "name": "usdtLendAPY",
      "outputs": [
        {
          "internalType": "uint256",
          "name": "",
          "type": "uint256"
        }
      ],
      "stateMutability": "view",
      "type": "function"
    },
    {
      "inputs": [],
      "name": "usdtTotalLiquidity",
      "outputs": [
        {
          "internalType": "uint256",
          "name": "",
          "type": "uint256"
        }
      ],
      "stateMutability": "view",
      "type": "function"
    },
    {
      "inputs": [
        {
          "internalType": "address",
          "name": "",
          "type": "address"
        }
      ],
      "name": "userLendsCount",
      "outputs": [
        {
          "internalType": "uint256",
          "name": "",
          "type": "uint256"
        }
      ],
      "stateMutability": "view",
      "type": "function"
    },
    {
      "inputs": [
        {
          "internalType": "address",
          "name": "",
          "type": "address"
        }
      ],
      "name": "userLoansCount",
      "outputs": [
        {
          "internalType": "uint256",
          "name": "",
          "type": "uint256"
        }
      ],
      "stateMutability": "view",
      "type": "function"
    },
    {
      "inputs": [
        {
          "internalType": "uint256",
          "name": "_amount",
          "type": "uint256"
        },
        {
          "internalType": "uint256",
          "name": "mtype",
          "type": "uint256"
        }
      ],
      "name": "withDrawReserve",
      "outputs": [],
      "stateMutability": "nonpayable",
      "type": "function"
    },
    {
      "inputs": [
        {
          "internalType": "uint256",
          "name": "_id",
          "type": "uint256"
        }
      ],
      "name": "withdraw",
      "outputs": [],
      "stateMutability": "nonpayable",
      "type": "function"
    }
  ],
  "bytecode": "0x60806040526302faf0806008556803860e639d80640000600e556803afb087b876900000600f556802ed6689e54f18000060105568049b9ca9a6943400006011556729a2241af62c0000601255674563918244f400006013819055678ac7230489e800006014556798a7d9b8314c000060155567a688906bd8b000006016556017556753444835ec580000601855676f05b59d3b200000601955601a805460ff19169055348015620000b057600080fd5b50604051620047bc380380620047bc833981016040819052620000d391620001c2565b620000de3362000155565b6000600181905560028190556007819055600481905560038190556005819055600655600a80546001600160a01b039586166001600160a01b031991821617909155600b805494861694821694909417909355600c805492851692841692909217909155600d80549190931691161790556200021e565b600080546001600160a01b038381166001600160a01b0319831681178455604051919092169283917f8be0079c531659141344cd1fd0a4f28419497f9722a3daafe3b4186f6b6457e09190a35050565b80516001600160a01b0381168114620001bd57600080fd5b919050565b60008060008060808587031215620001d8578384fd5b620001e385620001a5565b9350620001f360208601620001a5565b92506200020360408601620001a5565b91506200021360608601620001a5565b905092959194509250565b61458e806200022e6000396000f3fe608060405234801561001057600080fd5b50600436106103cf5760003560e01c8063715018a6116101ff578063b04b022a1161011a578063d9d0befc116100ad578063f2fde38b1161007c578063f2fde38b1461091f578063f6c5dded14610932578063f7d76ae51461093b578063fe3af3ea1461094e57600080fd5b8063d9d0befc146108dd578063df62dbbe146108f0578063e15a6d6a146108f9578063ee9e58001461090c57600080fd5b8063d3235306116100e9578063d32353061461089b578063d3c9e2c9146108ae578063d3f72d10146108c1578063d5a0b65d146108ca57600080fd5b8063b04b022a1461086d578063cdb2409a14610880578063cdbc87f614610889578063ce63094d1461089257600080fd5b8063973c7d4511610192578063a12af89611610161578063a12af8961461082c578063a557b17d1461083f578063a5843f0814610847578063ae5c8fca1461085a57600080fd5b8063973c7d451461071257806398c61c37146107255780639ab4a445146108065780639d2d04d11461081957600080fd5b80638443bccc116101ce5780638443bccc146106c15780638a6a29a0146106d45780638da5cb5b146106f45780638dda75b71461070557600080fd5b8063715018a61461067857806371d1a70114610680578063725cab5d146106955780637f026f151461069e57600080fd5b806349a4485d116102ef57806364880990116102825780636b32991e116102515780636b32991e146106365780636c6ac591146106495780636ccbf7581461065c5780636ef9855b1461066f57600080fd5b806364880990146105fe57806365440cef14610611578063693a961d1461061a578063699e0f561461062d57600080fd5b8063530e784f116102be578063530e784f146105c757806353bbfefa146105da57806360089fca146105ed57806364282ecd146105f557600080fd5b806349a4485d146105835780634c0a79fb1461059657806351bcca5e146105b657806353068056146105be57600080fd5b8063295dea73116103675780632e1a7d4d116103365780632e1a7d4d146104a15780632e6a1830146104b45780633583de13146104bd578063439b3543146104d057600080fd5b8063295dea731461047357806329b53f851461047c5780632b84a68d146104855780632d1fabec1461048e57600080fd5b806315770f92116103a357806315770f9214610439578063168c738c1461044257806320ec1ff51461045757806329055efc1461046057600080fd5b806208001a146103d457806302d45457146103f0578063048422a51461041b5780630bf1644e14610430575b600080fd5b6103dd60195481565b6040519081526020015b60405180910390f35b600b54610403906001600160a01b031681565b6040516001600160a01b0390911681526020016103e7565b61042e610429366004613ff4565b610961565b005b6103dd60125481565b6103dd60075481565b61044a610a22565b6040516103e791906141c4565b6103dd60175481565b61042e61046e3660046140d7565b610bca565b6103dd60135481565b6103dd60035481565b6103dd60045481565b61042e61049c36600461405b565b6112c2565b61042e6104af36600461405b565b611349565b6103dd60165481565b61042e6104cb36600461408b565b6118bd565b61053c6104de366004614010565b601e602090815260009283526040808420909152908252902080546001820154600283015460038401546004850154600586015460068701546007909701546001600160a01b03909616969495939492939192909160ff9091169088565b604080516001600160a01b0390991689526020890197909752958701949094526060860192909252608085015260a0840152151560c083015260e0820152610100016103e7565b61042e6105913660046140ac565b611ed7565b6103dd6105a4366004613ff4565b601b6020526000908152604090205481565b61042e611f4e565b6103dd600f5481565b61042e6105d5366004613ff4565b6120dd565b6103dd6105e836600461405b565b612159565b61044a61222b565b6103dd60065481565b61042e61060c3660046140ac565b6123a2565b6103dd60055481565b61040361062836600461405b565b612419565b6103dd60025481565b61042e61064436600461405b565b612443565b61042e610657366004613ff4565b6124a2565b61044a61066a366004613ff4565b612564565b6103dd60155481565b61042e612730565b610688612766565b6040516103e7919061412c565b6103dd60145481565b6106b16106ac366004614010565b6128b7565b60405190151581526020016103e7565b61042e6106cf36600461408b565b6128f4565b6103dd6106e2366004613ff4565b601c6020526000908152604090205481565b6000546001600160a01b0316610403565b601a546106b19060ff1681565b61040361072036600461405b565b612bac565b6107a5610733366004614010565b601d60209081526000928352604080842090915290825290208054600182015460028301546003840154600485015460058601546006870154600788015460088901546009909901546001600160a01b039098169896979596949593949293919260ff8083169361010090930416918b565b604080516001600160a01b03909c168c5260208c019a909a52988a01979097526060890195909552608088019390935260a087019190915260c0860152151560e08501521515610100840152610120830152610140820152610160016103e7565b600c54610403906001600160a01b031681565b61042e61082736600461408b565b612bbc565b61044a61083a366004613ff4565b612dc6565b610688612f6e565b61042e61085536600461408b565b6130c6565b61042e61086836600461408b565b6132e7565b600a54610403906001600160a01b031681565b6103dd60105481565b6103dd60115481565b6103dd60015481565b6103dd6108a93660046140ac565b6136d7565b6106b16108bc366004614010565b613786565b6103dd600e5481565b6103dd6108d836600461405b565b6137a8565b6103dd6108eb3660046140ac565b613978565b6103dd60185481565b6103dd610907366004614010565b613a16565b600954610403906001600160a01b031681565b61042e61092d366004613ff4565b613b6f565b6103dd60085481565b600d54610403906001600160a01b031681565b6106b161095c36600461408b565b613c07565b6000805b601f548110156109cc57826001600160a01b0316601f828154811061099a57634e487b7160e01b600052603260045260246000fd5b6000918252602090912001546001600160a01b031614156109ba57600191505b806109c481614512565b915050610965565b5080610a1e57601f80546001810182556000919091527fa03837a25210ee280c2113ff4b77ca23440b19d4866cca721c801278fd08d8070180546001600160a01b0319166001600160a01b0384161790555b5050565b336000908152601b60205260408120546060919067ffffffffffffffff811115610a5c57634e487b7160e01b600052604160045260246000fd5b604051908082528060200260200182016040528015610a9557816020015b610a82613f3d565b815260200190600190039081610a7a5790505b50905060005b336000908152601b6020526040902054811015610bc457336000908152601d6020908152604080832084845282529182902082516101608101845281546001600160a01b031681526001820154928101929092526002810154928201929092526003820154606082015260048201546080820152600582015460a0820152600682015460c0820152600782015460ff80821615801560e085018190526101009384900490921615159284019290925260088401546101208401526009909301546101408301529091610b705750806101000151155b8015610b7f5750428160800151115b15610bb15780838381518110610ba557634e487b7160e01b600052603260045260246000fd5b60200260200101819052505b5080610bbc81614512565b915050610a9b565b50919050565b610bd48483613c07565b610c255760405162461bcd60e51b815260206004820152601f60248201527f6c6f616e45746865723a206e6f7420656e6f756768206c69717569646974790060448201526064015b60405180910390fd5b610c2d613f3d565b33815260208101859052610c428584846136d7565b604080830191909152336000908152601b6020529081205460c083015260e082018190526101008201819052610120820184905261014082018390526002841415610c905750601454610cb0565b8360031415610ca25750601554610cb0565b8360041415610cb057506016545b601a5460ff1615610de5578460071415610d0857610ce3610cdc6064610cd68985613c7c565b90613c94565b8790613ca0565b6060830152610cf54262093a806144a4565b608083015262093a8060a0830152610e8a565b84600e1415610d5657610d31610cdc6064610cd684601254610d2a91906144a4565b8a90613c7c565b6060830152610d4342621275006144a4565b60808301526212750060a0830152610e8a565b84601e1415610d9d57610d78610cdc6064610cd684601354610d2a91906144a4565b6060830152610d8a4262278d006144a4565b608083015262278d0060a0830152610e8a565b60405162461bcd60e51b815260206004820152601d60248201527f6c6f616e546f6b656e3a206e6f2076616c6964206475726174696f6e210000006044820152606401610c1c565b84601e1415610e0057610d78610cdc6064610cd68985613c7c565b84603c1415610e4757610e22610cdc6064610cd684601254610d2a91906144a4565b6060830152610e3442624f1a006144a4565b6080830152624f1a0060a0830152610e8a565b84605a1415610d9d57610e69610cdc6064610cd684601354610d2a91906144a4565b6060830152610e7b426276a7006144a4565b60808301526276a70060a08301525b600083600114610fc55750600a5460408084015190516323b872dd60e01b81526001600160a01b039092169182916323b872dd91610ecf913391309190600401614108565b602060405180830381600087803b158015610ee957600080fd5b505af1158015610efd573d6000803e3d6000fd5b505050506040513d601f19601f82011682018060405250810190610f21919061403b565b610f3d5760405162461bcd60e51b8152600401610c1c90614417565b6040838101519051633950935160e01b815230600482015260248101919091526001600160a01b03821690633950935190604401602060405180830381600087803b158015610f8b57600080fd5b505af1158015610f9f573d6000803e3d6000fd5b505050506040513d601f19601f82011682018060405250810190610fc3919061403b565b505b8360011415610fd357610fe8565b6040830151600354610fe491613ca0565b6003555b600085600214156110055750600b546001600160a01b0316611037565b85600314156110205750600c546001600160a01b0316611037565b85600414156110375750600d546001600160a01b03165b6040516323b872dd60e01b81526001600160a01b038216906323b872dd9061106790309033908d90600401614108565b602060405180830381600087803b15801561108157600080fd5b505af1158015611095573d6000803e3d6000fd5b505050506040513d601f19601f820116820180604052508101906110b9919061403b565b6110d55760405162461bcd60e51b8152600401610c1c90614417565b85600214156110f3576004546110eb9089613cac565b60045561112b565b8560031415611111576005546111099089613cac565b60055561112b565b856004141561112b576006546111279089613cac565b6006555b336000908152601d60209081526040808320601b83528184205484528252808320875181546001600160a01b03919091166001600160a01b031990911617815591870151600180840191909155908701516002830155606087015160038301556080870151600483015560a0870151600583015560c0870151600683015560e0870151600783018054610100808b015115150261ff00199315159390931661ffff199091161791909117905561012087015160088301556101408701516009909201919091558054916111fd83614512565b9091555050336000908152601b6020526040812080549161121d83614512565b9190505550336001600160a01b03167fd3d220740d3967bbabbce5a2d2be80cf584799db8de046928f1b6d1d7500b45e85602001518660400151876060015188608001518960a001518a61012001518b61014001516040516112b09796959493929190968752602087019590955260408601939093526060850191909152608084015260a083015260c082015260e00190565b60405180910390a25050505050505050565b6000546001600160a01b031633146112ec5760405162461bcd60e51b8152600401610c1c9061439f565b806001141561130757601a805460ff19166001179055611312565b601a805460ff191690555b6040518181527f4d5a4bfab3f36cd8f68133a2361e410afb6899ac665938f88ee5e1abb15fec45906020015b60405180910390a150565b336000908152601e602090815260408083208484529091529020600681015460ff16156113c65760405162461bcd60e51b815260206004820152602560248201527f7769746864726177546f6b656e3a204c656e64207265717565737420726574726044820152641a595d995960da1b6064820152608401610c1c565b80546001600160a01b0316331461142f5760405162461bcd60e51b815260206004820152602760248201527f776974686472617745746865723a204f6e6c79206c656e6465722063616e20776044820152666974686472617760c81b6064820152608401610c1c565b61144181600201548260070154613c07565b61145d5760405162461bcd60e51b8152600401610c1c906143d4565b60068101805460ff19166001179055600581015442111561169f5760008160070154600214156114995750600b546001600160a01b03166114d3565b8160070154600314156114b85750600c546001600160a01b03166114d3565b8160070154600414156114d35750600d546001600160a01b03165b815460038301546040516323b872dd60e01b81526001600160a01b03848116936323b872dd9361150b93309390921691600401614108565b602060405180830381600087803b15801561152557600080fd5b505af1158015611539573d6000803e3d6000fd5b505050506040513d601f19601f8201168201806040525081019061155d919061403b565b506003820154604051633950935160e01b815230600482015260248101919091526001600160a01b03821690633950935190604401602060405180830381600087803b1580156115ac57600080fd5b505af11580156115c0573d6000803e3d6000fd5b505050506040513d601f19601f820116820180604052508101906115e4919061403b565b5081600701546002141561160b57600382015460045461160391613cac565b60045561162d565b81600701546003141561162d57600382015460055461162991613cac565b6005555b81600701546004141561164f57600382015460065461164b91613cac565b6006555b60038201546007830154604080516001815260208101939093528201527ffedb0622d5d5fa46cc706a5c2c169f2bf2eb31a59ff2f70cef3096376f58c2c0906060015b60405180910390a1505050565b60008160070154600214156116c05750600b546001600160a01b03166116fa565b8160070154600314156116df5750600c546001600160a01b03166116fa565b8160070154600414156116fa5750600d546001600160a01b03165b815460028301546040516323b872dd60e01b81526001600160a01b03848116936323b872dd9361173293309390921691600401614108565b602060405180830381600087803b15801561174c57600080fd5b505af1158015611760573d6000803e3d6000fd5b505050506040513d601f19601f82011682018060405250810190611784919061403b565b506002820154604051633950935160e01b815230600482015260248101919091526001600160a01b03821690633950935190604401602060405180830381600087803b1580156117d357600080fd5b505af11580156117e7573d6000803e3d6000fd5b505050506040513d601f19601f8201168201806040525081019061180b919061403b565b5081600701546002141561183257600282015460045461182a91613cac565b600455611854565b81600701546003141561185457600282015460055461185091613cac565b6005555b81600701546004141561187657600282015460065461187291613cac565b6006555b60028201546007830154604080516000815260208101939093528201527ffedb0622d5d5fa46cc706a5c2c169f2bf2eb31a59ff2f70cef3096376f58c2c090606001611692565b336000818152601d602090815260408083208684529091529020805490916001600160a01b039091161461193e5760405162461bcd60e51b815260206004820152602260248201527f7061796261636b3a204f6e6c7920626f72726f7765722063616e207061796261604482015261636b60f01b6064820152608401610c1c565b600781015460ff16156119635760405162461bcd60e51b8152600401610c1c9061446d565b80600401544211156119b75760405162461bcd60e51b815260206004820152601860248201527f7061796261636b3a2065786365656420647565206461746500000000000000006044820152606401610c1c565b6011546119c43385613a16565b10611a1b5760405162461bcd60e51b815260206004820152602160248201527f7061796261636b3a204c5456206578636565642064616e6765726f7573204c546044820152602b60f91b6064820152608401610c1c565b8060030154821015611a6f5760405162461bcd60e51b815260206004820152601960248201527f7061796261636b3a204e6f7420656e6f75676820746f6b656e000000000000006044820152606401610c1c565b611a8181600201548260090154613c07565b611adf5760405162461bcd60e51b815260206004820152602960248201527f7061796261636b3a206e6f7420656e6f756768206c6971756964697479206f6e6044820152680818dbdb9d1c9858dd60ba1b6064820152608401610c1c565b6000816008015460021415611b005750600b546001600160a01b0316611b3a565b816008015460031415611b1f5750600c546001600160a01b0316611b3a565b816008015460041415611b3a5750600d546001600160a01b03165b6040516323b872dd60e01b81526001600160a01b038216906323b872dd90611b6a90339030908890600401614108565b602060405180830381600087803b158015611b8457600080fd5b505af1158015611b98573d6000803e3d6000fd5b505050506040513d601f19601f82011682018060405250810190611bbc919061403b565b611bd85760405162461bcd60e51b8152600401610c1c90614342565b604051633950935160e01b8152306004820152602481018490526001600160a01b03821690633950935190604401602060405180830381600087803b158015611c2057600080fd5b505af1158015611c34573d6000803e3d6000fd5b505050506040513d601f19601f82011682018060405250810190611c58919061403b565b50816008015460021415611c7b57600454611c739084613ca0565b600455611cbb565b816008015460031415611c9d57600554611c959084613ca0565b600555611cbb565b816008015460041415611cbb57600654611cb79084613ca0565b6006555b6000826009015460011415611cdc57506009546001600160a01b0316611cea565b50600a546001600160a01b03165b60028301546040516323b872dd60e01b81526001600160a01b038316916323b872dd91611d1e913091339190600401614108565b602060405180830381600087803b158015611d3857600080fd5b505af1158015611d4c573d6000803e3d6000fd5b505050506040513d601f19601f82011682018060405250810190611d70919061403b565b611d8c5760405162461bcd60e51b8152600401610c1c90614342565b6002830154604051633950935160e01b815230600482015260248101919091526001600160a01b03821690633950935190604401602060405180830381600087803b158015611dda57600080fd5b505af1158015611dee573d6000803e3d6000fd5b505050506040513d601f19601f82011682018060405250810190611e12919061403b565b50826009015460011415611e39576002830154600754611e3191613cac565b600755611e4e565b6002830154600354611e4a91613cac565b6003555b60078301805461ffff19166001908117909155600384015460028501546008860154600987015460408051338152602081019690965242908601526060850193909352608084019190915260a083015260c08201527f5c775973c71b408f578d06223650690e9508ab4bb549d0691ae69265b311af379060e00160405180910390a15050505050565b6000546001600160a01b03163314611f015760405162461bcd60e51b8152600401610c1c9061439f565b60148390556015829055601681905560408051848152602081018490529081018290527f5e35c511ddee3bac4f3cd917d8e465c37126e7a8a0bc5f8439a65c7676abe19b90606001611692565b6000546001600160a01b03163314611f785760405162461bcd60e51b8152600401610c1c9061439f565b60005b601f548110156120da576000611fc5601f8381548110611fab57634e487b7160e01b600052603260045260246000fd5b6000918252602090912001546001600160a01b0316612dc6565b905060005b8151831015612024576000828281518110611ff557634e487b7160e01b600052603260045260246000fd5b6020026020010151905061201181600001518260c00151613cb8565b508061201c81614512565b915050611fca565b506000612065601f848154811061204b57634e487b7160e01b600052603260045260246000fd5b6000918252602090912001546001600160a01b0316612564565b905060005b81518110156120c457600082828151811061209557634e487b7160e01b600052603260045260246000fd5b602002602001015190506120b181600001518260c00151613df9565b50806120bc81614512565b91505061206a565b50505080806120d290614512565b915050611f7b565b50565b6000546001600160a01b031633146121075760405162461bcd60e51b8152600401610c1c9061439f565b601a8054610100600160a81b0319166101006001600160a01b038416908102919091179091556040517fefe8ab924ca486283a79dc604baa67add51afb82af1db8ac386ebbba643cdffd90600090a250565b601a54600090819061010090046001600160a01b031661218b5760405162461bcd60e51b8152600401610c1c90614272565b82600114156121b0576121a96121a0846137a8565b60075490613c7c565b9050612225565b82600214156121ce576121a96121c5846137a8565b60045490613c7c565b82600314156121ec576121a96121e3846137a8565b60055490613c7c565b826004141561220a576121a9612201846137a8565b60065490613c7c565b82600514156122255760085460035461222291613c7c565b90505b92915050565b336000908152601b60205260408120546060919067ffffffffffffffff81111561226557634e487b7160e01b600052604160045260246000fd5b60405190808252806020026020018201604052801561229e57816020015b61228b613f3d565b8152602001906001900390816122835790505b50905060005b336000908152601b6020526040902054811015610bc457336000908152601d6020908152604080832084845282529182902082516101608101845281546001600160a01b031681526001820154928101929092526002810154928201929092526003820154606082015260048201546080820152600582015460a0820152600682015460c0820152600782015460ff808216151560e084015261010091829004161515908201526008820154610120820152600990910154610140820152825183908390811061238457634e487b7160e01b600052603260045260246000fd5b6020026020010181905250808061239a90614512565b9150506122a4565b6000546001600160a01b031633146123cc5760405162461bcd60e51b8152600401610c1c9061439f565b60178390556018829055601981905560408051848152602081018490529081018290527f1eb993ea8e47c2ce3cb4aade30f5dbcf13db6e9a00e435ee9d7ee80a3f58788390606001611692565b6020818154811061242957600080fd5b6000918252602090912001546001600160a01b0316905081565b6000546001600160a01b0316331461246d5760405162461bcd60e51b8152600401610c1c9061439f565b60088190556040518181527f9a470bd568cbe5e7985016006c3093b3634f775e978b0ec2841ef7c634a2c2ff9060200161133e565b6000805b60205481101561250d57826001600160a01b0316602082815481106124db57634e487b7160e01b600052603260045260246000fd5b6000918252602090912001546001600160a01b031614156124fb57600191505b8061250581614512565b9150506124a6565b5080610a1e57602080546001810182556000919091527fc97bfaf2f8ee708c303a06d134f5ecd8389ae0432af62dc132a24118292866bb0180546001600160a01b0384166001600160a01b03199091161790555050565b6001600160a01b0381166000908152601b60205260408120546060919067ffffffffffffffff8111156125a757634e487b7160e01b600052604160045260246000fd5b6040519080825280602002602001820160405280156125e057816020015b6125cd613f3d565b8152602001906001900390816125c55790505b50905060005b6001600160a01b0384166000908152601b6020526040902054811015612729576001600160a01b038085166000908152601d60209081526040808320858452825291829020825161016081018452815490941684526001810154918401919091526002810154918301919091526003810154606083015260048101546080830152600581015460a0830152600681015460c0830152600781015460ff80821615801560e08601819052610100938490049092161515928501929092526008830154610120850152600990920154610140840152906126c75750806101000151155b80156126d65750428160800151115b15612716576126e58583613786565b612716578083838151811061270a57634e487b7160e01b600052603260045260246000fd5b60200260200101819052505b508061272181614512565b9150506125e6565b5092915050565b6000546001600160a01b0316331461275a5760405162461bcd60e51b8152600401610c1c9061439f565b6127646000613ecd565b565b336000908152601c60205260408120546060919067ffffffffffffffff8111156127a057634e487b7160e01b600052604160045260246000fd5b6040519080825280602002602001820160405280156127d957816020015b6127c6613fa4565b8152602001906001900390816127be5790505b50905060005b336000908152601c6020526040902054811015610bc457336000908152601e6020908152604080832084845282529182902082516101008101845281546001600160a01b031681526001820154928101929092526002810154928201929092526003820154606082015260048201546080820152600582015460a0820152600682015460ff16151560c082015260079091015460e0820152825183908390811061289957634e487b7160e01b600052603260045260246000fd5b602002602001018190525080806128af90614512565b9150506127df565b6001600160a01b0382166000908152601d602090815260408083208484529091528120600481015482904211156128ec575060015b949350505050565b6000546001600160a01b0316331461291e5760405162461bcd60e51b8152600401610c1c9061439f565b6129288282613c07565b6129445760405162461bcd60e51b8152600401610c1c906143d4565b6000816001141561295d57506009546001600160a01b03165b81600214156129785750600b546001600160a01b03166129c5565b81600314156129935750600c546001600160a01b03166129c5565b81600414156129ae5750600d546001600160a01b03166129c5565b81600514156129c55750600a546001600160a01b03165b6040516323b872dd60e01b81526001600160a01b038216906323b872dd906129f590309033908890600401614108565b602060405180830381600087803b158015612a0f57600080fd5b505af1158015612a23573d6000803e3d6000fd5b505050506040513d601f19601f82011682018060405250810190612a47919061403b565b612a635760405162461bcd60e51b8152600401610c1c906142ff565b604051633950935160e01b8152306004820152602481018490526001600160a01b03821690633950935190604401602060405180830381600087803b158015612aab57600080fd5b505af1158015612abf573d6000803e3d6000fd5b505050506040513d601f19601f82011682018060405250810190612ae3919061403b565b508160011415612b0257600754612afa9084613cac565b600755612b76565b8160021415612b2057600454612b189084613cac565b600455612b76565b8160031415612b3e57600554612b369084613cac565b600555612b76565b8160041415612b5c57600654612b549084613cac565b600655612b76565b8160051415612b7657600354612b729084613cac565b6003555b60408051848152602081018490527f8d7ca91ebdac6a80a88023a61a414acbf330dba3646d6d0a5cc2676bcef101ac9101611692565b601f818154811061242957600080fd5b60008160021415612bd95750600b546001600160a01b0316612c0b565b8160031415612bf45750600c546001600160a01b0316612c0b565b8160041415612c0b5750600d546001600160a01b03165b6040516323b872dd60e01b81526001600160a01b038216906323b872dd90612c3b90339030908890600401614108565b602060405180830381600087803b158015612c5557600080fd5b505af1158015612c69573d6000803e3d6000fd5b505050506040513d601f19601f82011682018060405250810190612c8d919061403b565b612ca95760405162461bcd60e51b8152600401610c1c906142a9565b604051633950935160e01b8152306004820152602481018490526001600160a01b03821690633950935190604401602060405180830381600087803b158015612cf157600080fd5b505af1158015612d05573d6000803e3d6000fd5b505050506040513d601f19601f82011682018060405250810190612d29919061403b565b508160021415612d4857600454612d409084613ca0565b600455612d62565b8160031415612d6257600554612d5e9084613ca0565b6005555b8160041415612d7c57600654612d789084613ca0565b6006555b612d85336124a2565b604080518481526020810184905233917f68dcee598918c1887bfa1c13ac763d4659a12722f88a5eb920014ba1f0bc38fb91015b60405180910390a2505050565b6001600160a01b0381166000908152601b60205260408120546060919067ffffffffffffffff811115612e0957634e487b7160e01b600052604160045260246000fd5b604051908082528060200260200182016040528015612e4257816020015b612e2f613f3d565b815260200190600190039081612e275790505b50905060005b6001600160a01b0384166000908152601b6020526040902054811015612729576001600160a01b038085166000908152601d60209081526040808320858452825291829020825161016081018452815490941684526001810154918401919091526002810154918301919091526003810154606083015260048101546080830152600581015460a0830152600681015460c0830152600781015460ff80821615801560e0860181905261010093849004909216151592850192909252600883015461012085015260099092015461014084015290612f295750428160800151105b15612f5b5780838381518110612f4f57634e487b7160e01b600052603260045260246000fd5b60200260200101819052505b5080612f6681614512565b915050612e48565b336000908152601c60205260408120546060919067ffffffffffffffff811115612fa857634e487b7160e01b600052604160045260246000fd5b604051908082528060200260200182016040528015612fe157816020015b612fce613fa4565b815260200190600190039081612fc65790505b50905060005b336000908152601c6020526040902054811015610bc457336000908152601e6020908152604080832084845282529182902082516101008101845281546001600160a01b031681526001820154928101929092526002810154928201929092526003820154606082015260048201546080820152600582015460a0820152600682015460ff16151560c0820181905260079092015460e0820152906130b357808383815181106130a757634e487b7160e01b600052603260045260246000fd5b60200260200101819052505b50806130be81614512565b915050612fe7565b6000546001600160a01b031633146130f05760405162461bcd60e51b8152600401610c1c9061439f565b6000816002141561310d5750600b546001600160a01b031661313f565b81600314156131285750600c546001600160a01b031661313f565b816004141561313f5750600d546001600160a01b03165b6040516323b872dd60e01b81526001600160a01b038216906323b872dd9061316f90339030908890600401614108565b602060405180830381600087803b15801561318957600080fd5b505af115801561319d573d6000803e3d6000fd5b505050506040513d601f19601f820116820180604052508101906131c1919061403b565b6131dd5760405162461bcd60e51b8152600401610c1c906142ff565b604051633950935160e01b8152306004820152602481018490526001600160a01b03821690633950935190604401602060405180830381600087803b15801561322557600080fd5b505af1158015613239573d6000803e3d6000fd5b505050506040513d601f19601f8201168201806040525081019061325d919061403b565b50476007556002821415613280576004546132789084613ca0565b600455612d85565b8160031415613296576005546132789084613ca0565b8160041415612d85576006546132ac9084613ca0565b600455604080518481526020810184905233917f68dcee598918c1887bfa1c13ac763d4659a12722f88a5eb920014ba1f0bc38fb9101612db9565b600081600214156133045750600b546001600160a01b0316613336565b816003141561331f5750600c546001600160a01b0316613336565b81600414156133365750600d546001600160a01b03165b6040516323b872dd60e01b81526001600160a01b038216906323b872dd9061336690339030908890600401614108565b602060405180830381600087803b15801561338057600080fd5b505af1158015613394573d6000803e3d6000fd5b505050506040513d601f19601f820116820180604052508101906133b8919061403b565b6133d45760405162461bcd60e51b8152600401610c1c906142a9565b6133dc613fa4565b338082526000908152601c6020908152604091829020549083015281018490526002831415613433576134296134226064610cd660175488613c7c90919063ffffffff16565b8590613ca0565b6060820152613485565b8260031415613459576134296134226064610cd660185488613c7c90919063ffffffff16565b82600414156134855761347f6134226064610cd660195488613c7c90919063ffffffff16565b60608201525b426080820181905261349a9062278d006144a4565b60a08201908152600060c0830181815260e08401868152338352601e60209081526040808520601c83528186205486528252808520875181546001600160a01b0319166001600160a01b03909116178155918701516001830155860151600280830191909155606087015160038301556080870151600483015594516005820155915160068301805460ff1916911515919091179055516007909101558154919061354483614512565b9091555050336000908152601c6020526040812080549161356483614512565b9091555050604051633950935160e01b8152306004820152602481018590526001600160a01b03831690633950935190604401602060405180830381600087803b1580156135b157600080fd5b505af11580156135c5573d6000803e3d6000fd5b505050506040513d601f19601f820116820180604052508101906135e9919061403b565b508260021415613608576004546136009085613ca0565b600455613622565b82600314156136225760055461361e9085613ca0565b6005555b826004141561363c576006546136389085613ca0565b6006555b613645336124a2565b80600001516001600160a01b03167f4ab15cc690495a744ed84b8955b45eb732403b222a485fa1e287db39ad05e0658260400151836060015184608001518560a001518660c001518760e001516040516136c9969594939291909586526020860194909452604085019290925260608401521515608083015260a082015260c00190565b60405180910390a250505050565b60008060006136e5846137a8565b905060006136f2866137a8565b905085600214156137245761371d6064613717600f548a613f1d90919063ffffffff16565b90613f31565b925061376d565b85600314156137475761371d6064613717600e548a613f1d90919063ffffffff16565b856004141561376d5761376a60646137176010548a613f1d90919063ffffffff16565b92505b61377b82610cd68584613f31565b979650505050505050565b6011546000906001906137998585613a16565b10612222575060009392505050565b601a5460009061010090046001600160a01b03166137d85760405162461bcd60e51b8152600401610c1c90614272565b6000826002141561387057601a60019054906101000a90046001600160a01b03166001600160a01b031663d63c25186040518163ffffffff1660e01b815260040160206040518083038186803b15801561383157600080fd5b505afa158015613845573d6000803e3d6000fd5b505050506040513d601f19601f820116820180604052508101906138699190614073565b905061392c565b82600314156138c757601a60019054906101000a90046001600160a01b03166001600160a01b0316633629cf056040518163ffffffff1660e01b815260040160206040518083038186803b15801561383157600080fd5b826004141561391e57601a60019054906101000a90046001600160a01b03166001600160a01b0316630f00fa116040518163ffffffff1660e01b815260040160206040518083038186803b15801561383157600080fd5b826005141561392c57506008545b600081116122255760405162461bcd60e51b81526020600482015260196024820152781d1bdad95b881c1c9a58d9481a5cdb89dd0818dbdc9c9958dd603a1b6044820152606401610c1c565b6000806000613986846137a8565b90506000613993866137a8565b905085600214156139bf576139b86064610cd6600f548a613c7c90919063ffffffff16565b9250613a08565b85600314156139e2576139b86064610cd6600e548a613c7c90919063ffffffff16565b8560041415613a0857613a056064610cd66010548a613c7c90919063ffffffff16565b92505b61377b81610cd68585613f31565b6001600160a01b038083166000908152601d602090815260408083208584529091528120601a5491929091839161010090910416613a665760405162461bcd60e51b8152600401610c1c90614272565b6000613a7583600901546137a8565b905060008111613ac75760405162461bcd60e51b815260206004820152601960248201527f65746865722070726963652069736e277420636f7272656374000000000000006044820152606401610c1c565b6000613ad684600801546137a8565b905060008111613b245760405162461bcd60e51b81526020600482015260196024820152781d1bdad95b881c1c9a58d9481a5cdb89dd0818dbdc9c9958dd603a1b6044820152606401610c1c565b6003840154600090613b369083613c7c565b90506000613b51848760020154613c7c90919063ffffffff16565b9050613b6260646137178484613f1d565b9998505050505050505050565b6000546001600160a01b03163314613b995760405162461bcd60e51b8152600401610c1c9061439f565b6001600160a01b038116613bfe5760405162461bcd60e51b815260206004820152602660248201527f4f776e61626c653a206e6577206f776e657220697320746865207a65726f206160448201526564647265737360d01b6064820152608401610c1c565b6120da81613ecd565b6000808260011415613c1c5750600754613c60565b8260021415613c2e5750600454613c60565b8260031415613c405750600554613c60565b8260041415613c525750600654613c60565b8260051415613c6057506003545b80841115613c72576000915050612225565b6001915050612225565b6000612222670de0b6b3a7640000610cd68585613f31565b600061222282846144bc565b600061222282846144a4565b600061222282846144fb565b6000546001600160a01b03163314613ce25760405162461bcd60e51b8152600401610c1c9061439f565b6001600160a01b0382166000908152601d602090815260408083208484529091529020600781015460ff1615613d2a5760405162461bcd60e51b8152600401610c1c9061446d565b613d3483836128b7565b1515600114613d905760405162461bcd60e51b815260206004820152602260248201527f776974686472617745746865723a204c6f616e206973206e6f74206578706972604482015261195960f21b6064820152608401610c1c565b60078101805461ffff1916610100179055805460028201546009830154604080516001600160a01b03909416845242602085015283019190915260608201527f158ba9ab7bbbd08eeffa4753bad41f4d450e24831d293427308badf3eadd8c7690608001611692565b6000546001600160a01b03163314613e235760405162461bcd60e51b8152600401610c1c9061439f565b6001600160a01b0382166000908152601d602090815260408083208484529091529020600781015460ff1615613e6b5760405162461bcd60e51b8152600401610c1c9061446d565b613e758383613786565b15613d905760405162461bcd60e51b815260206004820152602260248201527f776974686472617745746865723a204c6f616e206865616c7468206973207472604482015261756560f01b6064820152608401610c1c565b600080546001600160a01b038381166001600160a01b0319831681178455604051919092169283917f8be0079c531659141344cd1fd0a4f28419497f9722a3daafe3b4186f6b6457e09190a35050565b600061222282610cd685670de0b6b3a76400005b600061222282846144dc565b60405180610160016040528060006001600160a01b0316815260200160008152602001600081526020016000815260200160008152602001600081526020016000815260200160001515815260200160001515815260200160008152602001600081525090565b60405180610100016040528060006001600160a01b031681526020016000815260200160008152602001600081526020016000815260200160008152602001600015158152602001600081525090565b600060208284031215614005578081fd5b813561222281614543565b60008060408385031215614022578081fd5b823561402d81614543565b946020939093013593505050565b60006020828403121561404c578081fd5b81518015158114612222578182fd5b60006020828403121561406c578081fd5b5035919050565b600060208284031215614084578081fd5b5051919050565b6000806040838503121561409d578182fd5b50508035926020909101359150565b6000806000606084860312156140c0578081fd5b505081359360208301359350604090920135919050565b600080600080608085870312156140ec578081fd5b5050823594602084013594506040840135936060013592509050565b6001600160a01b039384168152919092166020820152604081019190915260600190565b602080825282518282018190526000919060409081850190868401855b828110156141b757815180516001600160a01b0316855286810151878601528581015186860152606080820151908601526080808201519086015260a0808201519086015260c08082015115159086015260e090810151908501526101009093019290850190600101614149565b5091979650505050505050565b602080825282518282018190526000919060409081850190868401855b828110156141b757815180516001600160a01b0316855286810151878601528581015186860152606080820151908601526080808201519086015260a0808201519086015260c0808201519086015260e080820151151590860152610100808201511515908601526101208082015190860152610140908101519085015261016090930192908501906001016141e1565b6020808252601e908201527f7072696365206f7261636c652069736e277420696e697469616c697a65640000604082015260600190565b60208082526036908201527f6c656e64546f6b656e3a205472616e7366657220746f6b656e2066726f6d20756040820152751cd95c881d1bc818dbdb9d1c9858dd0819985a5b195960521b606082015260800190565b60208082526023908201527f5472616e73616374696f6e206661696c6564206f6e20696e69742066756e637460408201526234b7b760e91b606082015260800190565b60208082526039908201527f7061796261636b3a205472616e7366657220636f6c6c61746572616c2066726f60408201527f6d20636f6e747261637420746f2075736572206661696c656400000000000000606082015260800190565b6020808252818101527f4f776e61626c653a2063616c6c6572206973206e6f7420746865206f776e6572604082015260600190565b60208082526023908201527f776974684472617745746865723a206e6f7420656e6f756768206c697175696460408201526269747960e81b606082015260800190565b60208082526036908201527f6c6f616e546f6b656e3a205472616e7366657220746f6b656e2066726f6d20636040820152751bdb9d1c9858dd081d1bc81d5cd95c8819985a5b195960521b606082015260800190565b60208082526018908201527f7061796261636b3a207061796261636b20616c72656164790000000000000000604082015260600190565b600082198211156144b7576144b761452d565b500190565b6000826144d757634e487b7160e01b81526012600452602481fd5b500490565b60008160001904831182151516156144f6576144f661452d565b500290565b60008282101561450d5761450d61452d565b500390565b60006000198214156145265761452661452d565b5060010190565b634e487b7160e01b600052601160045260246000fd5b6001600160a01b03811681146120da57600080fdfea26469706673582212208c7f878725e877a4dd612516714d5f79606aad69f37177a906716ab9c29bfbdb64736f6c63430008040033",
  "linkReferences": {},
  "deployedLinkReferences": {}
}