{
  "_format": "hh-sol-artifact-1",
  "contractName": "Loan",
  "sourceName": "contracts/Loan.sol",
  "abi": [
    {
      "inputs": [
        {
          "internalType": "address",
          "name": "_odonAddress",
          "type": "address"
        },
        {
          "internalType": "address",
          "name": "_usdcAddress",
          "type": "address"
        },
        {
          "internalType": "address",
          "name": "_usdtAddress",
          "type": "address"
        },
        {
          "internalType": "address",
          "name": "_btcAddress",
          "type": "address"
        }
      ],
      "stateMutability": "nonpayable",
      "type": "constructor"
    },
    {
      "anonymous": false,
      "inputs": [
        {
          "indexed": false,
          "internalType": "uint256",
          "name": "_usdcAPY",
          "type": "uint256"
        },
        {
          "indexed": false,
          "internalType": "uint256",
          "name": "_usdtAPY",
          "type": "uint256"
        },
        {
          "indexed": false,
          "internalType": "uint256",
          "name": "_btcAPY",
          "type": "uint256"
        }
      ],
      "name": "BorrowAPYUpdated",
      "type": "event"
    },
    {
      "anonymous": false,
      "inputs": [
        {
          "indexed": true,
          "internalType": "address",
          "name": "admin",
          "type": "address"
        },
        {
          "indexed": false,
          "internalType": "uint256",
          "name": "amount",
          "type": "uint256"
        },
        {
          "indexed": false,
          "internalType": "uint256",
          "name": "mtype",
          "type": "uint256"
        }
      ],
      "name": "InitBalance",
      "type": "event"
    },
    {
      "anonymous": false,
      "inputs": [
        {
          "indexed": false,
          "internalType": "uint256",
          "name": "_usdcAPY",
          "type": "uint256"
        },
        {
          "indexed": false,
          "internalType": "uint256",
          "name": "_usdtAPY",
          "type": "uint256"
        },
        {
          "indexed": false,
          "internalType": "uint256",
          "name": "_btcAPY",
          "type": "uint256"
        }
      ],
      "name": "LendAPYUpdated",
      "type": "event"
    },
    {
      "anonymous": false,
      "inputs": [
        {
          "indexed": false,
          "internalType": "address",
          "name": "liquidator",
          "type": "address"
        },
        {
          "indexed": false,
          "internalType": "uint256",
          "name": "liquidateTime",
          "type": "uint256"
        }
      ],
      "name": "Liquidate",
      "type": "event"
    },
    {
      "anonymous": false,
      "inputs": [
        {
          "indexed": false,
          "internalType": "uint256",
          "name": "mtype",
          "type": "uint256"
        }
      ],
      "name": "LoanDurationModeUpdated",
      "type": "event"
    },
    {
      "anonymous": false,
      "inputs": [
        {
          "indexed": true,
          "internalType": "address",
          "name": "lender",
          "type": "address"
        },
        {
          "indexed": false,
          "internalType": "uint256",
          "name": "lendAmount",
          "type": "uint256"
        },
        {
          "indexed": false,
          "internalType": "uint256",
          "name": "paybackAmount",
          "type": "uint256"
        },
        {
          "indexed": false,
          "internalType": "uint256",
          "name": "timeLend",
          "type": "uint256"
        },
        {
          "indexed": false,
          "internalType": "uint256",
          "name": "timeCanGetInterest",
          "type": "uint256"
        },
        {
          "indexed": false,
          "internalType": "bool",
          "name": "retrieved",
          "type": "bool"
        },
        {
          "indexed": false,
          "internalType": "uint256",
          "name": "mtype",
          "type": "uint256"
        }
      ],
      "name": "NewLend",
      "type": "event"
    },
    {
      "anonymous": false,
      "inputs": [
        {
          "indexed": true,
          "internalType": "address",
          "name": "borrower",
          "type": "address"
        },
        {
          "indexed": false,
          "internalType": "uint256",
          "name": "loanAmount",
          "type": "uint256"
        },
        {
          "indexed": false,
          "internalType": "uint256",
          "name": "collateralAmount",
          "type": "uint256"
        },
        {
          "indexed": false,
          "internalType": "uint256",
          "name": "paybackAmount",
          "type": "uint256"
        },
        {
          "indexed": false,
          "internalType": "uint256",
          "name": "loanDueDate",
          "type": "uint256"
        },
        {
          "indexed": false,
          "internalType": "uint256",
          "name": "duration",
          "type": "uint256"
        },
        {
          "indexed": false,
          "internalType": "uint256",
          "name": "mtype",
          "type": "uint256"
        },
        {
          "indexed": false,
          "internalType": "uint256",
          "name": "ctype",
          "type": "uint256"
        }
      ],
      "name": "NewLoan",
      "type": "event"
    },
    {
      "anonymous": false,
      "inputs": [
        {
          "indexed": false,
          "internalType": "uint256",
          "name": "_price",
          "type": "uint256"
        }
      ],
      "name": "OdonPriceUpdated",
      "type": "event"
    },
    {
      "anonymous": false,
      "inputs": [
        {
          "indexed": true,
          "internalType": "address",
          "name": "previousOwner",
          "type": "address"
        },
        {
          "indexed": true,
          "internalType": "address",
          "name": "newOwner",
          "type": "address"
        }
      ],
      "name": "OwnershipTransferred",
      "type": "event"
    },
    {
      "anonymous": false,
      "inputs": [
        {
          "indexed": false,
          "internalType": "address",
          "name": "borrower",
          "type": "address"
        },
        {
          "indexed": false,
          "internalType": "bool",
          "name": "paybackSuccess",
          "type": "bool"
        },
        {
          "indexed": false,
          "internalType": "uint256",
          "name": "paybackTime",
          "type": "uint256"
        },
        {
          "indexed": false,
          "internalType": "uint256",
          "name": "paybackAmount",
          "type": "uint256"
        },
        {
          "indexed": false,
          "internalType": "uint256",
          "name": "returnCollateralAmount",
          "type": "uint256"
        },
        {
          "indexed": false,
          "internalType": "uint256",
          "name": "mtype",
          "type": "uint256"
        },
        {
          "indexed": false,
          "internalType": "uint256",
          "name": "ctype",
          "type": "uint256"
        }
      ],
      "name": "PayBack",
      "type": "event"
    },
    {
      "anonymous": false,
      "inputs": [
        {
          "indexed": true,
          "internalType": "address",
          "name": "priceOracleAddress",
          "type": "address"
        }
      ],
      "name": "PriceOracleUpdated",
      "type": "event"
    },
    {
      "anonymous": false,
      "inputs": [
        {
          "indexed": false,
          "internalType": "uint256",
          "name": "withdrawAmount",
          "type": "uint256"
        },
        {
          "indexed": false,
          "internalType": "uint256",
          "name": "mtype",
          "type": "uint256"
        }
      ],
      "name": "WithDrawReserve",
      "type": "event"
    },
    {
      "anonymous": false,
      "inputs": [
        {
          "indexed": false,
          "internalType": "bool",
          "name": "isEarnInterest",
          "type": "bool"
        },
        {
          "indexed": false,
          "internalType": "uint256",
          "name": "withdrawAmount",
          "type": "uint256"
        },
        {
          "indexed": false,
          "internalType": "uint256",
          "name": "mtype",
          "type": "uint256"
        }
      ],
      "name": "Withdraw",
      "type": "event"
    },
    {
      "inputs": [],
      "name": "AutoLiquidate",
      "outputs": [],
      "stateMutability": "nonpayable",
      "type": "function"
    },
    {
      "inputs": [
        {
          "internalType": "uint256",
          "name": "",
          "type": "uint256"
        }
      ],
      "name": "LendUserList",
      "outputs": [
        {
          "internalType": "address",
          "name": "",
          "type": "address"
        }
      ],
      "stateMutability": "view",
      "type": "function"
    },
    {
      "inputs": [
        {
          "internalType": "uint256",
          "name": "",
          "type": "uint256"
        }
      ],
      "name": "LoanUserList",
      "outputs": [
        {
          "internalType": "address",
          "name": "",
          "type": "address"
        }
      ],
      "stateMutability": "view",
      "type": "function"
    },
    {
      "inputs": [
        {
          "internalType": "address",
          "name": "_user",
          "type": "address"
        }
      ],
      "name": "addUserToLendUserList",
      "outputs": [],
      "stateMutability": "nonpayable",
      "type": "function"
    },
    {
      "inputs": [
        {
          "internalType": "address",
          "name": "_user",
          "type": "address"
        }
      ],
      "name": "addUserToLoanUserList",
      "outputs": [],
      "stateMutability": "nonpayable",
      "type": "function"
    },
    {
      "inputs": [],
      "name": "btcAddress",
      "outputs": [
        {
          "internalType": "address",
          "name": "",
          "type": "address"
        }
      ],
      "stateMutability": "view",
      "type": "function"
    },
    {
      "inputs": [],
      "name": "btcBorrowAPY",
      "outputs": [
        {
          "internalType": "uint256",
          "name": "",
          "type": "uint256"
        }
      ],
      "stateMutability": "view",
      "type": "function"
    },
    {
      "inputs": [],
      "name": "btcLTV",
      "outputs": [
        {
          "internalType": "uint256",
          "name": "",
          "type": "uint256"
        }
      ],
      "stateMutability": "view",
      "type": "function"
    },
    {
      "inputs": [],
      "name": "btcLendAPY",
      "outputs": [
        {
          "internalType": "uint256",
          "name": "",
          "type": "uint256"
        }
      ],
      "stateMutability": "view",
      "type": "function"
    },
    {
      "inputs": [],
      "name": "btcTotalLiquidity",
      "outputs": [
        {
          "internalType": "uint256",
          "name": "",
          "type": "uint256"
        }
      ],
      "stateMutability": "view",
      "type": "function"
    },
    {
      "inputs": [
        {
          "internalType": "uint256",
          "name": "_amount",
          "type": "uint256"
        },
        {
          "internalType": "uint256",
          "name": "mtype",
          "type": "uint256"
        }
      ],
      "name": "checkEnoughLiquidity",
      "outputs": [
        {
          "internalType": "bool",
          "name": "",
          "type": "bool"
        }
      ],
      "stateMutability": "view",
      "type": "function"
    },
    {
      "inputs": [
        {
          "internalType": "address",
          "name": "borrower",
          "type": "address"
        },
        {
          "internalType": "uint256",
          "name": "_id",
          "type": "uint256"
        }
      ],
      "name": "checkLoanExpire",
      "outputs": [
        {
          "internalType": "bool",
          "name": "",
          "type": "bool"
        }
      ],
      "stateMutability": "view",
      "type": "function"
    },
    {
      "inputs": [
        {
          "internalType": "address",
          "name": "_borrower",
          "type": "address"
        },
        {
          "internalType": "uint256",
          "name": "_id",
          "type": "uint256"
        }
      ],
      "name": "checkLoanHealth",
      "outputs": [
        {
          "internalType": "bool",
          "name": "",
          "type": "bool"
        }
      ],
      "stateMutability": "view",
      "type": "function"
    },
    {
      "inputs": [
        {
          "internalType": "uint256",
          "name": "lnAmount",
          "type": "uint256"
        },
        {
          "internalType": "uint256",
          "name": "mtype",
          "type": "uint256"
        },
        {
          "internalType": "uint256",
          "name": "ctype",
          "type": "uint256"
        }
      ],
      "name": "collateralAmount",
      "outputs": [
        {
          "internalType": "uint256",
          "name": "",
          "type": "uint256"
        }
      ],
      "stateMutability": "view",
      "type": "function"
    },
    {
      "inputs": [],
      "name": "dangerousLTV",
      "outputs": [
        {
          "internalType": "uint256",
          "name": "",
          "type": "uint256"
        }
      ],
      "stateMutability": "view",
      "type": "function"
    },
    {
      "inputs": [
        {
          "internalType": "uint256",
          "name": "_amount",
          "type": "uint256"
        },
        {
          "internalType": "uint256",
          "name": "mtype",
          "type": "uint256"
        }
      ],
      "name": "depositToken",
      "outputs": [],
      "stateMutability": "nonpayable",
      "type": "function"
    },
    {
      "inputs": [],
      "name": "firstAddAPY",
      "outputs": [
        {
          "internalType": "uint256",
          "name": "",
          "type": "uint256"
        }
      ],
      "stateMutability": "view",
      "type": "function"
    },
    {
      "inputs": [],
      "name": "getAllUserLoans",
      "outputs": [
        {
          "components": [
            {
              "internalType": "address",
              "name": "borrower",
              "type": "address"
            },
            {
              "internalType": "uint256",
              "name": "loanAmount",
              "type": "uint256"
            },
            {
              "internalType": "uint256",
              "name": "collateralAmount",
              "type": "uint256"
            },
            {
              "internalType": "uint256",
              "name": "paybackAmount",
              "type": "uint256"
            },
            {
              "internalType": "uint256",
              "name": "loanDueDate",
              "type": "uint256"
            },
            {
              "internalType": "uint256",
              "name": "duration",
              "type": "uint256"
            },
            {
              "internalType": "uint256",
              "name": "loanId",
              "type": "uint256"
            },
            {
              "internalType": "bool",
              "name": "isPayback",
              "type": "bool"
            },
            {
              "internalType": "bool",
              "name": "isLiquidate",
              "type": "bool"
            },
            {
              "internalType": "uint256",
              "name": "mtype",
              "type": "uint256"
            },
            {
              "internalType": "uint256",
              "name": "ctype",
              "type": "uint256"
            }
          ],
          "internalType": "struct Loan.LoanRequest[]",
          "name": "",
          "type": "tuple[]"
        }
      ],
      "stateMutability": "view",
      "type": "function"
    },
    {
      "inputs": [
        {
          "internalType": "address",
          "name": "_borrower",
          "type": "address"
        },
        {
          "internalType": "uint256",
          "name": "_id",
          "type": "uint256"
        }
      ],
      "name": "getLoansLTV",
      "outputs": [
        {
          "internalType": "uint256",
          "name": "",
          "type": "uint256"
        }
      ],
      "stateMutability": "view",
      "type": "function"
    },
    {
      "inputs": [
        {
          "internalType": "uint256",
          "name": "mtype",
          "type": "uint256"
        }
      ],
      "name": "getTokenPriceInUSD",
      "outputs": [
        {
          "internalType": "uint256",
          "name": "",
          "type": "uint256"
        }
      ],
      "stateMutability": "view",
      "type": "function"
    },
    {
      "inputs": [
        {
          "internalType": "uint256",
          "name": "mtype",
          "type": "uint256"
        }
      ],
      "name": "getTotalLiquidityInUSD",
      "outputs": [
        {
          "internalType": "uint256",
          "name": "",
          "type": "uint256"
        }
      ],
      "stateMutability": "view",
      "type": "function"
    },
    {
      "inputs": [],
      "name": "getUserAllLends",
      "outputs": [
        {
          "components": [
            {
              "internalType": "address",
              "name": "lender",
              "type": "address"
            },
            {
              "internalType": "uint256",
              "name": "lendId",
              "type": "uint256"
            },
            {
              "internalType": "uint256",
              "name": "lendAmount",
              "type": "uint256"
            },
            {
              "internalType": "uint256",
              "name": "paybackAmount",
              "type": "uint256"
            },
            {
              "internalType": "uint256",
              "name": "timeLend",
              "type": "uint256"
            },
            {
              "internalType": "uint256",
              "name": "timeCanGetInterest",
              "type": "uint256"
            },
            {
              "internalType": "bool",
              "name": "retrieved",
              "type": "bool"
            },
            {
              "internalType": "uint256",
              "name": "mtype",
              "type": "uint256"
            }
          ],
          "internalType": "struct Loan.LendRequest[]",
          "name": "",
          "type": "tuple[]"
        }
      ],
      "stateMutability": "view",
      "type": "function"
    },
    {
      "inputs": [],
      "name": "getUserNotRetrieveLend",
      "outputs": [
        {
          "components": [
            {
              "internalType": "address",
              "name": "lender",
              "type": "address"
            },
            {
              "internalType": "uint256",
              "name": "lendId",
              "type": "uint256"
            },
            {
              "internalType": "uint256",
              "name": "lendAmount",
              "type": "uint256"
            },
            {
              "internalType": "uint256",
              "name": "paybackAmount",
              "type": "uint256"
            },
            {
              "internalType": "uint256",
              "name": "timeLend",
              "type": "uint256"
            },
            {
              "internalType": "uint256",
              "name": "timeCanGetInterest",
              "type": "uint256"
            },
            {
              "internalType": "bool",
              "name": "retrieved",
              "type": "bool"
            },
            {
              "internalType": "uint256",
              "name": "mtype",
              "type": "uint256"
            }
          ],
          "internalType": "struct Loan.LendRequest[]",
          "name": "",
          "type": "tuple[]"
        }
      ],
      "stateMutability": "view",
      "type": "function"
    },
    {
      "inputs": [],
      "name": "getUserOngoingLoans",
      "outputs": [
        {
          "components": [
            {
              "internalType": "address",
              "name": "borrower",
              "type": "address"
            },
            {
              "internalType": "uint256",
              "name": "loanAmount",
              "type": "uint256"
            },
            {
              "internalType": "uint256",
              "name": "collateralAmount",
              "type": "uint256"
            },
            {
              "internalType": "uint256",
              "name": "paybackAmount",
              "type": "uint256"
            },
            {
              "internalType": "uint256",
              "name": "loanDueDate",
              "type": "uint256"
            },
            {
              "internalType": "uint256",
              "name": "duration",
              "type": "uint256"
            },
            {
              "internalType": "uint256",
              "name": "loanId",
              "type": "uint256"
            },
            {
              "internalType": "bool",
              "name": "isPayback",
              "type": "bool"
            },
            {
              "internalType": "bool",
              "name": "isLiquidate",
              "type": "bool"
            },
            {
              "internalType": "uint256",
              "name": "mtype",
              "type": "uint256"
            },
            {
              "internalType": "uint256",
              "name": "ctype",
              "type": "uint256"
            }
          ],
          "internalType": "struct Loan.LoanRequest[]",
          "name": "",
          "type": "tuple[]"
        }
      ],
      "stateMutability": "view",
      "type": "function"
    },
    {
      "inputs": [
        {
          "internalType": "address",
          "name": "borrower",
          "type": "address"
        }
      ],
      "name": "getUserOverdueLoans",
      "outputs": [
        {
          "components": [
            {
              "internalType": "address",
              "name": "borrower",
              "type": "address"
            },
            {
              "internalType": "uint256",
              "name": "loanAmount",
              "type": "uint256"
            },
            {
              "internalType": "uint256",
              "name": "collateralAmount",
              "type": "uint256"
            },
            {
              "internalType": "uint256",
              "name": "paybackAmount",
              "type": "uint256"
            },
            {
              "internalType": "uint256",
              "name": "loanDueDate",
              "type": "uint256"
            },
            {
              "internalType": "uint256",
              "name": "duration",
              "type": "uint256"
            },
            {
              "internalType": "uint256",
              "name": "loanId",
              "type": "uint256"
            },
            {
              "internalType": "bool",
              "name": "isPayback",
              "type": "bool"
            },
            {
              "internalType": "bool",
              "name": "isLiquidate",
              "type": "bool"
            },
            {
              "internalType": "uint256",
              "name": "mtype",
              "type": "uint256"
            },
            {
              "internalType": "uint256",
              "name": "ctype",
              "type": "uint256"
            }
          ],
          "internalType": "struct Loan.LoanRequest[]",
          "name": "",
          "type": "tuple[]"
        }
      ],
      "stateMutability": "view",
      "type": "function"
    },
    {
      "inputs": [
        {
          "internalType": "address",
          "name": "borrower",
          "type": "address"
        }
      ],
      "name": "getUserUnHealthLoans",
      "outputs": [
        {
          "components": [
            {
              "internalType": "address",
              "name": "borrower",
              "type": "address"
            },
            {
              "internalType": "uint256",
              "name": "loanAmount",
              "type": "uint256"
            },
            {
              "internalType": "uint256",
              "name": "collateralAmount",
              "type": "uint256"
            },
            {
              "internalType": "uint256",
              "name": "paybackAmount",
              "type": "uint256"
            },
            {
              "internalType": "uint256",
              "name": "loanDueDate",
              "type": "uint256"
            },
            {
              "internalType": "uint256",
              "name": "duration",
              "type": "uint256"
            },
            {
              "internalType": "uint256",
              "name": "loanId",
              "type": "uint256"
            },
            {
              "internalType": "bool",
              "name": "isPayback",
              "type": "bool"
            },
            {
              "internalType": "bool",
              "name": "isLiquidate",
              "type": "bool"
            },
            {
              "internalType": "uint256",
              "name": "mtype",
              "type": "uint256"
            },
            {
              "internalType": "uint256",
              "name": "ctype",
              "type": "uint256"
            }
          ],
          "internalType": "struct Loan.LoanRequest[]",
          "name": "",
          "type": "tuple[]"
        }
      ],
      "stateMutability": "view",
      "type": "function"
    },
    {
      "inputs": [
        {
          "internalType": "uint256",
          "name": "_amount",
          "type": "uint256"
        },
        {
          "internalType": "uint256",
          "name": "mtype",
          "type": "uint256"
        }
      ],
      "name": "init",
      "outputs": [],
      "stateMutability": "nonpayable",
      "type": "function"
    },
    {
      "inputs": [],
      "name": "lendCount",
      "outputs": [
        {
          "internalType": "uint256",
          "name": "",
          "type": "uint256"
        }
      ],
      "stateMutability": "view",
      "type": "function"
    },
    {
      "inputs": [
        {
          "internalType": "uint256",
          "name": "_amount",
          "type": "uint256"
        },
        {
          "internalType": "uint256",
          "name": "mtype",
          "type": "uint256"
        }
      ],
      "name": "lendToken",
      "outputs": [],
      "stateMutability": "nonpayable",
      "type": "function"
    },
    {
      "inputs": [
        {
          "internalType": "address",
          "name": "",
          "type": "address"
        },
        {
          "internalType": "uint256",
          "name": "",
          "type": "uint256"
        }
      ],
      "name": "lends",
      "outputs": [
        {
          "internalType": "address",
          "name": "lender",
          "type": "address"
        },
        {
          "internalType": "uint256",
          "name": "lendId",
          "type": "uint256"
        },
        {
          "internalType": "uint256",
          "name": "lendAmount",
          "type": "uint256"
        },
        {
          "internalType": "uint256",
          "name": "paybackAmount",
          "type": "uint256"
        },
        {
          "internalType": "uint256",
          "name": "timeLend",
          "type": "uint256"
        },
        {
          "internalType": "uint256",
          "name": "timeCanGetInterest",
          "type": "uint256"
        },
        {
          "internalType": "bool",
          "name": "retrieved",
          "type": "bool"
        },
        {
          "internalType": "uint256",
          "name": "mtype",
          "type": "uint256"
        }
      ],
      "stateMutability": "view",
      "type": "function"
    },
    {
      "inputs": [
        {
          "internalType": "uint256",
          "name": "_amount",
          "type": "uint256"
        },
        {
          "internalType": "uint256",
          "name": "_duration",
          "type": "uint256"
        },
        {
          "internalType": "uint256",
          "name": "mtype",
          "type": "uint256"
        },
        {
          "internalType": "uint256",
          "name": "ctype",
          "type": "uint256"
        }
      ],
      "name": "loan",
      "outputs": [],
      "stateMutability": "nonpayable",
      "type": "function"
    },
    {
      "inputs": [
        {
          "internalType": "uint256",
          "name": "colAmount",
          "type": "uint256"
        },
        {
          "internalType": "uint256",
          "name": "mtype",
          "type": "uint256"
        },
        {
          "internalType": "uint256",
          "name": "ctype",
          "type": "uint256"
        }
      ],
      "name": "loanAmount",
      "outputs": [
        {
          "internalType": "uint256",
          "name": "",
          "type": "uint256"
        }
      ],
      "stateMutability": "view",
      "type": "function"
    },
    {
      "inputs": [],
      "name": "loanCount",
      "outputs": [
        {
          "internalType": "uint256",
          "name": "",
          "type": "uint256"
        }
      ],
      "stateMutability": "view",
      "type": "function"
    },
    {
      "inputs": [],
      "name": "loanMode",
      "outputs": [
        {
          "internalType": "uint256",
          "name": "",
          "type": "uint256"
        }
      ],
      "stateMutability": "view",
      "type": "function"
    },
    {
      "inputs": [
        {
          "internalType": "address",
          "name": "",
          "type": "address"
        },
        {
          "internalType": "uint256",
          "name": "",
          "type": "uint256"
        }
      ],
      "name": "loans",
      "outputs": [
        {
          "internalType": "address",
          "name": "borrower",
          "type": "address"
        },
        {
          "internalType": "uint256",
          "name": "loanAmount",
          "type": "uint256"
        },
        {
          "internalType": "uint256",
          "name": "collateralAmount",
          "type": "uint256"
        },
        {
          "internalType": "uint256",
          "name": "paybackAmount",
          "type": "uint256"
        },
        {
          "internalType": "uint256",
          "name": "loanDueDate",
          "type": "uint256"
        },
        {
          "internalType": "uint256",
          "name": "duration",
          "type": "uint256"
        },
        {
          "internalType": "uint256",
          "name": "loanId",
          "type": "uint256"
        },
        {
          "internalType": "bool",
          "name": "isPayback",
          "type": "bool"
        },
        {
          "internalType": "bool",
          "name": "isLiquidate",
          "type": "bool"
        },
        {
          "internalType": "uint256",
          "name": "mtype",
          "type": "uint256"
        },
        {
          "internalType": "uint256",
          "name": "ctype",
          "type": "uint256"
        }
      ],
      "stateMutability": "view",
      "type": "function"
    },
    {
      "inputs": [],
      "name": "movrAddress",
      "outputs": [
        {
          "internalType": "address",
          "name": "",
          "type": "address"
        }
      ],
      "stateMutability": "view",
      "type": "function"
    },
    {
      "inputs": [],
      "name": "odonAddress",
      "outputs": [
        {
          "internalType": "address",
          "name": "",
          "type": "address"
        }
      ],
      "stateMutability": "view",
      "type": "function"
    },
    {
      "inputs": [],
      "name": "odonPrice",
      "outputs": [
        {
          "internalType": "uint256",
          "name": "",
          "type": "uint256"
        }
      ],
      "stateMutability": "view",
      "type": "function"
    },
    {
      "inputs": [],
      "name": "odonTotalLiquidity",
      "outputs": [
        {
          "internalType": "uint256",
          "name": "",
          "type": "uint256"
        }
      ],
      "stateMutability": "view",
      "type": "function"
    },
    {
      "inputs": [],
      "name": "owner",
      "outputs": [
        {
          "internalType": "address",
          "name": "",
          "type": "address"
        }
      ],
      "stateMutability": "view",
      "type": "function"
    },
    {
      "inputs": [
        {
          "internalType": "uint256",
          "name": "_id",
          "type": "uint256"
        },
        {
          "internalType": "uint256",
          "name": "_amount",
          "type": "uint256"
        }
      ],
      "name": "payback",
      "outputs": [],
      "stateMutability": "nonpayable",
      "type": "function"
    },
    {
      "inputs": [],
      "name": "renounceOwnership",
      "outputs": [],
      "stateMutability": "nonpayable",
      "type": "function"
    },
    {
      "inputs": [],
      "name": "secondAddAPY",
      "outputs": [
        {
          "internalType": "uint256",
          "name": "",
          "type": "uint256"
        }
      ],
      "stateMutability": "view",
      "type": "function"
    },
    {
      "inputs": [
        {
          "internalType": "uint256",
          "name": "_usdcapy",
          "type": "uint256"
        },
        {
          "internalType": "uint256",
          "name": "_usdtapy",
          "type": "uint256"
        },
        {
          "internalType": "uint256",
          "name": "_btcapy",
          "type": "uint256"
        }
      ],
      "name": "setBorrowAPY",
      "outputs": [],
      "stateMutability": "nonpayable",
      "type": "function"
    },
    {
      "inputs": [
        {
          "internalType": "uint256",
          "name": "_usdcapy",
          "type": "uint256"
        },
        {
          "internalType": "uint256",
          "name": "_usdtapy",
          "type": "uint256"
        },
        {
          "internalType": "uint256",
          "name": "_btcapy",
          "type": "uint256"
        }
      ],
      "name": "setLendAPY",
      "outputs": [],
      "stateMutability": "nonpayable",
      "type": "function"
    },
    {
      "inputs": [
        {
          "internalType": "uint256",
          "name": "mtype",
          "type": "uint256"
        }
      ],
      "name": "setLoanDurationMode",
      "outputs": [],
      "stateMutability": "nonpayable",
      "type": "function"
    },
    {
      "inputs": [
        {
          "internalType": "uint256",
          "name": "_price",
          "type": "uint256"
        }
      ],
      "name": "setPriceOdon",
      "outputs": [],
      "stateMutability": "nonpayable",
      "type": "function"
    },
    {
      "inputs": [
        {
          "internalType": "contract PriceConsumerV3",
          "name": "_oracle",
          "type": "address"
        }
      ],
      "name": "setPriceOracle",
      "outputs": [],
      "stateMutability": "nonpayable",
      "type": "function"
    },
    {
      "inputs": [],
      "name": "totalLiquidity",
      "outputs": [
        {
          "internalType": "uint256",
          "name": "",
          "type": "uint256"
        }
      ],
      "stateMutability": "view",
      "type": "function"
    },
    {
      "inputs": [
        {
          "internalType": "address",
          "name": "newOwner",
          "type": "address"
        }
      ],
      "name": "transferOwnership",
      "outputs": [],
      "stateMutability": "nonpayable",
      "type": "function"
    },
    {
      "inputs": [],
      "name": "usdcAddress",
      "outputs": [
        {
          "internalType": "address",
          "name": "",
          "type": "address"
        }
      ],
      "stateMutability": "view",
      "type": "function"
    },
    {
      "inputs": [],
      "name": "usdcBorrowAPY",
      "outputs": [
        {
          "internalType": "uint256",
          "name": "",
          "type": "uint256"
        }
      ],
      "stateMutability": "view",
      "type": "function"
    },
    {
      "inputs": [],
      "name": "usdcLTV",
      "outputs": [
        {
          "internalType": "uint256",
          "name": "",
          "type": "uint256"
        }
      ],
      "stateMutability": "view",
      "type": "function"
    },
    {
      "inputs": [],
      "name": "usdcLendAPY",
      "outputs": [
        {
          "internalType": "uint256",
          "name": "",
          "type": "uint256"
        }
      ],
      "stateMutability": "view",
      "type": "function"
    },
    {
      "inputs": [],
      "name": "usdcTotalLiquidity",
      "outputs": [
        {
          "internalType": "uint256",
          "name": "",
          "type": "uint256"
        }
      ],
      "stateMutability": "view",
      "type": "function"
    },
    {
      "inputs": [],
      "name": "usdtAddress",
      "outputs": [
        {
          "internalType": "address",
          "name": "",
          "type": "address"
        }
      ],
      "stateMutability": "view",
      "type": "function"
    },
    {
      "inputs": [],
      "name": "usdtBorrowAPY",
      "outputs": [
        {
          "internalType": "uint256",
          "name": "",
          "type": "uint256"
        }
      ],
      "stateMutability": "view",
      "type": "function"
    },
    {
      "inputs": [],
      "name": "usdtLTV",
      "outputs": [
        {
          "internalType": "uint256",
          "name": "",
          "type": "uint256"
        }
      ],
      "stateMutability": "view",
      "type": "function"
    },
    {
      "inputs": [],
      "name": "usdtLendAPY",
      "outputs": [
        {
          "internalType": "uint256",
          "name": "",
          "type": "uint256"
        }
      ],
      "stateMutability": "view",
      "type": "function"
    },
    {
      "inputs": [],
      "name": "usdtTotalLiquidity",
      "outputs": [
        {
          "internalType": "uint256",
          "name": "",
          "type": "uint256"
        }
      ],
      "stateMutability": "view",
      "type": "function"
    },
    {
      "inputs": [
        {
          "internalType": "address",
          "name": "",
          "type": "address"
        }
      ],
      "name": "userLendsCount",
      "outputs": [
        {
          "internalType": "uint256",
          "name": "",
          "type": "uint256"
        }
      ],
      "stateMutability": "view",
      "type": "function"
    },
    {
      "inputs": [
        {
          "internalType": "address",
          "name": "",
          "type": "address"
        }
      ],
      "name": "userLoansCount",
      "outputs": [
        {
          "internalType": "uint256",
          "name": "",
          "type": "uint256"
        }
      ],
      "stateMutability": "view",
      "type": "function"
    },
    {
      "inputs": [
        {
          "internalType": "uint256",
          "name": "_amount",
          "type": "uint256"
        },
        {
          "internalType": "uint256",
          "name": "mtype",
          "type": "uint256"
        }
      ],
      "name": "withDrawReserve",
      "outputs": [],
      "stateMutability": "nonpayable",
      "type": "function"
    },
    {
      "inputs": [
        {
          "internalType": "uint256",
          "name": "_id",
          "type": "uint256"
        }
      ],
      "name": "withdraw",
      "outputs": [],
      "stateMutability": "nonpayable",
      "type": "function"
    }
  ],
  "bytecode": "0x6080604052624c4b406008556803860e639d80640000600e556803afb087b876900000600f556802ed6689e54f18000060105568049b9ca9a6943400006011556729a2241af62c0000601255674563918244f40000601355678ac7230489e800006014556798a7d9b8314c000060155567a688906bd8b00000601655674563918244f400006017556753444835ec580000601855676f05b59d3b2000006019556001601a55348015620000b157600080fd5b506040516200451938038062004519833981016040819052620000d491620001c3565b620000df3362000156565b6000600181905560028190556007819055600481905560038190556005819055600655600a80546001600160a01b039586166001600160a01b031991821617909155600b805494861694821694909417909355600c805492851692841692909217909155600d80549190931691161790556200021f565b600080546001600160a01b038381166001600160a01b0319831681178455604051919092169283917f8be0079c531659141344cd1fd0a4f28419497f9722a3daafe3b4186f6b6457e09190a35050565b80516001600160a01b0381168114620001be57600080fd5b919050565b60008060008060808587031215620001d9578384fd5b620001e485620001a6565b9350620001f460208601620001a6565b92506200020460408601620001a6565b91506200021460608601620001a6565b905092959194509250565b6142ea806200022f6000396000f3fe608060405234801561001057600080fd5b50600436106103cf5760003560e01c80636ef9855b116101ff578063b04b022a1161011a578063d9d0befc116100ad578063f2fde38b1161007c578063f2fde38b1461091b578063f6c5dded1461092e578063f7d76ae514610937578063fe3af3ea1461094a57600080fd5b8063d9d0befc146108d9578063df62dbbe146108ec578063e15a6d6a146108f5578063ee9e58001461090857600080fd5b8063d3235306116100e9578063d323530614610897578063d3c9e2c9146108aa578063d3f72d10146108bd578063d5a0b65d146108c657600080fd5b8063b04b022a14610869578063cdb2409a1461087c578063cdbc87f614610885578063ce63094d1461088e57600080fd5b8063973c7d4511610192578063a12af89611610161578063a12af89614610828578063a557b17d1461083b578063a5843f0814610843578063ae5c8fca1461085657600080fd5b8063973c7d451461070e57806398c61c37146107215780639ab4a445146108025780639d2d04d11461081557600080fd5b80637f026f15116101ce5780637f026f15146106a75780638443bccc146106ca5780638a6a29a0146106dd5780638da5cb5b146106fd57600080fd5b80636ef9855b14610678578063715018a61461068157806371d1a70114610689578063725cab5d1461069e57600080fd5b8063439b3543116102ef57806364282ecd11610282578063699e0f5611610251578063699e0f56146106365780636b32991e1461063f5780636c6ac591146106525780636ccbf7581461066557600080fd5b806364282ecd146105fe578063648809901461060757806365440cef1461061a578063693a961d1461062357600080fd5b806353068056116102be57806353068056146105c7578063530e784f146105d057806353bbfefa146105e357806360089fca146105f657600080fd5b8063439b3543146104d957806349a4485d1461058c5780634c0a79fb1461059f57806351bcca5e146105bf57600080fd5b806329055efc116103675780632d1fabec116103365780632d1fabec146104975780632e1a7d4d146104aa5780632e6a1830146104bd5780633583de13146104c657600080fd5b806329055efc14610469578063295dea731461047c57806329b53f85146104855780632b84a68d1461048e57600080fd5b80630bf1644e116103a35780630bf1644e1461043957806315770f9214610442578063168c738c1461044b57806320ec1ff51461046057600080fd5b806208001a146103d457806302d45457146103f0578063048422a51461041b57806309e3136f14610430575b600080fd5b6103dd60195481565b6040519081526020015b60405180910390f35b600b54610403906001600160a01b031681565b6040516001600160a01b0390911681526020016103e7565b61042e610429366004613dca565b61095d565b005b6103dd601a5481565b6103dd60125481565b6103dd60075481565b610453610a1e565b6040516103e79190613f9a565b6103dd60175481565b61042e610477366004613ead565b610bdb565b6103dd60135481565b6103dd60035481565b6103dd60045481565b61042e6104a5366004613e31565b6113ea565b61042e6104b8366004613e31565b611450565b6103dd60165481565b61042e6104d4366004613e61565b6118d3565b6105456104e7366004613de6565b601f602090815260009283526040808420909152908252902080546001820154600283015460038401546004850154600586015460068701546007909701546001600160a01b03909616969495939492939192909160ff9091169088565b604080516001600160a01b0390991689526020890197909752958701949094526060860192909252608085015260a0840152151560c083015260e0820152610100016103e7565b61042e61059a366004613e82565b611e96565b6103dd6105ad366004613dca565b601c6020526000908152604090205481565b61042e611f0d565b6103dd600f5481565b61042e6105de366004613dca565b61208a565b6103dd6105f1366004613e31565b6120fe565b6104536121fb565b6103dd60065481565b61042e610615366004613e82565b612372565b6103dd60055481565b610403610631366004613e31565b6123e9565b6103dd60025481565b61042e61064d366004613e31565b612413565b61042e610660366004613dca565b612472565b610453610673366004613dca565b612534565b6103dd60155481565b61042e612701565b610691612737565b6040516103e79190613f02565b6103dd60145481565b6106ba6106b5366004613de6565b612888565b60405190151581526020016103e7565b61042e6106d8366004613e61565b6128c5565b6103dd6106eb366004613dca565b601d6020526000908152604090205481565b6000546001600160a01b0316610403565b61040361071c366004613e31565b612b38565b6107a161072f366004613de6565b601e60209081526000928352604080842090915290825290208054600182015460028301546003840154600485015460058601546006870154600788015460088901546009909901546001600160a01b039098169896979596949593949293919260ff8083169361010090930416918b565b604080516001600160a01b03909c168c5260208c019a909a52988a01979097526060890195909552608088019390935260a087019190915260c0860152151560e08501521515610100840152610120830152610140820152610160016103e7565b600c54610403906001600160a01b031681565b61042e610823366004613e61565b612b48565b610453610836366004613dca565b612d52565b610691612efa565b61042e610851366004613e61565b613052565b61042e610864366004613e61565b613273565b600a54610403906001600160a01b031681565b6103dd60105481565b6103dd60115481565b6103dd60015481565b6103dd6108a5366004613e82565b613663565b6106ba6108b8366004613de6565b613712565b6103dd600e5481565b6103dd6108d4366004613e31565b613734565b6103dd6108e7366004613e82565b6138ff565b6103dd60185481565b6103dd610903366004613de6565b61399d565b600954610403906001600160a01b031681565b61042e610929366004613dca565b613b53565b6103dd60085481565b600d54610403906001600160a01b031681565b6106ba610958366004613e61565b613bee565b6000805b6020548110156109c857826001600160a01b03166020828154811061099657634e487b7160e01b600052603260045260246000fd5b6000918252602090912001546001600160a01b031614156109b657600191505b806109c08161426e565b915050610961565b5080610a1a57602080546001810182556000919091527fc97bfaf2f8ee708c303a06d134f5ecd8389ae0432af62dc132a24118292866bb0180546001600160a01b0319166001600160a01b0384161790555b5050565b336000908152601c60205260408120546060919067ffffffffffffffff811115610a5857634e487b7160e01b600052604160045260246000fd5b604051908082528060200260200182016040528015610a9157816020015b610a7e613d13565b815260200190600190039081610a765790505b50905060005b336000908152601c6020526040902054811015610bd557336000908152601e6020908152604080832084845282529182902082516101608101845281546001600160a01b031681526001820154928101929092526002810154928201929092526003820154606082015260048201546080820152600582015460a0820152600682015460c0820152600782015460ff80821615801560e085018190526101009384900490921615159284019290925260088401546101208401526009909301546101408301529091610b6c5750806101000151155b8015610b7c575042816080015110155b15610bc257610b8b3383613712565b151560011415610bc25780838381518110610bb657634e487b7160e01b600052603260045260246000fd5b60200260200101819052505b5080610bcd8161426e565b915050610a97565b50919050565b610be58483613bee565b610c365760405162461bcd60e51b815260206004820152601f60248201527f6c6f616e45746865723a206e6f7420656e6f756768206c69717569646974790060448201526064015b60405180910390fd5b610c3e613d13565b3381526020810185905260006002841415610c6957610c628664e8d4a51000614238565b9050610c9c565b8360031415610c8157610c628664e8d4a51000614238565b8360041415610c9c57610c99866402540be400614238565b90505b610ca7818585613663565b604080840191909152336000908152601c6020529081205460c084015260e083018190526101008301819052610120830185905261014083018490526002851415610cf55750601454610d15565b8460031415610d075750601554610d15565b8460041415610d1557506016545b601a5460011415610e4a578560071415610d6d57610d48610d416064610d3b8a85613c63565b90613c7b565b8890613c87565b6060840152610d5a4262093a80614200565b608084015262093a8060a0840152610fb1565b85600e1415610dbb57610d96610d416064610d3b84601254610d8f9190614200565b8b90613c63565b6060840152610da84262127500614200565b60808401526212750060a0840152610fb1565b85601e1415610e0257610ddd610d416064610d3b84601354610d8f9190614200565b6060840152610def4262278d00614200565b608084015262278d0060a0840152610fb1565b60405162461bcd60e51b815260206004820152601d60248201527f6c6f616e546f6b656e3a206e6f2076616c6964206475726174696f6e210000006044820152606401610c2d565b601a5460021415610efe5785601e1415610e7057610ddd610d416064610d3b8a85613c63565b85603c1415610eb757610e92610d416064610d3b84601254610d8f9190614200565b6060840152610ea442624f1a00614200565b6080840152624f1a0060a0840152610fb1565b85605a1415610e0257610ed9610d416064610d3b84601354610d8f9190614200565b6060840152610eeb426276a700614200565b60808401526276a70060a0840152610fb1565b601a5460031415610fb15785605a1415610f2457610ed9610d416064610d3b8a85613c63565b8560b41415610f6b57610f46610d416064610d3b84601254610d8f9190614200565b6060840152610f584262ed4e00614200565b608084015262ed4e0060a0840152610fb1565b856101681415610e0257610f8e610d416064610d3b84601354610d8f9190614200565b6060840152610fa1426301da9c00614200565b60808401526301da9c0060a08401525b6000846001146110ec5750600a5460408085015190516323b872dd60e01b81526001600160a01b039092169182916323b872dd91610ff6913391309190600401613ede565b602060405180830381600087803b15801561101057600080fd5b505af1158015611024573d6000803e3d6000fd5b505050506040513d601f19601f820116820180604052508101906110489190613e11565b6110645760405162461bcd60e51b8152600401610c2d906141aa565b6040848101519051633950935160e01b815230600482015260248101919091526001600160a01b03821690633950935190604401602060405180830381600087803b1580156110b257600080fd5b505af11580156110c6573d6000803e3d6000fd5b505050506040513d601f19601f820116820180604052508101906110ea9190613e11565b505b84600114156110fa5761110f565b604084015160035461110b91613c87565b6003555b6000866002141561112c5750600b546001600160a01b031661115e565b86600314156111475750600c546001600160a01b031661115e565b866004141561115e5750600d546001600160a01b03165b6040516323b872dd60e01b81526001600160a01b038216906323b872dd9061118e90309033908e90600401613ede565b602060405180830381600087803b1580156111a857600080fd5b505af11580156111bc573d6000803e3d6000fd5b505050506040513d601f19601f820116820180604052508101906111e09190613e11565b6111fc5760405162461bcd60e51b8152600401610c2d906141aa565b866002141561121a57600454611212908a613c93565b600455611252565b866003141561123857600554611230908a613c93565b600555611252565b86600414156112525760065461124e908a613c93565b6006555b336000908152601e60209081526040808320601c83528184205484528252808320885181546001600160a01b03919091166001600160a01b031990911617815591880151600180840191909155908801516002830155606088015160038301556080880151600483015560a0880151600583015560c0880151600683015560e0880151600783018054610100808c015115150261ff00199315159390931661ffff199091161791909117905561012088015160088301556101408801516009909201919091558054916113248361426e565b9091555050336000908152601c602052604081208054916113448361426e565b9190505550336001600160a01b03167fd3d220740d3967bbabbce5a2d2be80cf584799db8de046928f1b6d1d7500b45e86602001518760400151886060015189608001518a60a001518b61012001518c61014001516040516113d79796959493929190968752602087019590955260408601939093526060850191909152608084015260a083015260c082015260e00190565b60405180910390a2505050505050505050565b6000546001600160a01b031633146114145760405162461bcd60e51b8152600401610c2d90614175565b601a8190556040518181527f4d5a4bfab3f36cd8f68133a2361e410afb6899ac665938f88ee5e1abb15fec45906020015b60405180910390a150565b336000908152601f602090815260408083208484529091529020600681015460ff16156114bf5760405162461bcd60e51b815260206004820181905260248201527f77697468647261773a204c656e642072657175657374207265747269657665646044820152606401610c2d565b80546001600160a01b031633146115235760405162461bcd60e51b815260206004820152602260248201527f77697468647261773a204f6e6c79206c656e6465722063616e20776974686472604482015261617760f01b6064820152608401610c2d565b61153581600201548260070154613bee565b6115815760405162461bcd60e51b815260206004820152601e60248201527f77697468647261773a206e6f7420656e6f756768206c697175696469747900006044820152606401610c2d565b60068101805460ff19166001179055600581015442111561173c5760008160070154600214156115bd5750600b546001600160a01b03166115f7565b8160070154600314156115dc5750600c546001600160a01b03166115f7565b8160070154600414156115f75750600d546001600160a01b03165b815460038301546040516323b872dd60e01b81526001600160a01b03848116936323b872dd9361162f93309390921691600401613ede565b602060405180830381600087803b15801561164957600080fd5b505af115801561165d573d6000803e3d6000fd5b505050506040513d601f19601f820116820180604052508101906116819190613e11565b508160070154600214156116a85760038201546004546116a091613c93565b6004556116ca565b8160070154600314156116ca5760038201546005546116c691613c93565b6005555b8160070154600414156116ec5760038201546006546116e891613c93565b6006555b60038201546007830154604080516001815260208101939093528201527ffedb0622d5d5fa46cc706a5c2c169f2bf2eb31a59ff2f70cef3096376f58c2c0906060015b60405180910390a1505050565b600081600701546002141561175d5750600b546001600160a01b0316611797565b81600701546003141561177c5750600c546001600160a01b0316611797565b8160070154600414156117975750600d546001600160a01b03165b815460028301546040516323b872dd60e01b81526001600160a01b03848116936323b872dd936117cf93309390921691600401613ede565b602060405180830381600087803b1580156117e957600080fd5b505af11580156117fd573d6000803e3d6000fd5b505050506040513d601f19601f820116820180604052508101906118219190613e11565b5081600701546002141561184857600282015460045461184091613c93565b60045561186a565b81600701546003141561186a57600282015460055461186691613c93565b6005555b81600701546004141561188c57600282015460065461188891613c93565b6006555b60028201546007830154604080516000815260208101939093528201527ffedb0622d5d5fa46cc706a5c2c169f2bf2eb31a59ff2f70cef3096376f58c2c09060600161172f565b336000818152601e602090815260408083208684529091529020805490916001600160a01b03909116146119545760405162461bcd60e51b815260206004820152602260248201527f7061796261636b3a204f6e6c7920626f72726f7765722063616e207061796261604482015261636b60f01b6064820152608401610c2d565b600781015460ff16156119a95760405162461bcd60e51b815260206004820152601860248201527f7061796261636b3a207061796261636b20616c726561647900000000000000006044820152606401610c2d565b80600401544211156119fd5760405162461bcd60e51b815260206004820152601860248201527f7061796261636b3a2065786365656420647565206461746500000000000000006044820152606401610c2d565b601154611a0a338561399d565b10611a615760405162461bcd60e51b815260206004820152602160248201527f7061796261636b3a204c5456206578636565642064616e6765726f7573204c546044820152602b60f91b6064820152608401610c2d565b8060030154821015611ab55760405162461bcd60e51b815260206004820152601960248201527f7061796261636b3a204e6f7420656e6f75676820746f6b656e000000000000006044820152606401610c2d565b611ac781600201548260090154613bee565b611b255760405162461bcd60e51b815260206004820152602960248201527f7061796261636b3a206e6f7420656e6f756768206c6971756964697479206f6e6044820152680818dbdb9d1c9858dd60ba1b6064820152608401610c2d565b6000816008015460021415611b465750600b546001600160a01b0316611b80565b816008015460031415611b655750600c546001600160a01b0316611b80565b816008015460041415611b805750600d546001600160a01b03165b6040516323b872dd60e01b81526001600160a01b038216906323b872dd90611bb090339030908890600401613ede565b602060405180830381600087803b158015611bca57600080fd5b505af1158015611bde573d6000803e3d6000fd5b505050506040513d601f19601f82011682018060405250810190611c029190613e11565b611c1e5760405162461bcd60e51b8152600401610c2d90614118565b604051633950935160e01b8152306004820152602481018490526001600160a01b03821690633950935190604401602060405180830381600087803b158015611c6657600080fd5b505af1158015611c7a573d6000803e3d6000fd5b505050506040513d601f19601f82011682018060405250810190611c9e9190613e11565b50816008015460021415611cc157600454611cb99084613c87565b600455611d01565b816008015460031415611ce357600554611cdb9084613c87565b600555611d01565b816008015460041415611d0157600654611cfd9084613c87565b6006555b6000826009015460011415611d2257506009546001600160a01b0316611d30565b50600a546001600160a01b03165b60028301546040516323b872dd60e01b81526001600160a01b038316916323b872dd91611d64913091339190600401613ede565b602060405180830381600087803b158015611d7e57600080fd5b505af1158015611d92573d6000803e3d6000fd5b505050506040513d601f19601f82011682018060405250810190611db69190613e11565b611dd25760405162461bcd60e51b8152600401610c2d90614118565b826009015460011415611df8576002830154600754611df091613c93565b600755611e0d565b6002830154600354611e0991613c93565b6003555b60078301805461ffff19166001908117909155600384015460028501546008860154600987015460408051338152602081019690965242908601526060850193909352608084019190915260a083015260c08201527f5c775973c71b408f578d06223650690e9508ab4bb549d0691ae69265b311af379060e00160405180910390a15050505050565b6000546001600160a01b03163314611ec05760405162461bcd60e51b8152600401610c2d90614175565b60148390556015829055601681905560408051848152602081018490529081018290527f5e35c511ddee3bac4f3cd917d8e465c37126e7a8a0bc5f8439a65c7676abe19b9060600161172f565b6000546001600160a01b03163314611f375760405162461bcd60e51b8152600401610c2d90614175565b60005b60205481101561204f57600060208281548110611f6757634e487b7160e01b600052603260045260246000fd5b60009182526020822001546001600160a01b031691505b6001600160a01b0382166000908152601c602052604090205481101561203a576001600160a01b0382166000908152601e602090815260408083208484529091529020600781015460ff16158015611fe057506007810154610100900460ff16155b156120275742816004015410156120075760078101805461ffff1916610100179055612027565b6120118383613712565b6120275760078101805461ffff19166101001790555b50806120328161426e565b915050611f7e565b505080806120479061426e565b915050611f3a565b50604080513381524260208201527f08813a3631e12129135cc9440d3fea50eec346f1673b20b994b0456d5d46ccb9910160405180910390a1565b6000546001600160a01b031633146120b45760405162461bcd60e51b8152600401610c2d90614175565b601b80546001600160a01b0319166001600160a01b0383169081179091556040517fefe8ab924ca486283a79dc604baa67add51afb82af1db8ac386ebbba643cdffd90600090a250565b601b5460009081906001600160a01b031661212b5760405162461bcd60e51b8152600401610c2d90614048565b8260011415612158576121516305f5e100610d3b61214886613734565b60075490613c9f565b90506121f5565b826002141561217e576121516305f5e100610d3b61217586613734565b60045490613c9f565b82600314156121a4576121516305f5e100610d3b61219b86613734565b60055490613c9f565b82600414156121ca576121516305f5e100610d3b6121c186613734565b60065490613c9f565b82600514156121f5576121f26305f5e100610d3b600854600354613c9f90919063ffffffff16565b90505b92915050565b336000908152601c60205260408120546060919067ffffffffffffffff81111561223557634e487b7160e01b600052604160045260246000fd5b60405190808252806020026020018201604052801561226e57816020015b61225b613d13565b8152602001906001900390816122535790505b50905060005b336000908152601c6020526040902054811015610bd557336000908152601e6020908152604080832084845282529182902082516101608101845281546001600160a01b031681526001820154928101929092526002810154928201929092526003820154606082015260048201546080820152600582015460a0820152600682015460c0820152600782015460ff808216151560e084015261010091829004161515908201526008820154610120820152600990910154610140820152825183908390811061235457634e487b7160e01b600052603260045260246000fd5b6020026020010181905250808061236a9061426e565b915050612274565b6000546001600160a01b0316331461239c5760405162461bcd60e51b8152600401610c2d90614175565b60178390556018829055601981905560408051848152602081018490529081018290527f1eb993ea8e47c2ce3cb4aade30f5dbcf13db6e9a00e435ee9d7ee80a3f5878839060600161172f565b602181815481106123f957600080fd5b6000918252602090912001546001600160a01b0316905081565b6000546001600160a01b0316331461243d5760405162461bcd60e51b8152600401610c2d90614175565b60088190556040518181527f9a470bd568cbe5e7985016006c3093b3634f775e978b0ec2841ef7c634a2c2ff90602001611445565b6000805b6021548110156124dd57826001600160a01b0316602182815481106124ab57634e487b7160e01b600052603260045260246000fd5b6000918252602090912001546001600160a01b031614156124cb57600191505b806124d58161426e565b915050612476565b5080610a1a57602180546001810182556000919091527f3a6357012c1a3ae0a17d304c9920310382d968ebcc4b1771f41c6b304205b5700180546001600160a01b0384166001600160a01b03199091161790555050565b6001600160a01b0381166000908152601c60205260408120546060919067ffffffffffffffff81111561257757634e487b7160e01b600052604160045260246000fd5b6040519080825280602002602001820160405280156125b057816020015b61259d613d13565b8152602001906001900390816125955790505b50905060005b6001600160a01b0384166000908152601c60205260409020548110156126fa576001600160a01b038085166000908152601e60209081526040808320858452825291829020825161016081018452815490941684526001810154918401919091526002810154918301919091526003810154606083015260048101546080830152600581015460a0830152600681015460c0830152600781015460ff80821615801560e08601819052610100938490049092161515928501929092526008830154610120850152600990920154610140840152906126975750806101000151155b80156126a7575042816080015110155b156126e7576126b68583613712565b6126e757808383815181106126db57634e487b7160e01b600052603260045260246000fd5b60200260200101819052505b50806126f28161426e565b9150506125b6565b5092915050565b6000546001600160a01b0316331461272b5760405162461bcd60e51b8152600401610c2d90614175565b6127356000613cab565b565b336000908152601d60205260408120546060919067ffffffffffffffff81111561277157634e487b7160e01b600052604160045260246000fd5b6040519080825280602002602001820160405280156127aa57816020015b612797613d7a565b81526020019060019003908161278f5790505b50905060005b336000908152601d6020526040902054811015610bd557336000908152601f6020908152604080832084845282529182902082516101008101845281546001600160a01b031681526001820154928101929092526002810154928201929092526003820154606082015260048201546080820152600582015460a0820152600682015460ff16151560c082015260079091015460e0820152825183908390811061286a57634e487b7160e01b600052603260045260246000fd5b602002602001018190525080806128809061426e565b9150506127b0565b6001600160a01b0382166000908152601e602090815260408083208484529091528120600481015482904211156128bd575060015b949350505050565b6000546001600160a01b031633146128ef5760405162461bcd60e51b8152600401610c2d90614175565b6128f98282613bee565b6129515760405162461bcd60e51b815260206004820152602360248201527f776974684472617745746865723a206e6f7420656e6f756768206c697175696460448201526269747960e81b6064820152608401610c2d565b6000816001141561296a57506009546001600160a01b03165b81600214156129855750600b546001600160a01b03166129d2565b81600314156129a05750600c546001600160a01b03166129d2565b81600414156129bb5750600d546001600160a01b03166129d2565b81600514156129d25750600a546001600160a01b03165b6040516323b872dd60e01b81526001600160a01b038216906323b872dd90612a0290309033908890600401613ede565b602060405180830381600087803b158015612a1c57600080fd5b505af1158015612a30573d6000803e3d6000fd5b505050506040513d601f19601f82011682018060405250810190612a549190613e11565b612a705760405162461bcd60e51b8152600401610c2d906140d5565b8160011415612a8e57600754612a869084613c93565b600755612b02565b8160021415612aac57600454612aa49084613c93565b600455612b02565b8160031415612aca57600554612ac29084613c93565b600555612b02565b8160041415612ae857600654612ae09084613c93565b600655612b02565b8160051415612b0257600354612afe9084613c93565b6003555b60408051848152602081018490527f8d7ca91ebdac6a80a88023a61a414acbf330dba3646d6d0a5cc2676bcef101ac910161172f565b602081815481106123f957600080fd5b60008160021415612b655750600b546001600160a01b0316612b97565b8160031415612b805750600c546001600160a01b0316612b97565b8160041415612b975750600d546001600160a01b03165b6040516323b872dd60e01b81526001600160a01b038216906323b872dd90612bc790339030908890600401613ede565b602060405180830381600087803b158015612be157600080fd5b505af1158015612bf5573d6000803e3d6000fd5b505050506040513d601f19601f82011682018060405250810190612c199190613e11565b612c355760405162461bcd60e51b8152600401610c2d9061407f565b604051633950935160e01b8152306004820152602481018490526001600160a01b03821690633950935190604401602060405180830381600087803b158015612c7d57600080fd5b505af1158015612c91573d6000803e3d6000fd5b505050506040513d601f19601f82011682018060405250810190612cb59190613e11565b508160021415612cd457600454612ccc9084613c87565b600455612cee565b8160031415612cee57600554612cea9084613c87565b6005555b8160041415612d0857600654612d049084613c87565b6006555b612d1133612472565b604080518481526020810184905233917f68dcee598918c1887bfa1c13ac763d4659a12722f88a5eb920014ba1f0bc38fb91015b60405180910390a2505050565b6001600160a01b0381166000908152601c60205260408120546060919067ffffffffffffffff811115612d9557634e487b7160e01b600052604160045260246000fd5b604051908082528060200260200182016040528015612dce57816020015b612dbb613d13565b815260200190600190039081612db35790505b50905060005b6001600160a01b0384166000908152601c60205260409020548110156126fa576001600160a01b038085166000908152601e60209081526040808320858452825291829020825161016081018452815490941684526001810154918401919091526002810154918301919091526003810154606083015260048101546080830152600581015460a0830152600681015460c0830152600781015460ff80821615801560e0860181905261010093849004909216151592850192909252600883015461012085015260099092015461014084015290612eb55750428160800151105b15612ee75780838381518110612edb57634e487b7160e01b600052603260045260246000fd5b60200260200101819052505b5080612ef28161426e565b915050612dd4565b336000908152601d60205260408120546060919067ffffffffffffffff811115612f3457634e487b7160e01b600052604160045260246000fd5b604051908082528060200260200182016040528015612f6d57816020015b612f5a613d7a565b815260200190600190039081612f525790505b50905060005b336000908152601d6020526040902054811015610bd557336000908152601f6020908152604080832084845282529182902082516101008101845281546001600160a01b031681526001820154928101929092526002810154928201929092526003820154606082015260048201546080820152600582015460a0820152600682015460ff16151560c0820181905260079092015460e08201529061303f578083838151811061303357634e487b7160e01b600052603260045260246000fd5b60200260200101819052505b508061304a8161426e565b915050612f73565b6000546001600160a01b0316331461307c5760405162461bcd60e51b8152600401610c2d90614175565b600081600214156130995750600b546001600160a01b03166130cb565b81600314156130b45750600c546001600160a01b03166130cb565b81600414156130cb5750600d546001600160a01b03165b6040516323b872dd60e01b81526001600160a01b038216906323b872dd906130fb90339030908890600401613ede565b602060405180830381600087803b15801561311557600080fd5b505af1158015613129573d6000803e3d6000fd5b505050506040513d601f19601f8201168201806040525081019061314d9190613e11565b6131695760405162461bcd60e51b8152600401610c2d906140d5565b604051633950935160e01b8152306004820152602481018490526001600160a01b03821690633950935190604401602060405180830381600087803b1580156131b157600080fd5b505af11580156131c5573d6000803e3d6000fd5b505050506040513d601f19601f820116820180604052508101906131e99190613e11565b5047600755600282141561320c576004546132049084613c87565b600455612d11565b8160031415613222576005546132049084613c87565b8160041415612d11576006546132389084613c87565b600455604080518481526020810184905233917f68dcee598918c1887bfa1c13ac763d4659a12722f88a5eb920014ba1f0bc38fb9101612d45565b600081600214156132905750600b546001600160a01b03166132c2565b81600314156132ab5750600c546001600160a01b03166132c2565b81600414156132c25750600d546001600160a01b03165b6040516323b872dd60e01b81526001600160a01b038216906323b872dd906132f290339030908890600401613ede565b602060405180830381600087803b15801561330c57600080fd5b505af1158015613320573d6000803e3d6000fd5b505050506040513d601f19601f820116820180604052508101906133449190613e11565b6133605760405162461bcd60e51b8152600401610c2d9061407f565b613368613d7a565b338082526000908152601d60209081526040918290205490830152810184905260028314156133bf576133b56133ae6064610d3b60175488613c6390919063ffffffff16565b8590613c87565b6060820152613411565b82600314156133e5576133b56133ae6064610d3b60185488613c6390919063ffffffff16565b82600414156134115761340b6133ae6064610d3b60195488613c6390919063ffffffff16565b60608201525b42608082018190526134269062278d00614200565b60a08201908152600060c0830181815260e08401868152338352601f60209081526040808520601d83528186205486528252808520875181546001600160a01b0319166001600160a01b03909116178155918701516001830155860151600280830191909155606087015160038301556080870151600483015594516005820155915160068301805460ff191691151591909117905551600790910155815491906134d08361426e565b9091555050336000908152601d602052604081208054916134f08361426e565b9091555050604051633950935160e01b8152306004820152602481018590526001600160a01b03831690633950935190604401602060405180830381600087803b15801561353d57600080fd5b505af1158015613551573d6000803e3d6000fd5b505050506040513d601f19601f820116820180604052508101906135759190613e11565b5082600214156135945760045461358c9085613c87565b6004556135ae565b82600314156135ae576005546135aa9085613c87565b6005555b82600414156135c8576006546135c49085613c87565b6006555b6135d133612472565b80600001516001600160a01b03167f4ab15cc690495a744ed84b8955b45eb732403b222a485fa1e287db39ad05e0658260400151836060015184608001518560a001518660c001518760e00151604051613655969594939291909586526020860194909452604085019290925260608401521515608083015260a082015260c00190565b60405180910390a250505050565b600080600061367184613734565b9050600061367e86613734565b905085600214156136b0576136a960646136a3600f548a613cfb90919063ffffffff16565b90613c9f565b92506136f9565b85600314156136d3576136a960646136a3600e548a613cfb90919063ffffffff16565b85600414156136f9576136f660646136a36010548a613cfb90919063ffffffff16565b92505b61370782610d3b8584613c9f565b979650505050505050565b601154600090600190613725858561399d565b106121f2575060009392505050565b601b546000906001600160a01b031661375f5760405162461bcd60e51b8152600401610c2d90614048565b600082600214156137f757601b60009054906101000a90046001600160a01b03166001600160a01b031663d63c25186040518163ffffffff1660e01b815260040160206040518083038186803b1580156137b857600080fd5b505afa1580156137cc573d6000803e3d6000fd5b505050506040513d601f19601f820116820180604052508101906137f09190613e49565b90506138b3565b826003141561384e57601b60009054906101000a90046001600160a01b03166001600160a01b0316633629cf056040518163ffffffff1660e01b815260040160206040518083038186803b1580156137b857600080fd5b82600414156138a557601b60009054906101000a90046001600160a01b03166001600160a01b0316630f00fa116040518163ffffffff1660e01b815260040160206040518083038186803b1580156137b857600080fd5b82600514156138b357506008545b600081116121f55760405162461bcd60e51b81526020600482015260196024820152781d1bdad95b881c1c9a58d9481a5cdb89dd0818dbdc9c9958dd603a1b6044820152606401610c2d565b600080600061390d84613734565b9050600061391a86613734565b905085600214156139465761393f6064610d3b600f548a613c6390919063ffffffff16565b925061398f565b85600314156139695761393f6064610d3b600e548a613c6390919063ffffffff16565b856004141561398f5761398c6064610d3b6010548a613c6390919063ffffffff16565b92505b61370781610d3b8585613c9f565b6001600160a01b038083166000908152601e602090815260408083208584529091528120601b54919290918391166139e75760405162461bcd60e51b8152600401610c2d90614048565b60006139f68360090154613734565b905060008111613a485760405162461bcd60e51b815260206004820152601960248201527f65746865722070726963652069736e277420636f7272656374000000000000006044820152606401610c2d565b6000613a578460080154613734565b905060008111613aa55760405162461bcd60e51b81526020600482015260196024820152781d1bdad95b881c1c9a58d9481a5cdb89dd0818dbdc9c9958dd603a1b6044820152606401610c2d565b6003840154600090613ab79083613c9f565b90506000613ad2848760020154613c9f90919063ffffffff16565b9050856008015460021415613afe57613af764e8d4a510006136a36064818686613cfb565b9450613b46565b856008015460031415613b2157613af76402540be4006136a36064818686613cfb565b856008015460041415613b4657613b436305f5e1006136a36064818686613cfb565b94505b5092979650505050505050565b6000546001600160a01b03163314613b7d5760405162461bcd60e51b8152600401610c2d90614175565b6001600160a01b038116613be25760405162461bcd60e51b815260206004820152602660248201527f4f776e61626c653a206e6577206f776e657220697320746865207a65726f206160448201526564647265737360d01b6064820152608401610c2d565b613beb81613cab565b50565b6000808260011415613c035750600754613c47565b8260021415613c155750600454613c47565b8260031415613c275750600554613c47565b8260041415613c395750600654613c47565b8260051415613c4757506003545b80841115613c595760009150506121f5565b60019150506121f5565b60006121f2670de0b6b3a7640000610d3b8585613c9f565b60006121f28284614218565b60006121f28284614200565b60006121f28284614257565b60006121f28284614238565b600080546001600160a01b038381166001600160a01b0319831681178455604051919092169283917f8be0079c531659141344cd1fd0a4f28419497f9722a3daafe3b4186f6b6457e09190a35050565b60006121f282610d3b85670de0b6b3a7640000613c9f565b60405180610160016040528060006001600160a01b0316815260200160008152602001600081526020016000815260200160008152602001600081526020016000815260200160001515815260200160001515815260200160008152602001600081525090565b60405180610100016040528060006001600160a01b031681526020016000815260200160008152602001600081526020016000815260200160008152602001600015158152602001600081525090565b600060208284031215613ddb578081fd5b81356121f28161429f565b60008060408385031215613df8578081fd5b8235613e038161429f565b946020939093013593505050565b600060208284031215613e22578081fd5b815180151581146121f2578182fd5b600060208284031215613e42578081fd5b5035919050565b600060208284031215613e5a578081fd5b5051919050565b60008060408385031215613e73578182fd5b50508035926020909101359150565b600080600060608486031215613e96578081fd5b505081359360208301359350604090920135919050565b60008060008060808587031215613ec2578081fd5b5050823594602084013594506040840135936060013592509050565b6001600160a01b039384168152919092166020820152604081019190915260600190565b602080825282518282018190526000919060409081850190868401855b82811015613f8d57815180516001600160a01b0316855286810151878601528581015186860152606080820151908601526080808201519086015260a0808201519086015260c08082015115159086015260e090810151908501526101009093019290850190600101613f1f565b5091979650505050505050565b602080825282518282018190526000919060409081850190868401855b82811015613f8d57815180516001600160a01b0316855286810151878601528581015186860152606080820151908601526080808201519086015260a0808201519086015260c0808201519086015260e08082015115159086015261010080820151151590860152610120808201519086015261014090810151908501526101609093019290850190600101613fb7565b6020808252601e908201527f7072696365206f7261636c652069736e277420696e697469616c697a65640000604082015260600190565b60208082526036908201527f6c656e64546f6b656e3a205472616e7366657220746f6b656e2066726f6d20756040820152751cd95c881d1bc818dbdb9d1c9858dd0819985a5b195960521b606082015260800190565b60208082526023908201527f5472616e73616374696f6e206661696c6564206f6e20696e69742066756e637460408201526234b7b760e91b606082015260800190565b60208082526039908201527f7061796261636b3a205472616e7366657220636f6c6c61746572616c2066726f60408201527f6d20636f6e747261637420746f2075736572206661696c656400000000000000606082015260800190565b6020808252818101527f4f776e61626c653a2063616c6c6572206973206e6f7420746865206f776e6572604082015260600190565b60208082526036908201527f6c6f616e546f6b656e3a205472616e7366657220746f6b656e2066726f6d20636040820152751bdb9d1c9858dd081d1bc81d5cd95c8819985a5b195960521b606082015260800190565b6000821982111561421357614213614289565b500190565b60008261423357634e487b7160e01b81526012600452602481fd5b500490565b600081600019048311821515161561425257614252614289565b500290565b60008282101561426957614269614289565b500390565b600060001982141561428257614282614289565b5060010190565b634e487b7160e01b600052601160045260246000fd5b6001600160a01b0381168114613beb57600080fdfea2646970667358221220da62a68fcdf7705c54d132af552c2d2e32ad1aacd3057fbd10d2cd26384d222064736f6c63430008040033",
  "linkReferences": {},
  "deployedLinkReferences": {}
}