{
  "_format": "hh-sol-artifact-1",
  "contractName": "Loan",
  "sourceName": "contracts/Loan.sol",
  "abi": [
    {
      "inputs": [
        {
          "internalType": "address",
          "name": "_odonAddress",
          "type": "address"
        },
        {
          "internalType": "address",
          "name": "_usdcAddress",
          "type": "address"
        },
        {
          "internalType": "address",
          "name": "_usdtAddress",
          "type": "address"
        },
        {
          "internalType": "address",
          "name": "_btcAddress",
          "type": "address"
        }
      ],
      "stateMutability": "nonpayable",
      "type": "constructor"
    },
    {
      "anonymous": false,
      "inputs": [
        {
          "indexed": false,
          "internalType": "uint256",
          "name": "_usdcAPY",
          "type": "uint256"
        },
        {
          "indexed": false,
          "internalType": "uint256",
          "name": "_usdtAPY",
          "type": "uint256"
        },
        {
          "indexed": false,
          "internalType": "uint256",
          "name": "_btcAPY",
          "type": "uint256"
        }
      ],
      "name": "BorrowAPYUpdated",
      "type": "event"
    },
    {
      "anonymous": false,
      "inputs": [
        {
          "indexed": true,
          "internalType": "address",
          "name": "admin",
          "type": "address"
        },
        {
          "indexed": false,
          "internalType": "uint256",
          "name": "amount",
          "type": "uint256"
        },
        {
          "indexed": false,
          "internalType": "uint256",
          "name": "mtype",
          "type": "uint256"
        }
      ],
      "name": "InitBalance",
      "type": "event"
    },
    {
      "anonymous": false,
      "inputs": [
        {
          "indexed": false,
          "internalType": "uint256",
          "name": "_usdcAPY",
          "type": "uint256"
        },
        {
          "indexed": false,
          "internalType": "uint256",
          "name": "_usdtAPY",
          "type": "uint256"
        },
        {
          "indexed": false,
          "internalType": "uint256",
          "name": "_btcAPY",
          "type": "uint256"
        }
      ],
      "name": "LendAPYUpdated",
      "type": "event"
    },
    {
      "anonymous": false,
      "inputs": [
        {
          "indexed": false,
          "internalType": "address",
          "name": "liquidator",
          "type": "address"
        },
        {
          "indexed": false,
          "internalType": "uint256",
          "name": "liquidateTime",
          "type": "uint256"
        }
      ],
      "name": "Liquidate",
      "type": "event"
    },
    {
      "anonymous": false,
      "inputs": [
        {
          "indexed": false,
          "internalType": "uint256",
          "name": "mtype",
          "type": "uint256"
        }
      ],
      "name": "LoanDurationModeUpdated",
      "type": "event"
    },
    {
      "anonymous": false,
      "inputs": [
        {
          "indexed": true,
          "internalType": "address",
          "name": "lender",
          "type": "address"
        },
        {
          "indexed": false,
          "internalType": "uint256",
          "name": "lendAmount",
          "type": "uint256"
        },
        {
          "indexed": false,
          "internalType": "uint256",
          "name": "paybackAmount",
          "type": "uint256"
        },
        {
          "indexed": false,
          "internalType": "uint256",
          "name": "timeLend",
          "type": "uint256"
        },
        {
          "indexed": false,
          "internalType": "uint256",
          "name": "timeCanGetInterest",
          "type": "uint256"
        },
        {
          "indexed": false,
          "internalType": "bool",
          "name": "retrieved",
          "type": "bool"
        },
        {
          "indexed": false,
          "internalType": "uint256",
          "name": "mtype",
          "type": "uint256"
        }
      ],
      "name": "NewLend",
      "type": "event"
    },
    {
      "anonymous": false,
      "inputs": [
        {
          "indexed": true,
          "internalType": "address",
          "name": "borrower",
          "type": "address"
        },
        {
          "indexed": false,
          "internalType": "uint256",
          "name": "loanAmount",
          "type": "uint256"
        },
        {
          "indexed": false,
          "internalType": "uint256",
          "name": "collateralAmount",
          "type": "uint256"
        },
        {
          "indexed": false,
          "internalType": "uint256",
          "name": "paybackAmount",
          "type": "uint256"
        },
        {
          "indexed": false,
          "internalType": "uint256",
          "name": "loanDueDate",
          "type": "uint256"
        },
        {
          "indexed": false,
          "internalType": "uint256",
          "name": "duration",
          "type": "uint256"
        },
        {
          "indexed": false,
          "internalType": "uint256",
          "name": "mtype",
          "type": "uint256"
        },
        {
          "indexed": false,
          "internalType": "uint256",
          "name": "ctype",
          "type": "uint256"
        }
      ],
      "name": "NewLoan",
      "type": "event"
    },
    {
      "anonymous": false,
      "inputs": [
        {
          "indexed": false,
          "internalType": "uint256",
          "name": "_price",
          "type": "uint256"
        }
      ],
      "name": "OdonPriceUpdated",
      "type": "event"
    },
    {
      "anonymous": false,
      "inputs": [
        {
          "indexed": true,
          "internalType": "address",
          "name": "previousOwner",
          "type": "address"
        },
        {
          "indexed": true,
          "internalType": "address",
          "name": "newOwner",
          "type": "address"
        }
      ],
      "name": "OwnershipTransferred",
      "type": "event"
    },
    {
      "anonymous": false,
      "inputs": [
        {
          "indexed": false,
          "internalType": "address",
          "name": "borrower",
          "type": "address"
        },
        {
          "indexed": false,
          "internalType": "bool",
          "name": "paybackSuccess",
          "type": "bool"
        },
        {
          "indexed": false,
          "internalType": "uint256",
          "name": "paybackTime",
          "type": "uint256"
        },
        {
          "indexed": false,
          "internalType": "uint256",
          "name": "paybackAmount",
          "type": "uint256"
        },
        {
          "indexed": false,
          "internalType": "uint256",
          "name": "returnCollateralAmount",
          "type": "uint256"
        },
        {
          "indexed": false,
          "internalType": "uint256",
          "name": "mtype",
          "type": "uint256"
        },
        {
          "indexed": false,
          "internalType": "uint256",
          "name": "ctype",
          "type": "uint256"
        }
      ],
      "name": "PayBack",
      "type": "event"
    },
    {
      "anonymous": false,
      "inputs": [
        {
          "indexed": true,
          "internalType": "address",
          "name": "priceOracleAddress",
          "type": "address"
        }
      ],
      "name": "PriceOracleUpdated",
      "type": "event"
    },
    {
      "anonymous": false,
      "inputs": [
        {
          "indexed": false,
          "internalType": "uint256",
          "name": "_usdcLTV",
          "type": "uint256"
        },
        {
          "indexed": false,
          "internalType": "uint256",
          "name": "_usdtLTV",
          "type": "uint256"
        },
        {
          "indexed": false,
          "internalType": "uint256",
          "name": "_btcLTV",
          "type": "uint256"
        }
      ],
      "name": "StandardLTVUpdated",
      "type": "event"
    },
    {
      "anonymous": false,
      "inputs": [
        {
          "indexed": false,
          "internalType": "uint256",
          "name": "withdrawAmount",
          "type": "uint256"
        },
        {
          "indexed": false,
          "internalType": "uint256",
          "name": "mtype",
          "type": "uint256"
        }
      ],
      "name": "WithDrawReserve",
      "type": "event"
    },
    {
      "anonymous": false,
      "inputs": [
        {
          "indexed": false,
          "internalType": "bool",
          "name": "isEarnInterest",
          "type": "bool"
        },
        {
          "indexed": false,
          "internalType": "uint256",
          "name": "withdrawAmount",
          "type": "uint256"
        },
        {
          "indexed": false,
          "internalType": "uint256",
          "name": "mtype",
          "type": "uint256"
        }
      ],
      "name": "Withdraw",
      "type": "event"
    },
    {
      "inputs": [],
      "name": "AutoLiquidate",
      "outputs": [],
      "stateMutability": "nonpayable",
      "type": "function"
    },
    {
      "inputs": [
        {
          "internalType": "uint256",
          "name": "",
          "type": "uint256"
        }
      ],
      "name": "LendUserList",
      "outputs": [
        {
          "internalType": "address",
          "name": "",
          "type": "address"
        }
      ],
      "stateMutability": "view",
      "type": "function"
    },
    {
      "inputs": [
        {
          "internalType": "uint256",
          "name": "",
          "type": "uint256"
        }
      ],
      "name": "LoanUserList",
      "outputs": [
        {
          "internalType": "address",
          "name": "",
          "type": "address"
        }
      ],
      "stateMutability": "view",
      "type": "function"
    },
    {
      "inputs": [
        {
          "internalType": "address",
          "name": "_user",
          "type": "address"
        }
      ],
      "name": "addUserToLendUserList",
      "outputs": [],
      "stateMutability": "nonpayable",
      "type": "function"
    },
    {
      "inputs": [
        {
          "internalType": "address",
          "name": "_user",
          "type": "address"
        }
      ],
      "name": "addUserToLoanUserList",
      "outputs": [],
      "stateMutability": "nonpayable",
      "type": "function"
    },
    {
      "inputs": [],
      "name": "btcAddress",
      "outputs": [
        {
          "internalType": "address",
          "name": "",
          "type": "address"
        }
      ],
      "stateMutability": "view",
      "type": "function"
    },
    {
      "inputs": [],
      "name": "btcBorrowAPY",
      "outputs": [
        {
          "internalType": "uint256",
          "name": "",
          "type": "uint256"
        }
      ],
      "stateMutability": "view",
      "type": "function"
    },
    {
      "inputs": [],
      "name": "btcLTV",
      "outputs": [
        {
          "internalType": "uint256",
          "name": "",
          "type": "uint256"
        }
      ],
      "stateMutability": "view",
      "type": "function"
    },
    {
      "inputs": [],
      "name": "btcLendAPY",
      "outputs": [
        {
          "internalType": "uint256",
          "name": "",
          "type": "uint256"
        }
      ],
      "stateMutability": "view",
      "type": "function"
    },
    {
      "inputs": [],
      "name": "btcTotalLiquidity",
      "outputs": [
        {
          "internalType": "uint256",
          "name": "",
          "type": "uint256"
        }
      ],
      "stateMutability": "view",
      "type": "function"
    },
    {
      "inputs": [
        {
          "internalType": "uint256",
          "name": "_amount",
          "type": "uint256"
        },
        {
          "internalType": "uint256",
          "name": "mtype",
          "type": "uint256"
        }
      ],
      "name": "checkEnoughLiquidity",
      "outputs": [
        {
          "internalType": "bool",
          "name": "",
          "type": "bool"
        }
      ],
      "stateMutability": "view",
      "type": "function"
    },
    {
      "inputs": [
        {
          "internalType": "address",
          "name": "borrower",
          "type": "address"
        },
        {
          "internalType": "uint256",
          "name": "_id",
          "type": "uint256"
        }
      ],
      "name": "checkLoanExpire",
      "outputs": [
        {
          "internalType": "bool",
          "name": "",
          "type": "bool"
        }
      ],
      "stateMutability": "view",
      "type": "function"
    },
    {
      "inputs": [
        {
          "internalType": "address",
          "name": "_borrower",
          "type": "address"
        },
        {
          "internalType": "uint256",
          "name": "_id",
          "type": "uint256"
        }
      ],
      "name": "checkLoanHealth",
      "outputs": [
        {
          "internalType": "bool",
          "name": "",
          "type": "bool"
        }
      ],
      "stateMutability": "view",
      "type": "function"
    },
    {
      "inputs": [
        {
          "internalType": "uint256",
          "name": "lnAmount",
          "type": "uint256"
        },
        {
          "internalType": "uint256",
          "name": "mtype",
          "type": "uint256"
        },
        {
          "internalType": "uint256",
          "name": "ctype",
          "type": "uint256"
        }
      ],
      "name": "collateralAmount",
      "outputs": [
        {
          "internalType": "uint256",
          "name": "",
          "type": "uint256"
        }
      ],
      "stateMutability": "view",
      "type": "function"
    },
    {
      "inputs": [],
      "name": "dangerousLTV",
      "outputs": [
        {
          "internalType": "uint256",
          "name": "",
          "type": "uint256"
        }
      ],
      "stateMutability": "view",
      "type": "function"
    },
    {
      "inputs": [
        {
          "internalType": "uint256",
          "name": "_amount",
          "type": "uint256"
        },
        {
          "internalType": "uint256",
          "name": "mtype",
          "type": "uint256"
        }
      ],
      "name": "depositToken",
      "outputs": [],
      "stateMutability": "nonpayable",
      "type": "function"
    },
    {
      "inputs": [],
      "name": "firstAddAPY",
      "outputs": [
        {
          "internalType": "uint256",
          "name": "",
          "type": "uint256"
        }
      ],
      "stateMutability": "view",
      "type": "function"
    },
    {
      "inputs": [],
      "name": "getAllUserLoans",
      "outputs": [
        {
          "components": [
            {
              "internalType": "address",
              "name": "borrower",
              "type": "address"
            },
            {
              "internalType": "uint256",
              "name": "loanAmount",
              "type": "uint256"
            },
            {
              "internalType": "uint256",
              "name": "collateralAmount",
              "type": "uint256"
            },
            {
              "internalType": "uint256",
              "name": "paybackAmount",
              "type": "uint256"
            },
            {
              "internalType": "uint256",
              "name": "loanDueDate",
              "type": "uint256"
            },
            {
              "internalType": "uint256",
              "name": "duration",
              "type": "uint256"
            },
            {
              "internalType": "uint256",
              "name": "loanId",
              "type": "uint256"
            },
            {
              "internalType": "bool",
              "name": "isPayback",
              "type": "bool"
            },
            {
              "internalType": "bool",
              "name": "isLiquidate",
              "type": "bool"
            },
            {
              "internalType": "uint256",
              "name": "mtype",
              "type": "uint256"
            },
            {
              "internalType": "uint256",
              "name": "ctype",
              "type": "uint256"
            }
          ],
          "internalType": "struct Loan.LoanRequest[]",
          "name": "",
          "type": "tuple[]"
        }
      ],
      "stateMutability": "view",
      "type": "function"
    },
    {
      "inputs": [
        {
          "internalType": "address",
          "name": "_borrower",
          "type": "address"
        },
        {
          "internalType": "uint256",
          "name": "_id",
          "type": "uint256"
        }
      ],
      "name": "getLoansLTV",
      "outputs": [
        {
          "internalType": "uint256",
          "name": "",
          "type": "uint256"
        }
      ],
      "stateMutability": "view",
      "type": "function"
    },
    {
      "inputs": [
        {
          "internalType": "uint256",
          "name": "mtype",
          "type": "uint256"
        }
      ],
      "name": "getTokenPriceInUSD",
      "outputs": [
        {
          "internalType": "uint256",
          "name": "",
          "type": "uint256"
        }
      ],
      "stateMutability": "view",
      "type": "function"
    },
    {
      "inputs": [
        {
          "internalType": "uint256",
          "name": "mtype",
          "type": "uint256"
        }
      ],
      "name": "getTotalLiquidityInUSD",
      "outputs": [
        {
          "internalType": "uint256",
          "name": "",
          "type": "uint256"
        }
      ],
      "stateMutability": "view",
      "type": "function"
    },
    {
      "inputs": [],
      "name": "getUserAllLends",
      "outputs": [
        {
          "components": [
            {
              "internalType": "address",
              "name": "lender",
              "type": "address"
            },
            {
              "internalType": "uint256",
              "name": "lendId",
              "type": "uint256"
            },
            {
              "internalType": "uint256",
              "name": "lendAmount",
              "type": "uint256"
            },
            {
              "internalType": "uint256",
              "name": "paybackAmount",
              "type": "uint256"
            },
            {
              "internalType": "uint256",
              "name": "timeLend",
              "type": "uint256"
            },
            {
              "internalType": "uint256",
              "name": "timeCanGetInterest",
              "type": "uint256"
            },
            {
              "internalType": "bool",
              "name": "retrieved",
              "type": "bool"
            },
            {
              "internalType": "uint256",
              "name": "mtype",
              "type": "uint256"
            }
          ],
          "internalType": "struct Loan.LendRequest[]",
          "name": "",
          "type": "tuple[]"
        }
      ],
      "stateMutability": "view",
      "type": "function"
    },
    {
      "inputs": [],
      "name": "getUserNotRetrieveLend",
      "outputs": [
        {
          "components": [
            {
              "internalType": "address",
              "name": "lender",
              "type": "address"
            },
            {
              "internalType": "uint256",
              "name": "lendId",
              "type": "uint256"
            },
            {
              "internalType": "uint256",
              "name": "lendAmount",
              "type": "uint256"
            },
            {
              "internalType": "uint256",
              "name": "paybackAmount",
              "type": "uint256"
            },
            {
              "internalType": "uint256",
              "name": "timeLend",
              "type": "uint256"
            },
            {
              "internalType": "uint256",
              "name": "timeCanGetInterest",
              "type": "uint256"
            },
            {
              "internalType": "bool",
              "name": "retrieved",
              "type": "bool"
            },
            {
              "internalType": "uint256",
              "name": "mtype",
              "type": "uint256"
            }
          ],
          "internalType": "struct Loan.LendRequest[]",
          "name": "",
          "type": "tuple[]"
        }
      ],
      "stateMutability": "view",
      "type": "function"
    },
    {
      "inputs": [],
      "name": "getUserOngoingLoans",
      "outputs": [
        {
          "components": [
            {
              "internalType": "address",
              "name": "borrower",
              "type": "address"
            },
            {
              "internalType": "uint256",
              "name": "loanAmount",
              "type": "uint256"
            },
            {
              "internalType": "uint256",
              "name": "collateralAmount",
              "type": "uint256"
            },
            {
              "internalType": "uint256",
              "name": "paybackAmount",
              "type": "uint256"
            },
            {
              "internalType": "uint256",
              "name": "loanDueDate",
              "type": "uint256"
            },
            {
              "internalType": "uint256",
              "name": "duration",
              "type": "uint256"
            },
            {
              "internalType": "uint256",
              "name": "loanId",
              "type": "uint256"
            },
            {
              "internalType": "bool",
              "name": "isPayback",
              "type": "bool"
            },
            {
              "internalType": "bool",
              "name": "isLiquidate",
              "type": "bool"
            },
            {
              "internalType": "uint256",
              "name": "mtype",
              "type": "uint256"
            },
            {
              "internalType": "uint256",
              "name": "ctype",
              "type": "uint256"
            }
          ],
          "internalType": "struct Loan.LoanRequest[]",
          "name": "",
          "type": "tuple[]"
        }
      ],
      "stateMutability": "view",
      "type": "function"
    },
    {
      "inputs": [
        {
          "internalType": "address",
          "name": "borrower",
          "type": "address"
        }
      ],
      "name": "getUserOverdueLoans",
      "outputs": [
        {
          "components": [
            {
              "internalType": "address",
              "name": "borrower",
              "type": "address"
            },
            {
              "internalType": "uint256",
              "name": "loanAmount",
              "type": "uint256"
            },
            {
              "internalType": "uint256",
              "name": "collateralAmount",
              "type": "uint256"
            },
            {
              "internalType": "uint256",
              "name": "paybackAmount",
              "type": "uint256"
            },
            {
              "internalType": "uint256",
              "name": "loanDueDate",
              "type": "uint256"
            },
            {
              "internalType": "uint256",
              "name": "duration",
              "type": "uint256"
            },
            {
              "internalType": "uint256",
              "name": "loanId",
              "type": "uint256"
            },
            {
              "internalType": "bool",
              "name": "isPayback",
              "type": "bool"
            },
            {
              "internalType": "bool",
              "name": "isLiquidate",
              "type": "bool"
            },
            {
              "internalType": "uint256",
              "name": "mtype",
              "type": "uint256"
            },
            {
              "internalType": "uint256",
              "name": "ctype",
              "type": "uint256"
            }
          ],
          "internalType": "struct Loan.LoanRequest[]",
          "name": "",
          "type": "tuple[]"
        }
      ],
      "stateMutability": "view",
      "type": "function"
    },
    {
      "inputs": [
        {
          "internalType": "address",
          "name": "borrower",
          "type": "address"
        }
      ],
      "name": "getUserUnHealthLoans",
      "outputs": [
        {
          "components": [
            {
              "internalType": "address",
              "name": "borrower",
              "type": "address"
            },
            {
              "internalType": "uint256",
              "name": "loanAmount",
              "type": "uint256"
            },
            {
              "internalType": "uint256",
              "name": "collateralAmount",
              "type": "uint256"
            },
            {
              "internalType": "uint256",
              "name": "paybackAmount",
              "type": "uint256"
            },
            {
              "internalType": "uint256",
              "name": "loanDueDate",
              "type": "uint256"
            },
            {
              "internalType": "uint256",
              "name": "duration",
              "type": "uint256"
            },
            {
              "internalType": "uint256",
              "name": "loanId",
              "type": "uint256"
            },
            {
              "internalType": "bool",
              "name": "isPayback",
              "type": "bool"
            },
            {
              "internalType": "bool",
              "name": "isLiquidate",
              "type": "bool"
            },
            {
              "internalType": "uint256",
              "name": "mtype",
              "type": "uint256"
            },
            {
              "internalType": "uint256",
              "name": "ctype",
              "type": "uint256"
            }
          ],
          "internalType": "struct Loan.LoanRequest[]",
          "name": "",
          "type": "tuple[]"
        }
      ],
      "stateMutability": "view",
      "type": "function"
    },
    {
      "inputs": [
        {
          "internalType": "uint256",
          "name": "_amount",
          "type": "uint256"
        },
        {
          "internalType": "uint256",
          "name": "mtype",
          "type": "uint256"
        }
      ],
      "name": "init",
      "outputs": [],
      "stateMutability": "nonpayable",
      "type": "function"
    },
    {
      "inputs": [],
      "name": "lendCount",
      "outputs": [
        {
          "internalType": "uint256",
          "name": "",
          "type": "uint256"
        }
      ],
      "stateMutability": "view",
      "type": "function"
    },
    {
      "inputs": [
        {
          "internalType": "uint256",
          "name": "_amount",
          "type": "uint256"
        },
        {
          "internalType": "uint256",
          "name": "mtype",
          "type": "uint256"
        }
      ],
      "name": "lendToken",
      "outputs": [],
      "stateMutability": "nonpayable",
      "type": "function"
    },
    {
      "inputs": [
        {
          "internalType": "address",
          "name": "",
          "type": "address"
        },
        {
          "internalType": "uint256",
          "name": "",
          "type": "uint256"
        }
      ],
      "name": "lends",
      "outputs": [
        {
          "internalType": "address",
          "name": "lender",
          "type": "address"
        },
        {
          "internalType": "uint256",
          "name": "lendId",
          "type": "uint256"
        },
        {
          "internalType": "uint256",
          "name": "lendAmount",
          "type": "uint256"
        },
        {
          "internalType": "uint256",
          "name": "paybackAmount",
          "type": "uint256"
        },
        {
          "internalType": "uint256",
          "name": "timeLend",
          "type": "uint256"
        },
        {
          "internalType": "uint256",
          "name": "timeCanGetInterest",
          "type": "uint256"
        },
        {
          "internalType": "bool",
          "name": "retrieved",
          "type": "bool"
        },
        {
          "internalType": "uint256",
          "name": "mtype",
          "type": "uint256"
        }
      ],
      "stateMutability": "view",
      "type": "function"
    },
    {
      "inputs": [
        {
          "internalType": "uint256",
          "name": "_amount",
          "type": "uint256"
        },
        {
          "internalType": "uint256",
          "name": "_duration",
          "type": "uint256"
        },
        {
          "internalType": "uint256",
          "name": "mtype",
          "type": "uint256"
        },
        {
          "internalType": "uint256",
          "name": "ctype",
          "type": "uint256"
        }
      ],
      "name": "loan",
      "outputs": [],
      "stateMutability": "nonpayable",
      "type": "function"
    },
    {
      "inputs": [
        {
          "internalType": "uint256",
          "name": "colAmount",
          "type": "uint256"
        },
        {
          "internalType": "uint256",
          "name": "mtype",
          "type": "uint256"
        },
        {
          "internalType": "uint256",
          "name": "ctype",
          "type": "uint256"
        }
      ],
      "name": "loanAmount",
      "outputs": [
        {
          "internalType": "uint256",
          "name": "",
          "type": "uint256"
        }
      ],
      "stateMutability": "view",
      "type": "function"
    },
    {
      "inputs": [],
      "name": "loanCount",
      "outputs": [
        {
          "internalType": "uint256",
          "name": "",
          "type": "uint256"
        }
      ],
      "stateMutability": "view",
      "type": "function"
    },
    {
      "inputs": [],
      "name": "loanMode",
      "outputs": [
        {
          "internalType": "uint256",
          "name": "",
          "type": "uint256"
        }
      ],
      "stateMutability": "view",
      "type": "function"
    },
    {
      "inputs": [
        {
          "internalType": "address",
          "name": "",
          "type": "address"
        },
        {
          "internalType": "uint256",
          "name": "",
          "type": "uint256"
        }
      ],
      "name": "loans",
      "outputs": [
        {
          "internalType": "address",
          "name": "borrower",
          "type": "address"
        },
        {
          "internalType": "uint256",
          "name": "loanAmount",
          "type": "uint256"
        },
        {
          "internalType": "uint256",
          "name": "collateralAmount",
          "type": "uint256"
        },
        {
          "internalType": "uint256",
          "name": "paybackAmount",
          "type": "uint256"
        },
        {
          "internalType": "uint256",
          "name": "loanDueDate",
          "type": "uint256"
        },
        {
          "internalType": "uint256",
          "name": "duration",
          "type": "uint256"
        },
        {
          "internalType": "uint256",
          "name": "loanId",
          "type": "uint256"
        },
        {
          "internalType": "bool",
          "name": "isPayback",
          "type": "bool"
        },
        {
          "internalType": "bool",
          "name": "isLiquidate",
          "type": "bool"
        },
        {
          "internalType": "uint256",
          "name": "mtype",
          "type": "uint256"
        },
        {
          "internalType": "uint256",
          "name": "ctype",
          "type": "uint256"
        }
      ],
      "stateMutability": "view",
      "type": "function"
    },
    {
      "inputs": [],
      "name": "movrAddress",
      "outputs": [
        {
          "internalType": "address",
          "name": "",
          "type": "address"
        }
      ],
      "stateMutability": "view",
      "type": "function"
    },
    {
      "inputs": [],
      "name": "odonAddress",
      "outputs": [
        {
          "internalType": "address",
          "name": "",
          "type": "address"
        }
      ],
      "stateMutability": "view",
      "type": "function"
    },
    {
      "inputs": [],
      "name": "odonPrice",
      "outputs": [
        {
          "internalType": "uint256",
          "name": "",
          "type": "uint256"
        }
      ],
      "stateMutability": "view",
      "type": "function"
    },
    {
      "inputs": [],
      "name": "odonTotalLiquidity",
      "outputs": [
        {
          "internalType": "uint256",
          "name": "",
          "type": "uint256"
        }
      ],
      "stateMutability": "view",
      "type": "function"
    },
    {
      "inputs": [],
      "name": "owner",
      "outputs": [
        {
          "internalType": "address",
          "name": "",
          "type": "address"
        }
      ],
      "stateMutability": "view",
      "type": "function"
    },
    {
      "inputs": [
        {
          "internalType": "uint256",
          "name": "_id",
          "type": "uint256"
        },
        {
          "internalType": "uint256",
          "name": "_amount",
          "type": "uint256"
        }
      ],
      "name": "payback",
      "outputs": [],
      "stateMutability": "nonpayable",
      "type": "function"
    },
    {
      "inputs": [],
      "name": "renounceOwnership",
      "outputs": [],
      "stateMutability": "nonpayable",
      "type": "function"
    },
    {
      "inputs": [],
      "name": "secondAddAPY",
      "outputs": [
        {
          "internalType": "uint256",
          "name": "",
          "type": "uint256"
        }
      ],
      "stateMutability": "view",
      "type": "function"
    },
    {
      "inputs": [
        {
          "internalType": "uint256",
          "name": "_usdcapy",
          "type": "uint256"
        },
        {
          "internalType": "uint256",
          "name": "_usdtapy",
          "type": "uint256"
        },
        {
          "internalType": "uint256",
          "name": "_btcapy",
          "type": "uint256"
        }
      ],
      "name": "setBorrowAPY",
      "outputs": [],
      "stateMutability": "nonpayable",
      "type": "function"
    },
    {
      "inputs": [
        {
          "internalType": "uint256",
          "name": "_usdcapy",
          "type": "uint256"
        },
        {
          "internalType": "uint256",
          "name": "_usdtapy",
          "type": "uint256"
        },
        {
          "internalType": "uint256",
          "name": "_btcapy",
          "type": "uint256"
        }
      ],
      "name": "setLendAPY",
      "outputs": [],
      "stateMutability": "nonpayable",
      "type": "function"
    },
    {
      "inputs": [
        {
          "internalType": "uint256",
          "name": "mtype",
          "type": "uint256"
        }
      ],
      "name": "setLoanDurationMode",
      "outputs": [],
      "stateMutability": "nonpayable",
      "type": "function"
    },
    {
      "inputs": [
        {
          "internalType": "uint256",
          "name": "_price",
          "type": "uint256"
        }
      ],
      "name": "setPriceOdon",
      "outputs": [],
      "stateMutability": "nonpayable",
      "type": "function"
    },
    {
      "inputs": [
        {
          "internalType": "contract PriceConsumerV3",
          "name": "_oracle",
          "type": "address"
        }
      ],
      "name": "setPriceOracle",
      "outputs": [],
      "stateMutability": "nonpayable",
      "type": "function"
    },
    {
      "inputs": [
        {
          "internalType": "uint256",
          "name": "_usdcltv",
          "type": "uint256"
        },
        {
          "internalType": "uint256",
          "name": "_usdtltv",
          "type": "uint256"
        },
        {
          "internalType": "uint256",
          "name": "_btcltv",
          "type": "uint256"
        }
      ],
      "name": "setStandardLTV",
      "outputs": [],
      "stateMutability": "nonpayable",
      "type": "function"
    },
    {
      "inputs": [],
      "name": "totalLiquidity",
      "outputs": [
        {
          "internalType": "uint256",
          "name": "",
          "type": "uint256"
        }
      ],
      "stateMutability": "view",
      "type": "function"
    },
    {
      "inputs": [
        {
          "internalType": "address",
          "name": "newOwner",
          "type": "address"
        }
      ],
      "name": "transferOwnership",
      "outputs": [],
      "stateMutability": "nonpayable",
      "type": "function"
    },
    {
      "inputs": [],
      "name": "usdcAddress",
      "outputs": [
        {
          "internalType": "address",
          "name": "",
          "type": "address"
        }
      ],
      "stateMutability": "view",
      "type": "function"
    },
    {
      "inputs": [],
      "name": "usdcBorrowAPY",
      "outputs": [
        {
          "internalType": "uint256",
          "name": "",
          "type": "uint256"
        }
      ],
      "stateMutability": "view",
      "type": "function"
    },
    {
      "inputs": [],
      "name": "usdcLTV",
      "outputs": [
        {
          "internalType": "uint256",
          "name": "",
          "type": "uint256"
        }
      ],
      "stateMutability": "view",
      "type": "function"
    },
    {
      "inputs": [],
      "name": "usdcLendAPY",
      "outputs": [
        {
          "internalType": "uint256",
          "name": "",
          "type": "uint256"
        }
      ],
      "stateMutability": "view",
      "type": "function"
    },
    {
      "inputs": [],
      "name": "usdcTotalLiquidity",
      "outputs": [
        {
          "internalType": "uint256",
          "name": "",
          "type": "uint256"
        }
      ],
      "stateMutability": "view",
      "type": "function"
    },
    {
      "inputs": [],
      "name": "usdtAddress",
      "outputs": [
        {
          "internalType": "address",
          "name": "",
          "type": "address"
        }
      ],
      "stateMutability": "view",
      "type": "function"
    },
    {
      "inputs": [],
      "name": "usdtBorrowAPY",
      "outputs": [
        {
          "internalType": "uint256",
          "name": "",
          "type": "uint256"
        }
      ],
      "stateMutability": "view",
      "type": "function"
    },
    {
      "inputs": [],
      "name": "usdtLTV",
      "outputs": [
        {
          "internalType": "uint256",
          "name": "",
          "type": "uint256"
        }
      ],
      "stateMutability": "view",
      "type": "function"
    },
    {
      "inputs": [],
      "name": "usdtLendAPY",
      "outputs": [
        {
          "internalType": "uint256",
          "name": "",
          "type": "uint256"
        }
      ],
      "stateMutability": "view",
      "type": "function"
    },
    {
      "inputs": [],
      "name": "usdtTotalLiquidity",
      "outputs": [
        {
          "internalType": "uint256",
          "name": "",
          "type": "uint256"
        }
      ],
      "stateMutability": "view",
      "type": "function"
    },
    {
      "inputs": [
        {
          "internalType": "address",
          "name": "",
          "type": "address"
        }
      ],
      "name": "userLendsCount",
      "outputs": [
        {
          "internalType": "uint256",
          "name": "",
          "type": "uint256"
        }
      ],
      "stateMutability": "view",
      "type": "function"
    },
    {
      "inputs": [
        {
          "internalType": "address",
          "name": "",
          "type": "address"
        }
      ],
      "name": "userLoansCount",
      "outputs": [
        {
          "internalType": "uint256",
          "name": "",
          "type": "uint256"
        }
      ],
      "stateMutability": "view",
      "type": "function"
    },
    {
      "inputs": [
        {
          "internalType": "uint256",
          "name": "_amount",
          "type": "uint256"
        },
        {
          "internalType": "uint256",
          "name": "mtype",
          "type": "uint256"
        }
      ],
      "name": "withDrawReserve",
      "outputs": [],
      "stateMutability": "nonpayable",
      "type": "function"
    },
    {
      "inputs": [
        {
          "internalType": "uint256",
          "name": "_id",
          "type": "uint256"
        }
      ],
      "name": "withdraw",
      "outputs": [],
      "stateMutability": "nonpayable",
      "type": "function"
    }
  ],
  "bytecode": "0x6080604052624c4b406008556803860e639d80640000600e556803afb087b876900000600f556802ed6689e54f18000060105568049b9ca9a6943400006011556729a2241af62c0000601255674563918244f40000601355678ac7230489e800006014556798a7d9b8314c000060155567a688906bd8b00000601655674563918244f400006017556753444835ec580000601855676f05b59d3b2000006019556001601a55348015620000b157600080fd5b506040516200432238038062004322833981016040819052620000d491620001c3565b620000df3362000156565b6000600181905560028190556007819055600481905560038190556005819055600655600a80546001600160a01b039586166001600160a01b031991821617909155600b805494861694821694909417909355600c805492851692841692909217909155600d80549190931691161790556200021f565b600080546001600160a01b038381166001600160a01b0319831681178455604051919092169283917f8be0079c531659141344cd1fd0a4f28419497f9722a3daafe3b4186f6b6457e09190a35050565b80516001600160a01b0381168114620001be57600080fd5b919050565b60008060008060808587031215620001d9578384fd5b620001e485620001a6565b9350620001f460208601620001a6565b92506200020460408601620001a6565b91506200021460608601620001a6565b905092959194509250565b6140f3806200022f6000396000f3fe608060405234801561001057600080fd5b50600436106103da5760003560e01c80636ef9855b1161020a578063ae5c8fca11610125578063d5a0b65d116100b8578063ee9e580011610087578063ee9e580014610926578063f2fde38b14610939578063f6c5dded1461094c578063f7d76ae514610955578063fe3af3ea1461096857600080fd5b8063d5a0b65d146108e4578063d9d0befc146108f7578063df62dbbe1461090a578063e15a6d6a1461091357600080fd5b8063ce63094d116100f4578063ce63094d146108ac578063d3235306146108b5578063d3c9e2c9146108c8578063d3f72d10146108db57600080fd5b8063ae5c8fca14610874578063b04b022a14610887578063cdb2409a1461089a578063cdbc87f6146108a357600080fd5b80638da5cb5b1161019d5780639d2d04d11161016c5780639d2d04d114610833578063a12af89614610846578063a557b17d14610859578063a5843f081461086157600080fd5b80638da5cb5b1461071b578063973c7d451461072c57806398c61c371461073f5780639ab4a4451461082057600080fd5b80637f026f15116101d95780637f026f15146106b25780638443bccc146106d55780638a6a29a0146106e85780638be78e8f1461070857600080fd5b80636ef9855b14610683578063715018a61461068c57806371d1a70114610694578063725cab5d146106a957600080fd5b8063439b3543116102fa57806364282ecd1161028d578063699e0f561161025c578063699e0f56146106415780636b32991e1461064a5780636c6ac5911461065d5780636ccbf7581461067057600080fd5b806364282ecd14610609578063648809901461061257806365440cef14610625578063693a961d1461062e57600080fd5b806353068056116102c957806353068056146105d2578063530e784f146105db57806353bbfefa146105ee57806360089fca1461060157600080fd5b8063439b3543146104e457806349a4485d146105975780634c0a79fb146105aa57806351bcca5e146105ca57600080fd5b806329055efc116103725780632d1fabec116103415780632d1fabec146104a25780632e1a7d4d146104b55780632e6a1830146104c85780633583de13146104d157600080fd5b806329055efc14610474578063295dea731461048757806329b53f85146104905780632b84a68d1461049957600080fd5b80630bf1644e116103ae5780630bf1644e1461044457806315770f921461044d578063168c738c1461045657806320ec1ff51461046b57600080fd5b806208001a146103df57806302d45457146103fb578063048422a51461042657806309e3136f1461043b575b600080fd5b6103e860195481565b6040519081526020015b60405180910390f35b600b5461040e906001600160a01b031681565b6040516001600160a01b0390911681526020016103f2565b610439610434366004613bd3565b61097b565b005b6103e8601a5481565b6103e860125481565b6103e860075481565b61045e610a3c565b6040516103f29190613da3565b6103e860175481565b610439610482366004613cb6565b610bf9565b6103e860135481565b6103e860035481565b6103e860045481565b6104396104b0366004613c3a565b611380565b6104396104c3366004613c3a565b6113e6565b6103e860165481565b6104396104df366004613c6a565b611869565b6105506104f2366004613bef565b601f602090815260009283526040808420909152908252902080546001820154600283015460038401546004850154600586015460068701546007909701546001600160a01b03909616969495939492939192909160ff9091169088565b604080516001600160a01b0390991689526020890197909752958701949094526060860192909252608085015260a0840152151560c083015260e0820152610100016103f2565b6104396105a5366004613c8b565b611dab565b6103e86105b8366004613bd3565b601c6020526000908152604090205481565b610439611e22565b6103e8600f5481565b6104396105e9366004613bd3565b611f9f565b6103e86105fc366004613c3a565b612013565b61045e612110565b6103e860065481565b610439610620366004613c8b565b612287565b6103e860055481565b61040e61063c366004613c3a565b6122fe565b6103e860025481565b610439610658366004613c3a565b612328565b61043961066b366004613bd3565b612387565b61045e61067e366004613bd3565b612449565b6103e860155481565b610439612616565b61069c61264c565b6040516103f29190613d0b565b6103e860145481565b6106c56106c0366004613bef565b61279d565b60405190151581526020016103f2565b6104396106e3366004613c6a565b6127da565b6103e86106f6366004613bd3565b601d6020526000908152604090205481565b610439610716366004613c8b565b612a4d565b6000546001600160a01b031661040e565b61040e61073a366004613c3a565b612ac4565b6107bf61074d366004613bef565b601e60209081526000928352604080842090915290825290208054600182015460028301546003840154600485015460058601546006870154600788015460088901546009909901546001600160a01b039098169896979596949593949293919260ff8083169361010090930416918b565b604080516001600160a01b03909c168c5260208c019a909a52988a01979097526060890195909552608088019390935260a087019190915260c0860152151560e08501521515610100840152610120830152610140820152610160016103f2565b600c5461040e906001600160a01b031681565b610439610841366004613c6a565b612ad4565b61045e610854366004613bd3565b612c5d565b61069c612e05565b61043961086f366004613c6a565b612f5d565b610439610882366004613c6a565b6130fd565b600a5461040e906001600160a01b031681565b6103e860105481565b6103e860115481565b6103e860015481565b6103e86108c3366004613c8b565b61346c565b6106c56108d6366004613bef565b61351b565b6103e8600e5481565b6103e86108f2366004613c3a565b61353d565b6103e8610905366004613c8b565b613708565b6103e860185481565b6103e8610921366004613bef565b6137a6565b60095461040e906001600160a01b031681565b610439610947366004613bd3565b61395c565b6103e860085481565b600d5461040e906001600160a01b031681565b6106c5610976366004613c6a565b6139f7565b6000805b6020548110156109e657826001600160a01b0316602082815481106109b457634e487b7160e01b600052603260045260246000fd5b6000918252602090912001546001600160a01b031614156109d457600191505b806109de81614077565b91505061097f565b5080610a3857602080546001810182556000919091527fc97bfaf2f8ee708c303a06d134f5ecd8389ae0432af62dc132a24118292866bb0180546001600160a01b0319166001600160a01b0384161790555b5050565b336000908152601c60205260408120546060919067ffffffffffffffff811115610a7657634e487b7160e01b600052604160045260246000fd5b604051908082528060200260200182016040528015610aaf57816020015b610a9c613b1c565b815260200190600190039081610a945790505b50905060005b336000908152601c6020526040902054811015610bf357336000908152601e6020908152604080832084845282529182902082516101608101845281546001600160a01b031681526001820154928101929092526002810154928201929092526003820154606082015260048201546080820152600582015460a0820152600682015460c0820152600782015460ff80821615801560e085018190526101009384900490921615159284019290925260088401546101208401526009909301546101408301529091610b8a5750806101000151155b8015610b9a575042816080015110155b15610be057610ba9338361351b565b151560011415610be05780838381518110610bd457634e487b7160e01b600052603260045260246000fd5b60200260200101819052505b5080610beb81614077565b915050610ab5565b50919050565b610c0384836139f7565b610c545760405162461bcd60e51b815260206004820152601f60248201527f6c6f616e45746865723a206e6f7420656e6f756768206c69717569646974790060448201526064015b60405180910390fd5b610c5c613b1c565b3381526020810185905260006002841415610c8757610c808664e8d4a51000614041565b9050610cba565b8360031415610c9f57610c808664e8d4a51000614041565b8360041415610cba57610cb7866402540be400614041565b90505b610cc581858561346c565b604080840191909152336000908152601c6020529081205460c084015260e083018190526101008301819052610120830185905261014083018490526002851415610d135750601454610d33565b8460031415610d255750601554610d33565b8460041415610d3357506016545b601a5460011415610e68578560071415610d8b57610d66610d5f6064610d598a85613a6c565b90613a84565b8890613a90565b6060840152610d784262093a80614009565b608084015262093a8060a0840152610fcf565b85600e1415610dd957610db4610d5f6064610d5984601254610dad9190614009565b8b90613a6c565b6060840152610dc64262127500614009565b60808401526212750060a0840152610fcf565b85601e1415610e2057610dfb610d5f6064610d5984601354610dad9190614009565b6060840152610e0d4262278d00614009565b608084015262278d0060a0840152610fcf565b60405162461bcd60e51b815260206004820152601d60248201527f6c6f616e546f6b656e3a206e6f2076616c6964206475726174696f6e210000006044820152606401610c4b565b601a5460021415610f1c5785601e1415610e8e57610dfb610d5f6064610d598a85613a6c565b85603c1415610ed557610eb0610d5f6064610d5984601254610dad9190614009565b6060840152610ec242624f1a00614009565b6080840152624f1a0060a0840152610fcf565b85605a1415610e2057610ef7610d5f6064610d5984601354610dad9190614009565b6060840152610f09426276a700614009565b60808401526276a70060a0840152610fcf565b601a5460031415610fcf5785605a1415610f4257610ef7610d5f6064610d598a85613a6c565b8560b41415610f8957610f64610d5f6064610d5984601254610dad9190614009565b6060840152610f764262ed4e00614009565b608084015262ed4e0060a0840152610fcf565b856101681415610e2057610fac610d5f6064610d5984601354610dad9190614009565b6060840152610fbf426301da9c00614009565b60808401526301da9c0060a08401525b6000846001146110825750600a5460408085015190516323b872dd60e01b81526001600160a01b039092169182916323b872dd91611014913391309190600401613ce7565b602060405180830381600087803b15801561102e57600080fd5b505af1158015611042573d6000803e3d6000fd5b505050506040513d601f19601f820116820180604052508101906110669190613c1a565b6110825760405162461bcd60e51b8152600401610c4b90613fb3565b8460011415611090576110a5565b60408401516003546110a191613a90565b6003555b600086600214156110c25750600b546001600160a01b03166110f4565b86600314156110dd5750600c546001600160a01b03166110f4565b86600414156110f45750600d546001600160a01b03165b6040516323b872dd60e01b81526001600160a01b038216906323b872dd9061112490309033908e90600401613ce7565b602060405180830381600087803b15801561113e57600080fd5b505af1158015611152573d6000803e3d6000fd5b505050506040513d601f19601f820116820180604052508101906111769190613c1a565b6111925760405162461bcd60e51b8152600401610c4b90613fb3565b86600214156111b0576004546111a8908a613a9c565b6004556111e8565b86600314156111ce576005546111c6908a613a9c565b6005556111e8565b86600414156111e8576006546111e4908a613a9c565b6006555b336000908152601e60209081526040808320601c83528184205484528252808320885181546001600160a01b03919091166001600160a01b031990911617815591880151600180840191909155908801516002830155606088015160038301556080880151600483015560a0880151600583015560c0880151600683015560e0880151600783018054610100808c015115150261ff00199315159390931661ffff199091161791909117905561012088015160088301556101408801516009909201919091558054916112ba83614077565b9091555050336000908152601c602052604081208054916112da83614077565b9190505550336001600160a01b03167fd3d220740d3967bbabbce5a2d2be80cf584799db8de046928f1b6d1d7500b45e86602001518760400151886060015189608001518a60a001518b61012001518c610140015160405161136d9796959493929190968752602087019590955260408601939093526060850191909152608084015260a083015260c082015260e00190565b60405180910390a2505050505050505050565b6000546001600160a01b031633146113aa5760405162461bcd60e51b8152600401610c4b90613f7e565b601a8190556040518181527f4d5a4bfab3f36cd8f68133a2361e410afb6899ac665938f88ee5e1abb15fec45906020015b60405180910390a150565b336000908152601f602090815260408083208484529091529020600681015460ff16156114555760405162461bcd60e51b815260206004820181905260248201527f77697468647261773a204c656e642072657175657374207265747269657665646044820152606401610c4b565b80546001600160a01b031633146114b95760405162461bcd60e51b815260206004820152602260248201527f77697468647261773a204f6e6c79206c656e6465722063616e20776974686472604482015261617760f01b6064820152608401610c4b565b6114cb816002015482600701546139f7565b6115175760405162461bcd60e51b815260206004820152601e60248201527f77697468647261773a206e6f7420656e6f756768206c697175696469747900006044820152606401610c4b565b60068101805460ff1916600117905560058101544211156116d25760008160070154600214156115535750600b546001600160a01b031661158d565b8160070154600314156115725750600c546001600160a01b031661158d565b81600701546004141561158d5750600d546001600160a01b03165b815460038301546040516323b872dd60e01b81526001600160a01b03848116936323b872dd936115c593309390921691600401613ce7565b602060405180830381600087803b1580156115df57600080fd5b505af11580156115f3573d6000803e3d6000fd5b505050506040513d601f19601f820116820180604052508101906116179190613c1a565b5081600701546002141561163e57600382015460045461163691613a9c565b600455611660565b81600701546003141561166057600382015460055461165c91613a9c565b6005555b81600701546004141561168257600382015460065461167e91613a9c565b6006555b60038201546007830154604080516001815260208101939093528201527ffedb0622d5d5fa46cc706a5c2c169f2bf2eb31a59ff2f70cef3096376f58c2c0906060015b60405180910390a1505050565b60008160070154600214156116f35750600b546001600160a01b031661172d565b8160070154600314156117125750600c546001600160a01b031661172d565b81600701546004141561172d5750600d546001600160a01b03165b815460028301546040516323b872dd60e01b81526001600160a01b03848116936323b872dd9361176593309390921691600401613ce7565b602060405180830381600087803b15801561177f57600080fd5b505af1158015611793573d6000803e3d6000fd5b505050506040513d601f19601f820116820180604052508101906117b79190613c1a565b508160070154600214156117de5760028201546004546117d691613a9c565b600455611800565b8160070154600314156118005760028201546005546117fc91613a9c565b6005555b81600701546004141561182257600282015460065461181e91613a9c565b6006555b60028201546007830154604080516000815260208101939093528201527ffedb0622d5d5fa46cc706a5c2c169f2bf2eb31a59ff2f70cef3096376f58c2c0906060016116c5565b336000818152601e602090815260408083208684529091529020805490916001600160a01b03909116146118ea5760405162461bcd60e51b815260206004820152602260248201527f7061796261636b3a204f6e6c7920626f72726f7765722063616e207061796261604482015261636b60f01b6064820152608401610c4b565b600781015460ff161561193f5760405162461bcd60e51b815260206004820152601860248201527f7061796261636b3a207061796261636b20616c726561647900000000000000006044820152606401610c4b565b80600401544211156119935760405162461bcd60e51b815260206004820152601860248201527f7061796261636b3a2065786365656420647565206461746500000000000000006044820152606401610c4b565b6011546119a033856137a6565b106119f75760405162461bcd60e51b815260206004820152602160248201527f7061796261636b3a204c5456206578636565642064616e6765726f7573204c546044820152602b60f91b6064820152608401610c4b565b8060030154821015611a4b5760405162461bcd60e51b815260206004820152601960248201527f7061796261636b3a204e6f7420656e6f75676820746f6b656e000000000000006044820152606401610c4b565b611a5d816002015482600901546139f7565b611abb5760405162461bcd60e51b815260206004820152602960248201527f7061796261636b3a206e6f7420656e6f756768206c6971756964697479206f6e6044820152680818dbdb9d1c9858dd60ba1b6064820152608401610c4b565b6000816008015460021415611adc5750600b546001600160a01b0316611b16565b816008015460031415611afb5750600c546001600160a01b0316611b16565b816008015460041415611b165750600d546001600160a01b03165b6040516323b872dd60e01b81526001600160a01b038216906323b872dd90611b4690339030908890600401613ce7565b602060405180830381600087803b158015611b6057600080fd5b505af1158015611b74573d6000803e3d6000fd5b505050506040513d601f19601f82011682018060405250810190611b989190613c1a565b611bb45760405162461bcd60e51b8152600401610c4b90613f21565b816008015460021415611bd657600454611bce9084613a90565b600455611c16565b816008015460031415611bf857600554611bf09084613a90565b600555611c16565b816008015460041415611c1657600654611c129084613a90565b6006555b6000826009015460011415611c3757506009546001600160a01b0316611c45565b50600a546001600160a01b03165b60028301546040516323b872dd60e01b81526001600160a01b038316916323b872dd91611c79913091339190600401613ce7565b602060405180830381600087803b158015611c9357600080fd5b505af1158015611ca7573d6000803e3d6000fd5b505050506040513d601f19601f82011682018060405250810190611ccb9190613c1a565b611ce75760405162461bcd60e51b8152600401610c4b90613f21565b826009015460011415611d0d576002830154600754611d0591613a9c565b600755611d22565b6002830154600354611d1e91613a9c565b6003555b60078301805461ffff19166001908117909155600384015460028501546008860154600987015460408051338152602081019690965242908601526060850193909352608084019190915260a083015260c08201527f5c775973c71b408f578d06223650690e9508ab4bb549d0691ae69265b311af379060e00160405180910390a15050505050565b6000546001600160a01b03163314611dd55760405162461bcd60e51b8152600401610c4b90613f7e565b60148390556015829055601681905560408051848152602081018490529081018290527f5e35c511ddee3bac4f3cd917d8e465c37126e7a8a0bc5f8439a65c7676abe19b906060016116c5565b6000546001600160a01b03163314611e4c5760405162461bcd60e51b8152600401610c4b90613f7e565b60005b602054811015611f6457600060208281548110611e7c57634e487b7160e01b600052603260045260246000fd5b60009182526020822001546001600160a01b031691505b6001600160a01b0382166000908152601c6020526040902054811015611f4f576001600160a01b0382166000908152601e602090815260408083208484529091529020600781015460ff16158015611ef557506007810154610100900460ff16155b15611f3c574281600401541015611f1c5760078101805461ffff1916610100179055611f3c565b611f26838361351b565b611f3c5760078101805461ffff19166101001790555b5080611f4781614077565b915050611e93565b50508080611f5c90614077565b915050611e4f565b50604080513381524260208201527f08813a3631e12129135cc9440d3fea50eec346f1673b20b994b0456d5d46ccb9910160405180910390a1565b6000546001600160a01b03163314611fc95760405162461bcd60e51b8152600401610c4b90613f7e565b601b80546001600160a01b0319166001600160a01b0383169081179091556040517fefe8ab924ca486283a79dc604baa67add51afb82af1db8ac386ebbba643cdffd90600090a250565b601b5460009081906001600160a01b03166120405760405162461bcd60e51b8152600401610c4b90613e51565b826001141561206d576120666305f5e100610d5961205d8661353d565b60075490613aa8565b905061210a565b8260021415612093576120666305f5e100610d5961208a8661353d565b60045490613aa8565b82600314156120b9576120666305f5e100610d596120b08661353d565b60055490613aa8565b82600414156120df576120666305f5e100610d596120d68661353d565b60065490613aa8565b826005141561210a576121076305f5e100610d59600854600354613aa890919063ffffffff16565b90505b92915050565b336000908152601c60205260408120546060919067ffffffffffffffff81111561214a57634e487b7160e01b600052604160045260246000fd5b60405190808252806020026020018201604052801561218357816020015b612170613b1c565b8152602001906001900390816121685790505b50905060005b336000908152601c6020526040902054811015610bf357336000908152601e6020908152604080832084845282529182902082516101608101845281546001600160a01b031681526001820154928101929092526002810154928201929092526003820154606082015260048201546080820152600582015460a0820152600682015460c0820152600782015460ff808216151560e084015261010091829004161515908201526008820154610120820152600990910154610140820152825183908390811061226957634e487b7160e01b600052603260045260246000fd5b6020026020010181905250808061227f90614077565b915050612189565b6000546001600160a01b031633146122b15760405162461bcd60e51b8152600401610c4b90613f7e565b60178390556018829055601981905560408051848152602081018490529081018290527f1eb993ea8e47c2ce3cb4aade30f5dbcf13db6e9a00e435ee9d7ee80a3f587883906060016116c5565b6021818154811061230e57600080fd5b6000918252602090912001546001600160a01b0316905081565b6000546001600160a01b031633146123525760405162461bcd60e51b8152600401610c4b90613f7e565b60088190556040518181527f9a470bd568cbe5e7985016006c3093b3634f775e978b0ec2841ef7c634a2c2ff906020016113db565b6000805b6021548110156123f257826001600160a01b0316602182815481106123c057634e487b7160e01b600052603260045260246000fd5b6000918252602090912001546001600160a01b031614156123e057600191505b806123ea81614077565b91505061238b565b5080610a3857602180546001810182556000919091527f3a6357012c1a3ae0a17d304c9920310382d968ebcc4b1771f41c6b304205b5700180546001600160a01b0384166001600160a01b03199091161790555050565b6001600160a01b0381166000908152601c60205260408120546060919067ffffffffffffffff81111561248c57634e487b7160e01b600052604160045260246000fd5b6040519080825280602002602001820160405280156124c557816020015b6124b2613b1c565b8152602001906001900390816124aa5790505b50905060005b6001600160a01b0384166000908152601c602052604090205481101561260f576001600160a01b038085166000908152601e60209081526040808320858452825291829020825161016081018452815490941684526001810154918401919091526002810154918301919091526003810154606083015260048101546080830152600581015460a0830152600681015460c0830152600781015460ff80821615801560e08601819052610100938490049092161515928501929092526008830154610120850152600990920154610140840152906125ac5750806101000151155b80156125bc575042816080015110155b156125fc576125cb858361351b565b6125fc57808383815181106125f057634e487b7160e01b600052603260045260246000fd5b60200260200101819052505b508061260781614077565b9150506124cb565b5092915050565b6000546001600160a01b031633146126405760405162461bcd60e51b8152600401610c4b90613f7e565b61264a6000613ab4565b565b336000908152601d60205260408120546060919067ffffffffffffffff81111561268657634e487b7160e01b600052604160045260246000fd5b6040519080825280602002602001820160405280156126bf57816020015b6126ac613b83565b8152602001906001900390816126a45790505b50905060005b336000908152601d6020526040902054811015610bf357336000908152601f6020908152604080832084845282529182902082516101008101845281546001600160a01b031681526001820154928101929092526002810154928201929092526003820154606082015260048201546080820152600582015460a0820152600682015460ff16151560c082015260079091015460e0820152825183908390811061277f57634e487b7160e01b600052603260045260246000fd5b6020026020010181905250808061279590614077565b9150506126c5565b6001600160a01b0382166000908152601e602090815260408083208484529091528120600481015482904211156127d2575060015b949350505050565b6000546001600160a01b031633146128045760405162461bcd60e51b8152600401610c4b90613f7e565b61280e82826139f7565b6128665760405162461bcd60e51b815260206004820152602360248201527f776974684472617745746865723a206e6f7420656e6f756768206c697175696460448201526269747960e81b6064820152608401610c4b565b6000816001141561287f57506009546001600160a01b03165b816002141561289a5750600b546001600160a01b03166128e7565b81600314156128b55750600c546001600160a01b03166128e7565b81600414156128d05750600d546001600160a01b03166128e7565b81600514156128e75750600a546001600160a01b03165b6040516323b872dd60e01b81526001600160a01b038216906323b872dd9061291790309033908890600401613ce7565b602060405180830381600087803b15801561293157600080fd5b505af1158015612945573d6000803e3d6000fd5b505050506040513d601f19601f820116820180604052508101906129699190613c1a565b6129855760405162461bcd60e51b8152600401610c4b90613ede565b81600114156129a35760075461299b9084613a9c565b600755612a17565b81600214156129c1576004546129b99084613a9c565b600455612a17565b81600314156129df576005546129d79084613a9c565b600555612a17565b81600414156129fd576006546129f59084613a9c565b600655612a17565b8160051415612a1757600354612a139084613a9c565b6003555b60408051848152602081018490527f8d7ca91ebdac6a80a88023a61a414acbf330dba3646d6d0a5cc2676bcef101ac91016116c5565b6000546001600160a01b03163314612a775760405162461bcd60e51b8152600401610c4b90613f7e565b600f839055600e829055601081905560408051848152602081018490529081018290527fdd710624e490596cc885c47f15298efcace6c97e5109216e0092fa7f1a2329db906060016116c5565b6020818154811061230e57600080fd5b60008160021415612af15750600b546001600160a01b0316612b23565b8160031415612b0c5750600c546001600160a01b0316612b23565b8160041415612b235750600d546001600160a01b03165b6040516323b872dd60e01b81526001600160a01b038216906323b872dd90612b5390339030908890600401613ce7565b602060405180830381600087803b158015612b6d57600080fd5b505af1158015612b81573d6000803e3d6000fd5b505050506040513d601f19601f82011682018060405250810190612ba59190613c1a565b612bc15760405162461bcd60e51b8152600401610c4b90613e88565b8160021415612bdf57600454612bd79084613a90565b600455612bf9565b8160031415612bf957600554612bf59084613a90565b6005555b8160041415612c1357600654612c0f9084613a90565b6006555b612c1c33612387565b604080518481526020810184905233917f68dcee598918c1887bfa1c13ac763d4659a12722f88a5eb920014ba1f0bc38fb91015b60405180910390a2505050565b6001600160a01b0381166000908152601c60205260408120546060919067ffffffffffffffff811115612ca057634e487b7160e01b600052604160045260246000fd5b604051908082528060200260200182016040528015612cd957816020015b612cc6613b1c565b815260200190600190039081612cbe5790505b50905060005b6001600160a01b0384166000908152601c602052604090205481101561260f576001600160a01b038085166000908152601e60209081526040808320858452825291829020825161016081018452815490941684526001810154918401919091526002810154918301919091526003810154606083015260048101546080830152600581015460a0830152600681015460c0830152600781015460ff80821615801560e0860181905261010093849004909216151592850192909252600883015461012085015260099092015461014084015290612dc05750428160800151105b15612df25780838381518110612de657634e487b7160e01b600052603260045260246000fd5b60200260200101819052505b5080612dfd81614077565b915050612cdf565b336000908152601d60205260408120546060919067ffffffffffffffff811115612e3f57634e487b7160e01b600052604160045260246000fd5b604051908082528060200260200182016040528015612e7857816020015b612e65613b83565b815260200190600190039081612e5d5790505b50905060005b336000908152601d6020526040902054811015610bf357336000908152601f6020908152604080832084845282529182902082516101008101845281546001600160a01b031681526001820154928101929092526002810154928201929092526003820154606082015260048201546080820152600582015460a0820152600682015460ff16151560c0820181905260079092015460e082015290612f4a5780838381518110612f3e57634e487b7160e01b600052603260045260246000fd5b60200260200101819052505b5080612f5581614077565b915050612e7e565b6000546001600160a01b03163314612f875760405162461bcd60e51b8152600401610c4b90613f7e565b60008160021415612fa45750600b546001600160a01b0316612fd6565b8160031415612fbf5750600c546001600160a01b0316612fd6565b8160041415612fd65750600d546001600160a01b03165b6040516323b872dd60e01b81526001600160a01b038216906323b872dd9061300690339030908890600401613ce7565b602060405180830381600087803b15801561302057600080fd5b505af1158015613034573d6000803e3d6000fd5b505050506040513d601f19601f820116820180604052508101906130589190613c1a565b6130745760405162461bcd60e51b8152600401610c4b90613ede565b4760075560028214156130965760045461308e9084613a90565b600455612c1c565b81600314156130ac5760055461308e9084613a90565b8160041415612c1c576006546130c29084613a90565b600455604080518481526020810184905233917f68dcee598918c1887bfa1c13ac763d4659a12722f88a5eb920014ba1f0bc38fb9101612c50565b6000816002141561311a5750600b546001600160a01b031661314c565b81600314156131355750600c546001600160a01b031661314c565b816004141561314c5750600d546001600160a01b03165b6040516323b872dd60e01b81526001600160a01b038216906323b872dd9061317c90339030908890600401613ce7565b602060405180830381600087803b15801561319657600080fd5b505af11580156131aa573d6000803e3d6000fd5b505050506040513d601f19601f820116820180604052508101906131ce9190613c1a565b6131ea5760405162461bcd60e51b8152600401610c4b90613e88565b6131f2613b83565b338082526000908152601d60209081526040918290205490830152810184905260028314156132495761323f6132386064610d5960175488613a6c90919063ffffffff16565b8590613a90565b606082015261329b565b826003141561326f5761323f6132386064610d5960185488613a6c90919063ffffffff16565b826004141561329b576132956132386064610d5960195488613a6c90919063ffffffff16565b60608201525b42608082018190526132b09062278d00614009565b60a08201908152600060c0830181815260e08401868152338352601f60209081526040808520601d83528186205486528252808520875181546001600160a01b0319166001600160a01b03909116178155918701516001830155860151600280830191909155606087015160038301556080870151600483015594516005820155915160068301805460ff1916911515919091179055516007909101558154919061335a83614077565b9091555050336000908152601d6020526040812080549161337a83614077565b9190505550826002141561339d576004546133959085613a90565b6004556133b7565b82600314156133b7576005546133b39085613a90565b6005555b82600414156133d1576006546133cd9085613a90565b6006555b6133da33612387565b80600001516001600160a01b03167f4ab15cc690495a744ed84b8955b45eb732403b222a485fa1e287db39ad05e0658260400151836060015184608001518560a001518660c001518760e0015160405161345e969594939291909586526020860194909452604085019290925260608401521515608083015260a082015260c00190565b60405180910390a250505050565b600080600061347a8461353d565b905060006134878661353d565b905085600214156134b9576134b260646134ac600f548a613b0490919063ffffffff16565b90613aa8565b9250613502565b85600314156134dc576134b260646134ac600e548a613b0490919063ffffffff16565b8560041415613502576134ff60646134ac6010548a613b0490919063ffffffff16565b92505b61351082610d598584613aa8565b979650505050505050565b60115460009060019061352e85856137a6565b10612107575060009392505050565b601b546000906001600160a01b03166135685760405162461bcd60e51b8152600401610c4b90613e51565b6000826002141561360057601b60009054906101000a90046001600160a01b03166001600160a01b031663d63c25186040518163ffffffff1660e01b815260040160206040518083038186803b1580156135c157600080fd5b505afa1580156135d5573d6000803e3d6000fd5b505050506040513d601f19601f820116820180604052508101906135f99190613c52565b90506136bc565b826003141561365757601b60009054906101000a90046001600160a01b03166001600160a01b0316633629cf056040518163ffffffff1660e01b815260040160206040518083038186803b1580156135c157600080fd5b82600414156136ae57601b60009054906101000a90046001600160a01b03166001600160a01b0316630f00fa116040518163ffffffff1660e01b815260040160206040518083038186803b1580156135c157600080fd5b82600514156136bc57506008545b6000811161210a5760405162461bcd60e51b81526020600482015260196024820152781d1bdad95b881c1c9a58d9481a5cdb89dd0818dbdc9c9958dd603a1b6044820152606401610c4b565b60008060006137168461353d565b905060006137238661353d565b9050856002141561374f576137486064610d59600f548a613a6c90919063ffffffff16565b9250613798565b8560031415613772576137486064610d59600e548a613a6c90919063ffffffff16565b8560041415613798576137956064610d596010548a613a6c90919063ffffffff16565b92505b61351081610d598585613aa8565b6001600160a01b038083166000908152601e602090815260408083208584529091528120601b54919290918391166137f05760405162461bcd60e51b8152600401610c4b90613e51565b60006137ff836009015461353d565b9050600081116138515760405162461bcd60e51b815260206004820152601960248201527f65746865722070726963652069736e277420636f7272656374000000000000006044820152606401610c4b565b6000613860846008015461353d565b9050600081116138ae5760405162461bcd60e51b81526020600482015260196024820152781d1bdad95b881c1c9a58d9481a5cdb89dd0818dbdc9c9958dd603a1b6044820152606401610c4b565b60038401546000906138c09083613aa8565b905060006138db848760020154613aa890919063ffffffff16565b90508560080154600214156139075761390064e8d4a510006134ac6064818686613b04565b945061394f565b85600801546003141561392a576139006402540be4006134ac6064818686613b04565b85600801546004141561394f5761394c6305f5e1006134ac6064818686613b04565b94505b5092979650505050505050565b6000546001600160a01b031633146139865760405162461bcd60e51b8152600401610c4b90613f7e565b6001600160a01b0381166139eb5760405162461bcd60e51b815260206004820152602660248201527f4f776e61626c653a206e6577206f776e657220697320746865207a65726f206160448201526564647265737360d01b6064820152608401610c4b565b6139f481613ab4565b50565b6000808260011415613a0c5750600754613a50565b8260021415613a1e5750600454613a50565b8260031415613a305750600554613a50565b8260041415613a425750600654613a50565b8260051415613a5057506003545b80841115613a6257600091505061210a565b600191505061210a565b6000612107670de0b6b3a7640000610d598585613aa8565b60006121078284614021565b60006121078284614009565b60006121078284614060565b60006121078284614041565b600080546001600160a01b038381166001600160a01b0319831681178455604051919092169283917f8be0079c531659141344cd1fd0a4f28419497f9722a3daafe3b4186f6b6457e09190a35050565b600061210782610d5985670de0b6b3a7640000613aa8565b60405180610160016040528060006001600160a01b0316815260200160008152602001600081526020016000815260200160008152602001600081526020016000815260200160001515815260200160001515815260200160008152602001600081525090565b60405180610100016040528060006001600160a01b031681526020016000815260200160008152602001600081526020016000815260200160008152602001600015158152602001600081525090565b600060208284031215613be4578081fd5b8135612107816140a8565b60008060408385031215613c01578081fd5b8235613c0c816140a8565b946020939093013593505050565b600060208284031215613c2b578081fd5b81518015158114612107578182fd5b600060208284031215613c4b578081fd5b5035919050565b600060208284031215613c63578081fd5b5051919050565b60008060408385031215613c7c578182fd5b50508035926020909101359150565b600080600060608486031215613c9f578081fd5b505081359360208301359350604090920135919050565b60008060008060808587031215613ccb578081fd5b5050823594602084013594506040840135936060013592509050565b6001600160a01b039384168152919092166020820152604081019190915260600190565b602080825282518282018190526000919060409081850190868401855b82811015613d9657815180516001600160a01b0316855286810151878601528581015186860152606080820151908601526080808201519086015260a0808201519086015260c08082015115159086015260e090810151908501526101009093019290850190600101613d28565b5091979650505050505050565b602080825282518282018190526000919060409081850190868401855b82811015613d9657815180516001600160a01b0316855286810151878601528581015186860152606080820151908601526080808201519086015260a0808201519086015260c0808201519086015260e08082015115159086015261010080820151151590860152610120808201519086015261014090810151908501526101609093019290850190600101613dc0565b6020808252601e908201527f7072696365206f7261636c652069736e277420696e697469616c697a65640000604082015260600190565b60208082526036908201527f6c656e64546f6b656e3a205472616e7366657220746f6b656e2066726f6d20756040820152751cd95c881d1bc818dbdb9d1c9858dd0819985a5b195960521b606082015260800190565b60208082526023908201527f5472616e73616374696f6e206661696c6564206f6e20696e69742066756e637460408201526234b7b760e91b606082015260800190565b60208082526039908201527f7061796261636b3a205472616e7366657220636f6c6c61746572616c2066726f60408201527f6d20636f6e747261637420746f2075736572206661696c656400000000000000606082015260800190565b6020808252818101527f4f776e61626c653a2063616c6c6572206973206e6f7420746865206f776e6572604082015260600190565b60208082526036908201527f6c6f616e546f6b656e3a205472616e7366657220746f6b656e2066726f6d20636040820152751bdb9d1c9858dd081d1bc81d5cd95c8819985a5b195960521b606082015260800190565b6000821982111561401c5761401c614092565b500190565b60008261403c57634e487b7160e01b81526012600452602481fd5b500490565b600081600019048311821515161561405b5761405b614092565b500290565b60008282101561407257614072614092565b500390565b600060001982141561408b5761408b614092565b5060010190565b634e487b7160e01b600052601160045260246000fd5b6001600160a01b03811681146139f457600080fdfea26469706673582212203b0517cddfda39e39e862dbaa314e7c81227d0c8c0065edd83afc71b0d5252ad64736f6c63430008040033",
  "linkReferences": {},
  "deployedLinkReferences": {}
}