{
  "_format": "hh-sol-artifact-1",
  "contractName": "Loan",
  "sourceName": "contracts/Loan.sol",
  "abi": [
    {
      "inputs": [
        {
          "internalType": "address",
          "name": "_odonAddress",
          "type": "address"
        },
        {
          "internalType": "address",
          "name": "_usdcAddress",
          "type": "address"
        },
        {
          "internalType": "address",
          "name": "_usdtAddress",
          "type": "address"
        },
        {
          "internalType": "address",
          "name": "_btcAddress",
          "type": "address"
        }
      ],
      "stateMutability": "nonpayable",
      "type": "constructor"
    },
    {
      "anonymous": false,
      "inputs": [
        {
          "indexed": false,
          "internalType": "uint256",
          "name": "previousAPY",
          "type": "uint256"
        },
        {
          "indexed": false,
          "internalType": "uint256",
          "name": "newAPY",
          "type": "uint256"
        },
        {
          "indexed": false,
          "internalType": "uint256",
          "name": "mtype",
          "type": "uint256"
        }
      ],
      "name": "BorrowAPYUpdated",
      "type": "event"
    },
    {
      "anonymous": false,
      "inputs": [
        {
          "indexed": true,
          "internalType": "address",
          "name": "admin",
          "type": "address"
        },
        {
          "indexed": false,
          "internalType": "uint256",
          "name": "amount",
          "type": "uint256"
        },
        {
          "indexed": false,
          "internalType": "uint256",
          "name": "mtype",
          "type": "uint256"
        }
      ],
      "name": "InitBalance",
      "type": "event"
    },
    {
      "anonymous": false,
      "inputs": [
        {
          "indexed": false,
          "internalType": "uint256",
          "name": "previousAPY",
          "type": "uint256"
        },
        {
          "indexed": false,
          "internalType": "uint256",
          "name": "newAPY",
          "type": "uint256"
        },
        {
          "indexed": false,
          "internalType": "uint256",
          "name": "mtype",
          "type": "uint256"
        }
      ],
      "name": "LendAPYUpdated",
      "type": "event"
    },
    {
      "anonymous": false,
      "inputs": [
        {
          "indexed": false,
          "internalType": "address",
          "name": "liquidator",
          "type": "address"
        },
        {
          "indexed": false,
          "internalType": "uint256",
          "name": "liquidateAmount",
          "type": "uint256"
        },
        {
          "indexed": false,
          "internalType": "uint256",
          "name": "ctype",
          "type": "uint256"
        }
      ],
      "name": "Liquidate",
      "type": "event"
    },
    {
      "anonymous": false,
      "inputs": [
        {
          "indexed": true,
          "internalType": "address",
          "name": "lender",
          "type": "address"
        },
        {
          "indexed": false,
          "internalType": "uint256",
          "name": "lendAmount",
          "type": "uint256"
        },
        {
          "indexed": false,
          "internalType": "uint256",
          "name": "paybackAmount",
          "type": "uint256"
        },
        {
          "indexed": false,
          "internalType": "uint256",
          "name": "timeLend",
          "type": "uint256"
        },
        {
          "indexed": false,
          "internalType": "uint256",
          "name": "timeCanGetInterest",
          "type": "uint256"
        },
        {
          "indexed": false,
          "internalType": "bool",
          "name": "retrieved",
          "type": "bool"
        },
        {
          "indexed": false,
          "internalType": "uint256",
          "name": "mtype",
          "type": "uint256"
        }
      ],
      "name": "NewLend",
      "type": "event"
    },
    {
      "anonymous": false,
      "inputs": [
        {
          "indexed": true,
          "internalType": "address",
          "name": "borrower",
          "type": "address"
        },
        {
          "indexed": false,
          "internalType": "uint256",
          "name": "loanAmount",
          "type": "uint256"
        },
        {
          "indexed": false,
          "internalType": "uint256",
          "name": "collateralAmount",
          "type": "uint256"
        },
        {
          "indexed": false,
          "internalType": "uint256",
          "name": "paybackAmount",
          "type": "uint256"
        },
        {
          "indexed": false,
          "internalType": "uint256",
          "name": "loanDueDate",
          "type": "uint256"
        },
        {
          "indexed": false,
          "internalType": "uint256",
          "name": "duration",
          "type": "uint256"
        },
        {
          "indexed": false,
          "internalType": "uint256",
          "name": "mtype",
          "type": "uint256"
        },
        {
          "indexed": false,
          "internalType": "uint256",
          "name": "ctype",
          "type": "uint256"
        }
      ],
      "name": "NewLoan",
      "type": "event"
    },
    {
      "anonymous": false,
      "inputs": [
        {
          "indexed": false,
          "internalType": "uint256",
          "name": "_price",
          "type": "uint256"
        }
      ],
      "name": "OdonPriceUpdated",
      "type": "event"
    },
    {
      "anonymous": false,
      "inputs": [
        {
          "indexed": true,
          "internalType": "address",
          "name": "previousOwner",
          "type": "address"
        },
        {
          "indexed": true,
          "internalType": "address",
          "name": "newOwner",
          "type": "address"
        }
      ],
      "name": "OwnershipTransferred",
      "type": "event"
    },
    {
      "anonymous": false,
      "inputs": [
        {
          "indexed": false,
          "internalType": "address",
          "name": "borrower",
          "type": "address"
        },
        {
          "indexed": false,
          "internalType": "bool",
          "name": "paybackSuccess",
          "type": "bool"
        },
        {
          "indexed": false,
          "internalType": "uint256",
          "name": "paybackTime",
          "type": "uint256"
        },
        {
          "indexed": false,
          "internalType": "uint256",
          "name": "paybackAmount",
          "type": "uint256"
        },
        {
          "indexed": false,
          "internalType": "uint256",
          "name": "returnCollateralAmount",
          "type": "uint256"
        },
        {
          "indexed": false,
          "internalType": "uint256",
          "name": "mtype",
          "type": "uint256"
        },
        {
          "indexed": false,
          "internalType": "uint256",
          "name": "ctype",
          "type": "uint256"
        }
      ],
      "name": "PayBack",
      "type": "event"
    },
    {
      "anonymous": false,
      "inputs": [
        {
          "indexed": true,
          "internalType": "address",
          "name": "priceOracleAddress",
          "type": "address"
        }
      ],
      "name": "PriceOracleUpdated",
      "type": "event"
    },
    {
      "anonymous": false,
      "inputs": [
        {
          "indexed": false,
          "internalType": "bool",
          "name": "isEarnInterest",
          "type": "bool"
        },
        {
          "indexed": false,
          "internalType": "uint256",
          "name": "withdrawAmount",
          "type": "uint256"
        },
        {
          "indexed": false,
          "internalType": "uint256",
          "name": "mtype",
          "type": "uint256"
        }
      ],
      "name": "Withdraw",
      "type": "event"
    },
    {
      "inputs": [
        {
          "internalType": "uint256",
          "name": "",
          "type": "uint256"
        }
      ],
      "name": "LendUserList",
      "outputs": [
        {
          "internalType": "address",
          "name": "",
          "type": "address"
        }
      ],
      "stateMutability": "view",
      "type": "function"
    },
    {
      "inputs": [
        {
          "internalType": "uint256",
          "name": "",
          "type": "uint256"
        }
      ],
      "name": "LoanUserList",
      "outputs": [
        {
          "internalType": "address",
          "name": "",
          "type": "address"
        }
      ],
      "stateMutability": "view",
      "type": "function"
    },
    {
      "inputs": [
        {
          "internalType": "address",
          "name": "_user",
          "type": "address"
        }
      ],
      "name": "addUserToLendUserList",
      "outputs": [],
      "stateMutability": "nonpayable",
      "type": "function"
    },
    {
      "inputs": [
        {
          "internalType": "address",
          "name": "_user",
          "type": "address"
        }
      ],
      "name": "addUserToLoanUserList",
      "outputs": [],
      "stateMutability": "nonpayable",
      "type": "function"
    },
    {
      "inputs": [],
      "name": "btcAddress",
      "outputs": [
        {
          "internalType": "address",
          "name": "",
          "type": "address"
        }
      ],
      "stateMutability": "view",
      "type": "function"
    },
    {
      "inputs": [],
      "name": "btcBorrowAPY",
      "outputs": [
        {
          "internalType": "uint256",
          "name": "",
          "type": "uint256"
        }
      ],
      "stateMutability": "view",
      "type": "function"
    },
    {
      "inputs": [],
      "name": "btcLTV",
      "outputs": [
        {
          "internalType": "uint256",
          "name": "",
          "type": "uint256"
        }
      ],
      "stateMutability": "view",
      "type": "function"
    },
    {
      "inputs": [],
      "name": "btcLendAPY",
      "outputs": [
        {
          "internalType": "uint256",
          "name": "",
          "type": "uint256"
        }
      ],
      "stateMutability": "view",
      "type": "function"
    },
    {
      "inputs": [],
      "name": "btcTotalLiquidity",
      "outputs": [
        {
          "internalType": "uint256",
          "name": "",
          "type": "uint256"
        }
      ],
      "stateMutability": "view",
      "type": "function"
    },
    {
      "inputs": [
        {
          "internalType": "uint256",
          "name": "_amount",
          "type": "uint256"
        },
        {
          "internalType": "uint256",
          "name": "mtype",
          "type": "uint256"
        }
      ],
      "name": "checkEnoughLiquidity",
      "outputs": [
        {
          "internalType": "bool",
          "name": "",
          "type": "bool"
        }
      ],
      "stateMutability": "view",
      "type": "function"
    },
    {
      "inputs": [
        {
          "internalType": "address",
          "name": "borrower",
          "type": "address"
        },
        {
          "internalType": "uint256",
          "name": "_id",
          "type": "uint256"
        }
      ],
      "name": "checkLoanExpire",
      "outputs": [
        {
          "internalType": "bool",
          "name": "",
          "type": "bool"
        }
      ],
      "stateMutability": "view",
      "type": "function"
    },
    {
      "inputs": [
        {
          "internalType": "address",
          "name": "_borrower",
          "type": "address"
        },
        {
          "internalType": "uint256",
          "name": "_id",
          "type": "uint256"
        }
      ],
      "name": "checkLoanHealth",
      "outputs": [
        {
          "internalType": "bool",
          "name": "",
          "type": "bool"
        }
      ],
      "stateMutability": "view",
      "type": "function"
    },
    {
      "inputs": [
        {
          "internalType": "uint256",
          "name": "lnAmount",
          "type": "uint256"
        },
        {
          "internalType": "uint256",
          "name": "mtype",
          "type": "uint256"
        },
        {
          "internalType": "uint256",
          "name": "ctype",
          "type": "uint256"
        }
      ],
      "name": "collateralAmount",
      "outputs": [
        {
          "internalType": "uint256",
          "name": "",
          "type": "uint256"
        }
      ],
      "stateMutability": "view",
      "type": "function"
    },
    {
      "inputs": [],
      "name": "dangerousLTV",
      "outputs": [
        {
          "internalType": "uint256",
          "name": "",
          "type": "uint256"
        }
      ],
      "stateMutability": "view",
      "type": "function"
    },
    {
      "inputs": [],
      "name": "firstAddAPY",
      "outputs": [
        {
          "internalType": "uint256",
          "name": "",
          "type": "uint256"
        }
      ],
      "stateMutability": "view",
      "type": "function"
    },
    {
      "inputs": [],
      "name": "getAllUserLoans",
      "outputs": [
        {
          "components": [
            {
              "internalType": "address",
              "name": "borrower",
              "type": "address"
            },
            {
              "internalType": "uint256",
              "name": "loanAmount",
              "type": "uint256"
            },
            {
              "internalType": "uint256",
              "name": "collateralAmount",
              "type": "uint256"
            },
            {
              "internalType": "uint256",
              "name": "paybackAmount",
              "type": "uint256"
            },
            {
              "internalType": "uint256",
              "name": "loanDueDate",
              "type": "uint256"
            },
            {
              "internalType": "uint256",
              "name": "duration",
              "type": "uint256"
            },
            {
              "internalType": "uint256",
              "name": "loanId",
              "type": "uint256"
            },
            {
              "internalType": "bool",
              "name": "isPayback",
              "type": "bool"
            },
            {
              "internalType": "bool",
              "name": "isLiquidate",
              "type": "bool"
            },
            {
              "internalType": "uint256",
              "name": "mtype",
              "type": "uint256"
            },
            {
              "internalType": "uint256",
              "name": "ctype",
              "type": "uint256"
            }
          ],
          "internalType": "struct Loan.LoanRequest[]",
          "name": "",
          "type": "tuple[]"
        }
      ],
      "stateMutability": "view",
      "type": "function"
    },
    {
      "inputs": [
        {
          "internalType": "address",
          "name": "borrower",
          "type": "address"
        }
      ],
      "name": "getAllUserLoansByAdmin",
      "outputs": [
        {
          "components": [
            {
              "internalType": "address",
              "name": "borrower",
              "type": "address"
            },
            {
              "internalType": "uint256",
              "name": "loanAmount",
              "type": "uint256"
            },
            {
              "internalType": "uint256",
              "name": "collateralAmount",
              "type": "uint256"
            },
            {
              "internalType": "uint256",
              "name": "paybackAmount",
              "type": "uint256"
            },
            {
              "internalType": "uint256",
              "name": "loanDueDate",
              "type": "uint256"
            },
            {
              "internalType": "uint256",
              "name": "duration",
              "type": "uint256"
            },
            {
              "internalType": "uint256",
              "name": "loanId",
              "type": "uint256"
            },
            {
              "internalType": "bool",
              "name": "isPayback",
              "type": "bool"
            },
            {
              "internalType": "bool",
              "name": "isLiquidate",
              "type": "bool"
            },
            {
              "internalType": "uint256",
              "name": "mtype",
              "type": "uint256"
            },
            {
              "internalType": "uint256",
              "name": "ctype",
              "type": "uint256"
            }
          ],
          "internalType": "struct Loan.LoanRequest[]",
          "name": "",
          "type": "tuple[]"
        }
      ],
      "stateMutability": "view",
      "type": "function"
    },
    {
      "inputs": [
        {
          "internalType": "address",
          "name": "_borrower",
          "type": "address"
        },
        {
          "internalType": "uint256",
          "name": "_id",
          "type": "uint256"
        }
      ],
      "name": "getLoansLTV",
      "outputs": [
        {
          "internalType": "uint256",
          "name": "",
          "type": "uint256"
        }
      ],
      "stateMutability": "view",
      "type": "function"
    },
    {
      "inputs": [
        {
          "internalType": "uint256",
          "name": "mtype",
          "type": "uint256"
        }
      ],
      "name": "getTokenPriceInUSD",
      "outputs": [
        {
          "internalType": "uint256",
          "name": "",
          "type": "uint256"
        }
      ],
      "stateMutability": "view",
      "type": "function"
    },
    {
      "inputs": [
        {
          "internalType": "uint256",
          "name": "mtype",
          "type": "uint256"
        }
      ],
      "name": "getTotalLiquidityInUSD",
      "outputs": [
        {
          "internalType": "uint256",
          "name": "",
          "type": "uint256"
        }
      ],
      "stateMutability": "view",
      "type": "function"
    },
    {
      "inputs": [],
      "name": "getUserAllLends",
      "outputs": [
        {
          "components": [
            {
              "internalType": "address",
              "name": "lender",
              "type": "address"
            },
            {
              "internalType": "uint256",
              "name": "lendId",
              "type": "uint256"
            },
            {
              "internalType": "uint256",
              "name": "lendAmount",
              "type": "uint256"
            },
            {
              "internalType": "uint256",
              "name": "paybackAmount",
              "type": "uint256"
            },
            {
              "internalType": "uint256",
              "name": "timeLend",
              "type": "uint256"
            },
            {
              "internalType": "uint256",
              "name": "timeCanGetInterest",
              "type": "uint256"
            },
            {
              "internalType": "bool",
              "name": "retrieved",
              "type": "bool"
            },
            {
              "internalType": "uint256",
              "name": "mtype",
              "type": "uint256"
            }
          ],
          "internalType": "struct Loan.LendRequest[]",
          "name": "",
          "type": "tuple[]"
        }
      ],
      "stateMutability": "view",
      "type": "function"
    },
    {
      "inputs": [
        {
          "internalType": "address",
          "name": "lender",
          "type": "address"
        }
      ],
      "name": "getUserAllLendsByAdmin",
      "outputs": [
        {
          "components": [
            {
              "internalType": "address",
              "name": "lender",
              "type": "address"
            },
            {
              "internalType": "uint256",
              "name": "lendId",
              "type": "uint256"
            },
            {
              "internalType": "uint256",
              "name": "lendAmount",
              "type": "uint256"
            },
            {
              "internalType": "uint256",
              "name": "paybackAmount",
              "type": "uint256"
            },
            {
              "internalType": "uint256",
              "name": "timeLend",
              "type": "uint256"
            },
            {
              "internalType": "uint256",
              "name": "timeCanGetInterest",
              "type": "uint256"
            },
            {
              "internalType": "bool",
              "name": "retrieved",
              "type": "bool"
            },
            {
              "internalType": "uint256",
              "name": "mtype",
              "type": "uint256"
            }
          ],
          "internalType": "struct Loan.LendRequest[]",
          "name": "",
          "type": "tuple[]"
        }
      ],
      "stateMutability": "view",
      "type": "function"
    },
    {
      "inputs": [],
      "name": "getUserNotRetrieveLend",
      "outputs": [
        {
          "components": [
            {
              "internalType": "address",
              "name": "lender",
              "type": "address"
            },
            {
              "internalType": "uint256",
              "name": "lendId",
              "type": "uint256"
            },
            {
              "internalType": "uint256",
              "name": "lendAmount",
              "type": "uint256"
            },
            {
              "internalType": "uint256",
              "name": "paybackAmount",
              "type": "uint256"
            },
            {
              "internalType": "uint256",
              "name": "timeLend",
              "type": "uint256"
            },
            {
              "internalType": "uint256",
              "name": "timeCanGetInterest",
              "type": "uint256"
            },
            {
              "internalType": "bool",
              "name": "retrieved",
              "type": "bool"
            },
            {
              "internalType": "uint256",
              "name": "mtype",
              "type": "uint256"
            }
          ],
          "internalType": "struct Loan.LendRequest[]",
          "name": "",
          "type": "tuple[]"
        }
      ],
      "stateMutability": "view",
      "type": "function"
    },
    {
      "inputs": [],
      "name": "getUserOngoingLoans",
      "outputs": [
        {
          "components": [
            {
              "internalType": "address",
              "name": "borrower",
              "type": "address"
            },
            {
              "internalType": "uint256",
              "name": "loanAmount",
              "type": "uint256"
            },
            {
              "internalType": "uint256",
              "name": "collateralAmount",
              "type": "uint256"
            },
            {
              "internalType": "uint256",
              "name": "paybackAmount",
              "type": "uint256"
            },
            {
              "internalType": "uint256",
              "name": "loanDueDate",
              "type": "uint256"
            },
            {
              "internalType": "uint256",
              "name": "duration",
              "type": "uint256"
            },
            {
              "internalType": "uint256",
              "name": "loanId",
              "type": "uint256"
            },
            {
              "internalType": "bool",
              "name": "isPayback",
              "type": "bool"
            },
            {
              "internalType": "bool",
              "name": "isLiquidate",
              "type": "bool"
            },
            {
              "internalType": "uint256",
              "name": "mtype",
              "type": "uint256"
            },
            {
              "internalType": "uint256",
              "name": "ctype",
              "type": "uint256"
            }
          ],
          "internalType": "struct Loan.LoanRequest[]",
          "name": "",
          "type": "tuple[]"
        }
      ],
      "stateMutability": "view",
      "type": "function"
    },
    {
      "inputs": [],
      "name": "getUserOverdueLoans",
      "outputs": [
        {
          "components": [
            {
              "internalType": "address",
              "name": "borrower",
              "type": "address"
            },
            {
              "internalType": "uint256",
              "name": "loanAmount",
              "type": "uint256"
            },
            {
              "internalType": "uint256",
              "name": "collateralAmount",
              "type": "uint256"
            },
            {
              "internalType": "uint256",
              "name": "paybackAmount",
              "type": "uint256"
            },
            {
              "internalType": "uint256",
              "name": "loanDueDate",
              "type": "uint256"
            },
            {
              "internalType": "uint256",
              "name": "duration",
              "type": "uint256"
            },
            {
              "internalType": "uint256",
              "name": "loanId",
              "type": "uint256"
            },
            {
              "internalType": "bool",
              "name": "isPayback",
              "type": "bool"
            },
            {
              "internalType": "bool",
              "name": "isLiquidate",
              "type": "bool"
            },
            {
              "internalType": "uint256",
              "name": "mtype",
              "type": "uint256"
            },
            {
              "internalType": "uint256",
              "name": "ctype",
              "type": "uint256"
            }
          ],
          "internalType": "struct Loan.LoanRequest[]",
          "name": "",
          "type": "tuple[]"
        }
      ],
      "stateMutability": "view",
      "type": "function"
    },
    {
      "inputs": [],
      "name": "getUserUnHealthLoans",
      "outputs": [
        {
          "components": [
            {
              "internalType": "address",
              "name": "borrower",
              "type": "address"
            },
            {
              "internalType": "uint256",
              "name": "loanAmount",
              "type": "uint256"
            },
            {
              "internalType": "uint256",
              "name": "collateralAmount",
              "type": "uint256"
            },
            {
              "internalType": "uint256",
              "name": "paybackAmount",
              "type": "uint256"
            },
            {
              "internalType": "uint256",
              "name": "loanDueDate",
              "type": "uint256"
            },
            {
              "internalType": "uint256",
              "name": "duration",
              "type": "uint256"
            },
            {
              "internalType": "uint256",
              "name": "loanId",
              "type": "uint256"
            },
            {
              "internalType": "bool",
              "name": "isPayback",
              "type": "bool"
            },
            {
              "internalType": "bool",
              "name": "isLiquidate",
              "type": "bool"
            },
            {
              "internalType": "uint256",
              "name": "mtype",
              "type": "uint256"
            },
            {
              "internalType": "uint256",
              "name": "ctype",
              "type": "uint256"
            }
          ],
          "internalType": "struct Loan.LoanRequest[]",
          "name": "",
          "type": "tuple[]"
        }
      ],
      "stateMutability": "view",
      "type": "function"
    },
    {
      "inputs": [
        {
          "internalType": "uint256",
          "name": "_amount",
          "type": "uint256"
        },
        {
          "internalType": "uint256",
          "name": "mtype",
          "type": "uint256"
        }
      ],
      "name": "init",
      "outputs": [],
      "stateMutability": "nonpayable",
      "type": "function"
    },
    {
      "inputs": [],
      "name": "lendCount",
      "outputs": [
        {
          "internalType": "uint256",
          "name": "",
          "type": "uint256"
        }
      ],
      "stateMutability": "view",
      "type": "function"
    },
    {
      "inputs": [
        {
          "internalType": "uint256",
          "name": "_amount",
          "type": "uint256"
        },
        {
          "internalType": "uint256",
          "name": "mtype",
          "type": "uint256"
        }
      ],
      "name": "lendToken",
      "outputs": [],
      "stateMutability": "nonpayable",
      "type": "function"
    },
    {
      "inputs": [
        {
          "internalType": "address",
          "name": "",
          "type": "address"
        },
        {
          "internalType": "uint256",
          "name": "",
          "type": "uint256"
        }
      ],
      "name": "lends",
      "outputs": [
        {
          "internalType": "address",
          "name": "lender",
          "type": "address"
        },
        {
          "internalType": "uint256",
          "name": "lendId",
          "type": "uint256"
        },
        {
          "internalType": "uint256",
          "name": "lendAmount",
          "type": "uint256"
        },
        {
          "internalType": "uint256",
          "name": "paybackAmount",
          "type": "uint256"
        },
        {
          "internalType": "uint256",
          "name": "timeLend",
          "type": "uint256"
        },
        {
          "internalType": "uint256",
          "name": "timeCanGetInterest",
          "type": "uint256"
        },
        {
          "internalType": "bool",
          "name": "retrieved",
          "type": "bool"
        },
        {
          "internalType": "uint256",
          "name": "mtype",
          "type": "uint256"
        }
      ],
      "stateMutability": "view",
      "type": "function"
    },
    {
      "inputs": [
        {
          "internalType": "address",
          "name": "_borrower",
          "type": "address"
        },
        {
          "internalType": "uint256",
          "name": "_id",
          "type": "uint256"
        }
      ],
      "name": "liquidate",
      "outputs": [],
      "stateMutability": "nonpayable",
      "type": "function"
    },
    {
      "inputs": [
        {
          "internalType": "uint256",
          "name": "_amount",
          "type": "uint256"
        },
        {
          "internalType": "uint256",
          "name": "_duration",
          "type": "uint256"
        },
        {
          "internalType": "uint256",
          "name": "mtype",
          "type": "uint256"
        },
        {
          "internalType": "uint256",
          "name": "ctype",
          "type": "uint256"
        }
      ],
      "name": "loan",
      "outputs": [],
      "stateMutability": "nonpayable",
      "type": "function"
    },
    {
      "inputs": [
        {
          "internalType": "uint256",
          "name": "colAmount",
          "type": "uint256"
        },
        {
          "internalType": "uint256",
          "name": "mtype",
          "type": "uint256"
        },
        {
          "internalType": "uint256",
          "name": "ctype",
          "type": "uint256"
        }
      ],
      "name": "loanAmount",
      "outputs": [
        {
          "internalType": "uint256",
          "name": "",
          "type": "uint256"
        }
      ],
      "stateMutability": "view",
      "type": "function"
    },
    {
      "inputs": [],
      "name": "loanCount",
      "outputs": [
        {
          "internalType": "uint256",
          "name": "",
          "type": "uint256"
        }
      ],
      "stateMutability": "view",
      "type": "function"
    },
    {
      "inputs": [],
      "name": "loanModeFirst",
      "outputs": [
        {
          "internalType": "bool",
          "name": "",
          "type": "bool"
        }
      ],
      "stateMutability": "view",
      "type": "function"
    },
    {
      "inputs": [
        {
          "internalType": "address",
          "name": "",
          "type": "address"
        },
        {
          "internalType": "uint256",
          "name": "",
          "type": "uint256"
        }
      ],
      "name": "loans",
      "outputs": [
        {
          "internalType": "address",
          "name": "borrower",
          "type": "address"
        },
        {
          "internalType": "uint256",
          "name": "loanAmount",
          "type": "uint256"
        },
        {
          "internalType": "uint256",
          "name": "collateralAmount",
          "type": "uint256"
        },
        {
          "internalType": "uint256",
          "name": "paybackAmount",
          "type": "uint256"
        },
        {
          "internalType": "uint256",
          "name": "loanDueDate",
          "type": "uint256"
        },
        {
          "internalType": "uint256",
          "name": "duration",
          "type": "uint256"
        },
        {
          "internalType": "uint256",
          "name": "loanId",
          "type": "uint256"
        },
        {
          "internalType": "bool",
          "name": "isPayback",
          "type": "bool"
        },
        {
          "internalType": "bool",
          "name": "isLiquidate",
          "type": "bool"
        },
        {
          "internalType": "uint256",
          "name": "mtype",
          "type": "uint256"
        },
        {
          "internalType": "uint256",
          "name": "ctype",
          "type": "uint256"
        }
      ],
      "stateMutability": "view",
      "type": "function"
    },
    {
      "inputs": [],
      "name": "movrAddress",
      "outputs": [
        {
          "internalType": "address",
          "name": "",
          "type": "address"
        }
      ],
      "stateMutability": "view",
      "type": "function"
    },
    {
      "inputs": [],
      "name": "odonAddress",
      "outputs": [
        {
          "internalType": "address",
          "name": "",
          "type": "address"
        }
      ],
      "stateMutability": "view",
      "type": "function"
    },
    {
      "inputs": [],
      "name": "odonPrice",
      "outputs": [
        {
          "internalType": "uint256",
          "name": "",
          "type": "uint256"
        }
      ],
      "stateMutability": "view",
      "type": "function"
    },
    {
      "inputs": [],
      "name": "odonTotalLiquidity",
      "outputs": [
        {
          "internalType": "uint256",
          "name": "",
          "type": "uint256"
        }
      ],
      "stateMutability": "view",
      "type": "function"
    },
    {
      "inputs": [],
      "name": "owner",
      "outputs": [
        {
          "internalType": "address",
          "name": "",
          "type": "address"
        }
      ],
      "stateMutability": "view",
      "type": "function"
    },
    {
      "inputs": [
        {
          "internalType": "uint256",
          "name": "_id",
          "type": "uint256"
        },
        {
          "internalType": "uint256",
          "name": "_amount",
          "type": "uint256"
        }
      ],
      "name": "payback",
      "outputs": [],
      "stateMutability": "nonpayable",
      "type": "function"
    },
    {
      "inputs": [],
      "name": "renounceOwnership",
      "outputs": [],
      "stateMutability": "nonpayable",
      "type": "function"
    },
    {
      "inputs": [],
      "name": "secondAddAPY",
      "outputs": [
        {
          "internalType": "uint256",
          "name": "",
          "type": "uint256"
        }
      ],
      "stateMutability": "view",
      "type": "function"
    },
    {
      "inputs": [
        {
          "internalType": "uint256",
          "name": "_apy",
          "type": "uint256"
        },
        {
          "internalType": "uint256",
          "name": "mtype",
          "type": "uint256"
        }
      ],
      "name": "setBorrowAPY",
      "outputs": [],
      "stateMutability": "nonpayable",
      "type": "function"
    },
    {
      "inputs": [
        {
          "internalType": "uint256",
          "name": "_apy",
          "type": "uint256"
        },
        {
          "internalType": "uint256",
          "name": "mtype",
          "type": "uint256"
        }
      ],
      "name": "setLendAPY",
      "outputs": [],
      "stateMutability": "nonpayable",
      "type": "function"
    },
    {
      "inputs": [
        {
          "internalType": "uint256",
          "name": "_price",
          "type": "uint256"
        }
      ],
      "name": "setPriceOdon",
      "outputs": [],
      "stateMutability": "nonpayable",
      "type": "function"
    },
    {
      "inputs": [
        {
          "internalType": "contract PriceConsumerV3",
          "name": "_oracle",
          "type": "address"
        }
      ],
      "name": "setPriceOracle",
      "outputs": [],
      "stateMutability": "nonpayable",
      "type": "function"
    },
    {
      "inputs": [],
      "name": "totalLiquidity",
      "outputs": [
        {
          "internalType": "uint256",
          "name": "",
          "type": "uint256"
        }
      ],
      "stateMutability": "view",
      "type": "function"
    },
    {
      "inputs": [
        {
          "internalType": "address",
          "name": "newOwner",
          "type": "address"
        }
      ],
      "name": "transferOwnership",
      "outputs": [],
      "stateMutability": "nonpayable",
      "type": "function"
    },
    {
      "inputs": [],
      "name": "usdcAddress",
      "outputs": [
        {
          "internalType": "address",
          "name": "",
          "type": "address"
        }
      ],
      "stateMutability": "view",
      "type": "function"
    },
    {
      "inputs": [],
      "name": "usdcBorrowAPY",
      "outputs": [
        {
          "internalType": "uint256",
          "name": "",
          "type": "uint256"
        }
      ],
      "stateMutability": "view",
      "type": "function"
    },
    {
      "inputs": [],
      "name": "usdcLTV",
      "outputs": [
        {
          "internalType": "uint256",
          "name": "",
          "type": "uint256"
        }
      ],
      "stateMutability": "view",
      "type": "function"
    },
    {
      "inputs": [],
      "name": "usdcLendAPY",
      "outputs": [
        {
          "internalType": "uint256",
          "name": "",
          "type": "uint256"
        }
      ],
      "stateMutability": "view",
      "type": "function"
    },
    {
      "inputs": [],
      "name": "usdcTotalLiquidity",
      "outputs": [
        {
          "internalType": "uint256",
          "name": "",
          "type": "uint256"
        }
      ],
      "stateMutability": "view",
      "type": "function"
    },
    {
      "inputs": [],
      "name": "usdtAddress",
      "outputs": [
        {
          "internalType": "address",
          "name": "",
          "type": "address"
        }
      ],
      "stateMutability": "view",
      "type": "function"
    },
    {
      "inputs": [],
      "name": "usdtBorrowAPY",
      "outputs": [
        {
          "internalType": "uint256",
          "name": "",
          "type": "uint256"
        }
      ],
      "stateMutability": "view",
      "type": "function"
    },
    {
      "inputs": [],
      "name": "usdtLTV",
      "outputs": [
        {
          "internalType": "uint256",
          "name": "",
          "type": "uint256"
        }
      ],
      "stateMutability": "view",
      "type": "function"
    },
    {
      "inputs": [],
      "name": "usdtLendAPY",
      "outputs": [
        {
          "internalType": "uint256",
          "name": "",
          "type": "uint256"
        }
      ],
      "stateMutability": "view",
      "type": "function"
    },
    {
      "inputs": [],
      "name": "usdtTotalLiquidity",
      "outputs": [
        {
          "internalType": "uint256",
          "name": "",
          "type": "uint256"
        }
      ],
      "stateMutability": "view",
      "type": "function"
    },
    {
      "inputs": [
        {
          "internalType": "address",
          "name": "",
          "type": "address"
        }
      ],
      "name": "userLendsCount",
      "outputs": [
        {
          "internalType": "uint256",
          "name": "",
          "type": "uint256"
        }
      ],
      "stateMutability": "view",
      "type": "function"
    },
    {
      "inputs": [
        {
          "internalType": "address",
          "name": "",
          "type": "address"
        }
      ],
      "name": "userLoansCount",
      "outputs": [
        {
          "internalType": "uint256",
          "name": "",
          "type": "uint256"
        }
      ],
      "stateMutability": "view",
      "type": "function"
    },
    {
      "inputs": [
        {
          "internalType": "uint256",
          "name": "_amount",
          "type": "uint256"
        },
        {
          "internalType": "uint256",
          "name": "mtype",
          "type": "uint256"
        }
      ],
      "name": "withDrawReserve",
      "outputs": [],
      "stateMutability": "nonpayable",
      "type": "function"
    },
    {
      "inputs": [
        {
          "internalType": "uint256",
          "name": "_id",
          "type": "uint256"
        }
      ],
      "name": "withdraw",
      "outputs": [],
      "stateMutability": "nonpayable",
      "type": "function"
    }
  ],
  "bytecode": "0x60806040526302faf080600855680410d586a20a4c0000600e819055600f81905560105568049b9ca9a6943400006011556729a2241af62c0000601255674563918244f400006013819055678ac7230489e800006014556798a7d9b8314c000060155567a688906bd8b000006016556017556753444835ec580000601855676f05b59d3b200000601955601a805460ff19169055348015620000a057600080fd5b506040516200474e3803806200474e833981016040819052620000c391620001b0565b620000ce3362000143565b600180805560025560006007819055600481905560038190556005819055600655600a80546001600160a01b039586166001600160a01b031991821617909155600b805494861694821694909417909355600c805492851692841692909217909155600d80549190931691161790556200020c565b600080546001600160a01b038381166001600160a01b0319831681178455604051919092169283917f8be0079c531659141344cd1fd0a4f28419497f9722a3daafe3b4186f6b6457e09190a35050565b80516001600160a01b0381168114620001ab57600080fd5b919050565b60008060008060808587031215620001c6578384fd5b620001d18562000193565b9350620001e16020860162000193565b9250620001f16040860162000193565b9150620002016060860162000193565b905092959194509250565b614532806200021c6000396000f3fe608060405234801561001057600080fd5b50600436106103cf5760003560e01c806376b24a74116101ff578063cdb2409a1161011a578063df62dbbe116100ad578063f2fde38b1161007c578063f2fde38b14610914578063f6c5dded14610927578063f7d76ae514610930578063fe3af3ea1461094357600080fd5b8063df62dbbe146108d2578063e15a6d6a146108db578063ed6acc98146108ee578063ee9e58001461090157600080fd5b8063d3c9e2c9116100e9578063d3c9e2c914610890578063d3f72d10146108a3578063d5a0b65d146108ac578063d9d0befc146108bf57600080fd5b8063cdb2409a14610862578063cdbc87f61461086b578063ce63094d14610874578063d32353061461087d57600080fd5b806398c61c3711610192578063ae5c8fca11610161578063ae5c8fca14610821578063b04b022a14610834578063ba5e4e9214610847578063bcbaf4871461084f57600080fd5b806398c61c37146107125780639ab4a445146107f3578063a557b17d14610806578063a5843f081461080e57600080fd5b80638a6a29a0116101ce5780638a6a29a0146106c15780638da5cb5b146106e15780638dda75b7146106f2578063973c7d45146106ff57600080fd5b806376b24a74146106655780637f026f15146106785780637f1cf1d11461069b5780638443bccc146106ae57600080fd5b80634c0a79fb116102ef578063693a961d116102825780636ef9855b116102515780636ef9855b14610643578063715018a61461064c57806371d1a70114610654578063725cab5d1461065c57600080fd5b8063693a961d14610601578063699e0f56146106145780636b32991e1461061d5780636c6ac5911461063057600080fd5b80635d4c912c116102be5780635d4c912c146105df57806360089fca146105e757806364282ecd146105ef57806365440cef146105f857600080fd5b80634c0a79fb1461059057806353068056146105b0578063530e784f146105b957806353bbfefa146105cc57600080fd5b8063295dea73116103675780632e6a1830116103365780632e6a1830146104a15780633583de13146104aa578063439b3543146104bd578063455ddd761461057057600080fd5b8063295dea731461047357806329b53f851461047c5780632b84a68d146104855780632e1a7d4d1461048e57600080fd5b806315770f92116103a357806315770f9214610439578063168c738c1461044257806320ec1ff51461045757806329055efc1461046057600080fd5b806208001a146103d457806302d45457146103f0578063048422a51461041b5780630bf1644e14610430575b600080fd5b6103dd60195481565b6040519081526020015b60405180910390f35b600b54610403906001600160a01b031681565b6040516001600160a01b0390911681526020016103e7565b61042e610429366004614025565b610956565b005b6103dd60125481565b6103dd60075481565b61044a610a17565b6040516103e791906141f5565b6103dd60175481565b61042e61046e366004614108565b610bb0565b6103dd60135481565b6103dd60035481565b6103dd60045481565b61042e61049c36600461408c565b6112a8565b6103dd60165481565b61042e6104b83660046140bc565b61181c565b6105296104cb366004614041565b601e602090815260009283526040808420909152908252902080546001820154600283015460038401546004850154600586015460068701546007909701546001600160a01b03909616969495939492939192909160ff9091169088565b604080516001600160a01b0390991689526020890197909752958701949094526060860192909252608085015260a0840152151560c083015260e0820152610100016103e7565b61058361057e366004614025565b611e61565b6040516103e7919061415d565b6103dd61059e366004614025565b601b6020526000908152604090205481565b6103dd600f5481565b61042e6105c7366004614025565b611fcd565b6103dd6105da36600461408c565b612049565b61044a612121565b61044a6122b4565b6103dd60065481565b6103dd60055481565b61040361060f36600461408c565b61242b565b6103dd60025481565b61042e61062b36600461408c565b612455565b61042e61063e366004614025565b6124ba565b6103dd60155481565b61042e61257c565b6105836125b2565b6103dd60145481565b61042e6106733660046140bc565b612703565b61068b610686366004614041565b6127bf565b60405190151581526020016103e7565b61044a6106a9366004614025565b6127fc565b61042e6106bc3660046140bc565b612987565b6103dd6106cf366004614025565b601c6020526000908152604090205481565b6000546001600160a01b0316610403565b601a5461068b9060ff1681565b61040361070d36600461408c565b612bfa565b610792610720366004614041565b601d60209081526000928352604080842090915290825290208054600182015460028301546003840154600485015460058601546006870154600788015460088901546009909901546001600160a01b039098169896979596949593949293919260ff8083169361010090930416918b565b604080516001600160a01b03909c168c5260208c019a909a52988a01979097526060890195909552608088019390935260a087019190915260c0860152151560e08501521515610100840152610120830152610140820152610160016103e7565b600c54610403906001600160a01b031681565b610583612c0a565b61042e61081c3660046140bc565b612d62565b61042e61082f3660046140bc565b612f8c565b600a54610403906001600160a01b031681565b61044a6133cb565b61042e61085d366004614041565b61356c565b6103dd60105481565b6103dd60115481565b6103dd60015481565b6103dd61088b3660046140dd565b613868565b61068b61089e366004614041565b613917565b6103dd600e5481565b6103dd6108ba36600461408c565b613939565b6103dd6108cd3660046140dd565b613b09565b6103dd60185481565b6103dd6108e9366004614041565b613ba7565b61042e6108fc3660046140bc565b613d00565b600954610403906001600160a01b031681565b61042e610922366004614025565b613db2565b6103dd60085481565b600d54610403906001600160a01b031681565b61068b6109513660046140bc565b613e4d565b6000805b601f548110156109c157826001600160a01b0316601f828154811061098f57634e487b7160e01b600052603260045260246000fd5b6000918252602090912001546001600160a01b031614156109af57600191505b806109b9816144b6565b91505061095a565b5080610a1357601f80546001810182556000919091527fa03837a25210ee280c2113ff4b77ca23440b19d4866cca721c801278fd08d8070180546001600160a01b0319166001600160a01b0384161790555b5050565b336000908152601b60205260408120546060919067ffffffffffffffff811115610a5157634e487b7160e01b600052604160045260246000fd5b604051908082528060200260200182016040528015610a8a57816020015b610a77613f6e565b815260200190600190039081610a6f5790505b50905060005b336000908152601b6020526040902054811015610baa57336000908152601d6020908152604080832084845282529182902082516101608101845281546001600160a01b031681526001820154928101929092526002810154928201929092526003820154606082015260048201546080820152600582015460a0820152600682015460c0820152600782015460ff80821615801560e085018190526101009384900490921615159284019290925260088401546101208401526009909301546101408301529091610b655750428160800151115b15610b975780838381518110610b8b57634e487b7160e01b600052603260045260246000fd5b60200260200101819052505b5080610ba2816144b6565b915050610a90565b50919050565b610bba8483613e4d565b610c0b5760405162461bcd60e51b815260206004820152601f60248201527f6c6f616e45746865723a206e6f7420656e6f756768206c69717569646974790060448201526064015b60405180910390fd5b610c13613f6e565b33815260208101859052610c28858484613868565b604080830191909152336000908152601b6020529081205460c083015260e082018190526101008201819052610120820184905261014082018390526002841415610c765750601454610c96565b8360031415610c885750601554610c96565b8360041415610c9657506016545b601a5460ff1615610dcb578460071415610cee57610cc9610cc26064610cbc8985613ec2565b90613eda565b8790613ee6565b6060830152610cdb4262093a80614448565b608083015262093a8060a0830152610e70565b84600e1415610d3c57610d17610cc26064610cbc84601254610d109190614448565b8a90613ec2565b6060830152610d294262127500614448565b60808301526212750060a0830152610e70565b84601e1415610d8357610d5e610cc26064610cbc84601354610d109190614448565b6060830152610d704262278d00614448565b608083015262278d0060a0830152610e70565b60405162461bcd60e51b815260206004820152601d60248201527f6c6f616e546f6b656e3a206e6f2076616c6964206475726174696f6e210000006044820152606401610c02565b84601e1415610de657610d5e610cc26064610cbc8985613ec2565b84603c1415610e2d57610e08610cc26064610cbc84601254610d109190614448565b6060830152610e1a42624f1a00614448565b6080830152624f1a0060a0830152610e70565b84605a1415610d8357610e4f610cc26064610cbc84601354610d109190614448565b6060830152610e61426276a700614448565b60808301526276a70060a08301525b600083600114610fab5750600a5460408084015190516323b872dd60e01b81526001600160a01b039092169182916323b872dd91610eb5913391309190600401614139565b602060405180830381600087803b158015610ecf57600080fd5b505af1158015610ee3573d6000803e3d6000fd5b505050506040513d601f19601f82011682018060405250810190610f07919061406c565b610f235760405162461bcd60e51b8152600401610c02906143f2565b6040838101519051633950935160e01b815230600482015260248101919091526001600160a01b03821690633950935190604401602060405180830381600087803b158015610f7157600080fd5b505af1158015610f85573d6000803e3d6000fd5b505050506040513d601f19601f82011682018060405250810190610fa9919061406c565b505b8360011415610fb957610fce565b6040830151600354610fca91613ee6565b6003555b60008560021415610feb5750600b546001600160a01b031661101d565b85600314156110065750600c546001600160a01b031661101d565b856004141561101d5750600d546001600160a01b03165b6040516323b872dd60e01b81526001600160a01b038216906323b872dd9061104d90309033908d90600401614139565b602060405180830381600087803b15801561106757600080fd5b505af115801561107b573d6000803e3d6000fd5b505050506040513d601f19601f8201168201806040525081019061109f919061406c565b6110bb5760405162461bcd60e51b8152600401610c02906143f2565b85600214156110d9576004546110d19089613ef2565b600455611111565b85600314156110f7576005546110ef9089613ef2565b600555611111565b85600414156111115760065461110d9089613ef2565b6006555b336000908152601d60209081526040808320601b83528184205484528252808320875181546001600160a01b03919091166001600160a01b031990911617815591870151600180840191909155908701516002830155606087015160038301556080870151600483015560a0870151600583015560c0870151600683015560e0870151600783018054610100808b015115150261ff00199315159390931661ffff199091161791909117905561012087015160088301556101408701516009909201919091558054916111e3836144b6565b9091555050336000908152601b60205260408120805491611203836144b6565b9190505550336001600160a01b03167fd3d220740d3967bbabbce5a2d2be80cf584799db8de046928f1b6d1d7500b45e85602001518660400151876060015188608001518960a001518a61012001518b61014001516040516112969796959493929190968752602087019590955260408601939093526060850191909152608084015260a083015260c082015260e00190565b60405180910390a25050505050505050565b336000908152601e602090815260408083208484529091529020600681015460ff16156113255760405162461bcd60e51b815260206004820152602560248201527f7769746864726177546f6b656e3a204c656e64207265717565737420726574726044820152641a595d995960da1b6064820152608401610c02565b80546001600160a01b0316331461138e5760405162461bcd60e51b815260206004820152602760248201527f776974686472617745746865723a204f6e6c79206c656e6465722063616e20776044820152666974686472617760c81b6064820152608401610c02565b6113a081600201548260070154613e4d565b6113bc5760405162461bcd60e51b8152600401610c02906143af565b60068101805460ff1916600117905560058101544211156115fe5760008160070154600214156113f85750600b546001600160a01b0316611432565b8160070154600314156114175750600c546001600160a01b0316611432565b8160070154600414156114325750600d546001600160a01b03165b815460038301546040516323b872dd60e01b81526001600160a01b03848116936323b872dd9361146a93309390921691600401614139565b602060405180830381600087803b15801561148457600080fd5b505af1158015611498573d6000803e3d6000fd5b505050506040513d601f19601f820116820180604052508101906114bc919061406c565b506003820154604051633950935160e01b815230600482015260248101919091526001600160a01b03821690633950935190604401602060405180830381600087803b15801561150b57600080fd5b505af115801561151f573d6000803e3d6000fd5b505050506040513d601f19601f82011682018060405250810190611543919061406c565b5081600701546002141561156a57600382015460045461156291613ef2565b60045561158c565b81600701546003141561158c57600382015460055461158891613ef2565b6005555b8160070154600414156115ae5760038201546006546115aa91613ef2565b6006555b60038201546007830154604080516001815260208101939093528201527ffedb0622d5d5fa46cc706a5c2c169f2bf2eb31a59ff2f70cef3096376f58c2c0906060015b60405180910390a1505050565b600081600701546002141561161f5750600b546001600160a01b0316611659565b81600701546003141561163e5750600c546001600160a01b0316611659565b8160070154600414156116595750600d546001600160a01b03165b815460028301546040516323b872dd60e01b81526001600160a01b03848116936323b872dd9361169193309390921691600401614139565b602060405180830381600087803b1580156116ab57600080fd5b505af11580156116bf573d6000803e3d6000fd5b505050506040513d601f19601f820116820180604052508101906116e3919061406c565b506002820154604051633950935160e01b815230600482015260248101919091526001600160a01b03821690633950935190604401602060405180830381600087803b15801561173257600080fd5b505af1158015611746573d6000803e3d6000fd5b505050506040513d601f19601f8201168201806040525081019061176a919061406c565b5081600701546002141561179157600282015460045461178991613ef2565b6004556117b3565b8160070154600314156117b35760028201546005546117af91613ef2565b6005555b8160070154600414156117d55760028201546006546117d191613ef2565b6006555b60028201546007830154604080516000815260208101939093528201527ffedb0622d5d5fa46cc706a5c2c169f2bf2eb31a59ff2f70cef3096376f58c2c0906060016115f1565b336000818152601d602090815260408083208684529091529020805490916001600160a01b039091161461189d5760405162461bcd60e51b815260206004820152602260248201527f7061796261636b3a204f6e6c7920626f72726f7765722063616e207061796261604482015261636b60f01b6064820152608401610c02565b600781015460ff16156118ed5760405162461bcd60e51b81526020600482015260186024820152777061796261636b3a207061796261636b20616c726561647960401b6044820152606401610c02565b80600401544211156119415760405162461bcd60e51b815260206004820152601860248201527f7061796261636b3a2065786365656420647565206461746500000000000000006044820152606401610c02565b60115461194e3385613ba7565b106119a55760405162461bcd60e51b815260206004820152602160248201527f7061796261636b3a204c5456206578636565642064616e6765726f7573204c546044820152602b60f91b6064820152608401610c02565b80600301548210156119f95760405162461bcd60e51b815260206004820152601960248201527f7061796261636b3a204e6f7420656e6f75676820746f6b656e000000000000006044820152606401610c02565b611a0b81600201548260090154613e4d565b611a695760405162461bcd60e51b815260206004820152602960248201527f7061796261636b3a206e6f7420656e6f756768206c6971756964697479206f6e6044820152680818dbdb9d1c9858dd60ba1b6064820152608401610c02565b6000816008015460021415611a8a5750600b546001600160a01b0316611ac4565b816008015460031415611aa95750600c546001600160a01b0316611ac4565b816008015460041415611ac45750600d546001600160a01b03165b6040516323b872dd60e01b81526001600160a01b038216906323b872dd90611af490339030908890600401614139565b602060405180830381600087803b158015611b0e57600080fd5b505af1158015611b22573d6000803e3d6000fd5b505050506040513d601f19601f82011682018060405250810190611b46919061406c565b611b625760405162461bcd60e51b8152600401610c029061431d565b604051633950935160e01b8152306004820152602481018490526001600160a01b03821690633950935190604401602060405180830381600087803b158015611baa57600080fd5b505af1158015611bbe573d6000803e3d6000fd5b505050506040513d601f19601f82011682018060405250810190611be2919061406c565b50816008015460021415611c0557600454611bfd9084613ee6565b600455611c45565b816008015460031415611c2757600554611c1f9084613ee6565b600555611c45565b816008015460041415611c4557600654611c419084613ee6565b6006555b6000826009015460011415611c6657506009546001600160a01b0316611c74565b50600a546001600160a01b03165b60028301546040516323b872dd60e01b81526001600160a01b038316916323b872dd91611ca8913091339190600401614139565b602060405180830381600087803b158015611cc257600080fd5b505af1158015611cd6573d6000803e3d6000fd5b505050506040513d601f19601f82011682018060405250810190611cfa919061406c565b611d165760405162461bcd60e51b8152600401610c029061431d565b6002830154604051633950935160e01b815230600482015260248101919091526001600160a01b03821690633950935190604401602060405180830381600087803b158015611d6457600080fd5b505af1158015611d78573d6000803e3d6000fd5b505050506040513d601f19601f82011682018060405250810190611d9c919061406c565b50826009015460011415611dc3576002830154600754611dbb91613ef2565b600755611dd8565b6002830154600354611dd491613ef2565b6003555b60078301805461ffff19166001908117909155600384015460028501546008860154600987015460408051338152602081019690965242908601526060850193909352608084019190915260a083015260c08201527f5c775973c71b408f578d06223650690e9508ab4bb549d0691ae69265b311af379060e00160405180910390a15050505050565b6001600160a01b0381166000908152601c60205260408120546060919067ffffffffffffffff811115611ea457634e487b7160e01b600052604160045260246000fd5b604051908082528060200260200182016040528015611edd57816020015b611eca613fd5565b815260200190600190039081611ec25790505b50905060005b6001600160a01b0384166000908152601c6020526040902054811015611fc6576001600160a01b038085166000908152601e60209081526040808320858452825291829020825161010081018452815490941684526001810154918401919091526002810154918301919091526003810154606083015260048101546080830152600581015460a0830152600681015460ff16151560c08301526007015460e08201528251839083908110611fa857634e487b7160e01b600052603260045260246000fd5b60200260200101819052508080611fbe906144b6565b915050611ee3565b5092915050565b6000546001600160a01b03163314611ff75760405162461bcd60e51b8152600401610c029061437a565b601a8054610100600160a81b0319166101006001600160a01b038416908102919091179091556040517fefe8ab924ca486283a79dc604baa67add51afb82af1db8ac386ebbba643cdffd90600090a250565b601a54600090819061010090046001600160a01b031661207b5760405162461bcd60e51b8152600401610c02906142a3565b82600114156120a05761209961209084613939565b60075490613ec2565b905061211b565b82600214156120be576120996120b584613939565b60045490613ec2565b82600314156120dc576120996120d384613939565b60055490613ec2565b82600414156120fa576120996120f184613939565b60065490613ec2565b826005141561211b5761211861210f84613939565b60035490613ec2565b90505b92915050565b336000908152601b60205260408120546060919067ffffffffffffffff81111561215b57634e487b7160e01b600052604160045260246000fd5b60405190808252806020026020018201604052801561219457816020015b612181613f6e565b8152602001906001900390816121795790505b50905060005b336000908152601b6020526040902054811015610baa57336000908152601d6020908152604080832084845282529182902082516101608101845281546001600160a01b031681526001820154928101929092526002810154928201929092526003820154606082015260048201546080820152600582015460a0820152600682015460c0820152600782015460ff80821615801560e08501819052610100938490049092161515928401929092526008840154610120840152600990930154610140830152909161226f5750428160800151105b156122a1578083838151811061229557634e487b7160e01b600052603260045260246000fd5b60200260200101819052505b50806122ac816144b6565b91505061219a565b336000908152601b60205260408120546060919067ffffffffffffffff8111156122ee57634e487b7160e01b600052604160045260246000fd5b60405190808252806020026020018201604052801561232757816020015b612314613f6e565b81526020019060019003908161230c5790505b50905060005b336000908152601b6020526040902054811015610baa57336000908152601d6020908152604080832084845282529182902082516101608101845281546001600160a01b031681526001820154928101929092526002810154928201929092526003820154606082015260048201546080820152600582015460a0820152600682015460c0820152600782015460ff808216151560e084015261010091829004161515908201526008820154610120820152600990910154610140820152825183908390811061240d57634e487b7160e01b600052603260045260246000fd5b60200260200101819052508080612423906144b6565b91505061232d565b6020818154811061243b57600080fd5b6000918252602090912001546001600160a01b0316905081565b6000546001600160a01b0316331461247f5760405162461bcd60e51b8152600401610c029061437a565b60088190556040518181527f9a470bd568cbe5e7985016006c3093b3634f775e978b0ec2841ef7c634a2c2ff9060200160405180910390a150565b6000805b60205481101561252557826001600160a01b0316602082815481106124f357634e487b7160e01b600052603260045260246000fd5b6000918252602090912001546001600160a01b0316141561251357600191505b8061251d816144b6565b9150506124be565b5080610a1357602080546001810182556000919091527fc97bfaf2f8ee708c303a06d134f5ecd8389ae0432af62dc132a24118292866bb0180546001600160a01b0384166001600160a01b03199091161790555050565b6000546001600160a01b031633146125a65760405162461bcd60e51b8152600401610c029061437a565b6125b06000613efe565b565b336000908152601c60205260408120546060919067ffffffffffffffff8111156125ec57634e487b7160e01b600052604160045260246000fd5b60405190808252806020026020018201604052801561262557816020015b612612613fd5565b81526020019060019003908161260a5790505b50905060005b336000908152601c6020526040902054811015610baa57336000908152601e6020908152604080832084845282529182902082516101008101845281546001600160a01b031681526001820154928101929092526002810154928201929092526003820154606082015260048201546080820152600582015460a0820152600682015460ff16151560c082015260079091015460e082015282518390839081106126e557634e487b7160e01b600052603260045260246000fd5b602002602001018190525080806126fb906144b6565b91505061262b565b6000546001600160a01b0316331461272d5760405162461bcd60e51b8152600401610c029061437a565b6000808260021415612749575050601780549083905582612777565b8260031415612762575050601880549083905582612777565b82600414156127775750506019805490839055825b60408051838152602081018390529081018490527f1eb993ea8e47c2ce3cb4aade30f5dbcf13db6e9a00e435ee9d7ee80a3f587883906060015b60405180910390a150505050565b6001600160a01b0382166000908152601d602090815260408083208484529091528120600481015482904211156127f4575060015b949350505050565b6001600160a01b0381166000908152601b60205260408120546060919067ffffffffffffffff81111561283f57634e487b7160e01b600052604160045260246000fd5b60405190808252806020026020018201604052801561287857816020015b612865613f6e565b81526020019060019003908161285d5790505b50905060005b6001600160a01b0384166000908152601b6020526040902054811015611fc6576001600160a01b038085166000908152601d60209081526040808320858452825291829020825161016081018452815490941684526001810154918401919091526002810154918301919091526003810154606083015260048101546080830152600581015460a0830152600681015460c0830152600781015460ff808216151560e08501526101009182900416151590830152600881015461012083015260090154610140820152825183908390811061296957634e487b7160e01b600052603260045260246000fd5b6020026020010181905250808061297f906144b6565b91505061287e565b6000546001600160a01b031633146129b15760405162461bcd60e51b8152600401610c029061437a565b6129bb8282613e4d565b6129d75760405162461bcd60e51b8152600401610c02906143af565b600081600114156129f057506009546001600160a01b03165b8160021415612a0b5750600b546001600160a01b0316612a58565b8160031415612a265750600c546001600160a01b0316612a58565b8160041415612a415750600d546001600160a01b0316612a58565b8160041415612a585750600a546001600160a01b03165b6040516323b872dd60e01b81526001600160a01b038216906323b872dd90612a8890309033908890600401614139565b602060405180830381600087803b158015612aa257600080fd5b505af1158015612ab6573d6000803e3d6000fd5b505050506040513d601f19601f82011682018060405250810190612ada919061406c565b612af65760405162461bcd60e51b8152600401610c02906142da565b604051633950935160e01b8152306004820152602481018490526001600160a01b03821690633950935190604401602060405180830381600087803b158015612b3e57600080fd5b505af1158015612b52573d6000803e3d6000fd5b505050506040513d601f19601f82011682018060405250810190612b76919061406c565b508160011415612b9557600754612b8d9084613ee6565b600755505050565b8160021415612bb357600454612bab9084613ee6565b600455505050565b8160031415612bc957600554612bab9084613ee6565b8160041415612bdf57600654612bab9084613ee6565b8160051415612bf557600354612bab9084613ee6565b505050565b601f818154811061243b57600080fd5b336000908152601c60205260408120546060919067ffffffffffffffff811115612c4457634e487b7160e01b600052604160045260246000fd5b604051908082528060200260200182016040528015612c7d57816020015b612c6a613fd5565b815260200190600190039081612c625790505b50905060005b336000908152601c6020526040902054811015610baa57336000908152601e6020908152604080832084845282529182902082516101008101845281546001600160a01b031681526001820154928101929092526002810154928201929092526003820154606082015260048201546080820152600582015460a0820152600682015460ff16151560c0820181905260079092015460e082015290612d4f5780838381518110612d4357634e487b7160e01b600052603260045260246000fd5b60200260200101819052505b5080612d5a816144b6565b915050612c83565b6000546001600160a01b03163314612d8c5760405162461bcd60e51b8152600401610c029061437a565b60008160021415612da95750600b546001600160a01b0316612ddb565b8160031415612dc45750600c546001600160a01b0316612ddb565b8160041415612ddb5750600d546001600160a01b03165b6040516323b872dd60e01b81526001600160a01b038216906323b872dd90612e0b90339030908890600401614139565b602060405180830381600087803b158015612e2557600080fd5b505af1158015612e39573d6000803e3d6000fd5b505050506040513d601f19601f82011682018060405250810190612e5d919061406c565b612e795760405162461bcd60e51b8152600401610c02906142da565b604051633950935160e01b8152306004820152602481018490526001600160a01b03821690633950935190604401602060405180830381600087803b158015612ec157600080fd5b505af1158015612ed5573d6000803e3d6000fd5b505050506040513d601f19601f82011682018060405250810190612ef9919061406c565b50476007556002821415612f1c57600454612f149084613ee6565b600455612f4c565b8160031415612f3257600554612f149084613ee6565b8160041415612f4c57600654612f489084613ee6565b6004555b604080518481526020810184905233917f68dcee598918c1887bfa1c13ac763d4659a12722f88a5eb920014ba1f0bc38fb910160405180910390a2505050565b60008160021415612fa95750600b546001600160a01b0316612fdb565b8160031415612fc45750600c546001600160a01b0316612fdb565b8160041415612fdb5750600d546001600160a01b03165b6040516323b872dd60e01b81526001600160a01b038216906323b872dd9061300b90339030908890600401614139565b602060405180830381600087803b15801561302557600080fd5b505af1158015613039573d6000803e3d6000fd5b505050506040513d601f19601f8201168201806040525081019061305d919061406c565b6130c85760405162461bcd60e51b815260206004820152603660248201527f6c656e64546f6b656e3a205472616e7366657220746f6b656e2066726f6d20756044820152751cd95c881d1bc818dbdb9d1c9858dd0819985a5b195960521b6064820152608401610c02565b6130d0613fd5565b338082526000908152601c60209081526040918290205490830152810184905260028314156131275761311d6131166064610cbc60175488613ec290919063ffffffff16565b8590613ee6565b6060820152613179565b826003141561314d5761311d6131166064610cbc60185488613ec290919063ffffffff16565b8260041415613179576131736131166064610cbc60195488613ec290919063ffffffff16565b60608201525b426080820181905261318e9062278d00614448565b60a08201908152600060c0830181815260e08401868152338352601e60209081526040808520601c83528186205486528252808520875181546001600160a01b0319166001600160a01b03909116178155918701516001830155860151600280830191909155606087015160038301556080870151600483015594516005820155915160068301805460ff19169115159190911790555160079091015581549190613238836144b6565b9091555050336000908152601c60205260408120805491613258836144b6565b9091555050604051633950935160e01b8152306004820152602481018590526001600160a01b03831690633950935190604401602060405180830381600087803b1580156132a557600080fd5b505af11580156132b9573d6000803e3d6000fd5b505050506040513d601f19601f820116820180604052508101906132dd919061406c565b5082600214156132fc576004546132f49085613ee6565b600455613316565b8260031415613316576005546133129085613ee6565b6005555b82600414156133305760065461332c9085613ee6565b6006555b613339336124ba565b80600001516001600160a01b03167f4ab15cc690495a744ed84b8955b45eb732403b222a485fa1e287db39ad05e0658260400151836060015184608001518560a001518660c001518760e001516040516133bd969594939291909586526020860194909452604085019290925260608401521515608083015260a082015260c00190565b60405180910390a250505050565b336000908152601b60205260408120546060919067ffffffffffffffff81111561340557634e487b7160e01b600052604160045260246000fd5b60405190808252806020026020018201604052801561343e57816020015b61342b613f6e565b8152602001906001900390816134235790505b50905060005b336000908152601b6020526040902054811015610baa57336000908152601d6020908152604080832084845282529182902082516101608101845281546001600160a01b031681526001820154928101929092526002810154928201929092526003820154606082015260048201546080820152600582015460a0820152600682015460c0820152600782015460ff80821615801560e0850181905261010093849004909216151592840192909252600884015461012084015260099093015461014083015290916135195750428160800151115b15613559576135283383613917565b613559578083838151811061354d57634e487b7160e01b600052603260045260246000fd5b60200260200101819052505b5080613564816144b6565b915050613444565b6000546001600160a01b031633146135965760405162461bcd60e51b8152600401610c029061437a565b6001600160a01b0382166000908152601d602090815260408083208484529091529020600781015460ff16156136095760405162461bcd60e51b81526020600482015260186024820152777061796261636b3a207061796261636b20616c726561647960401b6044820152606401610c02565b6136138383613917565b1561366b5760405162461bcd60e51b815260206004820152602260248201527f776974686472617745746865723a204c6f616e206865616c7468206973207472604482015261756560f01b6064820152608401610c02565b61367d81600201548260090154613e4d565b6136995760405162461bcd60e51b8152600401610c02906143af565b60008160090154600214156136ba57506009546001600160a01b03166136c8565b50600a546001600160a01b03165b60028201546040516323b872dd60e01b81526001600160a01b038316916323b872dd916136fc913091339190600401614139565b602060405180830381600087803b15801561371657600080fd5b505af115801561372a573d6000803e3d6000fd5b505050506040513d601f19601f8201168201806040525081019061374e919061406c565b506002820154604051633950935160e01b815230600482015260248101919091526001600160a01b03821690633950935190604401602060405180830381600087803b15801561379d57600080fd5b505af11580156137b1573d6000803e3d6000fd5b505050506040513d601f19601f820116820180604052508101906137d5919061406c565b508160090154600114156137fc5760028201546007546137f491613ef2565b600755613811565b600282015460035461380d91613ef2565b6003555b60078201805461ffff1916610100179055600282015460098301546040805133815260208101939093528201527f3c4b1d42b9c7fa283f6fe657533f6a5a8a7ad1d36f9ef1d9d89ad04485e10d2c906060016127b1565b600080600061387684613939565b9050600061388386613939565b905085600214156138b5576138ae60646138a8600f548a613f4e90919063ffffffff16565b90613f62565b92506138fe565b85600314156138d8576138ae60646138a8600e548a613f4e90919063ffffffff16565b85600414156138fe576138fb60646138a86010548a613f4e90919063ffffffff16565b92505b61390c82610cbc8584613f62565b979650505050505050565b60115460009060019061392a8585613ba7565b10612118575060009392505050565b601a5460009061010090046001600160a01b03166139695760405162461bcd60e51b8152600401610c02906142a3565b60008260021415613a0157601a60019054906101000a90046001600160a01b03166001600160a01b031663d63c25186040518163ffffffff1660e01b815260040160206040518083038186803b1580156139c257600080fd5b505afa1580156139d6573d6000803e3d6000fd5b505050506040513d601f19601f820116820180604052508101906139fa91906140a4565b9050613abd565b8260031415613a5857601a60019054906101000a90046001600160a01b03166001600160a01b0316633629cf056040518163ffffffff1660e01b815260040160206040518083038186803b1580156139c257600080fd5b8260041415613aaf57601a60019054906101000a90046001600160a01b03166001600160a01b0316630f00fa116040518163ffffffff1660e01b815260040160206040518083038186803b1580156139c257600080fd5b8260051415613abd57506008545b6000811161211b5760405162461bcd60e51b81526020600482015260196024820152781d1bdad95b881c1c9a58d9481a5cdb89dd0818dbdc9c9958dd603a1b6044820152606401610c02565b6000806000613b1784613939565b90506000613b2486613939565b90508560021415613b5057613b496064610cbc600f548a613ec290919063ffffffff16565b9250613b99565b8560031415613b7357613b496064610cbc600e548a613ec290919063ffffffff16565b8560041415613b9957613b966064610cbc6010548a613ec290919063ffffffff16565b92505b61390c81610cbc8585613f62565b6001600160a01b038083166000908152601d602090815260408083208584529091528120601a5491929091839161010090910416613bf75760405162461bcd60e51b8152600401610c02906142a3565b6000613c068360090154613939565b905060008111613c585760405162461bcd60e51b815260206004820152601960248201527f65746865722070726963652069736e277420636f7272656374000000000000006044820152606401610c02565b6000613c678460080154613939565b905060008111613cb55760405162461bcd60e51b81526020600482015260196024820152781d1bdad95b881c1c9a58d9481a5cdb89dd0818dbdc9c9958dd603a1b6044820152606401610c02565b6003840154600090613cc79083613ec2565b90506000613ce2848760020154613ec290919063ffffffff16565b9050613cf360646138a88484613f4e565b9998505050505050505050565b6000546001600160a01b03163314613d2a5760405162461bcd60e51b8152600401610c029061437a565b6000808260021415613d46575050601480549083905582613d74565b8260031415613d5f575050601580549083905582613d74565b8260041415613d745750506016805490839055825b60408051838152602081018390529081018490527f5e35c511ddee3bac4f3cd917d8e465c37126e7a8a0bc5f8439a65c7676abe19b906060016127b1565b6000546001600160a01b03163314613ddc5760405162461bcd60e51b8152600401610c029061437a565b6001600160a01b038116613e415760405162461bcd60e51b815260206004820152602660248201527f4f776e61626c653a206e6577206f776e657220697320746865207a65726f206160448201526564647265737360d01b6064820152608401610c02565b613e4a81613efe565b50565b6000808260011415613e625750600754613ea6565b8260021415613e745750600454613ea6565b8260031415613e865750600554613ea6565b8260041415613e985750600654613ea6565b8260051415613ea657506003545b80841115613eb857600091505061211b565b600191505061211b565b6000612118670de0b6b3a7640000610cbc8585613f62565b60006121188284614460565b60006121188284614448565b6000612118828461449f565b600080546001600160a01b038381166001600160a01b0319831681178455604051919092169283917f8be0079c531659141344cd1fd0a4f28419497f9722a3daafe3b4186f6b6457e09190a35050565b600061211882610cbc85670de0b6b3a76400005b60006121188284614480565b60405180610160016040528060006001600160a01b0316815260200160008152602001600081526020016000815260200160008152602001600081526020016000815260200160001515815260200160001515815260200160008152602001600081525090565b60405180610100016040528060006001600160a01b031681526020016000815260200160008152602001600081526020016000815260200160008152602001600015158152602001600081525090565b600060208284031215614036578081fd5b8135612118816144e7565b60008060408385031215614053578081fd5b823561405e816144e7565b946020939093013593505050565b60006020828403121561407d578081fd5b81518015158114612118578182fd5b60006020828403121561409d578081fd5b5035919050565b6000602082840312156140b5578081fd5b5051919050565b600080604083850312156140ce578182fd5b50508035926020909101359150565b6000806000606084860312156140f1578081fd5b505081359360208301359350604090920135919050565b6000806000806080858703121561411d578081fd5b5050823594602084013594506040840135936060013592509050565b6001600160a01b039384168152919092166020820152604081019190915260600190565b602080825282518282018190526000919060409081850190868401855b828110156141e857815180516001600160a01b0316855286810151878601528581015186860152606080820151908601526080808201519086015260a0808201519086015260c08082015115159086015260e09081015190850152610100909301929085019060010161417a565b5091979650505050505050565b602080825282518282018190526000919060409081850190868401855b828110156141e857815180516001600160a01b0316855286810151878601528581015186860152606080820151908601526080808201519086015260a0808201519086015260c0808201519086015260e08082015115159086015261010080820151151590860152610120808201519086015261014090810151908501526101609093019290850190600101614212565b6020808252601e908201527f7072696365206f7261636c652069736e277420696e697469616c697a65640000604082015260600190565b60208082526023908201527f5472616e73616374696f6e206661696c6564206f6e20696e69742066756e637460408201526234b7b760e91b606082015260800190565b60208082526039908201527f7061796261636b3a205472616e7366657220636f6c6c61746572616c2066726f60408201527f6d20636f6e747261637420746f2075736572206661696c656400000000000000606082015260800190565b6020808252818101527f4f776e61626c653a2063616c6c6572206973206e6f7420746865206f776e6572604082015260600190565b60208082526023908201527f776974684472617745746865723a206e6f7420656e6f756768206c697175696460408201526269747960e81b606082015260800190565b60208082526036908201527f6c6f616e546f6b656e3a205472616e7366657220746f6b656e2066726f6d20636040820152751bdb9d1c9858dd081d1bc81d5cd95c8819985a5b195960521b606082015260800190565b6000821982111561445b5761445b6144d1565b500190565b60008261447b57634e487b7160e01b81526012600452602481fd5b500490565b600081600019048311821515161561449a5761449a6144d1565b500290565b6000828210156144b1576144b16144d1565b500390565b60006000198214156144ca576144ca6144d1565b5060010190565b634e487b7160e01b600052601160045260246000fd5b6001600160a01b0381168114613e4a57600080fdfea264697066735822122050a5f34527abb4b1137690a9da7a0651239037a776ff6be1a913628d0d6d132864736f6c63430008040033",
  "linkReferences": {},
  "deployedLinkReferences": {}
}