{
  "_format": "hh-sol-artifact-1",
  "contractName": "ODON",
  "sourceName": "contracts/mock/ODON.sol",
  "abi": [
    {
      "inputs": [],
      "stateMutability": "nonpayable",
      "type": "constructor"
    },
    {
      "anonymous": false,
      "inputs": [
        {
          "indexed": true,
          "internalType": "address",
          "name": "owner",
          "type": "address"
        },
        {
          "indexed": true,
          "internalType": "address",
          "name": "spender",
          "type": "address"
        },
        {
          "indexed": false,
          "internalType": "uint256",
          "name": "value",
          "type": "uint256"
        }
      ],
      "name": "Approval",
      "type": "event"
    },
    {
      "anonymous": false,
      "inputs": [
        {
          "indexed": false,
          "internalType": "uint256",
          "name": "updatingTxAmount",
          "type": "uint256"
        }
      ],
      "name": "MaxTxAmountUpdated",
      "type": "event"
    },
    {
      "anonymous": false,
      "inputs": [
        {
          "indexed": false,
          "internalType": "uint256",
          "name": "minTokensBeforeSwap",
          "type": "uint256"
        }
      ],
      "name": "MinTokensBeforeSwapUpdated",
      "type": "event"
    },
    {
      "anonymous": false,
      "inputs": [
        {
          "indexed": true,
          "internalType": "address",
          "name": "previousOwner",
          "type": "address"
        },
        {
          "indexed": true,
          "internalType": "address",
          "name": "newOwner",
          "type": "address"
        }
      ],
      "name": "OwnershipTransferred",
      "type": "event"
    },
    {
      "anonymous": false,
      "inputs": [
        {
          "indexed": false,
          "internalType": "uint256",
          "name": "tokensSwapped",
          "type": "uint256"
        },
        {
          "indexed": false,
          "internalType": "uint256",
          "name": "ethReceived",
          "type": "uint256"
        },
        {
          "indexed": false,
          "internalType": "uint256",
          "name": "tokensIntoLiquidity",
          "type": "uint256"
        }
      ],
      "name": "SwapAndLiquify",
      "type": "event"
    },
    {
      "anonymous": false,
      "inputs": [
        {
          "indexed": false,
          "internalType": "bool",
          "name": "enabled",
          "type": "bool"
        }
      ],
      "name": "SwapAndLiquifyEnabledUpdated",
      "type": "event"
    },
    {
      "anonymous": false,
      "inputs": [
        {
          "indexed": false,
          "internalType": "uint256",
          "name": "totalFee",
          "type": "uint256"
        }
      ],
      "name": "TaxFeeUpdated",
      "type": "event"
    },
    {
      "anonymous": false,
      "inputs": [
        {
          "indexed": true,
          "internalType": "address",
          "name": "from",
          "type": "address"
        },
        {
          "indexed": true,
          "internalType": "address",
          "name": "to",
          "type": "address"
        },
        {
          "indexed": false,
          "internalType": "uint256",
          "name": "value",
          "type": "uint256"
        }
      ],
      "name": "Transfer",
      "type": "event"
    },
    {
      "inputs": [
        {
          "internalType": "address",
          "name": "Account",
          "type": "address"
        },
        {
          "internalType": "bool",
          "name": "status",
          "type": "bool"
        }
      ],
      "name": "ExcludeOrIncludeFromFee",
      "outputs": [],
      "stateMutability": "nonpayable",
      "type": "function"
    },
    {
      "inputs": [],
      "name": "MaxSupply",
      "outputs": [
        {
          "internalType": "uint256",
          "name": "",
          "type": "uint256"
        }
      ],
      "stateMutability": "view",
      "type": "function"
    },
    {
      "inputs": [
        {
          "internalType": "address",
          "name": "Account",
          "type": "address"
        },
        {
          "internalType": "bool",
          "name": "status",
          "type": "bool"
        }
      ],
      "name": "SetAutomaticMarketMaker",
      "outputs": [],
      "stateMutability": "nonpayable",
      "type": "function"
    },
    {
      "inputs": [
        {
          "internalType": "uint256",
          "name": "amount",
          "type": "uint256"
        }
      ],
      "name": "_burn",
      "outputs": [],
      "stateMutability": "nonpayable",
      "type": "function"
    },
    {
      "inputs": [],
      "name": "_burnFee",
      "outputs": [
        {
          "internalType": "uint256",
          "name": "",
          "type": "uint256"
        }
      ],
      "stateMutability": "view",
      "type": "function"
    },
    {
      "inputs": [],
      "name": "_liquidityFee",
      "outputs": [
        {
          "internalType": "uint256",
          "name": "",
          "type": "uint256"
        }
      ],
      "stateMutability": "view",
      "type": "function"
    },
    {
      "inputs": [],
      "name": "_maxTxAmount",
      "outputs": [
        {
          "internalType": "uint256",
          "name": "",
          "type": "uint256"
        }
      ],
      "stateMutability": "view",
      "type": "function"
    },
    {
      "inputs": [
        {
          "internalType": "address",
          "name": "account",
          "type": "address"
        },
        {
          "internalType": "uint256",
          "name": "amount",
          "type": "uint256"
        }
      ],
      "name": "_mint",
      "outputs": [],
      "stateMutability": "nonpayable",
      "type": "function"
    },
    {
      "inputs": [],
      "name": "_teamFee",
      "outputs": [
        {
          "internalType": "uint256",
          "name": "",
          "type": "uint256"
        }
      ],
      "stateMutability": "view",
      "type": "function"
    },
    {
      "inputs": [
        {
          "internalType": "address",
          "name": "owner",
          "type": "address"
        },
        {
          "internalType": "address",
          "name": "spender",
          "type": "address"
        }
      ],
      "name": "allowance",
      "outputs": [
        {
          "internalType": "uint256",
          "name": "",
          "type": "uint256"
        }
      ],
      "stateMutability": "view",
      "type": "function"
    },
    {
      "inputs": [
        {
          "internalType": "address",
          "name": "spender",
          "type": "address"
        },
        {
          "internalType": "uint256",
          "name": "amount",
          "type": "uint256"
        }
      ],
      "name": "approve",
      "outputs": [
        {
          "internalType": "bool",
          "name": "",
          "type": "bool"
        }
      ],
      "stateMutability": "nonpayable",
      "type": "function"
    },
    {
      "inputs": [
        {
          "internalType": "address",
          "name": "account",
          "type": "address"
        }
      ],
      "name": "balanceOf",
      "outputs": [
        {
          "internalType": "uint256",
          "name": "",
          "type": "uint256"
        }
      ],
      "stateMutability": "view",
      "type": "function"
    },
    {
      "inputs": [],
      "name": "decimals",
      "outputs": [
        {
          "internalType": "uint8",
          "name": "",
          "type": "uint8"
        }
      ],
      "stateMutability": "view",
      "type": "function"
    },
    {
      "inputs": [
        {
          "internalType": "address",
          "name": "spender",
          "type": "address"
        },
        {
          "internalType": "uint256",
          "name": "subtractedValue",
          "type": "uint256"
        }
      ],
      "name": "decreaseAllowance",
      "outputs": [
        {
          "internalType": "bool",
          "name": "",
          "type": "bool"
        }
      ],
      "stateMutability": "nonpayable",
      "type": "function"
    },
    {
      "inputs": [
        {
          "internalType": "address",
          "name": "spender",
          "type": "address"
        },
        {
          "internalType": "uint256",
          "name": "addedValue",
          "type": "uint256"
        }
      ],
      "name": "increaseAllowance",
      "outputs": [
        {
          "internalType": "bool",
          "name": "",
          "type": "bool"
        }
      ],
      "stateMutability": "nonpayable",
      "type": "function"
    },
    {
      "inputs": [
        {
          "internalType": "address",
          "name": "account",
          "type": "address"
        }
      ],
      "name": "isAutomaticMarketMaker",
      "outputs": [
        {
          "internalType": "bool",
          "name": "",
          "type": "bool"
        }
      ],
      "stateMutability": "view",
      "type": "function"
    },
    {
      "inputs": [
        {
          "internalType": "address",
          "name": "Account",
          "type": "address"
        }
      ],
      "name": "isExcludedFromFee",
      "outputs": [
        {
          "internalType": "bool",
          "name": "",
          "type": "bool"
        }
      ],
      "stateMutability": "view",
      "type": "function"
    },
    {
      "inputs": [],
      "name": "name",
      "outputs": [
        {
          "internalType": "string",
          "name": "",
          "type": "string"
        }
      ],
      "stateMutability": "view",
      "type": "function"
    },
    {
      "inputs": [],
      "name": "owner",
      "outputs": [
        {
          "internalType": "address",
          "name": "",
          "type": "address"
        }
      ],
      "stateMutability": "view",
      "type": "function"
    },
    {
      "inputs": [],
      "name": "renounceOwnership",
      "outputs": [],
      "stateMutability": "nonpayable",
      "type": "function"
    },
    {
      "inputs": [
        {
          "internalType": "uint256",
          "name": "maxTxPercentage",
          "type": "uint256"
        }
      ],
      "name": "setMaxTxPercentage",
      "outputs": [],
      "stateMutability": "nonpayable",
      "type": "function"
    },
    {
      "inputs": [],
      "name": "swapAndLiquifyEnabled",
      "outputs": [
        {
          "internalType": "bool",
          "name": "",
          "type": "bool"
        }
      ],
      "stateMutability": "view",
      "type": "function"
    },
    {
      "inputs": [],
      "name": "symbol",
      "outputs": [
        {
          "internalType": "string",
          "name": "",
          "type": "string"
        }
      ],
      "stateMutability": "view",
      "type": "function"
    },
    {
      "inputs": [],
      "name": "teamWallet",
      "outputs": [
        {
          "internalType": "address",
          "name": "",
          "type": "address"
        }
      ],
      "stateMutability": "view",
      "type": "function"
    },
    {
      "inputs": [],
      "name": "totalSupply",
      "outputs": [
        {
          "internalType": "uint256",
          "name": "",
          "type": "uint256"
        }
      ],
      "stateMutability": "view",
      "type": "function"
    },
    {
      "inputs": [
        {
          "internalType": "address",
          "name": "recipient",
          "type": "address"
        },
        {
          "internalType": "uint256",
          "name": "amount",
          "type": "uint256"
        }
      ],
      "name": "transfer",
      "outputs": [
        {
          "internalType": "bool",
          "name": "",
          "type": "bool"
        }
      ],
      "stateMutability": "nonpayable",
      "type": "function"
    },
    {
      "inputs": [
        {
          "internalType": "address",
          "name": "from",
          "type": "address"
        },
        {
          "internalType": "address",
          "name": "to",
          "type": "address"
        },
        {
          "internalType": "uint256",
          "name": "value",
          "type": "uint256"
        }
      ],
      "name": "transferFrom",
      "outputs": [
        {
          "internalType": "bool",
          "name": "",
          "type": "bool"
        }
      ],
      "stateMutability": "nonpayable",
      "type": "function"
    },
    {
      "inputs": [
        {
          "internalType": "address",
          "name": "newOwner",
          "type": "address"
        }
      ],
      "name": "transferOwnership",
      "outputs": [],
      "stateMutability": "nonpayable",
      "type": "function"
    },
    {
      "inputs": [],
      "name": "uniswapV2Pair",
      "outputs": [
        {
          "internalType": "address",
          "name": "",
          "type": "address"
        }
      ],
      "stateMutability": "view",
      "type": "function"
    },
    {
      "inputs": [],
      "name": "uniswapV2Router",
      "outputs": [
        {
          "internalType": "contract IUniswapV2Router02",
          "name": "",
          "type": "address"
        }
      ],
      "stateMutability": "view",
      "type": "function"
    },
    {
      "inputs": [
        {
          "internalType": "uint256",
          "name": "liquidityFee",
          "type": "uint256"
        },
        {
          "internalType": "uint256",
          "name": "burnFee",
          "type": "uint256"
        },
        {
          "internalType": "uint256",
          "name": "teamFee",
          "type": "uint256"
        }
      ],
      "name": "updateFees",
      "outputs": [],
      "stateMutability": "nonpayable",
      "type": "function"
    }
  ],
  "bytecode": "0x6080604052600780546001600160a01b03191673793f5293aba3f7de33f3f5f3f9bb688cbc717f251790556032600d55601e600e556014600f556011805460ff60a81b191690556a084595161401484a0000006012553480156200006257600080fd5b50600080546001600160a01b031916339081178255604051909182917f8be0079c531659141344cd1fd0a4f28419497f9722a3daafe3b4186f6b6457e0908290a3506040805180820190915260048082526327a227a760e11b6020909201918252620000d191600a91620005f7565b506040805180820190915260048082526327a227a760e11b6020909201918252620000ff91600b91620005f7565b50600c805460ff191660129081179091556200011d90600a6200072a565b6200012d906301c9c380620007f6565b6008819055506000731b02da8cb0d097eb8d57a175b88c7d8b479975069050806001600160a01b031663c45a01556040518163ffffffff1660e01b815260040160206040518083038186803b1580156200018657600080fd5b505afa1580156200019b573d6000803e3d6000fd5b505050506040513d601f19601f82011682018060405250810190620001c191906200069d565b6001600160a01b031663c9c6539630836001600160a01b031663ad5c46486040518163ffffffff1660e01b815260040160206040518083038186803b1580156200020a57600080fd5b505afa1580156200021f573d6000803e3d6000fd5b505050506040513d601f19601f820116820180604052508101906200024591906200069d565b6040516001600160e01b031960e085901b1681526001600160a01b03928316600482015291166024820152604401602060405180830381600087803b1580156200028e57600080fd5b505af1158015620002a3573d6000803e3d6000fd5b505050506040513d601f19601f82011682018060405250810190620002c991906200069d565b601180546001600160a01b03199081166001600160a01b0393841617909155601080549091169183169190911790553060009081526005602081905260408220805460ff19166001908117909155916200032b6000546001600160a01b031690565b6001600160a01b03908116825260208083019390935260409182016000908120805495151560ff1996871617905560075482168152600584528281208054861660019081179091556011549092168152600690935291208054909216179055620003a0620003963390565b627a1200620003a7565b506200086b565b6000546001600160a01b03163314620004075760405162461bcd60e51b815260206004820181905260248201527f4f776e61626c653a2063616c6c6572206973206e6f7420746865206f776e657260448201526064015b60405180910390fd5b600c546000906200041d9060ff16600a6200072a565b620004299083620007f6565b90506008546200044a826009546200058b60201b62000ecf1790919060201c565b1115620004a55760405162461bcd60e51b815260206004820152602260248201527f596f752063616e2774206d696e74206d6f7265207468616e204d6178537570706044820152616c7960f01b6064820152608401620003fe565b6001600160a01b038316620004fd5760405162461bcd60e51b815260206004820152601f60248201527f42455032303a206d696e7420746f20746865207a65726f2061646472657373006044820152606401620003fe565b8060096000828254620005119190620006c6565b90915550506001600160a01b0383166000908152600360205260408120805483929062000540908490620006c6565b90915550506040518181526001600160a01b038416906000907fddf252ad1be2c89b69c2b068fc378daa952ba7f163c4a11628f55a4df523b3ef9060200160405180910390a3505050565b6000806200059a8385620006c6565b905083811015620005ee5760405162461bcd60e51b815260206004820152601b60248201527f536166654d6174683a206164646974696f6e206f766572666c6f7700000000006044820152606401620003fe565b90505b92915050565b828054620006059062000818565b90600052602060002090601f01602090048101928262000629576000855562000674565b82601f106200064457805160ff191683800117855562000674565b8280016001018555821562000674579182015b828111156200067457825182559160200191906001019062000657565b506200068292915062000686565b5090565b5b8082111562000682576000815560010162000687565b600060208284031215620006af578081fd5b81516001600160a01b0381168114620005ee578182fd5b60008219821115620006dc57620006dc62000855565b500190565b600181815b808511156200072257816000190482111562000706576200070662000855565b808516156200071457918102915b93841c9390800290620006e6565b509250929050565b60006200073b60ff84168362000742565b9392505050565b6000826200075357506001620005f1565b816200076257506000620005f1565b81600181146200077b57600281146200078657620007a6565b6001915050620005f1565b60ff8411156200079a576200079a62000855565b50506001821b620005f1565b5060208310610133831016604e8410600b8410161715620007cb575081810a620005f1565b620007d78383620006e1565b8060001904821115620007ee57620007ee62000855565b029392505050565b600081600019048311821515161562000813576200081362000855565b500290565b600181811c908216806200082d57607f821691505b602082108114156200084f57634e487b7160e01b600052602260045260246000fd5b50919050565b634e487b7160e01b600052601160045260246000fd5b611dea806200087b6000396000f3fe608060405234801561001057600080fd5b50600436106101e55760003560e01c80636bc87c3a1161010f578063a457c2d7116100a2578063c373688211610071578063c373688214610420578063c676af8314610433578063dd62ed3e14610446578063f2fde38b1461047f57600080fd5b8063a457c2d7146103e8578063a9059cbb146103fb578063b36c12841461040e578063c0b0fda21461041757600080fd5b80638da5cb5b116100de5780638da5cb5b146103b357806395d89b41146103c45780639b1f9e74146103cc5780639eb942e5146103df57600080fd5b80636bc87c3a1461037057806370a0823114610379578063715018a6146103a25780637d1db4a5146103aa57600080fd5b8063313ce567116101875780634a74bb02116101565780634a74bb021461030a5780634e6ec2471461031e5780635342acb414610331578063599270441461035d57600080fd5b8063313ce567146102a357806339509351146102b85780633979e9ca146102cb57806349bd5a5e146102f757600080fd5b806318160ddd116101c357806318160ddd14610256578063224290851461026857806323b872dd1461027d57806328141d5b1461029057600080fd5b806306fdde03146101ea578063095ea7b3146102085780631694505e1461022b575b600080fd5b6101f2610492565b6040516101ff9190611ad7565b60405180910390f35b61021b610216366004611a3c565b610524565b60405190151581526020016101ff565b60105461023e906001600160a01b031681565b6040516001600160a01b0390911681526020016101ff565b6009545b6040519081526020016101ff565b61027b610276366004611a7f565b61053b565b005b61021b61028b3660046119cb565b610627565b61027b61029e366004611a67565b610761565b600c5460405160ff90911681526020016101ff565b61021b6102c6366004611a3c565b61084a565b61021b6102d936600461195b565b6001600160a01b031660009081526006602052604090205460ff1690565b60115461023e906001600160a01b031681565b60115461021b90600160a81b900460ff1681565b61027b61032c366004611a3c565b610886565b61021b61033f36600461195b565b6001600160a01b031660009081526005602052604090205460ff1690565b60075461023e906001600160a01b031681565b61025a600d5481565b61025a61038736600461195b565b6001600160a01b031660009081526003602052604090205490565b61027b610a10565b61025a60125481565b6000546001600160a01b031661023e565b6101f2610a84565b61027b6103da366004611a67565b610a93565b61025a600e5481565b61021b6103f6366004611a3c565b610bf1565b61021b610409366004611a3c565b610c82565b61025a60085481565b61025a600f5481565b61027b61042e366004611a0b565b610c8f565b61027b610441366004611a0b565b610d3a565b61025a610454366004611993565b6001600160a01b03918216600090815260046020908152604080832093909416825291909152205490565b61027b61048d36600461195b565b610de5565b6060600a80546104a190611d2b565b80601f01602080910402602001604051908101604052809291908181526020018280546104cd90611d2b565b801561051a5780601f106104ef5761010080835404028352916020019161051a565b820191906000526020600020905b8154815290600101906020018083116104fd57829003601f168201915b5050505050905090565b6000610531338484610f35565b5060015b92915050565b6000546001600160a01b0316331461056e5760405162461bcd60e51b815260040161056590611b2a565b60405180910390fd5b6109c46105858261057f8686610ecf565b90610ecf565b11156105d35760405162461bcd60e51b815260206004820152601f60248201527f596f752063616e27742073657420666565206d6f7265207468616e20323525006044820152606401610565565b600d839055600f829055600e8190557faa4b71ac29531fdea0ef1650c76ef91e3771dac25f4a4dd2a561ff3e0b9a5de26106118261057f8686610ecf565b60405190815260200160405180910390a1505050565b60006001600160a01b03831615158061064957506001600160a01b0383163014155b61065257600080fd5b6001600160a01b038416331461074c576001600160a01b0384166000908152600460209081526040808320338452909152902054600019811461074a57828110156106df5760405162461bcd60e51b815260206004820181905260248201527f42455032303a2072657175657374206578636565647320616c6c6f77616e63656044820152606401610565565b60006106eb8483611d14565b6001600160a01b038716600081815260046020908152604080832033808552908352928190208590555184815293945090927f8c5be1e5ebec7d5bd14f71427d1e84f3dd0314c0f7b2291e5b200ac8c7c3b925910160405180910390a3505b505b610757848484611051565b5060019392505050565b6000546001600160a01b0316331461078b5760405162461bcd60e51b815260040161056590611b2a565b60018110156107ef5760405162461bcd60e51b815260206004820152602a60248201527f50657263656e746167652073686f756c642062652067726561746572206f7220604482015269657175616c20746f203160b01b6064820152608401610565565b61080f6064610809836009546114e090919063ffffffff16565b9061155f565b60128190556040519081527f947f344d56e1e8c70dc492fb94c4ddddd490c016aab685f5e7e47b2e85cb44cf9060200160405180910390a150565b3360008181526004602090815260408083206001600160a01b03871684529091528120549091610531918590610881908690611bcf565b610f35565b6000546001600160a01b031633146108b05760405162461bcd60e51b815260040161056590611b2a565b600c546000906108c49060ff16600a611c4a565b6108ce9083611cf5565b90506008546108e882600954610ecf90919063ffffffff16565b11156109415760405162461bcd60e51b815260206004820152602260248201527f596f752063616e2774206d696e74206d6f7265207468616e204d6178537570706044820152616c7960f01b6064820152608401610565565b6001600160a01b0383166109975760405162461bcd60e51b815260206004820152601f60248201527f42455032303a206d696e7420746f20746865207a65726f2061646472657373006044820152606401610565565b80600960008282546109a99190611bcf565b90915550506001600160a01b038316600090815260036020526040812080548392906109d6908490611bcf565b90915550506040518181526001600160a01b03841690600090600080516020611d95833981519152906020015b60405180910390a3505050565b6000546001600160a01b03163314610a3a5760405162461bcd60e51b815260040161056590611b2a565b600080546040516001600160a01b03909116907f8be0079c531659141344cd1fd0a4f28419497f9722a3daafe3b4186f6b6457e0908390a3600080546001600160a01b0319169055565b6060600b80546104a190611d2b565b600c54600090610aa79060ff16600a611c4a565b610ab19083611cf5565b90503380610b0b5760405162461bcd60e51b815260206004820152602160248201527f42455032303a206275726e2066726f6d20746865207a65726f206164647265736044820152607360f81b6064820152608401610565565b6001600160a01b03811660009081526003602052604090205482811015610b7f5760405162461bcd60e51b815260206004820152602260248201527f42455032303a206275726e20616d6f756e7420657863656564732062616c616e604482015261636560f01b6064820152608401610565565b610b898382611d14565b6001600160a01b03831660009081526003602052604081209190915560098054859290610bb7908490611d14565b90915550506040518381526000906001600160a01b03841690600080516020611d958339815191529060200160405180910390a350505050565b3360009081526004602090815260408083206001600160a01b038616845290915281205482811015610c735760405162461bcd60e51b815260206004820152602560248201527f42455032303a2064656372656173656420616c6c6f77616e63652062656c6f77604482015264207a65726f60d81b6064820152608401610565565b61075733856108818685611d14565b6000610531338484611051565b6000546001600160a01b03163314610cb95760405162461bcd60e51b815260040161056590611b2a565b6001600160a01b038216610d0f5760405162461bcd60e51b815260206004820152601e60248201527f596f752063616e2774206578636c756465207a65726f206164647265737300006044820152606401610565565b6001600160a01b03919091166000908152600560205260409020805460ff1916911515919091179055565b6000546001600160a01b03163314610d645760405162461bcd60e51b815260040161056590611b2a565b6001600160a01b038216610dba5760405162461bcd60e51b815260206004820152601e60248201527f596f752063616e2774206578636c756465207a65726f206164647265737300006044820152606401610565565b6001600160a01b03919091166000908152600660205260409020805460ff1916911515919091179055565b6000546001600160a01b03163314610e0f5760405162461bcd60e51b815260040161056590611b2a565b6001600160a01b038116610e745760405162461bcd60e51b815260206004820152602660248201527f4f776e61626c653a206e6577206f776e657220697320746865207a65726f206160448201526564647265737360d01b6064820152608401610565565b600080546040516001600160a01b03808516939216917f8be0079c531659141344cd1fd0a4f28419497f9722a3daafe3b4186f6b6457e091a3600080546001600160a01b0319166001600160a01b0392909216919091179055565b600080610edc8385611bcf565b905083811015610f2e5760405162461bcd60e51b815260206004820152601b60248201527f536166654d6174683a206164646974696f6e206f766572666c6f7700000000006044820152606401610565565b9392505050565b6001600160a01b038316610f975760405162461bcd60e51b8152602060048201526024808201527f42455032303a20617070726f76652066726f6d20746865207a65726f206164646044820152637265737360e01b6064820152608401610565565b6001600160a01b038216610ff85760405162461bcd60e51b815260206004820152602260248201527f42455032303a20617070726f766520746f20746865207a65726f206164647265604482015261737360f01b6064820152608401610565565b6001600160a01b0383811660008181526004602090815260408083209487168084529482529182902085905590518481527f8c5be1e5ebec7d5bd14f71427d1e84f3dd0314c0f7b2291e5b200ac8c7c3b9259101610a03565b6001600160a01b0383166110b55760405162461bcd60e51b815260206004820152602560248201527f42455032303a207472616e736665722066726f6d20746865207a65726f206164604482015264647265737360d81b6064820152608401610565565b6001600160a01b0382166111175760405162461bcd60e51b815260206004820152602360248201527f42455032303a207472616e7366657220746f20746865207a65726f206164647260448201526265737360e81b6064820152608401610565565b6001600160a01b0383166000908152600660205260408120548190819060ff168061115a57506001600160a01b03851660009081526006602052604090205460ff165b1561125f576001600160a01b03861660009081526005602052604090205460ff168061119e57506001600160a01b03851660009081526005602052604090205460ff165b156111b157506000915081905080611269565b6012548411156112035760405162461bcd60e51b815260206004820152601a60248201527f5472616e73616374696f6e206c696d69742045786365656465640000000000006044820152606401610565565b61121e612710610809600e54876114e090919063ffffffff16565b925061123b612710610809600d54876114e090919063ffffffff16565b9150611258612710610809600f54876114e090919063ffffffff16565b9050611269565b5060009150819050805b306000908152600360205260409020546969e10de76676d08000008110801590819061129f5750601154600160a01b900460ff16155b80156112b957506011546001600160a01b03898116911614155b80156112ce5750601154600160a81b900460ff165b156112e9576969e10de76676d080000091506112e9826115a1565b6001600160a01b038816600090815260036020526040902054868110156113615760405162461bcd60e51b815260206004820152602660248201527f42455032303a207472616e7366657220616d6f756e7420657863656564732062604482015265616c616e636560d01b6064820152608401610565565b61136b8782611d14565b6001600160a01b03808b1660009081526003602052604080822093909355600754909116815290812080548892906113a4908490611bcf565b909155505030600090815260036020526040812080548792906113c8908490611bcf565b9091555050831561141a5783600960008282546113e59190611d14565b90915550506040518481526000906001600160a01b038b1690600080516020611d958339815191529060200160405180910390a35b6114308461142a87818b8b611648565b90611648565b6001600160a01b03891660009081526003602052604081208054909190611458908490611bcf565b90915550508515611497576007546040518781526001600160a01b03918216918b1690600080516020611d958339815191529060200160405180910390a35b6001600160a01b03808916908a16600080516020611d958339815191526114c48761142a8a818e8e611648565b60405190815260200160405180910390a3505050505050505050565b6000826114ef57506000610535565b60006114fb8385611cf5565b9050826115088583611be7565b14610f2e5760405162461bcd60e51b815260206004820152602160248201527f536166654d6174683a206d756c7469706c69636174696f6e206f766572666c6f6044820152607760f81b6064820152608401610565565b6000610f2e83836040518060400160405280601a81526020017f536166654d6174683a206469766973696f6e206279207a65726f00000000000081525061168a565b6011805460ff60a01b1916600160a01b17905560006115c182600261155f565b905060006115cf8383611648565b9050476115db836116c1565b60006115e74783611648565b90506115f38382611846565b60408051858152602081018390529081018490527f17bbfb9a6069321b6ded73bd96327c9e6b7212a5cd51ff219cd61370acafb5619060600160405180910390a150506011805460ff60a01b19169055505050565b6000610f2e83836040518060400160405280601e81526020017f536166654d6174683a207375627472616374696f6e206f766572666c6f77000081525061192a565b600081836116ab5760405162461bcd60e51b81526004016105659190611ad7565b5060006116b88486611be7565b95945050505050565b604080516002808252606082018352600092602083019080368337019050509050308160008151811061170457634e487b7160e01b600052603260045260246000fd5b6001600160a01b03928316602091820292909201810191909152601054604080516315ab88c960e31b81529051919093169263ad5c4648926004808301939192829003018186803b15801561175857600080fd5b505afa15801561176c573d6000803e3d6000fd5b505050506040513d601f19601f820116820180604052508101906117909190611977565b816001815181106117b157634e487b7160e01b600052603260045260246000fd5b6001600160a01b0392831660209182029290920101526010546117d79130911684610f35565b60105460405163791ac94760e01b81526001600160a01b039091169063791ac94790611810908590600090869030904290600401611b5f565b600060405180830381600087803b15801561182a57600080fd5b505af115801561183e573d6000803e3d6000fd5b505050505050565b60105461185e9030906001600160a01b031684610f35565b6010546001600160a01b031663f305d7198230856000806118876000546001600160a01b031690565b60405160e088901b6001600160e01b03191681526001600160a01b03958616600482015260248101949094526044840192909252606483015290911660848201524260a482015260c4016060604051808303818588803b1580156118ea57600080fd5b505af11580156118fe573d6000803e3d6000fd5b50505050506040513d601f19601f820116820180604052508101906119239190611aaa565b5050505050565b6000818484111561194e5760405162461bcd60e51b81526004016105659190611ad7565b5060006116b88486611d14565b60006020828403121561196c578081fd5b8135610f2e81611d7c565b600060208284031215611988578081fd5b8151610f2e81611d7c565b600080604083850312156119a5578081fd5b82356119b081611d7c565b915060208301356119c081611d7c565b809150509250929050565b6000806000606084860312156119df578081fd5b83356119ea81611d7c565b925060208401356119fa81611d7c565b929592945050506040919091013590565b60008060408385031215611a1d578182fd5b8235611a2881611d7c565b9150602083013580151581146119c0578182fd5b60008060408385031215611a4e578182fd5b8235611a5981611d7c565b946020939093013593505050565b600060208284031215611a78578081fd5b5035919050565b600080600060608486031215611a93578283fd5b505081359360208301359350604090920135919050565b600080600060608486031215611abe578283fd5b8351925060208401519150604084015190509250925092565b6000602080835283518082850152825b81811015611b0357858101830151858201604001528201611ae7565b81811115611b145783604083870101525b50601f01601f1916929092016040019392505050565b6020808252818101527f4f776e61626c653a2063616c6c6572206973206e6f7420746865206f776e6572604082015260600190565b600060a082018783526020878185015260a0604085015281875180845260c0860191508289019350845b81811015611bae5784516001600160a01b031683529383019391830191600101611b89565b50506001600160a01b03969096166060850152505050608001529392505050565b60008219821115611be257611be2611d66565b500190565b600082611c0257634e487b7160e01b81526012600452602481fd5b500490565b600181815b80851115611c42578160001904821115611c2857611c28611d66565b80851615611c3557918102915b93841c9390800290611c0c565b509250929050565b6000610f2e60ff841683600082611c6357506001610535565b81611c7057506000610535565b8160018114611c865760028114611c9057611cac565b6001915050610535565b60ff841115611ca157611ca1611d66565b50506001821b610535565b5060208310610133831016604e8410600b8410161715611ccf575081810a610535565b611cd98383611c07565b8060001904821115611ced57611ced611d66565b029392505050565b6000816000190483118215151615611d0f57611d0f611d66565b500290565b600082821015611d2657611d26611d66565b500390565b600181811c90821680611d3f57607f821691505b60208210811415611d6057634e487b7160e01b600052602260045260246000fd5b50919050565b634e487b7160e01b600052601160045260246000fd5b6001600160a01b0381168114611d9157600080fd5b5056feddf252ad1be2c89b69c2b068fc378daa952ba7f163c4a11628f55a4df523b3efa2646970667358221220bbb306438fd58426bab70a434e392e2e8bc289bdb4d2f7cb4c26442e9cc30bd964736f6c63430008040033",
  "linkReferences": {},
  "deployedLinkReferences": {}
}